{
  "_format": "hh-sol-artifact-1",
  "contractName": "TransferHelper",
  "sourceName": "contracts/libs/TransferHelper.sol",
  "abi": [
    {
      "inputs": [
        {
          "internalType": "address",
          "name": "nftaddress",
          "type": "address"
        },
        {
          "internalType": "uint256",
          "name": "tokenId",
          "type": "uint256"
        },
        {
          "internalType": "uint256",
          "name": "_value",
          "type": "uint256"
        }
      ],
      "name": "HelpRoyalties",
      "outputs": [
        {
          "internalType": "address",
          "name": "",
          "type": "address"
        },
        {
          "internalType": "uint256",
          "name": "",
          "type": "uint256"
        }
      ],
      "stateMutability": "view",
      "type": "function"
    }
  ],
  "bytecode": "0x610861610053600b82828239805160001a607314610046577f4e487b7100000000000000000000000000000000000000000000000000000000600052600060045260246000fd5b30600052607381538281f3fe73000000000000000000000000000000000000000030146080604052600436106100355760003560e01c8063f938761c1461003a575b600080fd5b610054600480360381019061004f9190610453565b61006b565b6040516100629291906104c4565b60405180910390f35b6000806000808673ffffffffffffffffffffffffffffffffffffffff16868660405160240161009b9291906104fc565b6040516020818303038152906040527f2a55205a000000000000000000000000000000000000000000000000000000007bffffffffffffffffffffffffffffffffffffffffffffffffffffffff19166020820180517bffffffffffffffffffffffffffffffffffffffffffffffffffffffff83818316178352505050506040516101259190610596565b600060405180830381855afa9150503d8060008114610160576040519150601f19603f3d011682016040523d82523d6000602084013e610165565b606091505b5091509150818015610178575060408151145b1561028157600080828060200190518101906101949190610600565b91509150600073ffffffffffffffffffffffffffffffffffffffff168273ffffffffffffffffffffffffffffffffffffffff16141580156101d55750600081115b8015610207575061020360646101f560328a61029390919063ffffffff16565b61030d90919063ffffffff16565b8111155b1561021b578181955095505050505061028b565b610242606461023460328a61029390919063ffffffff16565b61030d90919063ffffffff16565b81111561027e5781610271606461026360328b61029390919063ffffffff16565b61030d90919063ffffffff16565b955095505050505061028b565b50505b6000809350935050505b935093915050565b60008083036102a55760009050610307565b600082846102b3919061066f565b90508284826102c291906106e0565b14610302576040517f08c379a00000000000000000000000000000000000000000000000000000000081526004016102f990610794565b60405180910390fd5b809150505b92915050565b600061034f83836040518060400160405280601a81526020017f536166654d6174683a206469766973696f6e206279207a65726f000000000000815250610357565b905092915050565b6000808311829061039e576040517f08c379a00000000000000000000000000000000000000000000000000000000081526004016103959190610809565b60405180910390fd5b50600083856103ad91906106e0565b9050809150509392505050565b600080fd5b600073ffffffffffffffffffffffffffffffffffffffff82169050919050565b60006103ea826103bf565b9050919050565b6103fa816103df565b811461040557600080fd5b50565b600081359050610417816103f1565b92915050565b6000819050919050565b6104308161041d565b811461043b57600080fd5b50565b60008135905061044d81610427565b92915050565b60008060006060848603121561046c5761046b6103ba565b5b600061047a86828701610408565b935050602061048b8682870161043e565b925050604061049c8682870161043e565b9150509250925092565b6104af816103df565b82525050565b6104be8161041d565b82525050565b60006040820190506104d960008301856104a6565b6104e660208301846104b5565b9392505050565b6104f68161041d565b82525050565b600060408201905061051160008301856104ed565b61051e60208301846104ed565b9392505050565b600081519050919050565b600081905092915050565b60005b8381101561055957808201518184015260208101905061053e565b60008484015250505050565b600061057082610525565b61057a8185610530565b935061058a81856020860161053b565b80840191505092915050565b60006105a28284610565565b915081905092915050565b60006105b8826103bf565b9050919050565b6105c8816105ad565b81146105d357600080fd5b50565b6000815190506105e5816105bf565b92915050565b6000815190506105fa81610427565b92915050565b60008060408385031215610617576106166103ba565b5b6000610625858286016105d6565b9250506020610636858286016105eb565b9150509250929050565b7f4e487b7100000000000000000000000000000000000000000000000000000000600052601160045260246000fd5b600061067a8261041d565b91506106858361041d565b92508282026106938161041d565b915082820484148315176106aa576106a9610640565b5b5092915050565b7f4e487b7100000000000000000000000000000000000000000000000000000000600052601260045260246000fd5b60006106eb8261041d565b91506106f68361041d565b925082610706576107056106b1565b5b828204905092915050565b600082825260208201905092915050565b7f536166654d6174683a206d756c7469706c69636174696f6e206f766572666c6f60008201527f7700000000000000000000000000000000000000000000000000000000000000602082015250565b600061077e602183610711565b915061078982610722565b604082019050919050565b600060208201905081810360008301526107ad81610771565b9050919050565b600081519050919050565b6000601f19601f8301169050919050565b60006107db826107b4565b6107e58185610711565b93506107f581856020860161053b565b6107fe816107bf565b840191505092915050565b6000602082019050818103600083015261082381846107d0565b90509291505056fea2646970667358221220bfda5ce1b1993afcfae2a706f897ef1d1ab0d1b119f84f870145554289de169564736f6c63430008110033",
  "linkReferences": {},
  "deployedLinkReferences": {}
}