{
  "_format": "hh-sol-artifact-1",
  "contractName": "TransferHelper",
  "sourceName": "contracts/libs/TransferHelper.sol",
  "abi": [
    {
      "inputs": [
        {
          "internalType": "address",
          "name": "nftaddress",
          "type": "address"
        },
        {
          "internalType": "uint256",
          "name": "tokenId",
          "type": "uint256"
        },
        {
          "internalType": "uint256",
          "name": "_value",
          "type": "uint256"
        }
      ],
      "name": "HelpRoyalties",
      "outputs": [
        {
          "internalType": "address",
          "name": "",
          "type": "address"
        },
        {
          "internalType": "uint256",
          "name": "",
          "type": "uint256"
        }
      ],
      "stateMutability": "view",
      "type": "function"
    }
  ],
  "bytecode": "0x610883610053600b82828239805160001a607314610046577f4e487b7100000000000000000000000000000000000000000000000000000000600052600060045260246000fd5b30600052607381538281f3fe73000000000000000000000000000000000000000030146080604052600436106100355760003560e01c8063f938761c1461003a575b600080fd5b610054600480360381019061004f9190610454565b61006b565b6040516100629291906104c5565b60405180910390f35b6000806000808673ffffffffffffffffffffffffffffffffffffffff16868660405160240161009b9291906104fd565b6040516020818303038152906040527f2a55205a000000000000000000000000000000000000000000000000000000007bffffffffffffffffffffffffffffffffffffffffffffffffffffffff19166020820180517bffffffffffffffffffffffffffffffffffffffffffffffffffffffff838183161783525050505060405161012591906105a0565b600060405180830381855afa9150503d8060008114610160576040519150601f19603f3d011682016040523d82523d6000602084013e610165565b606091505b5091509150818015610178575060408151145b156102815760008082806020019051810190610194919061060a565b91509150600073ffffffffffffffffffffffffffffffffffffffff168273ffffffffffffffffffffffffffffffffffffffff16141580156101d55750600081115b8015610207575061020360646101f560328a61029390919063ffffffff16565b61030e90919063ffffffff16565b8111155b1561021b578181955095505050505061028b565b610242606461023460328a61029390919063ffffffff16565b61030e90919063ffffffff16565b81111561027e5781610271606461026360328b61029390919063ffffffff16565b61030e90919063ffffffff16565b955095505050505061028b565b50505b6000809350935050505b935093915050565b6000808314156102a65760009050610308565b600082846102b49190610679565b90508284826102c39190610702565b14610303576040517f08c379a00000000000000000000000000000000000000000000000000000000081526004016102fa906107b6565b60405180910390fd5b809150505b92915050565b600061035083836040518060400160405280601a81526020017f536166654d6174683a206469766973696f6e206279207a65726f000000000000815250610358565b905092915050565b6000808311829061039f576040517f08c379a0000000000000000000000000000000000000000000000000000000008152600401610396919061082b565b60405180910390fd5b50600083856103ae9190610702565b9050809150509392505050565b600080fd5b600073ffffffffffffffffffffffffffffffffffffffff82169050919050565b60006103eb826103c0565b9050919050565b6103fb816103e0565b811461040657600080fd5b50565b600081359050610418816103f2565b92915050565b6000819050919050565b6104318161041e565b811461043c57600080fd5b50565b60008135905061044e81610428565b92915050565b60008060006060848603121561046d5761046c6103bb565b5b600061047b86828701610409565b935050602061048c8682870161043f565b925050604061049d8682870161043f565b9150509250925092565b6104b0816103e0565b82525050565b6104bf8161041e565b82525050565b60006040820190506104da60008301856104a7565b6104e760208301846104b6565b9392505050565b6104f78161041e565b82525050565b600060408201905061051260008301856104ee565b61051f60208301846104ee565b9392505050565b600081519050919050565b600081905092915050565b60005b8381101561055a57808201518184015260208101905061053f565b83811115610569576000848401525b50505050565b600061057a82610526565b6105848185610531565b935061059481856020860161053c565b80840191505092915050565b60006105ac828461056f565b915081905092915050565b60006105c2826103c0565b9050919050565b6105d2816105b7565b81146105dd57600080fd5b50565b6000815190506105ef816105c9565b92915050565b60008151905061060481610428565b92915050565b60008060408385031215610621576106206103bb565b5b600061062f858286016105e0565b9250506020610640858286016105f5565b9150509250929050565b7f4e487b7100000000000000000000000000000000000000000000000000000000600052601160045260246000fd5b60006106848261041e565b915061068f8361041e565b9250817fffffffffffffffffffffffffffffffffffffffffffffffffffffffffffffffff04831182151516156106c8576106c761064a565b5b828202905092915050565b7f4e487b7100000000000000000000000000000000000000000000000000000000600052601260045260246000fd5b600061070d8261041e565b91506107188361041e565b925082610728576107276106d3565b5b828204905092915050565b600082825260208201905092915050565b7f536166654d6174683a206d756c7469706c69636174696f6e206f766572666c6f60008201527f7700000000000000000000000000000000000000000000000000000000000000602082015250565b60006107a0602183610733565b91506107ab82610744565b604082019050919050565b600060208201905081810360008301526107cf81610793565b9050919050565b600081519050919050565b6000601f19601f8301169050919050565b60006107fd826107d6565b6108078185610733565b935061081781856020860161053c565b610820816107e1565b840191505092915050565b6000602082019050818103600083015261084581846107f2565b90509291505056fea264697066735822122097c88a2347f4dc6fe0ba92cf437b329017e050bfd1bf968f973ac1c197c0283764736f6c63430008090033",
  "linkReferences": {},
  "deployedLinkReferences": {}
}