{
  "_format": "hh-sol-artifact-1",
  "contractName": "ButterRouterV1",
  "sourceName": "contracts/ ButterRouter.sol",
  "abi": [
    {
      "inputs": [
        {
          "components": [
            {
              "internalType": "uint256[]",
              "name": "amountInArr",
              "type": "uint256[]"
            },
            {
              "internalType": "bytes[]",
              "name": "paramsArr",
              "type": "bytes[]"
            },
            {
              "internalType": "uint32[]",
              "name": "routerIndex",
              "type": "uint32[]"
            },
            {
              "internalType": "address[2]",
              "name": "inputOutAddre",
              "type": "address[2]"
            },
            {
              "internalType": "uint256",
              "name": "amount",
              "type": "uint256"
            }
          ],
          "internalType": "struct ButterRouterV1.ExchangeData",
          "name": "exchangeData",
          "type": "tuple"
        }
      ],
      "name": "entrance",
      "outputs": [],
      "stateMutability": "payable",
      "type": "function"
    },
    {
      "stateMutability": "payable",
      "type": "receive"
    }
  ],
  "bytecode": "0x608060405234801561001057600080fd5b506117d4806100206000396000f3fe6080604052600436106100225760003560e01c806360e8659f1461002e57610029565b3661002957005b600080fd5b61004860048036038101906100439190610946565b61004a565b005b60008160a0013511610091576040517f08c379a0000000000000000000000000000000000000000000000000000000008152600401610088906109ec565b60405180910390fd5b600073ffffffffffffffffffffffffffffffffffffffff16816060016000600281106100c0576100bf610a0c565b5b6020020160208101906100d39190610a99565b73ffffffffffffffffffffffffffffffffffffffff160361014b578060a001353414610134576040517f08c379a000000000000000000000000000000000000000000000000000000000815260040161012b90610b12565b60405180910390fd5b61014681610141906110f1565b6101d3565b6101d0565b6101848160600160006002811061016557610164610a0c565b5b6020020160208101906101789190610a99565b33308460a00135610535565b6101bd8160600160006002811061019e5761019d610a0c565b5b6020020160208101906101b19190610a99565b33308460a001356105d7565b6101cf816101ca906110f1565b6101d3565b5b50565b600081600001519050600082602001519050600083604001519050600084606001519050600073ffffffffffffffffffffffffffffffffffffffff168160016002811061022357610222610a0c565b5b602002015173ffffffffffffffffffffffffffffffffffffffff16036103225761027e8160006002811061025a57610259610a0c565b5b602002015173b401355440842aab5a4dea8abfc7439d9cb8ab558760800151610710565b73b401355440842aab5a4dea8abfc7439d9cb8ab5573ffffffffffffffffffffffffffffffffffffffff166342b283086040518060800160405280878152602001868152602001858152602001848152506040518263ffffffff1660e01b81526004016102eb91906114dd565b600060405180830381600087803b15801561030557600080fd5b505af1158015610319573d6000803e3d6000fd5b5050505061052e565b600073ffffffffffffffffffffffffffffffffffffffff168160006002811061034e5761034d610a0c565b5b602002015173ffffffffffffffffffffffffffffffffffffffff16036104175773b401355440842aab5a4dea8abfc7439d9cb8ab5573ffffffffffffffffffffffffffffffffffffffff166342b2830886608001516040518060800160405280888152602001878152602001868152602001858152506040518363ffffffff1660e01b81526004016103e091906114dd565b6000604051808303818588803b1580156103f957600080fd5b505af115801561040d573d6000803e3d6000fd5b505050505061052d565b6104528160006002811061042e5761042d610a0c565b5b602002015173b401355440842aab5a4dea8abfc7439d9cb8ab558760800151610710565b61048d8160006002811061046957610468610a0c565b5b602002015173b401355440842aab5a4dea8abfc7439d9cb8ab558760800151610846565b73b401355440842aab5a4dea8abfc7439d9cb8ab5573ffffffffffffffffffffffffffffffffffffffff166342b283086040518060800160405280878152602001868152602001858152602001848152506040518263ffffffff1660e01b81526004016104fa91906114dd565b600060405180830381600087803b15801561051457600080fd5b505af1158015610528573d6000803e3d6000fd5b505050505b5b5050505050565b6105d18484848460405160240161054f949392919061151d565b6040516020818303038152906040527f94250d77000000000000000000000000000000000000000000000000000000007bffffffffffffffffffffffffffffffffffffffffffffffffffffffff19166020820180517bffffffffffffffffffffffffffffffffffffffffffffffffffffffff83818316178352505050506108e5565b50505050565b6000808573ffffffffffffffffffffffffffffffffffffffff166323b872dd86868660405160240161060b93929190611562565b6040516020818303038152906040529060e01b6020820180517bffffffffffffffffffffffffffffffffffffffffffffffffffffffff838183161783525050505060405161065991906115d5565b6000604051808303816000865af19150503d8060008114610696576040519150601f19603f3d011682016040523d82523d6000602084013e61069b565b606091505b50915091508180156106c957506000815114806106c85750808060200190518101906106c79190611624565b5b5b610708576040517f08c379a00000000000000000000000000000000000000000000000000000000081526004016106ff906116c3565b60405180910390fd5b505050505050565b6000808473ffffffffffffffffffffffffffffffffffffffff1663095ea7b385856040516024016107429291906116e3565b6040516020818303038152906040529060e01b6020820180517bffffffffffffffffffffffffffffffffffffffffffffffffffffffff838183161783525050505060405161079091906115d5565b6000604051808303816000865af19150503d80600081146107cd576040519150601f19603f3d011682016040523d82523d6000602084013e6107d2565b606091505b509150915081801561080057506000815114806107ff5750808060200190518101906107fe9190611624565b5b5b61083f576040517f08c379a00000000000000000000000000000000000000000000000000000000081526004016108369061177e565b60405180910390fd5b5050505050565b6108e083838360405160240161085e93929190611562565b6040516020818303038152906040527f17fe6185000000000000000000000000000000000000000000000000000000007bffffffffffffffffffffffffffffffffffffffffffffffffffffffff19166020820180517bffffffffffffffffffffffffffffffffffffffffffffffffffffffff83818316178352505050506108e5565b505050565b60008151905060006a636f6e736f6c652e6c6f679050602083016000808483855afa5050505050565b6000604051905090565b600080fd5b600080fd5b600080fd5b600060c0828403121561093d5761093c610922565b5b81905092915050565b60006020828403121561095c5761095b610918565b5b600082013567ffffffffffffffff81111561097a5761097961091d565b5b61098684828501610927565b91505092915050565b600082825260208201905092915050565b7f53656e64696e672076616c7565206973207a65726f0000000000000000000000600082015250565b60006109d660158361098f565b91506109e1826109a0565b602082019050919050565b60006020820190508181036000830152610a05816109c9565b9050919050565b7f4e487b7100000000000000000000000000000000000000000000000000000000600052603260045260246000fd5b600073ffffffffffffffffffffffffffffffffffffffff82169050919050565b6000610a6682610a3b565b9050919050565b610a7681610a5b565b8114610a8157600080fd5b50565b600081359050610a9381610a6d565b92915050565b600060208284031215610aaf57610aae610918565b5b6000610abd84828501610a84565b91505092915050565b7f4e6f7420656e6f756768206d6f6e657900000000000000000000000000000000600082015250565b6000610afc60108361098f565b9150610b0782610ac6565b602082019050919050565b60006020820190508181036000830152610b2b81610aef565b9050919050565b600080fd5b6000601f19601f8301169050919050565b7f4e487b7100000000000000000000000000000000000000000000000000000000600052604160045260246000fd5b610b8082610b37565b810181811067ffffffffffffffff82111715610b9f57610b9e610b48565b5b80604052505050565b6000610bb261090e565b9050610bbe8282610b77565b919050565b600080fd5b600080fd5b600067ffffffffffffffff821115610be857610be7610b48565b5b602082029050602081019050919050565b600080fd5b6000819050919050565b610c1181610bfe565b8114610c1c57600080fd5b50565b600081359050610c2e81610c08565b92915050565b6000610c47610c4284610bcd565b610ba8565b90508083825260208201905060208402830185811115610c6a57610c69610bf9565b5b835b81811015610c935780610c7f8882610c1f565b845260208401935050602081019050610c6c565b5050509392505050565b600082601f830112610cb257610cb1610bc8565b5b8135610cc2848260208601610c34565b91505092915050565b600067ffffffffffffffff821115610ce657610ce5610b48565b5b602082029050602081019050919050565b600080fd5b600067ffffffffffffffff821115610d1757610d16610b48565b5b610d2082610b37565b9050602081019050919050565b82818337600083830152505050565b6000610d4f610d4a84610cfc565b610ba8565b905082815260208101848484011115610d6b57610d6a610cf7565b5b610d76848285610d2d565b509392505050565b600082601f830112610d9357610d92610bc8565b5b8135610da3848260208601610d3c565b91505092915050565b6000610dbf610dba84610ccb565b610ba8565b90508083825260208201905060208402830185811115610de257610de1610bf9565b5b835b81811015610e2957803567ffffffffffffffff811115610e0757610e06610bc8565b5b808601610e148982610d7e565b85526020850194505050602081019050610de4565b5050509392505050565b600082601f830112610e4857610e47610bc8565b5b8135610e58848260208601610dac565b91505092915050565b600067ffffffffffffffff821115610e7c57610e7b610b48565b5b602082029050602081019050919050565b600063ffffffff82169050919050565b610ea681610e8d565b8114610eb157600080fd5b50565b600081359050610ec381610e9d565b92915050565b6000610edc610ed784610e61565b610ba8565b90508083825260208201905060208402830185811115610eff57610efe610bf9565b5b835b81811015610f285780610f148882610eb4565b845260208401935050602081019050610f01565b5050509392505050565b600082601f830112610f4757610f46610bc8565b5b8135610f57848260208601610ec9565b91505092915050565b600067ffffffffffffffff821115610f7b57610f7a610b48565b5b602082029050919050565b6000610f99610f9484610f60565b610ba8565b90508060208402830185811115610fb357610fb2610bf9565b5b835b81811015610fdc5780610fc88882610a84565b845260208401935050602081019050610fb5565b5050509392505050565b600082601f830112610ffb57610ffa610bc8565b5b6002611008848285610f86565b91505092915050565b600060c0828403121561102757611026610b32565b5b61103160a0610ba8565b9050600082013567ffffffffffffffff81111561105157611050610bc3565b5b61105d84828501610c9d565b600083015250602082013567ffffffffffffffff81111561108157611080610bc3565b5b61108d84828501610e33565b602083015250604082013567ffffffffffffffff8111156110b1576110b0610bc3565b5b6110bd84828501610f32565b60408301525060606110d184828501610fe6565b60608301525060a06110e584828501610c1f565b60808301525092915050565b60006110fd3683611011565b9050919050565b600081519050919050565b600082825260208201905092915050565b6000819050602082019050919050565b61113981610bfe565b82525050565b600061114b8383611130565b60208301905092915050565b6000602082019050919050565b600061116f82611104565b611179818561110f565b935061118483611120565b8060005b838110156111b557815161119c888261113f565b97506111a783611157565b925050600181019050611188565b5085935050505092915050565b600081519050919050565b600082825260208201905092915050565b6000819050602082019050919050565b600081519050919050565b600082825260208201905092915050565b60005b8381101561122857808201518184015260208101905061120d565b60008484015250505050565b600061123f826111ee565b61124981856111f9565b935061125981856020860161120a565b61126281610b37565b840191505092915050565b60006112798383611234565b905092915050565b6000602082019050919050565b6000611299826111c2565b6112a381856111cd565b9350836020820285016112b5856111de565b8060005b858110156112f157848403895281516112d2858261126d565b94506112dd83611281565b925060208a019950506001810190506112b9565b50829750879550505050505092915050565b600081519050919050565b600082825260208201905092915050565b6000819050602082019050919050565b61133881610e8d565b82525050565b600061134a838361132f565b60208301905092915050565b6000602082019050919050565b600061136e82611303565b611378818561130e565b93506113838361131f565b8060005b838110156113b457815161139b888261133e565b97506113a683611356565b925050600181019050611387565b5085935050505092915050565b600060029050919050565b600081905092915050565b6000819050919050565b6113ea81610a5b565b82525050565b60006113fc83836113e1565b60208301905092915050565b6000602082019050919050565b61141e816113c1565b61142881846113cc565b9250611433826113d7565b8060005b8381101561146457815161144b87826113f0565b965061145683611408565b925050600181019050611437565b505050505050565b600060a08301600083015184820360008601526114898282611164565b915050602083015184820360208601526114a3828261128e565b915050604083015184820360408601526114bd8282611363565b91505060608301516114d26060860182611415565b508091505092915050565b600060208201905081810360008301526114f7818461146c565b905092915050565b61150881610a5b565b82525050565b61151781610bfe565b82525050565b600060808201905061153260008301876114ff565b61153f60208301866114ff565b61154c60408301856114ff565b611559606083018461150e565b95945050505050565b600060608201905061157760008301866114ff565b61158460208301856114ff565b611591604083018461150e565b949350505050565b600081905092915050565b60006115af826111ee565b6115b98185611599565b93506115c981856020860161120a565b80840191505092915050565b60006115e182846115a4565b915081905092915050565b60008115159050919050565b611601816115ec565b811461160c57600080fd5b50565b60008151905061161e816115f8565b92915050565b60006020828403121561163a57611639610918565b5b60006116488482850161160f565b91505092915050565b7f5472616e7366657248656c7065723a3a7472616e7366657246726f6d3a20747260008201527f616e7366657246726f6d206661696c6564000000000000000000000000000000602082015250565b60006116ad60318361098f565b91506116b882611651565b604082019050919050565b600060208201905081810360008301526116dc816116a0565b9050919050565b60006040820190506116f860008301856114ff565b611705602083018461150e565b9392505050565b7f5472616e7366657248656c7065723a3a73616665417070726f76653a2061707060008201527f726f7665206661696c6564000000000000000000000000000000000000000000602082015250565b6000611768602b8361098f565b91506117738261170c565b604082019050919050565b600060208201905081810360008301526117978161175b565b905091905056fea264697066735822122063bf1739c9c1d896066f6b03d2f52a2c0a3d777043da258441fe548672a7ddad64736f6c63430008110033",
  "linkReferences": {},
  "deployedLinkReferences": {}
}