{"contracts/ ButterRouter.sol":{"ButterRouterV1":{"abi":[{"inputs":[{"components":[{"internalType":"uint256[]","name":"amountInArr","type":"uint256[]"},{"internalType":"bytes[]","name":"paramsArr","type":"bytes[]"},{"internalType":"uint32[]","name":"routerIndex","type":"uint32[]"},{"internalType":"address[2]","name":"inputOutAddre","type":"address[2]"},{"internalType":"uint256","name":"amount","type":"uint256"}],"internalType":"struct ButterRouterV1.ExchangeData","name":"exchangeData","type":"tuple"}],"name":"entrance","outputs":[],"stateMutability":"payable","type":"function"},{"stateMutability":"payable","type":"receive"}],"evm":{"bytecode":{"linkReferences":{},"object":"608060405234801561001057600080fd5b506116fa806100206000396000f3fe6080604052600436106100225760003560e01c806360e8659f1461002e57610029565b3661002957005b600080fd5b6100486004803603810190610043919061086c565b61004a565b005b60008160a0013511610091576040517f08c379a000000000000000000000000000000000000000000000000000000000815260040161008890610912565b60405180910390fd5b600073ffffffffffffffffffffffffffffffffffffffff16816060016000600281106100c0576100bf610932565b5b6020020160208101906100d391906109bf565b73ffffffffffffffffffffffffffffffffffffffff160361014b578060a001353414610134576040517f08c379a000000000000000000000000000000000000000000000000000000000815260040161012b90610a38565b60405180910390fd5b6101468161014190611017565b6101d3565b6101d0565b6101848160600160006002811061016557610164610932565b5b60200201602081019061017891906109bf565b33308460a001356104fa565b6101bd8160600160006002811061019e5761019d610932565b5b6020020160208101906101b191906109bf565b33308460a0013561059c565b6101cf816101ca90611017565b6101d3565b5b50565b600081600001519050600082602001519050600083604001519050600084606001519050600073ffffffffffffffffffffffffffffffffffffffff168160016002811061022357610222610932565b5b602002015173ffffffffffffffffffffffffffffffffffffffff16036103225761027e8160006002811061025a57610259610932565b5b602002015173b401355440842aab5a4dea8abfc7439d9cb8ab5587608001516106d5565b73b401355440842aab5a4dea8abfc7439d9cb8ab5573ffffffffffffffffffffffffffffffffffffffff166342b283086040518060800160405280878152602001868152602001858152602001848152506040518263ffffffff1660e01b81526004016102eb9190611403565b600060405180830381600087803b15801561030557600080fd5b505af1158015610319573d6000803e3d6000fd5b505050506104f3565b600073ffffffffffffffffffffffffffffffffffffffff168160006002811061034e5761034d610932565b5b602002015173ffffffffffffffffffffffffffffffffffffffff16036104175773b401355440842aab5a4dea8abfc7439d9cb8ab5573ffffffffffffffffffffffffffffffffffffffff166342b2830886608001516040518060800160405280888152602001878152602001868152602001858152506040518363ffffffff1660e01b81526004016103e09190611403565b6000604051808303818588803b1580156103f957600080fd5b505af115801561040d573d6000803e3d6000fd5b50505050506104f2565b6104528160006002811061042e5761042d610932565b5b602002015173b401355440842aab5a4dea8abfc7439d9cb8ab5587608001516106d5565b73b401355440842aab5a4dea8abfc7439d9cb8ab5573ffffffffffffffffffffffffffffffffffffffff166342b283086040518060800160405280878152602001868152602001858152602001848152506040518263ffffffff1660e01b81526004016104bf9190611403565b600060405180830381600087803b1580156104d957600080fd5b505af11580156104ed573d6000803e3d6000fd5b505050505b5b5050505050565b610596848484846040516024016105149493929190611443565b6040516020818303038152906040527f94250d77000000000000000000000000000000000000000000000000000000007bffffffffffffffffffffffffffffffffffffffffffffffffffffffff19166020820180517bffffffffffffffffffffffffffffffffffffffffffffffffffffffff838183161783525050505061080b565b50505050565b6000808573ffffffffffffffffffffffffffffffffffffffff166323b872dd8686866040516024016105d093929190611488565b6040516020818303038152906040529060e01b6020820180517bffffffffffffffffffffffffffffffffffffffffffffffffffffffff838183161783525050505060405161061e91906114fb565b6000604051808303816000865af19150503d806000811461065b576040519150601f19603f3d011682016040523d82523d6000602084013e610660565b606091505b509150915081801561068e575060008151148061068d57508080602001905181019061068c919061154a565b5b5b6106cd576040517f08c379a00000000000000000000000000000000000000000000000000000000081526004016106c4906115e9565b60405180910390fd5b505050505050565b6000808473ffffffffffffffffffffffffffffffffffffffff1663095ea7b38585604051602401610707929190611609565b6040516020818303038152906040529060e01b6020820180517bffffffffffffffffffffffffffffffffffffffffffffffffffffffff838183161783525050505060405161075591906114fb565b6000604051808303816000865af19150503d8060008114610792576040519150601f19603f3d011682016040523d82523d6000602084013e610797565b606091505b50915091508180156107c557506000815114806107c45750808060200190518101906107c3919061154a565b5b5b610804576040517f08c379a00000000000000000000000000000000000000000000000000000000081526004016107fb906116a4565b60405180910390fd5b5050505050565b60008151905060006a636f6e736f6c652e6c6f679050602083016000808483855afa5050505050565b6000604051905090565b600080fd5b600080fd5b600080fd5b600060c0828403121561086357610862610848565b5b81905092915050565b6000602082840312156108825761088161083e565b5b600082013567ffffffffffffffff8111156108a05761089f610843565b5b6108ac8482850161084d565b91505092915050565b600082825260208201905092915050565b7f53656e64696e672076616c7565206973207a65726f0000000000000000000000600082015250565b60006108fc6015836108b5565b9150610907826108c6565b602082019050919050565b6000602082019050818103600083015261092b816108ef565b9050919050565b7f4e487b7100000000000000000000000000000000000000000000000000000000600052603260045260246000fd5b600073ffffffffffffffffffffffffffffffffffffffff82169050919050565b600061098c82610961565b9050919050565b61099c81610981565b81146109a757600080fd5b50565b6000813590506109b981610993565b92915050565b6000602082840312156109d5576109d461083e565b5b60006109e3848285016109aa565b91505092915050565b7f4e6f7420656e6f756768206d6f6e657900000000000000000000000000000000600082015250565b6000610a226010836108b5565b9150610a2d826109ec565b602082019050919050565b60006020820190508181036000830152610a5181610a15565b9050919050565b600080fd5b6000601f19601f8301169050919050565b7f4e487b7100000000000000000000000000000000000000000000000000000000600052604160045260246000fd5b610aa682610a5d565b810181811067ffffffffffffffff82111715610ac557610ac4610a6e565b5b80604052505050565b6000610ad8610834565b9050610ae48282610a9d565b919050565b600080fd5b600080fd5b600067ffffffffffffffff821115610b0e57610b0d610a6e565b5b602082029050602081019050919050565b600080fd5b6000819050919050565b610b3781610b24565b8114610b4257600080fd5b50565b600081359050610b5481610b2e565b92915050565b6000610b6d610b6884610af3565b610ace565b90508083825260208201905060208402830185811115610b9057610b8f610b1f565b5b835b81811015610bb95780610ba58882610b45565b845260208401935050602081019050610b92565b5050509392505050565b600082601f830112610bd857610bd7610aee565b5b8135610be8848260208601610b5a565b91505092915050565b600067ffffffffffffffff821115610c0c57610c0b610a6e565b5b602082029050602081019050919050565b600080fd5b600067ffffffffffffffff821115610c3d57610c3c610a6e565b5b610c4682610a5d565b9050602081019050919050565b82818337600083830152505050565b6000610c75610c7084610c22565b610ace565b905082815260208101848484011115610c9157610c90610c1d565b5b610c9c848285610c53565b509392505050565b600082601f830112610cb957610cb8610aee565b5b8135610cc9848260208601610c62565b91505092915050565b6000610ce5610ce084610bf1565b610ace565b90508083825260208201905060208402830185811115610d0857610d07610b1f565b5b835b81811015610d4f57803567ffffffffffffffff811115610d2d57610d2c610aee565b5b808601610d3a8982610ca4565b85526020850194505050602081019050610d0a565b5050509392505050565b600082601f830112610d6e57610d6d610aee565b5b8135610d7e848260208601610cd2565b91505092915050565b600067ffffffffffffffff821115610da257610da1610a6e565b5b602082029050602081019050919050565b600063ffffffff82169050919050565b610dcc81610db3565b8114610dd757600080fd5b50565b600081359050610de981610dc3565b92915050565b6000610e02610dfd84610d87565b610ace565b90508083825260208201905060208402830185811115610e2557610e24610b1f565b5b835b81811015610e4e5780610e3a8882610dda565b845260208401935050602081019050610e27565b5050509392505050565b600082601f830112610e6d57610e6c610aee565b5b8135610e7d848260208601610def565b91505092915050565b600067ffffffffffffffff821115610ea157610ea0610a6e565b5b602082029050919050565b6000610ebf610eba84610e86565b610ace565b90508060208402830185811115610ed957610ed8610b1f565b5b835b81811015610f025780610eee88826109aa565b845260208401935050602081019050610edb565b5050509392505050565b600082601f830112610f2157610f20610aee565b5b6002610f2e848285610eac565b91505092915050565b600060c08284031215610f4d57610f4c610a58565b5b610f5760a0610ace565b9050600082013567ffffffffffffffff811115610f7757610f76610ae9565b5b610f8384828501610bc3565b600083015250602082013567ffffffffffffffff811115610fa757610fa6610ae9565b5b610fb384828501610d59565b602083015250604082013567ffffffffffffffff811115610fd757610fd6610ae9565b5b610fe384828501610e58565b6040830152506060610ff784828501610f0c565b60608301525060a061100b84828501610b45565b60808301525092915050565b60006110233683610f37565b9050919050565b600081519050919050565b600082825260208201905092915050565b6000819050602082019050919050565b61105f81610b24565b82525050565b60006110718383611056565b60208301905092915050565b6000602082019050919050565b60006110958261102a565b61109f8185611035565b93506110aa83611046565b8060005b838110156110db5781516110c28882611065565b97506110cd8361107d565b9250506001810190506110ae565b5085935050505092915050565b600081519050919050565b600082825260208201905092915050565b6000819050602082019050919050565b600081519050919050565b600082825260208201905092915050565b60005b8381101561114e578082015181840152602081019050611133565b60008484015250505050565b600061116582611114565b61116f818561111f565b935061117f818560208601611130565b61118881610a5d565b840191505092915050565b600061119f838361115a565b905092915050565b6000602082019050919050565b60006111bf826110e8565b6111c981856110f3565b9350836020820285016111db85611104565b8060005b8581101561121757848403895281516111f88582611193565b9450611203836111a7565b925060208a019950506001810190506111df565b50829750879550505050505092915050565b600081519050919050565b600082825260208201905092915050565b6000819050602082019050919050565b61125e81610db3565b82525050565b60006112708383611255565b60208301905092915050565b6000602082019050919050565b600061129482611229565b61129e8185611234565b93506112a983611245565b8060005b838110156112da5781516112c18882611264565b97506112cc8361127c565b9250506001810190506112ad565b5085935050505092915050565b600060029050919050565b600081905092915050565b6000819050919050565b61131081610981565b82525050565b60006113228383611307565b60208301905092915050565b6000602082019050919050565b611344816112e7565b61134e81846112f2565b9250611359826112fd565b8060005b8381101561138a5781516113718782611316565b965061137c8361132e565b92505060018101905061135d565b505050505050565b600060a08301600083015184820360008601526113af828261108a565b915050602083015184820360208601526113c982826111b4565b915050604083015184820360408601526113e38282611289565b91505060608301516113f8606086018261133b565b508091505092915050565b6000602082019050818103600083015261141d8184611392565b905092915050565b61142e81610981565b82525050565b61143d81610b24565b82525050565b60006080820190506114586000830187611425565b6114656020830186611425565b6114726040830185611425565b61147f6060830184611434565b95945050505050565b600060608201905061149d6000830186611425565b6114aa6020830185611425565b6114b76040830184611434565b949350505050565b600081905092915050565b60006114d582611114565b6114df81856114bf565b93506114ef818560208601611130565b80840191505092915050565b600061150782846114ca565b915081905092915050565b60008115159050919050565b61152781611512565b811461153257600080fd5b50565b6000815190506115448161151e565b92915050565b6000602082840312156115605761155f61083e565b5b600061156e84828501611535565b91505092915050565b7f5472616e7366657248656c7065723a3a7472616e7366657246726f6d3a20747260008201527f616e7366657246726f6d206661696c6564000000000000000000000000000000602082015250565b60006115d36031836108b5565b91506115de82611577565b604082019050919050565b60006020820190508181036000830152611602816115c6565b9050919050565b600060408201905061161e6000830185611425565b61162b6020830184611434565b9392505050565b7f5472616e7366657248656c7065723a3a73616665417070726f76653a2061707060008201527f726f7665206661696c6564000000000000000000000000000000000000000000602082015250565b600061168e602b836108b5565b915061169982611632565b604082019050919050565b600060208201905081810360008301526116bd81611681565b905091905056fea26469706673582212206ceb67998378b96eebb397e01bcd41fea11f84829a396cbfdd94a59943076a6f64736f6c63430008110033","opcodes":"PUSH1 0x80 PUSH1 0x40 MSTORE CALLVALUE DUP1 ISZERO PUSH2 0x10 JUMPI PUSH1 0x0 DUP1 REVERT JUMPDEST POP PUSH2 0x16FA DUP1 PUSH2 0x20 PUSH1 0x0 CODECOPY PUSH1 0x0 RETURN INVALID PUSH1 0x80 PUSH1 0x40 MSTORE PUSH1 0x4 CALLDATASIZE LT PUSH2 0x22 JUMPI PUSH1 0x0 CALLDATALOAD PUSH1 0xE0 SHR DUP1 PUSH4 0x60E8659F EQ PUSH2 0x2E JUMPI PUSH2 0x29 JUMP JUMPDEST CALLDATASIZE PUSH2 0x29 JUMPI STOP JUMPDEST PUSH1 0x0 DUP1 REVERT JUMPDEST PUSH2 0x48 PUSH1 0x4 DUP1 CALLDATASIZE SUB DUP2 ADD SWAP1 PUSH2 0x43 SWAP2 SWAP1 PUSH2 0x86C JUMP JUMPDEST PUSH2 0x4A JUMP JUMPDEST STOP JUMPDEST PUSH1 0x0 DUP2 PUSH1 0xA0 ADD CALLDATALOAD GT PUSH2 0x91 JUMPI PUSH1 0x40 MLOAD PUSH32 0x8C379A000000000000000000000000000000000000000000000000000000000 DUP2 MSTORE PUSH1 0x4 ADD PUSH2 0x88 SWAP1 PUSH2 0x912 JUMP JUMPDEST PUSH1 0x40 MLOAD DUP1 SWAP2 SUB SWAP1 REVERT JUMPDEST PUSH1 0x0 PUSH20 0xFFFFFFFFFFFFFFFFFFFFFFFFFFFFFFFFFFFFFFFF AND DUP2 PUSH1 0x60 ADD PUSH1 0x0 PUSH1 0x2 DUP2 LT PUSH2 0xC0 JUMPI PUSH2 0xBF PUSH2 0x932 JUMP JUMPDEST JUMPDEST PUSH1 0x20 MUL ADD PUSH1 0x20 DUP2 ADD SWAP1 PUSH2 0xD3 SWAP2 SWAP1 PUSH2 0x9BF JUMP JUMPDEST PUSH20 0xFFFFFFFFFFFFFFFFFFFFFFFFFFFFFFFFFFFFFFFF AND SUB PUSH2 0x14B JUMPI DUP1 PUSH1 0xA0 ADD CALLDATALOAD CALLVALUE EQ PUSH2 0x134 JUMPI PUSH1 0x40 MLOAD PUSH32 0x8C379A000000000000000000000000000000000000000000000000000000000 DUP2 MSTORE PUSH1 0x4 ADD PUSH2 0x12B SWAP1 PUSH2 0xA38 JUMP JUMPDEST PUSH1 0x40 MLOAD DUP1 SWAP2 SUB SWAP1 REVERT JUMPDEST PUSH2 0x146 DUP2 PUSH2 0x141 SWAP1 PUSH2 0x1017 JUMP JUMPDEST PUSH2 0x1D3 JUMP JUMPDEST PUSH2 0x1D0 JUMP JUMPDEST PUSH2 0x184 DUP2 PUSH1 0x60 ADD PUSH1 0x0 PUSH1 0x2 DUP2 LT PUSH2 0x165 JUMPI PUSH2 0x164 PUSH2 0x932 JUMP JUMPDEST JUMPDEST PUSH1 0x20 MUL ADD PUSH1 0x20 DUP2 ADD SWAP1 PUSH2 0x178 SWAP2 SWAP1 PUSH2 0x9BF JUMP JUMPDEST CALLER ADDRESS DUP5 PUSH1 0xA0 ADD CALLDATALOAD PUSH2 0x4FA JUMP JUMPDEST PUSH2 0x1BD DUP2 PUSH1 0x60 ADD PUSH1 0x0 PUSH1 0x2 DUP2 LT PUSH2 0x19E JUMPI PUSH2 0x19D PUSH2 0x932 JUMP JUMPDEST JUMPDEST PUSH1 0x20 MUL ADD PUSH1 0x20 DUP2 ADD SWAP1 PUSH2 0x1B1 SWAP2 SWAP1 PUSH2 0x9BF JUMP JUMPDEST CALLER ADDRESS DUP5 PUSH1 0xA0 ADD CALLDATALOAD PUSH2 0x59C JUMP JUMPDEST PUSH2 0x1CF DUP2 PUSH2 0x1CA SWAP1 PUSH2 0x1017 JUMP JUMPDEST PUSH2 0x1D3 JUMP JUMPDEST JUMPDEST POP JUMP JUMPDEST PUSH1 0x0 DUP2 PUSH1 0x0 ADD MLOAD SWAP1 POP PUSH1 0x0 DUP3 PUSH1 0x20 ADD MLOAD SWAP1 POP PUSH1 0x0 DUP4 PUSH1 0x40 ADD MLOAD SWAP1 POP PUSH1 0x0 DUP5 PUSH1 0x60 ADD MLOAD SWAP1 POP PUSH1 0x0 PUSH20 0xFFFFFFFFFFFFFFFFFFFFFFFFFFFFFFFFFFFFFFFF AND DUP2 PUSH1 0x1 PUSH1 0x2 DUP2 LT PUSH2 0x223 JUMPI PUSH2 0x222 PUSH2 0x932 JUMP JUMPDEST JUMPDEST PUSH1 0x20 MUL ADD MLOAD PUSH20 0xFFFFFFFFFFFFFFFFFFFFFFFFFFFFFFFFFFFFFFFF AND SUB PUSH2 0x322 JUMPI PUSH2 0x27E DUP2 PUSH1 0x0 PUSH1 0x2 DUP2 LT PUSH2 0x25A JUMPI PUSH2 0x259 PUSH2 0x932 JUMP JUMPDEST JUMPDEST PUSH1 0x20 MUL ADD MLOAD PUSH20 0xB401355440842AAB5A4DEA8ABFC7439D9CB8AB55 DUP8 PUSH1 0x80 ADD MLOAD PUSH2 0x6D5 JUMP JUMPDEST PUSH20 0xB401355440842AAB5A4DEA8ABFC7439D9CB8AB55 PUSH20 0xFFFFFFFFFFFFFFFFFFFFFFFFFFFFFFFFFFFFFFFF AND PUSH4 0x42B28308 PUSH1 0x40 MLOAD DUP1 PUSH1 0x80 ADD PUSH1 0x40 MSTORE DUP1 DUP8 DUP2 MSTORE PUSH1 0x20 ADD DUP7 DUP2 MSTORE PUSH1 0x20 ADD DUP6 DUP2 MSTORE PUSH1 0x20 ADD DUP5 DUP2 MSTORE POP PUSH1 0x40 MLOAD DUP3 PUSH4 0xFFFFFFFF AND PUSH1 0xE0 SHL DUP2 MSTORE PUSH1 0x4 ADD PUSH2 0x2EB SWAP2 SWAP1 PUSH2 0x1403 JUMP JUMPDEST PUSH1 0x0 PUSH1 0x40 MLOAD DUP1 DUP4 SUB DUP2 PUSH1 0x0 DUP8 DUP1 EXTCODESIZE ISZERO DUP1 ISZERO PUSH2 0x305 JUMPI PUSH1 0x0 DUP1 REVERT JUMPDEST POP GAS CALL ISZERO DUP1 ISZERO PUSH2 0x319 JUMPI RETURNDATASIZE PUSH1 0x0 DUP1 RETURNDATACOPY RETURNDATASIZE PUSH1 0x0 REVERT JUMPDEST POP POP POP POP PUSH2 0x4F3 JUMP JUMPDEST PUSH1 0x0 PUSH20 0xFFFFFFFFFFFFFFFFFFFFFFFFFFFFFFFFFFFFFFFF AND DUP2 PUSH1 0x0 PUSH1 0x2 DUP2 LT PUSH2 0x34E JUMPI PUSH2 0x34D PUSH2 0x932 JUMP JUMPDEST JUMPDEST PUSH1 0x20 MUL ADD MLOAD PUSH20 0xFFFFFFFFFFFFFFFFFFFFFFFFFFFFFFFFFFFFFFFF AND SUB PUSH2 0x417 JUMPI PUSH20 0xB401355440842AAB5A4DEA8ABFC7439D9CB8AB55 PUSH20 0xFFFFFFFFFFFFFFFFFFFFFFFFFFFFFFFFFFFFFFFF AND PUSH4 0x42B28308 DUP7 PUSH1 0x80 ADD MLOAD PUSH1 0x40 MLOAD DUP1 PUSH1 0x80 ADD PUSH1 0x40 MSTORE DUP1 DUP9 DUP2 MSTORE PUSH1 0x20 ADD DUP8 DUP2 MSTORE PUSH1 0x20 ADD DUP7 DUP2 MSTORE PUSH1 0x20 ADD DUP6 DUP2 MSTORE POP PUSH1 0x40 MLOAD DUP4 PUSH4 0xFFFFFFFF AND PUSH1 0xE0 SHL DUP2 MSTORE PUSH1 0x4 ADD PUSH2 0x3E0 SWAP2 SWAP1 PUSH2 0x1403 JUMP JUMPDEST PUSH1 0x0 PUSH1 0x40 MLOAD DUP1 DUP4 SUB DUP2 DUP6 DUP9 DUP1 EXTCODESIZE ISZERO DUP1 ISZERO PUSH2 0x3F9 JUMPI PUSH1 0x0 DUP1 REVERT JUMPDEST POP GAS CALL ISZERO DUP1 ISZERO PUSH2 0x40D JUMPI RETURNDATASIZE PUSH1 0x0 DUP1 RETURNDATACOPY RETURNDATASIZE PUSH1 0x0 REVERT JUMPDEST POP POP POP POP POP PUSH2 0x4F2 JUMP JUMPDEST PUSH2 0x452 DUP2 PUSH1 0x0 PUSH1 0x2 DUP2 LT PUSH2 0x42E JUMPI PUSH2 0x42D PUSH2 0x932 JUMP JUMPDEST JUMPDEST PUSH1 0x20 MUL ADD MLOAD PUSH20 0xB401355440842AAB5A4DEA8ABFC7439D9CB8AB55 DUP8 PUSH1 0x80 ADD MLOAD PUSH2 0x6D5 JUMP JUMPDEST PUSH20 0xB401355440842AAB5A4DEA8ABFC7439D9CB8AB55 PUSH20 0xFFFFFFFFFFFFFFFFFFFFFFFFFFFFFFFFFFFFFFFF AND PUSH4 0x42B28308 PUSH1 0x40 MLOAD DUP1 PUSH1 0x80 ADD PUSH1 0x40 MSTORE DUP1 DUP8 DUP2 MSTORE PUSH1 0x20 ADD DUP7 DUP2 MSTORE PUSH1 0x20 ADD DUP6 DUP2 MSTORE PUSH1 0x20 ADD DUP5 DUP2 MSTORE POP PUSH1 0x40 MLOAD DUP3 PUSH4 0xFFFFFFFF AND PUSH1 0xE0 SHL DUP2 MSTORE PUSH1 0x4 ADD PUSH2 0x4BF SWAP2 SWAP1 PUSH2 0x1403 JUMP JUMPDEST PUSH1 0x0 PUSH1 0x40 MLOAD DUP1 DUP4 SUB DUP2 PUSH1 0x0 DUP8 DUP1 EXTCODESIZE ISZERO DUP1 ISZERO PUSH2 0x4D9 JUMPI PUSH1 0x0 DUP1 REVERT JUMPDEST POP GAS CALL ISZERO DUP1 ISZERO PUSH2 0x4ED JUMPI RETURNDATASIZE PUSH1 0x0 DUP1 RETURNDATACOPY RETURNDATASIZE PUSH1 0x0 REVERT JUMPDEST POP POP POP POP JUMPDEST JUMPDEST POP POP POP POP POP JUMP JUMPDEST PUSH2 0x596 DUP5 DUP5 DUP5 DUP5 PUSH1 0x40 MLOAD PUSH1 0x24 ADD PUSH2 0x514 SWAP5 SWAP4 SWAP3 SWAP2 SWAP1 PUSH2 0x1443 JUMP JUMPDEST PUSH1 0x40 MLOAD PUSH1 0x20 DUP2 DUP4 SUB SUB DUP2 MSTORE SWAP1 PUSH1 0x40 MSTORE PUSH32 0x94250D7700000000000000000000000000000000000000000000000000000000 PUSH28 0xFFFFFFFFFFFFFFFFFFFFFFFFFFFFFFFFFFFFFFFFFFFFFFFFFFFFFFFF NOT AND PUSH1 0x20 DUP3 ADD DUP1 MLOAD PUSH28 0xFFFFFFFFFFFFFFFFFFFFFFFFFFFFFFFFFFFFFFFFFFFFFFFFFFFFFFFF DUP4 DUP2 DUP4 AND OR DUP4 MSTORE POP POP POP POP PUSH2 0x80B JUMP JUMPDEST POP POP POP POP JUMP JUMPDEST PUSH1 0x0 DUP1 DUP6 PUSH20 0xFFFFFFFFFFFFFFFFFFFFFFFFFFFFFFFFFFFFFFFF AND PUSH4 0x23B872DD DUP7 DUP7 DUP7 PUSH1 0x40 MLOAD PUSH1 0x24 ADD PUSH2 0x5D0 SWAP4 SWAP3 SWAP2 SWAP1 PUSH2 0x1488 JUMP JUMPDEST PUSH1 0x40 MLOAD PUSH1 0x20 DUP2 DUP4 SUB SUB DUP2 MSTORE SWAP1 PUSH1 0x40 MSTORE SWAP1 PUSH1 0xE0 SHL PUSH1 0x20 DUP3 ADD DUP1 MLOAD PUSH28 0xFFFFFFFFFFFFFFFFFFFFFFFFFFFFFFFFFFFFFFFFFFFFFFFFFFFFFFFF DUP4 DUP2 DUP4 AND OR DUP4 MSTORE POP POP POP POP PUSH1 0x40 MLOAD PUSH2 0x61E SWAP2 SWAP1 PUSH2 0x14FB JUMP JUMPDEST PUSH1 0x0 PUSH1 0x40 MLOAD DUP1 DUP4 SUB DUP2 PUSH1 0x0 DUP7 GAS CALL SWAP2 POP POP RETURNDATASIZE DUP1 PUSH1 0x0 DUP2 EQ PUSH2 0x65B JUMPI PUSH1 0x40 MLOAD SWAP2 POP PUSH1 0x1F NOT PUSH1 0x3F RETURNDATASIZE ADD AND DUP3 ADD PUSH1 0x40 MSTORE RETURNDATASIZE DUP3 MSTORE RETURNDATASIZE PUSH1 0x0 PUSH1 0x20 DUP5 ADD RETURNDATACOPY PUSH2 0x660 JUMP JUMPDEST PUSH1 0x60 SWAP2 POP JUMPDEST POP SWAP2 POP SWAP2 POP DUP2 DUP1 ISZERO PUSH2 0x68E JUMPI POP PUSH1 0x0 DUP2 MLOAD EQ DUP1 PUSH2 0x68D JUMPI POP DUP1 DUP1 PUSH1 0x20 ADD SWAP1 MLOAD DUP2 ADD SWAP1 PUSH2 0x68C SWAP2 SWAP1 PUSH2 0x154A JUMP JUMPDEST JUMPDEST JUMPDEST PUSH2 0x6CD JUMPI PUSH1 0x40 MLOAD PUSH32 0x8C379A000000000000000000000000000000000000000000000000000000000 DUP2 MSTORE PUSH1 0x4 ADD PUSH2 0x6C4 SWAP1 PUSH2 0x15E9 JUMP JUMPDEST PUSH1 0x40 MLOAD DUP1 SWAP2 SUB SWAP1 REVERT JUMPDEST POP POP POP POP POP POP JUMP JUMPDEST PUSH1 0x0 DUP1 DUP5 PUSH20 0xFFFFFFFFFFFFFFFFFFFFFFFFFFFFFFFFFFFFFFFF AND PUSH4 0x95EA7B3 DUP6 DUP6 PUSH1 0x40 MLOAD PUSH1 0x24 ADD PUSH2 0x707 SWAP3 SWAP2 SWAP1 PUSH2 0x1609 JUMP JUMPDEST PUSH1 0x40 MLOAD PUSH1 0x20 DUP2 DUP4 SUB SUB DUP2 MSTORE SWAP1 PUSH1 0x40 MSTORE SWAP1 PUSH1 0xE0 SHL PUSH1 0x20 DUP3 ADD DUP1 MLOAD PUSH28 0xFFFFFFFFFFFFFFFFFFFFFFFFFFFFFFFFFFFFFFFFFFFFFFFFFFFFFFFF DUP4 DUP2 DUP4 AND OR DUP4 MSTORE POP POP POP POP PUSH1 0x40 MLOAD PUSH2 0x755 SWAP2 SWAP1 PUSH2 0x14FB JUMP JUMPDEST PUSH1 0x0 PUSH1 0x40 MLOAD DUP1 DUP4 SUB DUP2 PUSH1 0x0 DUP7 GAS CALL SWAP2 POP POP RETURNDATASIZE DUP1 PUSH1 0x0 DUP2 EQ PUSH2 0x792 JUMPI PUSH1 0x40 MLOAD SWAP2 POP PUSH1 0x1F NOT PUSH1 0x3F RETURNDATASIZE ADD AND DUP3 ADD PUSH1 0x40 MSTORE RETURNDATASIZE DUP3 MSTORE RETURNDATASIZE PUSH1 0x0 PUSH1 0x20 DUP5 ADD RETURNDATACOPY PUSH2 0x797 JUMP JUMPDEST PUSH1 0x60 SWAP2 POP JUMPDEST POP SWAP2 POP SWAP2 POP DUP2 DUP1 ISZERO PUSH2 0x7C5 JUMPI POP PUSH1 0x0 DUP2 MLOAD EQ DUP1 PUSH2 0x7C4 JUMPI POP DUP1 DUP1 PUSH1 0x20 ADD SWAP1 MLOAD DUP2 ADD SWAP1 PUSH2 0x7C3 SWAP2 SWAP1 PUSH2 0x154A JUMP JUMPDEST JUMPDEST JUMPDEST PUSH2 0x804 JUMPI PUSH1 0x40 MLOAD PUSH32 0x8C379A000000000000000000000000000000000000000000000000000000000 DUP2 MSTORE PUSH1 0x4 ADD PUSH2 0x7FB SWAP1 PUSH2 0x16A4 JUMP JUMPDEST PUSH1 0x40 MLOAD DUP1 SWAP2 SUB SWAP1 REVERT JUMPDEST POP POP POP POP POP JUMP JUMPDEST PUSH1 0x0 DUP2 MLOAD SWAP1 POP PUSH1 0x0 PUSH11 0x636F6E736F6C652E6C6F67 SWAP1 POP PUSH1 0x20 DUP4 ADD PUSH1 0x0 DUP1 DUP5 DUP4 DUP6 GAS STATICCALL POP POP POP POP POP JUMP JUMPDEST PUSH1 0x0 PUSH1 0x40 MLOAD SWAP1 POP SWAP1 JUMP JUMPDEST PUSH1 0x0 DUP1 REVERT JUMPDEST PUSH1 0x0 DUP1 REVERT JUMPDEST PUSH1 0x0 DUP1 REVERT JUMPDEST PUSH1 0x0 PUSH1 0xC0 DUP3 DUP5 SUB SLT ISZERO PUSH2 0x863 JUMPI PUSH2 0x862 PUSH2 0x848 JUMP JUMPDEST JUMPDEST DUP2 SWAP1 POP SWAP3 SWAP2 POP POP JUMP JUMPDEST PUSH1 0x0 PUSH1 0x20 DUP3 DUP5 SUB SLT ISZERO PUSH2 0x882 JUMPI PUSH2 0x881 PUSH2 0x83E JUMP JUMPDEST JUMPDEST PUSH1 0x0 DUP3 ADD CALLDATALOAD PUSH8 0xFFFFFFFFFFFFFFFF DUP2 GT ISZERO PUSH2 0x8A0 JUMPI PUSH2 0x89F PUSH2 0x843 JUMP JUMPDEST JUMPDEST PUSH2 0x8AC DUP5 DUP3 DUP6 ADD PUSH2 0x84D JUMP JUMPDEST SWAP2 POP POP SWAP3 SWAP2 POP POP JUMP JUMPDEST PUSH1 0x0 DUP3 DUP3 MSTORE PUSH1 0x20 DUP3 ADD SWAP1 POP SWAP3 SWAP2 POP POP JUMP JUMPDEST PUSH32 0x53656E64696E672076616C7565206973207A65726F0000000000000000000000 PUSH1 0x0 DUP3 ADD MSTORE POP JUMP JUMPDEST PUSH1 0x0 PUSH2 0x8FC PUSH1 0x15 DUP4 PUSH2 0x8B5 JUMP JUMPDEST SWAP2 POP PUSH2 0x907 DUP3 PUSH2 0x8C6 JUMP JUMPDEST PUSH1 0x20 DUP3 ADD SWAP1 POP SWAP2 SWAP1 POP JUMP JUMPDEST PUSH1 0x0 PUSH1 0x20 DUP3 ADD SWAP1 POP DUP2 DUP2 SUB PUSH1 0x0 DUP4 ADD MSTORE PUSH2 0x92B DUP2 PUSH2 0x8EF JUMP JUMPDEST SWAP1 POP SWAP2 SWAP1 POP JUMP JUMPDEST PUSH32 0x4E487B7100000000000000000000000000000000000000000000000000000000 PUSH1 0x0 MSTORE PUSH1 0x32 PUSH1 0x4 MSTORE PUSH1 0x24 PUSH1 0x0 REVERT JUMPDEST PUSH1 0x0 PUSH20 0xFFFFFFFFFFFFFFFFFFFFFFFFFFFFFFFFFFFFFFFF DUP3 AND SWAP1 POP SWAP2 SWAP1 POP JUMP JUMPDEST PUSH1 0x0 PUSH2 0x98C DUP3 PUSH2 0x961 JUMP JUMPDEST SWAP1 POP SWAP2 SWAP1 POP JUMP JUMPDEST PUSH2 0x99C DUP2 PUSH2 0x981 JUMP JUMPDEST DUP2 EQ PUSH2 0x9A7 JUMPI PUSH1 0x0 DUP1 REVERT JUMPDEST POP JUMP JUMPDEST PUSH1 0x0 DUP2 CALLDATALOAD SWAP1 POP PUSH2 0x9B9 DUP2 PUSH2 0x993 JUMP JUMPDEST SWAP3 SWAP2 POP POP JUMP JUMPDEST PUSH1 0x0 PUSH1 0x20 DUP3 DUP5 SUB SLT ISZERO PUSH2 0x9D5 JUMPI PUSH2 0x9D4 PUSH2 0x83E JUMP JUMPDEST JUMPDEST PUSH1 0x0 PUSH2 0x9E3 DUP5 DUP3 DUP6 ADD PUSH2 0x9AA JUMP JUMPDEST SWAP2 POP POP SWAP3 SWAP2 POP POP JUMP JUMPDEST PUSH32 0x4E6F7420656E6F756768206D6F6E657900000000000000000000000000000000 PUSH1 0x0 DUP3 ADD MSTORE POP JUMP JUMPDEST PUSH1 0x0 PUSH2 0xA22 PUSH1 0x10 DUP4 PUSH2 0x8B5 JUMP JUMPDEST SWAP2 POP PUSH2 0xA2D DUP3 PUSH2 0x9EC JUMP JUMPDEST PUSH1 0x20 DUP3 ADD SWAP1 POP SWAP2 SWAP1 POP JUMP JUMPDEST PUSH1 0x0 PUSH1 0x20 DUP3 ADD SWAP1 POP DUP2 DUP2 SUB PUSH1 0x0 DUP4 ADD MSTORE PUSH2 0xA51 DUP2 PUSH2 0xA15 JUMP JUMPDEST SWAP1 POP SWAP2 SWAP1 POP JUMP JUMPDEST PUSH1 0x0 DUP1 REVERT JUMPDEST PUSH1 0x0 PUSH1 0x1F NOT PUSH1 0x1F DUP4 ADD AND SWAP1 POP SWAP2 SWAP1 POP JUMP JUMPDEST PUSH32 0x4E487B7100000000000000000000000000000000000000000000000000000000 PUSH1 0x0 MSTORE PUSH1 0x41 PUSH1 0x4 MSTORE PUSH1 0x24 PUSH1 0x0 REVERT JUMPDEST PUSH2 0xAA6 DUP3 PUSH2 0xA5D JUMP JUMPDEST DUP2 ADD DUP2 DUP2 LT PUSH8 0xFFFFFFFFFFFFFFFF DUP3 GT OR ISZERO PUSH2 0xAC5 JUMPI PUSH2 0xAC4 PUSH2 0xA6E JUMP JUMPDEST JUMPDEST DUP1 PUSH1 0x40 MSTORE POP POP POP JUMP JUMPDEST PUSH1 0x0 PUSH2 0xAD8 PUSH2 0x834 JUMP JUMPDEST SWAP1 POP PUSH2 0xAE4 DUP3 DUP3 PUSH2 0xA9D JUMP JUMPDEST SWAP2 SWAP1 POP JUMP JUMPDEST PUSH1 0x0 DUP1 REVERT JUMPDEST PUSH1 0x0 DUP1 REVERT JUMPDEST PUSH1 0x0 PUSH8 0xFFFFFFFFFFFFFFFF DUP3 GT ISZERO PUSH2 0xB0E JUMPI PUSH2 0xB0D PUSH2 0xA6E JUMP JUMPDEST JUMPDEST PUSH1 0x20 DUP3 MUL SWAP1 POP PUSH1 0x20 DUP2 ADD SWAP1 POP SWAP2 SWAP1 POP JUMP JUMPDEST PUSH1 0x0 DUP1 REVERT JUMPDEST PUSH1 0x0 DUP2 SWAP1 POP SWAP2 SWAP1 POP JUMP JUMPDEST PUSH2 0xB37 DUP2 PUSH2 0xB24 JUMP JUMPDEST DUP2 EQ PUSH2 0xB42 JUMPI PUSH1 0x0 DUP1 REVERT JUMPDEST POP JUMP JUMPDEST PUSH1 0x0 DUP2 CALLDATALOAD SWAP1 POP PUSH2 0xB54 DUP2 PUSH2 0xB2E JUMP JUMPDEST SWAP3 SWAP2 POP POP JUMP JUMPDEST PUSH1 0x0 PUSH2 0xB6D PUSH2 0xB68 DUP5 PUSH2 0xAF3 JUMP JUMPDEST PUSH2 0xACE JUMP JUMPDEST SWAP1 POP DUP1 DUP4 DUP3 MSTORE PUSH1 0x20 DUP3 ADD SWAP1 POP PUSH1 0x20 DUP5 MUL DUP4 ADD DUP6 DUP2 GT ISZERO PUSH2 0xB90 JUMPI PUSH2 0xB8F PUSH2 0xB1F JUMP JUMPDEST JUMPDEST DUP4 JUMPDEST DUP2 DUP2 LT ISZERO PUSH2 0xBB9 JUMPI DUP1 PUSH2 0xBA5 DUP9 DUP3 PUSH2 0xB45 JUMP JUMPDEST DUP5 MSTORE PUSH1 0x20 DUP5 ADD SWAP4 POP POP PUSH1 0x20 DUP2 ADD SWAP1 POP PUSH2 0xB92 JUMP JUMPDEST POP POP POP SWAP4 SWAP3 POP POP POP JUMP JUMPDEST PUSH1 0x0 DUP3 PUSH1 0x1F DUP4 ADD SLT PUSH2 0xBD8 JUMPI PUSH2 0xBD7 PUSH2 0xAEE JUMP JUMPDEST JUMPDEST DUP2 CALLDATALOAD PUSH2 0xBE8 DUP5 DUP3 PUSH1 0x20 DUP7 ADD PUSH2 0xB5A JUMP JUMPDEST SWAP2 POP POP SWAP3 SWAP2 POP POP JUMP JUMPDEST PUSH1 0x0 PUSH8 0xFFFFFFFFFFFFFFFF DUP3 GT ISZERO PUSH2 0xC0C JUMPI PUSH2 0xC0B PUSH2 0xA6E JUMP JUMPDEST JUMPDEST PUSH1 0x20 DUP3 MUL SWAP1 POP PUSH1 0x20 DUP2 ADD SWAP1 POP SWAP2 SWAP1 POP JUMP JUMPDEST PUSH1 0x0 DUP1 REVERT JUMPDEST PUSH1 0x0 PUSH8 0xFFFFFFFFFFFFFFFF DUP3 GT ISZERO PUSH2 0xC3D JUMPI PUSH2 0xC3C PUSH2 0xA6E JUMP JUMPDEST JUMPDEST PUSH2 0xC46 DUP3 PUSH2 0xA5D JUMP JUMPDEST SWAP1 POP PUSH1 0x20 DUP2 ADD SWAP1 POP SWAP2 SWAP1 POP JUMP JUMPDEST DUP3 DUP2 DUP4 CALLDATACOPY PUSH1 0x0 DUP4 DUP4 ADD MSTORE POP POP POP JUMP JUMPDEST PUSH1 0x0 PUSH2 0xC75 PUSH2 0xC70 DUP5 PUSH2 0xC22 JUMP JUMPDEST PUSH2 0xACE JUMP JUMPDEST SWAP1 POP DUP3 DUP2 MSTORE PUSH1 0x20 DUP2 ADD DUP5 DUP5 DUP5 ADD GT ISZERO PUSH2 0xC91 JUMPI PUSH2 0xC90 PUSH2 0xC1D JUMP JUMPDEST JUMPDEST PUSH2 0xC9C DUP5 DUP3 DUP6 PUSH2 0xC53 JUMP JUMPDEST POP SWAP4 SWAP3 POP POP POP JUMP JUMPDEST PUSH1 0x0 DUP3 PUSH1 0x1F DUP4 ADD SLT PUSH2 0xCB9 JUMPI PUSH2 0xCB8 PUSH2 0xAEE JUMP JUMPDEST JUMPDEST DUP2 CALLDATALOAD PUSH2 0xCC9 DUP5 DUP3 PUSH1 0x20 DUP7 ADD PUSH2 0xC62 JUMP JUMPDEST SWAP2 POP POP SWAP3 SWAP2 POP POP JUMP JUMPDEST PUSH1 0x0 PUSH2 0xCE5 PUSH2 0xCE0 DUP5 PUSH2 0xBF1 JUMP JUMPDEST PUSH2 0xACE JUMP JUMPDEST SWAP1 POP DUP1 DUP4 DUP3 MSTORE PUSH1 0x20 DUP3 ADD SWAP1 POP PUSH1 0x20 DUP5 MUL DUP4 ADD DUP6 DUP2 GT ISZERO PUSH2 0xD08 JUMPI PUSH2 0xD07 PUSH2 0xB1F JUMP JUMPDEST JUMPDEST DUP4 JUMPDEST DUP2 DUP2 LT ISZERO PUSH2 0xD4F JUMPI DUP1 CALLDATALOAD PUSH8 0xFFFFFFFFFFFFFFFF DUP2 GT ISZERO PUSH2 0xD2D JUMPI PUSH2 0xD2C PUSH2 0xAEE JUMP JUMPDEST JUMPDEST DUP1 DUP7 ADD PUSH2 0xD3A DUP10 DUP3 PUSH2 0xCA4 JUMP JUMPDEST DUP6 MSTORE PUSH1 0x20 DUP6 ADD SWAP5 POP POP POP PUSH1 0x20 DUP2 ADD SWAP1 POP PUSH2 0xD0A JUMP JUMPDEST POP POP POP SWAP4 SWAP3 POP POP POP JUMP JUMPDEST PUSH1 0x0 DUP3 PUSH1 0x1F DUP4 ADD SLT PUSH2 0xD6E JUMPI PUSH2 0xD6D PUSH2 0xAEE JUMP JUMPDEST JUMPDEST DUP2 CALLDATALOAD PUSH2 0xD7E DUP5 DUP3 PUSH1 0x20 DUP7 ADD PUSH2 0xCD2 JUMP JUMPDEST SWAP2 POP POP SWAP3 SWAP2 POP POP JUMP JUMPDEST PUSH1 0x0 PUSH8 0xFFFFFFFFFFFFFFFF DUP3 GT ISZERO PUSH2 0xDA2 JUMPI PUSH2 0xDA1 PUSH2 0xA6E JUMP JUMPDEST JUMPDEST PUSH1 0x20 DUP3 MUL SWAP1 POP PUSH1 0x20 DUP2 ADD SWAP1 POP SWAP2 SWAP1 POP JUMP JUMPDEST PUSH1 0x0 PUSH4 0xFFFFFFFF DUP3 AND SWAP1 POP SWAP2 SWAP1 POP JUMP JUMPDEST PUSH2 0xDCC DUP2 PUSH2 0xDB3 JUMP JUMPDEST DUP2 EQ PUSH2 0xDD7 JUMPI PUSH1 0x0 DUP1 REVERT JUMPDEST POP JUMP JUMPDEST PUSH1 0x0 DUP2 CALLDATALOAD SWAP1 POP PUSH2 0xDE9 DUP2 PUSH2 0xDC3 JUMP JUMPDEST SWAP3 SWAP2 POP POP JUMP JUMPDEST PUSH1 0x0 PUSH2 0xE02 PUSH2 0xDFD DUP5 PUSH2 0xD87 JUMP JUMPDEST PUSH2 0xACE JUMP JUMPDEST SWAP1 POP DUP1 DUP4 DUP3 MSTORE PUSH1 0x20 DUP3 ADD SWAP1 POP PUSH1 0x20 DUP5 MUL DUP4 ADD DUP6 DUP2 GT ISZERO PUSH2 0xE25 JUMPI PUSH2 0xE24 PUSH2 0xB1F JUMP JUMPDEST JUMPDEST DUP4 JUMPDEST DUP2 DUP2 LT ISZERO PUSH2 0xE4E JUMPI DUP1 PUSH2 0xE3A DUP9 DUP3 PUSH2 0xDDA JUMP JUMPDEST DUP5 MSTORE PUSH1 0x20 DUP5 ADD SWAP4 POP POP PUSH1 0x20 DUP2 ADD SWAP1 POP PUSH2 0xE27 JUMP JUMPDEST POP POP POP SWAP4 SWAP3 POP POP POP JUMP JUMPDEST PUSH1 0x0 DUP3 PUSH1 0x1F DUP4 ADD SLT PUSH2 0xE6D JUMPI PUSH2 0xE6C PUSH2 0xAEE JUMP JUMPDEST JUMPDEST DUP2 CALLDATALOAD PUSH2 0xE7D DUP5 DUP3 PUSH1 0x20 DUP7 ADD PUSH2 0xDEF JUMP JUMPDEST SWAP2 POP POP SWAP3 SWAP2 POP POP JUMP JUMPDEST PUSH1 0x0 PUSH8 0xFFFFFFFFFFFFFFFF DUP3 GT ISZERO PUSH2 0xEA1 JUMPI PUSH2 0xEA0 PUSH2 0xA6E JUMP JUMPDEST JUMPDEST PUSH1 0x20 DUP3 MUL SWAP1 POP SWAP2 SWAP1 POP JUMP JUMPDEST PUSH1 0x0 PUSH2 0xEBF PUSH2 0xEBA DUP5 PUSH2 0xE86 JUMP JUMPDEST PUSH2 0xACE JUMP JUMPDEST SWAP1 POP DUP1 PUSH1 0x20 DUP5 MUL DUP4 ADD DUP6 DUP2 GT ISZERO PUSH2 0xED9 JUMPI PUSH2 0xED8 PUSH2 0xB1F JUMP JUMPDEST JUMPDEST DUP4 JUMPDEST DUP2 DUP2 LT ISZERO PUSH2 0xF02 JUMPI DUP1 PUSH2 0xEEE DUP9 DUP3 PUSH2 0x9AA JUMP JUMPDEST DUP5 MSTORE PUSH1 0x20 DUP5 ADD SWAP4 POP POP PUSH1 0x20 DUP2 ADD SWAP1 POP PUSH2 0xEDB JUMP JUMPDEST POP POP POP SWAP4 SWAP3 POP POP POP JUMP JUMPDEST PUSH1 0x0 DUP3 PUSH1 0x1F DUP4 ADD SLT PUSH2 0xF21 JUMPI PUSH2 0xF20 PUSH2 0xAEE JUMP JUMPDEST JUMPDEST PUSH1 0x2 PUSH2 0xF2E DUP5 DUP3 DUP6 PUSH2 0xEAC JUMP JUMPDEST SWAP2 POP POP SWAP3 SWAP2 POP POP JUMP JUMPDEST PUSH1 0x0 PUSH1 0xC0 DUP3 DUP5 SUB SLT ISZERO PUSH2 0xF4D JUMPI PUSH2 0xF4C PUSH2 0xA58 JUMP JUMPDEST JUMPDEST PUSH2 0xF57 PUSH1 0xA0 PUSH2 0xACE JUMP JUMPDEST SWAP1 POP PUSH1 0x0 DUP3 ADD CALLDATALOAD PUSH8 0xFFFFFFFFFFFFFFFF DUP2 GT ISZERO PUSH2 0xF77 JUMPI PUSH2 0xF76 PUSH2 0xAE9 JUMP JUMPDEST JUMPDEST PUSH2 0xF83 DUP5 DUP3 DUP6 ADD PUSH2 0xBC3 JUMP JUMPDEST PUSH1 0x0 DUP4 ADD MSTORE POP PUSH1 0x20 DUP3 ADD CALLDATALOAD PUSH8 0xFFFFFFFFFFFFFFFF DUP2 GT ISZERO PUSH2 0xFA7 JUMPI PUSH2 0xFA6 PUSH2 0xAE9 JUMP JUMPDEST JUMPDEST PUSH2 0xFB3 DUP5 DUP3 DUP6 ADD PUSH2 0xD59 JUMP JUMPDEST PUSH1 0x20 DUP4 ADD MSTORE POP PUSH1 0x40 DUP3 ADD CALLDATALOAD PUSH8 0xFFFFFFFFFFFFFFFF DUP2 GT ISZERO PUSH2 0xFD7 JUMPI PUSH2 0xFD6 PUSH2 0xAE9 JUMP JUMPDEST JUMPDEST PUSH2 0xFE3 DUP5 DUP3 DUP6 ADD PUSH2 0xE58 JUMP JUMPDEST PUSH1 0x40 DUP4 ADD MSTORE POP PUSH1 0x60 PUSH2 0xFF7 DUP5 DUP3 DUP6 ADD PUSH2 0xF0C JUMP JUMPDEST PUSH1 0x60 DUP4 ADD MSTORE POP PUSH1 0xA0 PUSH2 0x100B DUP5 DUP3 DUP6 ADD PUSH2 0xB45 JUMP JUMPDEST PUSH1 0x80 DUP4 ADD MSTORE POP SWAP3 SWAP2 POP POP JUMP JUMPDEST PUSH1 0x0 PUSH2 0x1023 CALLDATASIZE DUP4 PUSH2 0xF37 JUMP JUMPDEST SWAP1 POP SWAP2 SWAP1 POP JUMP JUMPDEST PUSH1 0x0 DUP2 MLOAD SWAP1 POP SWAP2 SWAP1 POP JUMP JUMPDEST PUSH1 0x0 DUP3 DUP3 MSTORE PUSH1 0x20 DUP3 ADD SWAP1 POP SWAP3 SWAP2 POP POP JUMP JUMPDEST PUSH1 0x0 DUP2 SWAP1 POP PUSH1 0x20 DUP3 ADD SWAP1 POP SWAP2 SWAP1 POP JUMP JUMPDEST PUSH2 0x105F DUP2 PUSH2 0xB24 JUMP JUMPDEST DUP3 MSTORE POP POP JUMP JUMPDEST PUSH1 0x0 PUSH2 0x1071 DUP4 DUP4 PUSH2 0x1056 JUMP JUMPDEST PUSH1 0x20 DUP4 ADD SWAP1 POP SWAP3 SWAP2 POP POP JUMP JUMPDEST PUSH1 0x0 PUSH1 0x20 DUP3 ADD SWAP1 POP SWAP2 SWAP1 POP JUMP JUMPDEST PUSH1 0x0 PUSH2 0x1095 DUP3 PUSH2 0x102A JUMP JUMPDEST PUSH2 0x109F DUP2 DUP6 PUSH2 0x1035 JUMP JUMPDEST SWAP4 POP PUSH2 0x10AA DUP4 PUSH2 0x1046 JUMP JUMPDEST DUP1 PUSH1 0x0 JUMPDEST DUP4 DUP2 LT ISZERO PUSH2 0x10DB JUMPI DUP2 MLOAD PUSH2 0x10C2 DUP9 DUP3 PUSH2 0x1065 JUMP JUMPDEST SWAP8 POP PUSH2 0x10CD DUP4 PUSH2 0x107D JUMP JUMPDEST SWAP3 POP POP PUSH1 0x1 DUP2 ADD SWAP1 POP PUSH2 0x10AE JUMP JUMPDEST POP DUP6 SWAP4 POP POP POP POP SWAP3 SWAP2 POP POP JUMP JUMPDEST PUSH1 0x0 DUP2 MLOAD SWAP1 POP SWAP2 SWAP1 POP JUMP JUMPDEST PUSH1 0x0 DUP3 DUP3 MSTORE PUSH1 0x20 DUP3 ADD SWAP1 POP SWAP3 SWAP2 POP POP JUMP JUMPDEST PUSH1 0x0 DUP2 SWAP1 POP PUSH1 0x20 DUP3 ADD SWAP1 POP SWAP2 SWAP1 POP JUMP JUMPDEST PUSH1 0x0 DUP2 MLOAD SWAP1 POP SWAP2 SWAP1 POP JUMP JUMPDEST PUSH1 0x0 DUP3 DUP3 MSTORE PUSH1 0x20 DUP3 ADD SWAP1 POP SWAP3 SWAP2 POP POP JUMP JUMPDEST PUSH1 0x0 JUMPDEST DUP4 DUP2 LT ISZERO PUSH2 0x114E JUMPI DUP1 DUP3 ADD MLOAD DUP2 DUP5 ADD MSTORE PUSH1 0x20 DUP2 ADD SWAP1 POP PUSH2 0x1133 JUMP JUMPDEST PUSH1 0x0 DUP5 DUP5 ADD MSTORE POP POP POP POP JUMP JUMPDEST PUSH1 0x0 PUSH2 0x1165 DUP3 PUSH2 0x1114 JUMP JUMPDEST PUSH2 0x116F DUP2 DUP6 PUSH2 0x111F JUMP JUMPDEST SWAP4 POP PUSH2 0x117F DUP2 DUP6 PUSH1 0x20 DUP7 ADD PUSH2 0x1130 JUMP JUMPDEST PUSH2 0x1188 DUP2 PUSH2 0xA5D JUMP JUMPDEST DUP5 ADD SWAP2 POP POP SWAP3 SWAP2 POP POP JUMP JUMPDEST PUSH1 0x0 PUSH2 0x119F DUP4 DUP4 PUSH2 0x115A JUMP JUMPDEST SWAP1 POP SWAP3 SWAP2 POP POP JUMP JUMPDEST PUSH1 0x0 PUSH1 0x20 DUP3 ADD SWAP1 POP SWAP2 SWAP1 POP JUMP JUMPDEST PUSH1 0x0 PUSH2 0x11BF DUP3 PUSH2 0x10E8 JUMP JUMPDEST PUSH2 0x11C9 DUP2 DUP6 PUSH2 0x10F3 JUMP JUMPDEST SWAP4 POP DUP4 PUSH1 0x20 DUP3 MUL DUP6 ADD PUSH2 0x11DB DUP6 PUSH2 0x1104 JUMP JUMPDEST DUP1 PUSH1 0x0 JUMPDEST DUP6 DUP2 LT ISZERO PUSH2 0x1217 JUMPI DUP5 DUP5 SUB DUP10 MSTORE DUP2 MLOAD PUSH2 0x11F8 DUP6 DUP3 PUSH2 0x1193 JUMP JUMPDEST SWAP5 POP PUSH2 0x1203 DUP4 PUSH2 0x11A7 JUMP JUMPDEST SWAP3 POP PUSH1 0x20 DUP11 ADD SWAP10 POP POP PUSH1 0x1 DUP2 ADD SWAP1 POP PUSH2 0x11DF JUMP JUMPDEST POP DUP3 SWAP8 POP DUP8 SWAP6 POP POP POP POP POP POP SWAP3 SWAP2 POP POP JUMP JUMPDEST PUSH1 0x0 DUP2 MLOAD SWAP1 POP SWAP2 SWAP1 POP JUMP JUMPDEST PUSH1 0x0 DUP3 DUP3 MSTORE PUSH1 0x20 DUP3 ADD SWAP1 POP SWAP3 SWAP2 POP POP JUMP JUMPDEST PUSH1 0x0 DUP2 SWAP1 POP PUSH1 0x20 DUP3 ADD SWAP1 POP SWAP2 SWAP1 POP JUMP JUMPDEST PUSH2 0x125E DUP2 PUSH2 0xDB3 JUMP JUMPDEST DUP3 MSTORE POP POP JUMP JUMPDEST PUSH1 0x0 PUSH2 0x1270 DUP4 DUP4 PUSH2 0x1255 JUMP JUMPDEST PUSH1 0x20 DUP4 ADD SWAP1 POP SWAP3 SWAP2 POP POP JUMP JUMPDEST PUSH1 0x0 PUSH1 0x20 DUP3 ADD SWAP1 POP SWAP2 SWAP1 POP JUMP JUMPDEST PUSH1 0x0 PUSH2 0x1294 DUP3 PUSH2 0x1229 JUMP JUMPDEST PUSH2 0x129E DUP2 DUP6 PUSH2 0x1234 JUMP JUMPDEST SWAP4 POP PUSH2 0x12A9 DUP4 PUSH2 0x1245 JUMP JUMPDEST DUP1 PUSH1 0x0 JUMPDEST DUP4 DUP2 LT ISZERO PUSH2 0x12DA JUMPI DUP2 MLOAD PUSH2 0x12C1 DUP9 DUP3 PUSH2 0x1264 JUMP JUMPDEST SWAP8 POP PUSH2 0x12CC DUP4 PUSH2 0x127C JUMP JUMPDEST SWAP3 POP POP PUSH1 0x1 DUP2 ADD SWAP1 POP PUSH2 0x12AD JUMP JUMPDEST POP DUP6 SWAP4 POP POP POP POP SWAP3 SWAP2 POP POP JUMP JUMPDEST PUSH1 0x0 PUSH1 0x2 SWAP1 POP SWAP2 SWAP1 POP JUMP JUMPDEST PUSH1 0x0 DUP2 SWAP1 POP SWAP3 SWAP2 POP POP JUMP JUMPDEST PUSH1 0x0 DUP2 SWAP1 POP SWAP2 SWAP1 POP JUMP JUMPDEST PUSH2 0x1310 DUP2 PUSH2 0x981 JUMP JUMPDEST DUP3 MSTORE POP POP JUMP JUMPDEST PUSH1 0x0 PUSH2 0x1322 DUP4 DUP4 PUSH2 0x1307 JUMP JUMPDEST PUSH1 0x20 DUP4 ADD SWAP1 POP SWAP3 SWAP2 POP POP JUMP JUMPDEST PUSH1 0x0 PUSH1 0x20 DUP3 ADD SWAP1 POP SWAP2 SWAP1 POP JUMP JUMPDEST PUSH2 0x1344 DUP2 PUSH2 0x12E7 JUMP JUMPDEST PUSH2 0x134E DUP2 DUP5 PUSH2 0x12F2 JUMP JUMPDEST SWAP3 POP PUSH2 0x1359 DUP3 PUSH2 0x12FD JUMP JUMPDEST DUP1 PUSH1 0x0 JUMPDEST DUP4 DUP2 LT ISZERO PUSH2 0x138A JUMPI DUP2 MLOAD PUSH2 0x1371 DUP8 DUP3 PUSH2 0x1316 JUMP JUMPDEST SWAP7 POP PUSH2 0x137C DUP4 PUSH2 0x132E JUMP JUMPDEST SWAP3 POP POP PUSH1 0x1 DUP2 ADD SWAP1 POP PUSH2 0x135D JUMP JUMPDEST POP POP POP POP POP POP JUMP JUMPDEST PUSH1 0x0 PUSH1 0xA0 DUP4 ADD PUSH1 0x0 DUP4 ADD MLOAD DUP5 DUP3 SUB PUSH1 0x0 DUP7 ADD MSTORE PUSH2 0x13AF DUP3 DUP3 PUSH2 0x108A JUMP JUMPDEST SWAP2 POP POP PUSH1 0x20 DUP4 ADD MLOAD DUP5 DUP3 SUB PUSH1 0x20 DUP7 ADD MSTORE PUSH2 0x13C9 DUP3 DUP3 PUSH2 0x11B4 JUMP JUMPDEST SWAP2 POP POP PUSH1 0x40 DUP4 ADD MLOAD DUP5 DUP3 SUB PUSH1 0x40 DUP7 ADD MSTORE PUSH2 0x13E3 DUP3 DUP3 PUSH2 0x1289 JUMP JUMPDEST SWAP2 POP POP PUSH1 0x60 DUP4 ADD MLOAD PUSH2 0x13F8 PUSH1 0x60 DUP7 ADD DUP3 PUSH2 0x133B JUMP JUMPDEST POP DUP1 SWAP2 POP POP SWAP3 SWAP2 POP POP JUMP JUMPDEST PUSH1 0x0 PUSH1 0x20 DUP3 ADD SWAP1 POP DUP2 DUP2 SUB PUSH1 0x0 DUP4 ADD MSTORE PUSH2 0x141D DUP2 DUP5 PUSH2 0x1392 JUMP JUMPDEST SWAP1 POP SWAP3 SWAP2 POP POP JUMP JUMPDEST PUSH2 0x142E DUP2 PUSH2 0x981 JUMP JUMPDEST DUP3 MSTORE POP POP JUMP JUMPDEST PUSH2 0x143D DUP2 PUSH2 0xB24 JUMP JUMPDEST DUP3 MSTORE POP POP JUMP JUMPDEST PUSH1 0x0 PUSH1 0x80 DUP3 ADD SWAP1 POP PUSH2 0x1458 PUSH1 0x0 DUP4 ADD DUP8 PUSH2 0x1425 JUMP JUMPDEST PUSH2 0x1465 PUSH1 0x20 DUP4 ADD DUP7 PUSH2 0x1425 JUMP JUMPDEST PUSH2 0x1472 PUSH1 0x40 DUP4 ADD DUP6 PUSH2 0x1425 JUMP JUMPDEST PUSH2 0x147F PUSH1 0x60 DUP4 ADD DUP5 PUSH2 0x1434 JUMP JUMPDEST SWAP6 SWAP5 POP POP POP POP POP JUMP JUMPDEST PUSH1 0x0 PUSH1 0x60 DUP3 ADD SWAP1 POP PUSH2 0x149D PUSH1 0x0 DUP4 ADD DUP7 PUSH2 0x1425 JUMP JUMPDEST PUSH2 0x14AA PUSH1 0x20 DUP4 ADD DUP6 PUSH2 0x1425 JUMP JUMPDEST PUSH2 0x14B7 PUSH1 0x40 DUP4 ADD DUP5 PUSH2 0x1434 JUMP JUMPDEST SWAP5 SWAP4 POP POP POP POP JUMP JUMPDEST PUSH1 0x0 DUP2 SWAP1 POP SWAP3 SWAP2 POP POP JUMP JUMPDEST PUSH1 0x0 PUSH2 0x14D5 DUP3 PUSH2 0x1114 JUMP JUMPDEST PUSH2 0x14DF DUP2 DUP6 PUSH2 0x14BF JUMP JUMPDEST SWAP4 POP PUSH2 0x14EF DUP2 DUP6 PUSH1 0x20 DUP7 ADD PUSH2 0x1130 JUMP JUMPDEST DUP1 DUP5 ADD SWAP2 POP POP SWAP3 SWAP2 POP POP JUMP JUMPDEST PUSH1 0x0 PUSH2 0x1507 DUP3 DUP5 PUSH2 0x14CA JUMP JUMPDEST SWAP2 POP DUP2 SWAP1 POP SWAP3 SWAP2 POP POP JUMP JUMPDEST PUSH1 0x0 DUP2 ISZERO ISZERO SWAP1 POP SWAP2 SWAP1 POP JUMP JUMPDEST PUSH2 0x1527 DUP2 PUSH2 0x1512 JUMP JUMPDEST DUP2 EQ PUSH2 0x1532 JUMPI PUSH1 0x0 DUP1 REVERT JUMPDEST POP JUMP JUMPDEST PUSH1 0x0 DUP2 MLOAD SWAP1 POP PUSH2 0x1544 DUP2 PUSH2 0x151E JUMP JUMPDEST SWAP3 SWAP2 POP POP JUMP JUMPDEST PUSH1 0x0 PUSH1 0x20 DUP3 DUP5 SUB SLT ISZERO PUSH2 0x1560 JUMPI PUSH2 0x155F PUSH2 0x83E JUMP JUMPDEST JUMPDEST PUSH1 0x0 PUSH2 0x156E DUP5 DUP3 DUP6 ADD PUSH2 0x1535 JUMP JUMPDEST SWAP2 POP POP SWAP3 SWAP2 POP POP JUMP JUMPDEST PUSH32 0x5472616E7366657248656C7065723A3A7472616E7366657246726F6D3A207472 PUSH1 0x0 DUP3 ADD MSTORE PUSH32 0x616E7366657246726F6D206661696C6564000000000000000000000000000000 PUSH1 0x20 DUP3 ADD MSTORE POP JUMP JUMPDEST PUSH1 0x0 PUSH2 0x15D3 PUSH1 0x31 DUP4 PUSH2 0x8B5 JUMP JUMPDEST SWAP2 POP PUSH2 0x15DE DUP3 PUSH2 0x1577 JUMP JUMPDEST PUSH1 0x40 DUP3 ADD SWAP1 POP SWAP2 SWAP1 POP JUMP JUMPDEST PUSH1 0x0 PUSH1 0x20 DUP3 ADD SWAP1 POP DUP2 DUP2 SUB PUSH1 0x0 DUP4 ADD MSTORE PUSH2 0x1602 DUP2 PUSH2 0x15C6 JUMP JUMPDEST SWAP1 POP SWAP2 SWAP1 POP JUMP JUMPDEST PUSH1 0x0 PUSH1 0x40 DUP3 ADD SWAP1 POP PUSH2 0x161E PUSH1 0x0 DUP4 ADD DUP6 PUSH2 0x1425 JUMP JUMPDEST PUSH2 0x162B PUSH1 0x20 DUP4 ADD DUP5 PUSH2 0x1434 JUMP JUMPDEST SWAP4 SWAP3 POP POP POP JUMP JUMPDEST PUSH32 0x5472616E7366657248656C7065723A3A73616665417070726F76653A20617070 PUSH1 0x0 DUP3 ADD MSTORE PUSH32 0x726F7665206661696C6564000000000000000000000000000000000000000000 PUSH1 0x20 DUP3 ADD MSTORE POP JUMP JUMPDEST PUSH1 0x0 PUSH2 0x168E PUSH1 0x2B DUP4 PUSH2 0x8B5 JUMP JUMPDEST SWAP2 POP PUSH2 0x1699 DUP3 PUSH2 0x1632 JUMP JUMPDEST PUSH1 0x40 DUP3 ADD SWAP1 POP SWAP2 SWAP1 POP JUMP JUMPDEST PUSH1 0x0 PUSH1 0x20 DUP3 ADD SWAP1 POP DUP2 DUP2 SUB PUSH1 0x0 DUP4 ADD MSTORE PUSH2 0x16BD DUP2 PUSH2 0x1681 JUMP JUMPDEST SWAP1 POP SWAP2 SWAP1 POP JUMP INVALID LOG2 PUSH5 0x6970667358 0x22 SLT KECCAK256 PUSH13 0xEB67998378B96EEBB397E01BCD COINBASE INVALID LOG1 0x1F DUP5 DUP3 SWAP11 CODECOPY PUSH13 0xBFDD94A59943076A6F64736F6C PUSH4 0x43000811 STOP CALLER "},"methodIdentifiers":{"entrance((uint256[],bytes[],uint32[],address[2],uint256))":"60e8659f"}}}}}