{"contracts/libs/TransferHelper.sol":{"TransferHelper":{"abi":[{"inputs":[{"internalType":"address","name":"nftaddress","type":"address"},{"internalType":"uint256","name":"tokenId","type":"uint256"},{"internalType":"uint256","name":"_value","type":"uint256"}],"name":"HelpRoyalties","outputs":[{"internalType":"address","name":"","type":"address"},{"internalType":"uint256","name":"","type":"uint256"}],"stateMutability":"view","type":"function"}],"evm":{"bytecode":{"linkReferences":{},"object":"610861610053600b82828239805160001a607314610046577f4e487b7100000000000000000000000000000000000000000000000000000000600052600060045260246000fd5b30600052607381538281f3fe73000000000000000000000000000000000000000030146080604052600436106100355760003560e01c8063f938761c1461003a575b600080fd5b610054600480360381019061004f9190610453565b61006b565b6040516100629291906104c4565b60405180910390f35b6000806000808673ffffffffffffffffffffffffffffffffffffffff16868660405160240161009b9291906104fc565b6040516020818303038152906040527f2a55205a000000000000000000000000000000000000000000000000000000007bffffffffffffffffffffffffffffffffffffffffffffffffffffffff19166020820180517bffffffffffffffffffffffffffffffffffffffffffffffffffffffff83818316178352505050506040516101259190610596565b600060405180830381855afa9150503d8060008114610160576040519150601f19603f3d011682016040523d82523d6000602084013e610165565b606091505b5091509150818015610178575060408151145b1561028157600080828060200190518101906101949190610600565b91509150600073ffffffffffffffffffffffffffffffffffffffff168273ffffffffffffffffffffffffffffffffffffffff16141580156101d55750600081115b8015610207575061020360646101f560328a61029390919063ffffffff16565b61030d90919063ffffffff16565b8111155b1561021b578181955095505050505061028b565b610242606461023460328a61029390919063ffffffff16565b61030d90919063ffffffff16565b81111561027e5781610271606461026360328b61029390919063ffffffff16565b61030d90919063ffffffff16565b955095505050505061028b565b50505b6000809350935050505b935093915050565b60008083036102a55760009050610307565b600082846102b3919061066f565b90508284826102c291906106e0565b14610302576040517f08c379a00000000000000000000000000000000000000000000000000000000081526004016102f990610794565b60405180910390fd5b809150505b92915050565b600061034f83836040518060400160405280601a81526020017f536166654d6174683a206469766973696f6e206279207a65726f000000000000815250610357565b905092915050565b6000808311829061039e576040517f08c379a00000000000000000000000000000000000000000000000000000000081526004016103959190610809565b60405180910390fd5b50600083856103ad91906106e0565b9050809150509392505050565b600080fd5b600073ffffffffffffffffffffffffffffffffffffffff82169050919050565b60006103ea826103bf565b9050919050565b6103fa816103df565b811461040557600080fd5b50565b600081359050610417816103f1565b92915050565b6000819050919050565b6104308161041d565b811461043b57600080fd5b50565b60008135905061044d81610427565b92915050565b60008060006060848603121561046c5761046b6103ba565b5b600061047a86828701610408565b935050602061048b8682870161043e565b925050604061049c8682870161043e565b9150509250925092565b6104af816103df565b82525050565b6104be8161041d565b82525050565b60006040820190506104d960008301856104a6565b6104e660208301846104b5565b9392505050565b6104f68161041d565b82525050565b600060408201905061051160008301856104ed565b61051e60208301846104ed565b9392505050565b600081519050919050565b600081905092915050565b60005b8381101561055957808201518184015260208101905061053e565b60008484015250505050565b600061057082610525565b61057a8185610530565b935061058a81856020860161053b565b80840191505092915050565b60006105a28284610565565b915081905092915050565b60006105b8826103bf565b9050919050565b6105c8816105ad565b81146105d357600080fd5b50565b6000815190506105e5816105bf565b92915050565b6000815190506105fa81610427565b92915050565b60008060408385031215610617576106166103ba565b5b6000610625858286016105d6565b9250506020610636858286016105eb565b9150509250929050565b7f4e487b7100000000000000000000000000000000000000000000000000000000600052601160045260246000fd5b600061067a8261041d565b91506106858361041d565b92508282026106938161041d565b915082820484148315176106aa576106a9610640565b5b5092915050565b7f4e487b7100000000000000000000000000000000000000000000000000000000600052601260045260246000fd5b60006106eb8261041d565b91506106f68361041d565b925082610706576107056106b1565b5b828204905092915050565b600082825260208201905092915050565b7f536166654d6174683a206d756c7469706c69636174696f6e206f766572666c6f60008201527f7700000000000000000000000000000000000000000000000000000000000000602082015250565b600061077e602183610711565b915061078982610722565b604082019050919050565b600060208201905081810360008301526107ad81610771565b9050919050565b600081519050919050565b6000601f19601f8301169050919050565b60006107db826107b4565b6107e58185610711565b93506107f581856020860161053b565b6107fe816107bf565b840191505092915050565b6000602082019050818103600083015261082381846107d0565b90509291505056fea2646970667358221220bfda5ce1b1993afcfae2a706f897ef1d1ab0d1b119f84f870145554289de169564736f6c63430008110033","opcodes":"PUSH2 0x861 PUSH2 0x53 PUSH1 0xB DUP3 DUP3 DUP3 CODECOPY DUP1 MLOAD PUSH1 0x0 BYTE PUSH1 0x73 EQ PUSH2 0x46 JUMPI PUSH32 0x4E487B7100000000000000000000000000000000000000000000000000000000 PUSH1 0x0 MSTORE PUSH1 0x0 PUSH1 0x4 MSTORE PUSH1 0x24 PUSH1 0x0 REVERT JUMPDEST ADDRESS PUSH1 0x0 MSTORE PUSH1 0x73 DUP2 MSTORE8 DUP3 DUP2 RETURN INVALID PUSH20 0x0 ADDRESS EQ PUSH1 0x80 PUSH1 0x40 MSTORE PUSH1 0x4 CALLDATASIZE LT PUSH2 0x35 JUMPI PUSH1 0x0 CALLDATALOAD PUSH1 0xE0 SHR DUP1 PUSH4 0xF938761C EQ PUSH2 0x3A JUMPI JUMPDEST PUSH1 0x0 DUP1 REVERT JUMPDEST PUSH2 0x54 PUSH1 0x4 DUP1 CALLDATASIZE SUB DUP2 ADD SWAP1 PUSH2 0x4F SWAP2 SWAP1 PUSH2 0x453 JUMP JUMPDEST PUSH2 0x6B JUMP JUMPDEST PUSH1 0x40 MLOAD PUSH2 0x62 SWAP3 SWAP2 SWAP1 PUSH2 0x4C4 JUMP JUMPDEST PUSH1 0x40 MLOAD DUP1 SWAP2 SUB SWAP1 RETURN JUMPDEST PUSH1 0x0 DUP1 PUSH1 0x0 DUP1 DUP7 PUSH20 0xFFFFFFFFFFFFFFFFFFFFFFFFFFFFFFFFFFFFFFFF AND DUP7 DUP7 PUSH1 0x40 MLOAD PUSH1 0x24 ADD PUSH2 0x9B SWAP3 SWAP2 SWAP1 PUSH2 0x4FC JUMP JUMPDEST PUSH1 0x40 MLOAD PUSH1 0x20 DUP2 DUP4 SUB SUB DUP2 MSTORE SWAP1 PUSH1 0x40 MSTORE PUSH32 0x2A55205A00000000000000000000000000000000000000000000000000000000 PUSH28 0xFFFFFFFFFFFFFFFFFFFFFFFFFFFFFFFFFFFFFFFFFFFFFFFFFFFFFFFF NOT AND PUSH1 0x20 DUP3 ADD DUP1 MLOAD PUSH28 0xFFFFFFFFFFFFFFFFFFFFFFFFFFFFFFFFFFFFFFFFFFFFFFFFFFFFFFFF DUP4 DUP2 DUP4 AND OR DUP4 MSTORE POP POP POP POP PUSH1 0x40 MLOAD PUSH2 0x125 SWAP2 SWAP1 PUSH2 0x596 JUMP JUMPDEST PUSH1 0x0 PUSH1 0x40 MLOAD DUP1 DUP4 SUB DUP2 DUP6 GAS STATICCALL SWAP2 POP POP RETURNDATASIZE DUP1 PUSH1 0x0 DUP2 EQ PUSH2 0x160 JUMPI PUSH1 0x40 MLOAD SWAP2 POP PUSH1 0x1F NOT PUSH1 0x3F RETURNDATASIZE ADD AND DUP3 ADD PUSH1 0x40 MSTORE RETURNDATASIZE DUP3 MSTORE RETURNDATASIZE PUSH1 0x0 PUSH1 0x20 DUP5 ADD RETURNDATACOPY PUSH2 0x165 JUMP JUMPDEST PUSH1 0x60 SWAP2 POP JUMPDEST POP SWAP2 POP SWAP2 POP DUP2 DUP1 ISZERO PUSH2 0x178 JUMPI POP PUSH1 0x40 DUP2 MLOAD EQ JUMPDEST ISZERO PUSH2 0x281 JUMPI PUSH1 0x0 DUP1 DUP3 DUP1 PUSH1 0x20 ADD SWAP1 MLOAD DUP2 ADD SWAP1 PUSH2 0x194 SWAP2 SWAP1 PUSH2 0x600 JUMP JUMPDEST SWAP2 POP SWAP2 POP PUSH1 0x0 PUSH20 0xFFFFFFFFFFFFFFFFFFFFFFFFFFFFFFFFFFFFFFFF AND DUP3 PUSH20 0xFFFFFFFFFFFFFFFFFFFFFFFFFFFFFFFFFFFFFFFF AND EQ ISZERO DUP1 ISZERO PUSH2 0x1D5 JUMPI POP PUSH1 0x0 DUP2 GT JUMPDEST DUP1 ISZERO PUSH2 0x207 JUMPI POP PUSH2 0x203 PUSH1 0x64 PUSH2 0x1F5 PUSH1 0x32 DUP11 PUSH2 0x293 SWAP1 SWAP2 SWAP1 PUSH4 0xFFFFFFFF AND JUMP JUMPDEST PUSH2 0x30D SWAP1 SWAP2 SWAP1 PUSH4 0xFFFFFFFF AND JUMP JUMPDEST DUP2 GT ISZERO JUMPDEST ISZERO PUSH2 0x21B JUMPI DUP2 DUP2 SWAP6 POP SWAP6 POP POP POP POP POP PUSH2 0x28B JUMP JUMPDEST PUSH2 0x242 PUSH1 0x64 PUSH2 0x234 PUSH1 0x32 DUP11 PUSH2 0x293 SWAP1 SWAP2 SWAP1 PUSH4 0xFFFFFFFF AND JUMP JUMPDEST PUSH2 0x30D SWAP1 SWAP2 SWAP1 PUSH4 0xFFFFFFFF AND JUMP JUMPDEST DUP2 GT ISZERO PUSH2 0x27E JUMPI DUP2 PUSH2 0x271 PUSH1 0x64 PUSH2 0x263 PUSH1 0x32 DUP12 PUSH2 0x293 SWAP1 SWAP2 SWAP1 PUSH4 0xFFFFFFFF AND JUMP JUMPDEST PUSH2 0x30D SWAP1 SWAP2 SWAP1 PUSH4 0xFFFFFFFF AND JUMP JUMPDEST SWAP6 POP SWAP6 POP POP POP POP POP PUSH2 0x28B JUMP JUMPDEST POP POP JUMPDEST PUSH1 0x0 DUP1 SWAP4 POP SWAP4 POP POP POP JUMPDEST SWAP4 POP SWAP4 SWAP2 POP POP JUMP JUMPDEST PUSH1 0x0 DUP1 DUP4 SUB PUSH2 0x2A5 JUMPI PUSH1 0x0 SWAP1 POP PUSH2 0x307 JUMP JUMPDEST PUSH1 0x0 DUP3 DUP5 PUSH2 0x2B3 SWAP2 SWAP1 PUSH2 0x66F JUMP JUMPDEST SWAP1 POP DUP3 DUP5 DUP3 PUSH2 0x2C2 SWAP2 SWAP1 PUSH2 0x6E0 JUMP JUMPDEST EQ PUSH2 0x302 JUMPI PUSH1 0x40 MLOAD PUSH32 0x8C379A000000000000000000000000000000000000000000000000000000000 DUP2 MSTORE PUSH1 0x4 ADD PUSH2 0x2F9 SWAP1 PUSH2 0x794 JUMP JUMPDEST PUSH1 0x40 MLOAD DUP1 SWAP2 SUB SWAP1 REVERT JUMPDEST DUP1 SWAP2 POP POP JUMPDEST SWAP3 SWAP2 POP POP JUMP JUMPDEST PUSH1 0x0 PUSH2 0x34F DUP4 DUP4 PUSH1 0x40 MLOAD DUP1 PUSH1 0x40 ADD PUSH1 0x40 MSTORE DUP1 PUSH1 0x1A DUP2 MSTORE PUSH1 0x20 ADD PUSH32 0x536166654D6174683A206469766973696F6E206279207A65726F000000000000 DUP2 MSTORE POP PUSH2 0x357 JUMP JUMPDEST SWAP1 POP SWAP3 SWAP2 POP POP JUMP JUMPDEST PUSH1 0x0 DUP1 DUP4 GT DUP3 SWAP1 PUSH2 0x39E JUMPI PUSH1 0x40 MLOAD PUSH32 0x8C379A000000000000000000000000000000000000000000000000000000000 DUP2 MSTORE PUSH1 0x4 ADD PUSH2 0x395 SWAP2 SWAP1 PUSH2 0x809 JUMP JUMPDEST PUSH1 0x40 MLOAD DUP1 SWAP2 SUB SWAP1 REVERT JUMPDEST POP PUSH1 0x0 DUP4 DUP6 PUSH2 0x3AD SWAP2 SWAP1 PUSH2 0x6E0 JUMP JUMPDEST SWAP1 POP DUP1 SWAP2 POP POP SWAP4 SWAP3 POP POP POP JUMP JUMPDEST PUSH1 0x0 DUP1 REVERT JUMPDEST PUSH1 0x0 PUSH20 0xFFFFFFFFFFFFFFFFFFFFFFFFFFFFFFFFFFFFFFFF DUP3 AND SWAP1 POP SWAP2 SWAP1 POP JUMP JUMPDEST PUSH1 0x0 PUSH2 0x3EA DUP3 PUSH2 0x3BF JUMP JUMPDEST SWAP1 POP SWAP2 SWAP1 POP JUMP JUMPDEST PUSH2 0x3FA DUP2 PUSH2 0x3DF JUMP JUMPDEST DUP2 EQ PUSH2 0x405 JUMPI PUSH1 0x0 DUP1 REVERT JUMPDEST POP JUMP JUMPDEST PUSH1 0x0 DUP2 CALLDATALOAD SWAP1 POP PUSH2 0x417 DUP2 PUSH2 0x3F1 JUMP JUMPDEST SWAP3 SWAP2 POP POP JUMP JUMPDEST PUSH1 0x0 DUP2 SWAP1 POP SWAP2 SWAP1 POP JUMP JUMPDEST PUSH2 0x430 DUP2 PUSH2 0x41D JUMP JUMPDEST DUP2 EQ PUSH2 0x43B JUMPI PUSH1 0x0 DUP1 REVERT JUMPDEST POP JUMP JUMPDEST PUSH1 0x0 DUP2 CALLDATALOAD SWAP1 POP PUSH2 0x44D DUP2 PUSH2 0x427 JUMP JUMPDEST SWAP3 SWAP2 POP POP JUMP JUMPDEST PUSH1 0x0 DUP1 PUSH1 0x0 PUSH1 0x60 DUP5 DUP7 SUB SLT ISZERO PUSH2 0x46C JUMPI PUSH2 0x46B PUSH2 0x3BA JUMP JUMPDEST JUMPDEST PUSH1 0x0 PUSH2 0x47A DUP7 DUP3 DUP8 ADD PUSH2 0x408 JUMP JUMPDEST SWAP4 POP POP PUSH1 0x20 PUSH2 0x48B DUP7 DUP3 DUP8 ADD PUSH2 0x43E JUMP JUMPDEST SWAP3 POP POP PUSH1 0x40 PUSH2 0x49C DUP7 DUP3 DUP8 ADD PUSH2 0x43E JUMP JUMPDEST SWAP2 POP POP SWAP3 POP SWAP3 POP SWAP3 JUMP JUMPDEST PUSH2 0x4AF DUP2 PUSH2 0x3DF JUMP JUMPDEST DUP3 MSTORE POP POP JUMP JUMPDEST PUSH2 0x4BE DUP2 PUSH2 0x41D JUMP JUMPDEST DUP3 MSTORE POP POP JUMP JUMPDEST PUSH1 0x0 PUSH1 0x40 DUP3 ADD SWAP1 POP PUSH2 0x4D9 PUSH1 0x0 DUP4 ADD DUP6 PUSH2 0x4A6 JUMP JUMPDEST PUSH2 0x4E6 PUSH1 0x20 DUP4 ADD DUP5 PUSH2 0x4B5 JUMP JUMPDEST SWAP4 SWAP3 POP POP POP JUMP JUMPDEST PUSH2 0x4F6 DUP2 PUSH2 0x41D JUMP JUMPDEST DUP3 MSTORE POP POP JUMP JUMPDEST PUSH1 0x0 PUSH1 0x40 DUP3 ADD SWAP1 POP PUSH2 0x511 PUSH1 0x0 DUP4 ADD DUP6 PUSH2 0x4ED JUMP JUMPDEST PUSH2 0x51E PUSH1 0x20 DUP4 ADD DUP5 PUSH2 0x4ED JUMP JUMPDEST SWAP4 SWAP3 POP POP POP JUMP JUMPDEST PUSH1 0x0 DUP2 MLOAD SWAP1 POP SWAP2 SWAP1 POP JUMP JUMPDEST PUSH1 0x0 DUP2 SWAP1 POP SWAP3 SWAP2 POP POP JUMP JUMPDEST PUSH1 0x0 JUMPDEST DUP4 DUP2 LT ISZERO PUSH2 0x559 JUMPI DUP1 DUP3 ADD MLOAD DUP2 DUP5 ADD MSTORE PUSH1 0x20 DUP2 ADD SWAP1 POP PUSH2 0x53E JUMP JUMPDEST PUSH1 0x0 DUP5 DUP5 ADD MSTORE POP POP POP POP JUMP JUMPDEST PUSH1 0x0 PUSH2 0x570 DUP3 PUSH2 0x525 JUMP JUMPDEST PUSH2 0x57A DUP2 DUP6 PUSH2 0x530 JUMP JUMPDEST SWAP4 POP PUSH2 0x58A DUP2 DUP6 PUSH1 0x20 DUP7 ADD PUSH2 0x53B JUMP JUMPDEST DUP1 DUP5 ADD SWAP2 POP POP SWAP3 SWAP2 POP POP JUMP JUMPDEST PUSH1 0x0 PUSH2 0x5A2 DUP3 DUP5 PUSH2 0x565 JUMP JUMPDEST SWAP2 POP DUP2 SWAP1 POP SWAP3 SWAP2 POP POP JUMP JUMPDEST PUSH1 0x0 PUSH2 0x5B8 DUP3 PUSH2 0x3BF JUMP JUMPDEST SWAP1 POP SWAP2 SWAP1 POP JUMP JUMPDEST PUSH2 0x5C8 DUP2 PUSH2 0x5AD JUMP JUMPDEST DUP2 EQ PUSH2 0x5D3 JUMPI PUSH1 0x0 DUP1 REVERT JUMPDEST POP JUMP JUMPDEST PUSH1 0x0 DUP2 MLOAD SWAP1 POP PUSH2 0x5E5 DUP2 PUSH2 0x5BF JUMP JUMPDEST SWAP3 SWAP2 POP POP JUMP JUMPDEST PUSH1 0x0 DUP2 MLOAD SWAP1 POP PUSH2 0x5FA DUP2 PUSH2 0x427 JUMP JUMPDEST SWAP3 SWAP2 POP POP JUMP JUMPDEST PUSH1 0x0 DUP1 PUSH1 0x40 DUP4 DUP6 SUB SLT ISZERO PUSH2 0x617 JUMPI PUSH2 0x616 PUSH2 0x3BA JUMP JUMPDEST JUMPDEST PUSH1 0x0 PUSH2 0x625 DUP6 DUP3 DUP7 ADD PUSH2 0x5D6 JUMP JUMPDEST SWAP3 POP POP PUSH1 0x20 PUSH2 0x636 DUP6 DUP3 DUP7 ADD PUSH2 0x5EB JUMP JUMPDEST SWAP2 POP POP SWAP3 POP SWAP3 SWAP1 POP JUMP JUMPDEST PUSH32 0x4E487B7100000000000000000000000000000000000000000000000000000000 PUSH1 0x0 MSTORE PUSH1 0x11 PUSH1 0x4 MSTORE PUSH1 0x24 PUSH1 0x0 REVERT JUMPDEST PUSH1 0x0 PUSH2 0x67A DUP3 PUSH2 0x41D JUMP JUMPDEST SWAP2 POP PUSH2 0x685 DUP4 PUSH2 0x41D JUMP JUMPDEST SWAP3 POP DUP3 DUP3 MUL PUSH2 0x693 DUP2 PUSH2 0x41D JUMP JUMPDEST SWAP2 POP DUP3 DUP3 DIV DUP5 EQ DUP4 ISZERO OR PUSH2 0x6AA JUMPI PUSH2 0x6A9 PUSH2 0x640 JUMP JUMPDEST JUMPDEST POP SWAP3 SWAP2 POP POP JUMP JUMPDEST PUSH32 0x4E487B7100000000000000000000000000000000000000000000000000000000 PUSH1 0x0 MSTORE PUSH1 0x12 PUSH1 0x4 MSTORE PUSH1 0x24 PUSH1 0x0 REVERT JUMPDEST PUSH1 0x0 PUSH2 0x6EB DUP3 PUSH2 0x41D JUMP JUMPDEST SWAP2 POP PUSH2 0x6F6 DUP4 PUSH2 0x41D JUMP JUMPDEST SWAP3 POP DUP3 PUSH2 0x706 JUMPI PUSH2 0x705 PUSH2 0x6B1 JUMP JUMPDEST JUMPDEST DUP3 DUP3 DIV SWAP1 POP SWAP3 SWAP2 POP POP JUMP JUMPDEST PUSH1 0x0 DUP3 DUP3 MSTORE PUSH1 0x20 DUP3 ADD SWAP1 POP SWAP3 SWAP2 POP POP JUMP JUMPDEST PUSH32 0x536166654D6174683A206D756C7469706C69636174696F6E206F766572666C6F PUSH1 0x0 DUP3 ADD MSTORE PUSH32 0x7700000000000000000000000000000000000000000000000000000000000000 PUSH1 0x20 DUP3 ADD MSTORE POP JUMP JUMPDEST PUSH1 0x0 PUSH2 0x77E PUSH1 0x21 DUP4 PUSH2 0x711 JUMP JUMPDEST SWAP2 POP PUSH2 0x789 DUP3 PUSH2 0x722 JUMP JUMPDEST PUSH1 0x40 DUP3 ADD SWAP1 POP SWAP2 SWAP1 POP JUMP JUMPDEST PUSH1 0x0 PUSH1 0x20 DUP3 ADD SWAP1 POP DUP2 DUP2 SUB PUSH1 0x0 DUP4 ADD MSTORE PUSH2 0x7AD DUP2 PUSH2 0x771 JUMP JUMPDEST SWAP1 POP SWAP2 SWAP1 POP JUMP JUMPDEST PUSH1 0x0 DUP2 MLOAD SWAP1 POP SWAP2 SWAP1 POP JUMP JUMPDEST PUSH1 0x0 PUSH1 0x1F NOT PUSH1 0x1F DUP4 ADD AND SWAP1 POP SWAP2 SWAP1 POP JUMP JUMPDEST PUSH1 0x0 PUSH2 0x7DB DUP3 PUSH2 0x7B4 JUMP JUMPDEST PUSH2 0x7E5 DUP2 DUP6 PUSH2 0x711 JUMP JUMPDEST SWAP4 POP PUSH2 0x7F5 DUP2 DUP6 PUSH1 0x20 DUP7 ADD PUSH2 0x53B JUMP JUMPDEST PUSH2 0x7FE DUP2 PUSH2 0x7BF JUMP JUMPDEST DUP5 ADD SWAP2 POP POP SWAP3 SWAP2 POP POP JUMP JUMPDEST PUSH1 0x0 PUSH1 0x20 DUP3 ADD SWAP1 POP DUP2 DUP2 SUB PUSH1 0x0 DUP4 ADD MSTORE PUSH2 0x823 DUP2 DUP5 PUSH2 0x7D0 JUMP JUMPDEST SWAP1 POP SWAP3 SWAP2 POP POP JUMP INVALID LOG2 PUSH5 0x6970667358 0x22 SLT KECCAK256 0xBF 0xDA 0x5C 0xE1 0xB1 SWAP10 GASPRICE 0xFC STATICCALL 0xE2 0xA7 MOD 0xF8 SWAP8 0xEF SAR BYTE 0xB0 0xD1 0xB1 NOT 0xF8 0x4F DUP8 ADD GASLIMIT SSTORE TIMESTAMP DUP10 0xDE AND SWAP6 PUSH5 0x736F6C6343 STOP ADDMOD GT STOP CALLER "},"methodIdentifiers":{"HelpRoyalties(address,uint256,uint256)":"f938761c"}}}}}