{
	"contracts/libs/TransferHelper.sol": {
		"TransferHelper": {
			"abi": [
				{
					"inputs": [
						{
							"internalType": "address",
							"name": "nftaddress",
							"type": "address"
						},
						{
							"internalType": "uint256",
							"name": "tokenId",
							"type": "uint256"
						},
						{
							"internalType": "uint256",
							"name": "_value",
							"type": "uint256"
						}
					],
					"name": "HelpRoyalties",
					"outputs": [
						{
							"internalType": "address",
							"name": "",
							"type": "address"
						},
						{
							"internalType": "uint256",
							"name": "",
							"type": "uint256"
						}
					],
					"stateMutability": "view",
					"type": "function"
				}
			],
			"devdoc": {
				"kind": "dev",
				"methods": {},
				"version": 1
			},
			"evm": {
				"assembly": "    /* \"contracts/libs/TransferHelper.sol\":85:2450  library TransferHelper {... */\n  dataSize(sub_0)\n  dataOffset(sub_0)\n  0x0b\n  dup3\n  dup3\n  dup3\n  codecopy\n  dup1\n  mload\n  0x00\n  byte\n  0x73\n  eq\n  tag_1\n  jumpi\n  mstore(0x00, 0x4e487b7100000000000000000000000000000000000000000000000000000000)\n  mstore(0x04, 0x00)\n  revert(0x00, 0x24)\ntag_1:\n  mstore(0x00, address)\n  0x73\n  dup2\n  mstore8\n  dup3\n  dup2\n  return\nstop\n\nsub_0: assembly {\n        /* \"contracts/libs/TransferHelper.sol\":85:2450  library TransferHelper {... */\n      eq(address, deployTimeAddress())\n      mstore(0x40, 0x80)\n      jumpi(tag_1, lt(calldatasize, 0x04))\n      shr(0xe0, calldataload(0x00))\n      dup1\n      0xf938761c\n      eq\n      tag_2\n      jumpi\n    tag_1:\n      0x00\n      dup1\n      revert\n        /* \"contracts/libs/TransferHelper.sol\":1744:2447  function HelpRoyalties(address nftaddress, uint256 tokenId, uint256 _value) external view returns (address, uint256){... */\n    tag_2:\n      tag_3\n      0x04\n      dup1\n      calldatasize\n      sub\n      dup2\n      add\n      swap1\n      tag_4\n      swap2\n      swap1\n      tag_5\n      jump\t// in\n    tag_4:\n      tag_6\n      jump\t// in\n    tag_3:\n      mload(0x40)\n      tag_7\n      swap3\n      swap2\n      swap1\n      tag_8\n      jump\t// in\n    tag_7:\n      mload(0x40)\n      dup1\n      swap2\n      sub\n      swap1\n      return\n    tag_6:\n        /* \"contracts/libs/TransferHelper.sol\":1843:1850  address */\n      0x00\n        /* \"contracts/libs/TransferHelper.sol\":1852:1859  uint256 */\n      dup1\n        /* \"contracts/libs/TransferHelper.sol\":1872:1884  bool success */\n      0x00\n        /* \"contracts/libs/TransferHelper.sol\":1886:1903  bytes memory data */\n      dup1\n        /* \"contracts/libs/TransferHelper.sol\":1907:1917  nftaddress */\n      dup7\n        /* \"contracts/libs/TransferHelper.sol\":1907:1928  nftaddress.staticcall */\n      0xffffffffffffffffffffffffffffffffffffffff\n      and\n        /* \"contracts/libs/TransferHelper.sol\":1985:1992  tokenId */\n      dup7\n        /* \"contracts/libs/TransferHelper.sol\":1994:2000  _value */\n      dup7\n        /* \"contracts/libs/TransferHelper.sol\":1929:2001  abi.encodeWithSignature(\"royaltyInfo(uint256,uint256)\", tokenId, _value) */\n      add(0x24, mload(0x40))\n      tag_10\n      swap3\n      swap2\n      swap1\n      tag_11\n      jump\t// in\n    tag_10:\n      mload(0x40)\n      0x20\n      dup2\n      dup4\n      sub\n      sub\n      dup2\n      mstore\n      swap1\n      0x40\n      mstore\n      and(not(0xffffffffffffffffffffffffffffffffffffffffffffffffffffffff), 0x2a55205a00000000000000000000000000000000000000000000000000000000)\n      0x20\n      dup3\n      add\n      dup1\n      mload\n      0xffffffffffffffffffffffffffffffffffffffffffffffffffffffff\n      dup4\n      dup2\n      dup4\n      and\n      or\n      dup4\n      mstore\n      pop\n      pop\n      pop\n      pop\n        /* \"contracts/libs/TransferHelper.sol\":1907:2002  nftaddress.staticcall(abi.encodeWithSignature(\"royaltyInfo(uint256,uint256)\", tokenId, _value)) */\n      mload(0x40)\n      tag_12\n      swap2\n      swap1\n      tag_13\n      jump\t// in\n    tag_12:\n      0x00\n      mload(0x40)\n      dup1\n      dup4\n      sub\n      dup2\n      dup6\n      gas\n      staticcall\n      swap2\n      pop\n      pop\n      returndatasize\n      dup1\n      0x00\n      dup2\n      eq\n      tag_16\n      jumpi\n      mload(0x40)\n      swap2\n      pop\n      and(add(returndatasize, 0x3f), not(0x1f))\n      dup3\n      add\n      0x40\n      mstore\n      returndatasize\n      dup3\n      mstore\n      returndatasize\n      0x00\n      0x20\n      dup5\n      add\n      returndatacopy\n      jump(tag_15)\n    tag_16:\n      0x60\n      swap2\n      pop\n    tag_15:\n      pop\n        /* \"contracts/libs/TransferHelper.sol\":1871:2002  (bool success, bytes memory data) = nftaddress.staticcall(abi.encodeWithSignature(\"royaltyInfo(uint256,uint256)\", tokenId, _value)) */\n      swap2\n      pop\n      swap2\n      pop\n        /* \"contracts/libs/TransferHelper.sol\":2017:2024  success */\n      dup2\n        /* \"contracts/libs/TransferHelper.sol\":2017:2045  success && data.length == 64 */\n      dup1\n      iszero\n      tag_17\n      jumpi\n      pop\n        /* \"contracts/libs/TransferHelper.sol\":2043:2045  64 */\n      0x40\n        /* \"contracts/libs/TransferHelper.sol\":2028:2032  data */\n      dup2\n        /* \"contracts/libs/TransferHelper.sol\":2028:2039  data.length */\n      mload\n        /* \"contracts/libs/TransferHelper.sol\":2028:2045  data.length == 64 */\n      eq\n        /* \"contracts/libs/TransferHelper.sol\":2017:2045  success && data.length == 64 */\n    tag_17:\n        /* \"contracts/libs/TransferHelper.sol\":2013:2406  if (success && data.length == 64) {... */\n      iszero\n      tag_18\n      jumpi\n        /* \"contracts/libs/TransferHelper.sol\":2063:2076  address addr1 */\n      0x00\n        /* \"contracts/libs/TransferHelper.sol\":2077:2091  uint256 value1 */\n      dup1\n        /* \"contracts/libs/TransferHelper.sol\":2106:2110  data */\n      dup3\n        /* \"contracts/libs/TransferHelper.sol\":2095:2131  abi.decode(data, (address, uint256)) */\n      dup1\n      0x20\n      add\n      swap1\n      mload\n      dup2\n      add\n      swap1\n      tag_19\n      swap2\n      swap1\n      tag_20\n      jump\t// in\n    tag_19:\n        /* \"contracts/libs/TransferHelper.sol\":2062:2131  (address addr1,uint256 value1) = abi.decode(data, (address, uint256)) */\n      swap2\n      pop\n      swap2\n      pop\n        /* \"contracts/libs/TransferHelper.sol\":2166:2167  0 */\n      0x00\n        /* \"contracts/libs/TransferHelper.sol\":2149:2168  addr1 != address(0) */\n      0xffffffffffffffffffffffffffffffffffffffff\n      and\n        /* \"contracts/libs/TransferHelper.sol\":2149:2154  addr1 */\n      dup3\n        /* \"contracts/libs/TransferHelper.sol\":2149:2168  addr1 != address(0) */\n      0xffffffffffffffffffffffffffffffffffffffff\n      and\n      eq\n      iszero\n        /* \"contracts/libs/TransferHelper.sol\":2149:2182  addr1 != address(0) && value1 > 0 */\n      dup1\n      iszero\n      tag_21\n      jumpi\n      pop\n        /* \"contracts/libs/TransferHelper.sol\":2181:2182  0 */\n      0x00\n        /* \"contracts/libs/TransferHelper.sol\":2172:2178  value1 */\n      dup2\n        /* \"contracts/libs/TransferHelper.sol\":2172:2182  value1 > 0 */\n      gt\n        /* \"contracts/libs/TransferHelper.sol\":2149:2182  addr1 != address(0) && value1 > 0 */\n    tag_21:\n        /* \"contracts/libs/TransferHelper.sol\":2149:2219  addr1 != address(0) && value1 > 0 && value1 <= _value.mul(50).div(100) */\n      dup1\n      iszero\n      tag_22\n      jumpi\n      pop\n        /* \"contracts/libs/TransferHelper.sol\":2196:2219  _value.mul(50).div(100) */\n      tag_23\n        /* \"contracts/libs/TransferHelper.sol\":2215:2218  100 */\n      0x64\n        /* \"contracts/libs/TransferHelper.sol\":2196:2210  _value.mul(50) */\n      tag_24\n        /* \"contracts/libs/TransferHelper.sol\":2207:2209  50 */\n      0x32\n        /* \"contracts/libs/TransferHelper.sol\":2196:2202  _value */\n      dup11\n        /* \"contracts/libs/TransferHelper.sol\":2196:2206  _value.mul */\n      tag_25\n      swap1\n        /* \"contracts/libs/TransferHelper.sol\":2196:2210  _value.mul(50) */\n      swap2\n      swap1\n      0xffffffff\n      and\n      jump\t// in\n    tag_24:\n        /* \"contracts/libs/TransferHelper.sol\":2196:2214  _value.mul(50).div */\n      tag_26\n      swap1\n        /* \"contracts/libs/TransferHelper.sol\":2196:2219  _value.mul(50).div(100) */\n      swap2\n      swap1\n      0xffffffff\n      and\n      jump\t// in\n    tag_23:\n        /* \"contracts/libs/TransferHelper.sol\":2186:2192  value1 */\n      dup2\n        /* \"contracts/libs/TransferHelper.sol\":2186:2219  value1 <= _value.mul(50).div(100) */\n      gt\n      iszero\n        /* \"contracts/libs/TransferHelper.sol\":2149:2219  addr1 != address(0) && value1 > 0 && value1 <= _value.mul(50).div(100) */\n    tag_22:\n        /* \"contracts/libs/TransferHelper.sol\":2145:2395  if (addr1 != address(0) && value1 > 0 && value1 <= _value.mul(50).div(100)) {... */\n      iszero\n      tag_27\n      jumpi\n        /* \"contracts/libs/TransferHelper.sol\":2248:2253  addr1 */\n      dup2\n        /* \"contracts/libs/TransferHelper.sol\":2255:2261  value1 */\n      dup2\n        /* \"contracts/libs/TransferHelper.sol\":2240:2262  return (addr1, value1) */\n      swap6\n      pop\n      swap6\n      pop\n      pop\n      pop\n      pop\n      pop\n      jump(tag_9)\n        /* \"contracts/libs/TransferHelper.sol\":2145:2395  if (addr1 != address(0) && value1 > 0 && value1 <= _value.mul(50).div(100)) {... */\n    tag_27:\n        /* \"contracts/libs/TransferHelper.sol\":2296:2319  _value.mul(50).div(100) */\n      tag_29\n        /* \"contracts/libs/TransferHelper.sol\":2315:2318  100 */\n      0x64\n        /* \"contracts/libs/TransferHelper.sol\":2296:2310  _value.mul(50) */\n      tag_30\n        /* \"contracts/libs/TransferHelper.sol\":2307:2309  50 */\n      0x32\n        /* \"contracts/libs/TransferHelper.sol\":2296:2302  _value */\n      dup11\n        /* \"contracts/libs/TransferHelper.sol\":2296:2306  _value.mul */\n      tag_25\n      swap1\n        /* \"contracts/libs/TransferHelper.sol\":2296:2310  _value.mul(50) */\n      swap2\n      swap1\n      0xffffffff\n      and\n      jump\t// in\n    tag_30:\n        /* \"contracts/libs/TransferHelper.sol\":2296:2314  _value.mul(50).div */\n      tag_26\n      swap1\n        /* \"contracts/libs/TransferHelper.sol\":2296:2319  _value.mul(50).div(100) */\n      swap2\n      swap1\n      0xffffffff\n      and\n      jump\t// in\n    tag_29:\n        /* \"contracts/libs/TransferHelper.sol\":2287:2293  value1 */\n      dup2\n        /* \"contracts/libs/TransferHelper.sol\":2287:2319  value1 > _value.mul(50).div(100) */\n      gt\n        /* \"contracts/libs/TransferHelper.sol\":2283:2395  if (value1 > _value.mul(50).div(100)) {... */\n      iszero\n      tag_31\n      jumpi\n        /* \"contracts/libs/TransferHelper.sol\":2348:2353  addr1 */\n      dup2\n        /* \"contracts/libs/TransferHelper.sol\":2355:2378  _value.mul(50).div(100) */\n      tag_32\n        /* \"contracts/libs/TransferHelper.sol\":2374:2377  100 */\n      0x64\n        /* \"contracts/libs/TransferHelper.sol\":2355:2369  _value.mul(50) */\n      tag_33\n        /* \"contracts/libs/TransferHelper.sol\":2366:2368  50 */\n      0x32\n        /* \"contracts/libs/TransferHelper.sol\":2355:2361  _value */\n      dup12\n        /* \"contracts/libs/TransferHelper.sol\":2355:2365  _value.mul */\n      tag_25\n      swap1\n        /* \"contracts/libs/TransferHelper.sol\":2355:2369  _value.mul(50) */\n      swap2\n      swap1\n      0xffffffff\n      and\n      jump\t// in\n    tag_33:\n        /* \"contracts/libs/TransferHelper.sol\":2355:2373  _value.mul(50).div */\n      tag_26\n      swap1\n        /* \"contracts/libs/TransferHelper.sol\":2355:2378  _value.mul(50).div(100) */\n      swap2\n      swap1\n      0xffffffff\n      and\n      jump\t// in\n    tag_32:\n        /* \"contracts/libs/TransferHelper.sol\":2340:2379  return (addr1, _value.mul(50).div(100)) */\n      swap6\n      pop\n      swap6\n      pop\n      pop\n      pop\n      pop\n      pop\n      jump(tag_9)\n        /* \"contracts/libs/TransferHelper.sol\":2283:2395  if (value1 > _value.mul(50).div(100)) {... */\n    tag_31:\n        /* \"contracts/libs/TransferHelper.sol\":2047:2406  {... */\n      pop\n      pop\n        /* \"contracts/libs/TransferHelper.sol\":2013:2406  if (success && data.length == 64) {... */\n    tag_18:\n        /* \"contracts/libs/TransferHelper.sol\":2432:2433  0 */\n      0x00\n        /* \"contracts/libs/TransferHelper.sol\":2436:2437  0 */\n      dup1\n        /* \"contracts/libs/TransferHelper.sol\":2416:2438  return (address(0), 0) */\n      swap4\n      pop\n      swap4\n      pop\n      pop\n      pop\n        /* \"contracts/libs/TransferHelper.sol\":1744:2447  function HelpRoyalties(address nftaddress, uint256 tokenId, uint256 _value) external view returns (address, uint256){... */\n    tag_9:\n      swap4\n      pop\n      swap4\n      swap2\n      pop\n      pop\n      jump\t// out\n        /* \"contracts/libs/SafeMath.sol\":1617:2076  function mul(uint256 a, uint256 b) internal pure returns (uint256) {... */\n    tag_25:\n        /* \"contracts/libs/SafeMath.sol\":1675:1682  uint256 */\n      0x00\n        /* \"contracts/libs/SafeMath.sol\":1921:1922  0 */\n      dup1\n        /* \"contracts/libs/SafeMath.sol\":1916:1917  a */\n      dup4\n        /* \"contracts/libs/SafeMath.sol\":1916:1922  a == 0 */\n      eq\n        /* \"contracts/libs/SafeMath.sol\":1912:1957  if (a == 0) {... */\n      iszero\n      tag_35\n      jumpi\n        /* \"contracts/libs/SafeMath.sol\":1945:1946  0 */\n      0x00\n        /* \"contracts/libs/SafeMath.sol\":1938:1946  return 0 */\n      swap1\n      pop\n      jump(tag_34)\n        /* \"contracts/libs/SafeMath.sol\":1912:1957  if (a == 0) {... */\n    tag_35:\n        /* \"contracts/libs/SafeMath.sol\":1967:1976  uint256 c */\n      0x00\n        /* \"contracts/libs/SafeMath.sol\":1983:1984  b */\n      dup3\n        /* \"contracts/libs/SafeMath.sol\":1979:1980  a */\n      dup5\n        /* \"contracts/libs/SafeMath.sol\":1979:1984  a * b */\n      tag_36\n      swap2\n      swap1\n      tag_37\n      jump\t// in\n    tag_36:\n        /* \"contracts/libs/SafeMath.sol\":1967:1984  uint256 c = a * b */\n      swap1\n      pop\n        /* \"contracts/libs/SafeMath.sol\":2011:2012  b */\n      dup3\n        /* \"contracts/libs/SafeMath.sol\":2006:2007  a */\n      dup5\n        /* \"contracts/libs/SafeMath.sol\":2002:2003  c */\n      dup3\n        /* \"contracts/libs/SafeMath.sol\":2002:2007  c / a */\n      tag_38\n      swap2\n      swap1\n      tag_39\n      jump\t// in\n    tag_38:\n        /* \"contracts/libs/SafeMath.sol\":2002:2012  c / a == b */\n      eq\n        /* \"contracts/libs/SafeMath.sol\":1994:2050  require(c / a == b, \"SafeMath: multiplication overflow\") */\n      tag_40\n      jumpi\n      mload(0x40)\n      0x08c379a000000000000000000000000000000000000000000000000000000000\n      dup2\n      mstore\n      0x04\n      add\n      tag_41\n      swap1\n      tag_42\n      jump\t// in\n    tag_41:\n      mload(0x40)\n      dup1\n      swap2\n      sub\n      swap1\n      revert\n    tag_40:\n        /* \"contracts/libs/SafeMath.sol\":2068:2069  c */\n      dup1\n        /* \"contracts/libs/SafeMath.sol\":2061:2069  return c */\n      swap2\n      pop\n      pop\n        /* \"contracts/libs/SafeMath.sol\":1617:2076  function mul(uint256 a, uint256 b) internal pure returns (uint256) {... */\n    tag_34:\n      swap3\n      swap2\n      pop\n      pop\n      jump\t// out\n        /* \"contracts/libs/SafeMath.sol\":2538:2668  function div(uint256 a, uint256 b) internal pure returns (uint256) {... */\n    tag_26:\n        /* \"contracts/libs/SafeMath.sol\":2596:2603  uint256 */\n      0x00\n        /* \"contracts/libs/SafeMath.sol\":2622:2661  div(a, b, \"SafeMath: division by zero\") */\n      tag_44\n        /* \"contracts/libs/SafeMath.sol\":2626:2627  a */\n      dup4\n        /* \"contracts/libs/SafeMath.sol\":2629:2630  b */\n      dup4\n        /* \"contracts/libs/SafeMath.sol\":2622:2661  div(a, b, \"SafeMath: division by zero\") */\n      mload(0x40)\n      dup1\n      0x40\n      add\n      0x40\n      mstore\n      dup1\n      0x1a\n      dup2\n      mstore\n      0x20\n      add\n      0x536166654d6174683a206469766973696f6e206279207a65726f000000000000\n      dup2\n      mstore\n      pop\n        /* \"contracts/libs/SafeMath.sol\":2622:2625  div */\n      tag_45\n        /* \"contracts/libs/SafeMath.sol\":2622:2661  div(a, b, \"SafeMath: division by zero\") */\n      jump\t// in\n    tag_44:\n        /* \"contracts/libs/SafeMath.sol\":2615:2661  return div(a, b, \"SafeMath: division by zero\") */\n      swap1\n      pop\n        /* \"contracts/libs/SafeMath.sol\":2538:2668  function div(uint256 a, uint256 b) internal pure returns (uint256) {... */\n      swap3\n      swap2\n      pop\n      pop\n      jump\t// out\n        /* \"contracts/libs/SafeMath.sol\":3150:3422  function div(uint256 a, uint256 b, string memory errorMessage) internal pure returns (uint256) {... */\n    tag_45:\n        /* \"contracts/libs/SafeMath.sol\":3236:3243  uint256 */\n      0x00\n        /* \"contracts/libs/SafeMath.sol\":3267:3268  0 */\n      dup1\n        /* \"contracts/libs/SafeMath.sol\":3263:3264  b */\n      dup4\n        /* \"contracts/libs/SafeMath.sol\":3263:3268  b > 0 */\n      gt\n        /* \"contracts/libs/SafeMath.sol\":3270:3282  errorMessage */\n      dup3\n        /* \"contracts/libs/SafeMath.sol\":3255:3283  require(b > 0, errorMessage) */\n      swap1\n      tag_47\n      jumpi\n      mload(0x40)\n      0x08c379a000000000000000000000000000000000000000000000000000000000\n      dup2\n      mstore\n      0x04\n      add\n      tag_48\n      swap2\n      swap1\n      tag_49\n      jump\t// in\n    tag_48:\n      mload(0x40)\n      dup1\n      swap2\n      sub\n      swap1\n      revert\n    tag_47:\n      pop\n        /* \"contracts/libs/SafeMath.sol\":3293:3302  uint256 c */\n      0x00\n        /* \"contracts/libs/SafeMath.sol\":3309:3310  b */\n      dup4\n        /* \"contracts/libs/SafeMath.sol\":3305:3306  a */\n      dup6\n        /* \"contracts/libs/SafeMath.sol\":3305:3310  a / b */\n      tag_50\n      swap2\n      swap1\n      tag_39\n      jump\t// in\n    tag_50:\n        /* \"contracts/libs/SafeMath.sol\":3293:3310  uint256 c = a / b */\n      swap1\n      pop\n        /* \"contracts/libs/SafeMath.sol\":3414:3415  c */\n      dup1\n        /* \"contracts/libs/SafeMath.sol\":3407:3415  return c */\n      swap2\n      pop\n      pop\n        /* \"contracts/libs/SafeMath.sol\":3150:3422  function div(uint256 a, uint256 b, string memory errorMessage) internal pure returns (uint256) {... */\n      swap4\n      swap3\n      pop\n      pop\n      pop\n      jump\t// out\n        /* \"#utility.yul\":88:205   */\n    tag_52:\n        /* \"#utility.yul\":197:198   */\n      0x00\n        /* \"#utility.yul\":194:195   */\n      dup1\n        /* \"#utility.yul\":187:199   */\n      revert\n        /* \"#utility.yul\":334:460   */\n    tag_54:\n        /* \"#utility.yul\":371:378   */\n      0x00\n        /* \"#utility.yul\":411:453   */\n      0xffffffffffffffffffffffffffffffffffffffff\n        /* \"#utility.yul\":404:409   */\n      dup3\n        /* \"#utility.yul\":400:454   */\n      and\n        /* \"#utility.yul\":389:454   */\n      swap1\n      pop\n        /* \"#utility.yul\":334:460   */\n      swap2\n      swap1\n      pop\n      jump\t// out\n        /* \"#utility.yul\":466:562   */\n    tag_55:\n        /* \"#utility.yul\":503:510   */\n      0x00\n        /* \"#utility.yul\":532:556   */\n      tag_86\n        /* \"#utility.yul\":550:555   */\n      dup3\n        /* \"#utility.yul\":532:556   */\n      tag_54\n      jump\t// in\n    tag_86:\n        /* \"#utility.yul\":521:556   */\n      swap1\n      pop\n        /* \"#utility.yul\":466:562   */\n      swap2\n      swap1\n      pop\n      jump\t// out\n        /* \"#utility.yul\":568:690   */\n    tag_56:\n        /* \"#utility.yul\":641:665   */\n      tag_88\n        /* \"#utility.yul\":659:664   */\n      dup2\n        /* \"#utility.yul\":641:665   */\n      tag_55\n      jump\t// in\n    tag_88:\n        /* \"#utility.yul\":634:639   */\n      dup2\n        /* \"#utility.yul\":631:666   */\n      eq\n        /* \"#utility.yul\":621:684   */\n      tag_89\n      jumpi\n        /* \"#utility.yul\":680:681   */\n      0x00\n        /* \"#utility.yul\":677:678   */\n      dup1\n        /* \"#utility.yul\":670:682   */\n      revert\n        /* \"#utility.yul\":621:684   */\n    tag_89:\n        /* \"#utility.yul\":568:690   */\n      pop\n      jump\t// out\n        /* \"#utility.yul\":696:835   */\n    tag_57:\n        /* \"#utility.yul\":742:747   */\n      0x00\n        /* \"#utility.yul\":780:786   */\n      dup2\n        /* \"#utility.yul\":767:787   */\n      calldataload\n        /* \"#utility.yul\":758:787   */\n      swap1\n      pop\n        /* \"#utility.yul\":796:829   */\n      tag_91\n        /* \"#utility.yul\":823:828   */\n      dup2\n        /* \"#utility.yul\":796:829   */\n      tag_56\n      jump\t// in\n    tag_91:\n        /* \"#utility.yul\":696:835   */\n      swap3\n      swap2\n      pop\n      pop\n      jump\t// out\n        /* \"#utility.yul\":841:918   */\n    tag_58:\n        /* \"#utility.yul\":878:885   */\n      0x00\n        /* \"#utility.yul\":907:912   */\n      dup2\n        /* \"#utility.yul\":896:912   */\n      swap1\n      pop\n        /* \"#utility.yul\":841:918   */\n      swap2\n      swap1\n      pop\n      jump\t// out\n        /* \"#utility.yul\":924:1046   */\n    tag_59:\n        /* \"#utility.yul\":997:1021   */\n      tag_94\n        /* \"#utility.yul\":1015:1020   */\n      dup2\n        /* \"#utility.yul\":997:1021   */\n      tag_58\n      jump\t// in\n    tag_94:\n        /* \"#utility.yul\":990:995   */\n      dup2\n        /* \"#utility.yul\":987:1022   */\n      eq\n        /* \"#utility.yul\":977:1040   */\n      tag_95\n      jumpi\n        /* \"#utility.yul\":1036:1037   */\n      0x00\n        /* \"#utility.yul\":1033:1034   */\n      dup1\n        /* \"#utility.yul\":1026:1038   */\n      revert\n        /* \"#utility.yul\":977:1040   */\n    tag_95:\n        /* \"#utility.yul\":924:1046   */\n      pop\n      jump\t// out\n        /* \"#utility.yul\":1052:1191   */\n    tag_60:\n        /* \"#utility.yul\":1098:1103   */\n      0x00\n        /* \"#utility.yul\":1136:1142   */\n      dup2\n        /* \"#utility.yul\":1123:1143   */\n      calldataload\n        /* \"#utility.yul\":1114:1143   */\n      swap1\n      pop\n        /* \"#utility.yul\":1152:1185   */\n      tag_97\n        /* \"#utility.yul\":1179:1184   */\n      dup2\n        /* \"#utility.yul\":1152:1185   */\n      tag_59\n      jump\t// in\n    tag_97:\n        /* \"#utility.yul\":1052:1191   */\n      swap3\n      swap2\n      pop\n      pop\n      jump\t// out\n        /* \"#utility.yul\":1197:1816   */\n    tag_5:\n        /* \"#utility.yul\":1274:1280   */\n      0x00\n        /* \"#utility.yul\":1282:1288   */\n      dup1\n        /* \"#utility.yul\":1290:1296   */\n      0x00\n        /* \"#utility.yul\":1339:1341   */\n      0x60\n        /* \"#utility.yul\":1327:1336   */\n      dup5\n        /* \"#utility.yul\":1318:1325   */\n      dup7\n        /* \"#utility.yul\":1314:1337   */\n      sub\n        /* \"#utility.yul\":1310:1342   */\n      slt\n        /* \"#utility.yul\":1307:1426   */\n      iszero\n      tag_99\n      jumpi\n        /* \"#utility.yul\":1345:1424   */\n      tag_100\n      tag_52\n      jump\t// in\n    tag_100:\n        /* \"#utility.yul\":1307:1426   */\n    tag_99:\n        /* \"#utility.yul\":1465:1466   */\n      0x00\n        /* \"#utility.yul\":1490:1543   */\n      tag_101\n        /* \"#utility.yul\":1535:1542   */\n      dup7\n        /* \"#utility.yul\":1526:1532   */\n      dup3\n        /* \"#utility.yul\":1515:1524   */\n      dup8\n        /* \"#utility.yul\":1511:1533   */\n      add\n        /* \"#utility.yul\":1490:1543   */\n      tag_57\n      jump\t// in\n    tag_101:\n        /* \"#utility.yul\":1480:1543   */\n      swap4\n      pop\n        /* \"#utility.yul\":1436:1553   */\n      pop\n        /* \"#utility.yul\":1592:1594   */\n      0x20\n        /* \"#utility.yul\":1618:1671   */\n      tag_102\n        /* \"#utility.yul\":1663:1670   */\n      dup7\n        /* \"#utility.yul\":1654:1660   */\n      dup3\n        /* \"#utility.yul\":1643:1652   */\n      dup8\n        /* \"#utility.yul\":1639:1661   */\n      add\n        /* \"#utility.yul\":1618:1671   */\n      tag_60\n      jump\t// in\n    tag_102:\n        /* \"#utility.yul\":1608:1671   */\n      swap3\n      pop\n        /* \"#utility.yul\":1563:1681   */\n      pop\n        /* \"#utility.yul\":1720:1722   */\n      0x40\n        /* \"#utility.yul\":1746:1799   */\n      tag_103\n        /* \"#utility.yul\":1791:1798   */\n      dup7\n        /* \"#utility.yul\":1782:1788   */\n      dup3\n        /* \"#utility.yul\":1771:1780   */\n      dup8\n        /* \"#utility.yul\":1767:1789   */\n      add\n        /* \"#utility.yul\":1746:1799   */\n      tag_60\n      jump\t// in\n    tag_103:\n        /* \"#utility.yul\":1736:1799   */\n      swap2\n      pop\n        /* \"#utility.yul\":1691:1809   */\n      pop\n        /* \"#utility.yul\":1197:1816   */\n      swap3\n      pop\n      swap3\n      pop\n      swap3\n      jump\t// out\n        /* \"#utility.yul\":1822:1948   */\n    tag_61:\n        /* \"#utility.yul\":1917:1941   */\n      tag_105\n        /* \"#utility.yul\":1935:1940   */\n      dup2\n        /* \"#utility.yul\":1917:1941   */\n      tag_55\n      jump\t// in\n    tag_105:\n        /* \"#utility.yul\":1912:1915   */\n      dup3\n        /* \"#utility.yul\":1905:1942   */\n      mstore\n        /* \"#utility.yul\":1822:1948   */\n      pop\n      pop\n      jump\t// out\n        /* \"#utility.yul\":1954:2080   */\n    tag_62:\n        /* \"#utility.yul\":2049:2073   */\n      tag_107\n        /* \"#utility.yul\":2067:2072   */\n      dup2\n        /* \"#utility.yul\":2049:2073   */\n      tag_58\n      jump\t// in\n    tag_107:\n        /* \"#utility.yul\":2044:2047   */\n      dup3\n        /* \"#utility.yul\":2037:2074   */\n      mstore\n        /* \"#utility.yul\":1954:2080   */\n      pop\n      pop\n      jump\t// out\n        /* \"#utility.yul\":2086:2442   */\n    tag_8:\n        /* \"#utility.yul\":2215:2219   */\n      0x00\n        /* \"#utility.yul\":2253:2255   */\n      0x40\n        /* \"#utility.yul\":2242:2251   */\n      dup3\n        /* \"#utility.yul\":2238:2256   */\n      add\n        /* \"#utility.yul\":2230:2256   */\n      swap1\n      pop\n        /* \"#utility.yul\":2266:2345   */\n      tag_109\n        /* \"#utility.yul\":2342:2343   */\n      0x00\n        /* \"#utility.yul\":2331:2340   */\n      dup4\n        /* \"#utility.yul\":2327:2344   */\n      add\n        /* \"#utility.yul\":2318:2324   */\n      dup6\n        /* \"#utility.yul\":2266:2345   */\n      tag_61\n      jump\t// in\n    tag_109:\n        /* \"#utility.yul\":2355:2435   */\n      tag_110\n        /* \"#utility.yul\":2431:2433   */\n      0x20\n        /* \"#utility.yul\":2420:2429   */\n      dup4\n        /* \"#utility.yul\":2416:2434   */\n      add\n        /* \"#utility.yul\":2407:2413   */\n      dup5\n        /* \"#utility.yul\":2355:2435   */\n      tag_62\n      jump\t// in\n    tag_110:\n        /* \"#utility.yul\":2086:2442   */\n      swap4\n      swap3\n      pop\n      pop\n      pop\n      jump\t// out\n        /* \"#utility.yul\":2448:2566   */\n    tag_63:\n        /* \"#utility.yul\":2535:2559   */\n      tag_112\n        /* \"#utility.yul\":2553:2558   */\n      dup2\n        /* \"#utility.yul\":2535:2559   */\n      tag_58\n      jump\t// in\n    tag_112:\n        /* \"#utility.yul\":2530:2533   */\n      dup3\n        /* \"#utility.yul\":2523:2560   */\n      mstore\n        /* \"#utility.yul\":2448:2566   */\n      pop\n      pop\n      jump\t// out\n        /* \"#utility.yul\":2572:2904   */\n    tag_11:\n        /* \"#utility.yul\":2693:2697   */\n      0x00\n        /* \"#utility.yul\":2731:2733   */\n      0x40\n        /* \"#utility.yul\":2720:2729   */\n      dup3\n        /* \"#utility.yul\":2716:2734   */\n      add\n        /* \"#utility.yul\":2708:2734   */\n      swap1\n      pop\n        /* \"#utility.yul\":2744:2815   */\n      tag_114\n        /* \"#utility.yul\":2812:2813   */\n      0x00\n        /* \"#utility.yul\":2801:2810   */\n      dup4\n        /* \"#utility.yul\":2797:2814   */\n      add\n        /* \"#utility.yul\":2788:2794   */\n      dup6\n        /* \"#utility.yul\":2744:2815   */\n      tag_63\n      jump\t// in\n    tag_114:\n        /* \"#utility.yul\":2825:2897   */\n      tag_115\n        /* \"#utility.yul\":2893:2895   */\n      0x20\n        /* \"#utility.yul\":2882:2891   */\n      dup4\n        /* \"#utility.yul\":2878:2896   */\n      add\n        /* \"#utility.yul\":2869:2875   */\n      dup5\n        /* \"#utility.yul\":2825:2897   */\n      tag_63\n      jump\t// in\n    tag_115:\n        /* \"#utility.yul\":2572:2904   */\n      swap4\n      swap3\n      pop\n      pop\n      pop\n      jump\t// out\n        /* \"#utility.yul\":2910:3008   */\n    tag_64:\n        /* \"#utility.yul\":2961:2967   */\n      0x00\n        /* \"#utility.yul\":2995:3000   */\n      dup2\n        /* \"#utility.yul\":2989:3001   */\n      mload\n        /* \"#utility.yul\":2979:3001   */\n      swap1\n      pop\n        /* \"#utility.yul\":2910:3008   */\n      swap2\n      swap1\n      pop\n      jump\t// out\n        /* \"#utility.yul\":3014:3161   */\n    tag_65:\n        /* \"#utility.yul\":3115:3126   */\n      0x00\n        /* \"#utility.yul\":3152:3155   */\n      dup2\n        /* \"#utility.yul\":3137:3155   */\n      swap1\n      pop\n        /* \"#utility.yul\":3014:3161   */\n      swap3\n      swap2\n      pop\n      pop\n      jump\t// out\n        /* \"#utility.yul\":3167:3474   */\n    tag_66:\n        /* \"#utility.yul\":3235:3236   */\n      0x00\n        /* \"#utility.yul\":3245:3358   */\n    tag_119:\n        /* \"#utility.yul\":3259:3265   */\n      dup4\n        /* \"#utility.yul\":3256:3257   */\n      dup2\n        /* \"#utility.yul\":3253:3266   */\n      lt\n        /* \"#utility.yul\":3245:3358   */\n      iszero\n      tag_121\n      jumpi\n        /* \"#utility.yul\":3344:3345   */\n      dup1\n        /* \"#utility.yul\":3339:3342   */\n      dup3\n        /* \"#utility.yul\":3335:3346   */\n      add\n        /* \"#utility.yul\":3329:3347   */\n      mload\n        /* \"#utility.yul\":3325:3326   */\n      dup2\n        /* \"#utility.yul\":3320:3323   */\n      dup5\n        /* \"#utility.yul\":3316:3327   */\n      add\n        /* \"#utility.yul\":3309:3348   */\n      mstore\n        /* \"#utility.yul\":3281:3283   */\n      0x20\n        /* \"#utility.yul\":3278:3279   */\n      dup2\n        /* \"#utility.yul\":3274:3284   */\n      add\n        /* \"#utility.yul\":3269:3284   */\n      swap1\n      pop\n        /* \"#utility.yul\":3245:3358   */\n      jump(tag_119)\n    tag_121:\n        /* \"#utility.yul\":3376:3382   */\n      dup4\n        /* \"#utility.yul\":3373:3374   */\n      dup2\n        /* \"#utility.yul\":3370:3383   */\n      gt\n        /* \"#utility.yul\":3367:3468   */\n      iszero\n      tag_122\n      jumpi\n        /* \"#utility.yul\":3456:3457   */\n      0x00\n        /* \"#utility.yul\":3447:3453   */\n      dup5\n        /* \"#utility.yul\":3442:3445   */\n      dup5\n        /* \"#utility.yul\":3438:3454   */\n      add\n        /* \"#utility.yul\":3431:3458   */\n      mstore\n        /* \"#utility.yul\":3367:3468   */\n    tag_122:\n        /* \"#utility.yul\":3216:3474   */\n      pop\n        /* \"#utility.yul\":3167:3474   */\n      pop\n      pop\n      pop\n      jump\t// out\n        /* \"#utility.yul\":3480:3853   */\n    tag_67:\n        /* \"#utility.yul\":3584:3587   */\n      0x00\n        /* \"#utility.yul\":3612:3650   */\n      tag_124\n        /* \"#utility.yul\":3644:3649   */\n      dup3\n        /* \"#utility.yul\":3612:3650   */\n      tag_64\n      jump\t// in\n    tag_124:\n        /* \"#utility.yul\":3666:3754   */\n      tag_125\n        /* \"#utility.yul\":3747:3753   */\n      dup2\n        /* \"#utility.yul\":3742:3745   */\n      dup6\n        /* \"#utility.yul\":3666:3754   */\n      tag_65\n      jump\t// in\n    tag_125:\n        /* \"#utility.yul\":3659:3754   */\n      swap4\n      pop\n        /* \"#utility.yul\":3763:3815   */\n      tag_126\n        /* \"#utility.yul\":3808:3814   */\n      dup2\n        /* \"#utility.yul\":3803:3806   */\n      dup6\n        /* \"#utility.yul\":3796:3800   */\n      0x20\n        /* \"#utility.yul\":3789:3794   */\n      dup7\n        /* \"#utility.yul\":3785:3801   */\n      add\n        /* \"#utility.yul\":3763:3815   */\n      tag_66\n      jump\t// in\n    tag_126:\n        /* \"#utility.yul\":3840:3846   */\n      dup1\n        /* \"#utility.yul\":3835:3838   */\n      dup5\n        /* \"#utility.yul\":3831:3847   */\n      add\n        /* \"#utility.yul\":3824:3847   */\n      swap2\n      pop\n        /* \"#utility.yul\":3588:3853   */\n      pop\n        /* \"#utility.yul\":3480:3853   */\n      swap3\n      swap2\n      pop\n      pop\n      jump\t// out\n        /* \"#utility.yul\":3859:4130   */\n    tag_13:\n        /* \"#utility.yul\":3989:3992   */\n      0x00\n        /* \"#utility.yul\":4011:4104   */\n      tag_128\n        /* \"#utility.yul\":4100:4103   */\n      dup3\n        /* \"#utility.yul\":4091:4097   */\n      dup5\n        /* \"#utility.yul\":4011:4104   */\n      tag_67\n      jump\t// in\n    tag_128:\n        /* \"#utility.yul\":4004:4104   */\n      swap2\n      pop\n        /* \"#utility.yul\":4121:4124   */\n      dup2\n        /* \"#utility.yul\":4114:4124   */\n      swap1\n      pop\n        /* \"#utility.yul\":3859:4130   */\n      swap3\n      swap2\n      pop\n      pop\n      jump\t// out\n        /* \"#utility.yul\":4136:4240   */\n    tag_68:\n        /* \"#utility.yul\":4181:4188   */\n      0x00\n        /* \"#utility.yul\":4210:4234   */\n      tag_130\n        /* \"#utility.yul\":4228:4233   */\n      dup3\n        /* \"#utility.yul\":4210:4234   */\n      tag_54\n      jump\t// in\n    tag_130:\n        /* \"#utility.yul\":4199:4234   */\n      swap1\n      pop\n        /* \"#utility.yul\":4136:4240   */\n      swap2\n      swap1\n      pop\n      jump\t// out\n        /* \"#utility.yul\":4246:4384   */\n    tag_69:\n        /* \"#utility.yul\":4327:4359   */\n      tag_132\n        /* \"#utility.yul\":4353:4358   */\n      dup2\n        /* \"#utility.yul\":4327:4359   */\n      tag_68\n      jump\t// in\n    tag_132:\n        /* \"#utility.yul\":4320:4325   */\n      dup2\n        /* \"#utility.yul\":4317:4360   */\n      eq\n        /* \"#utility.yul\":4307:4378   */\n      tag_133\n      jumpi\n        /* \"#utility.yul\":4374:4375   */\n      0x00\n        /* \"#utility.yul\":4371:4372   */\n      dup1\n        /* \"#utility.yul\":4364:4376   */\n      revert\n        /* \"#utility.yul\":4307:4378   */\n    tag_133:\n        /* \"#utility.yul\":4246:4384   */\n      pop\n      jump\t// out\n        /* \"#utility.yul\":4390:4549   */\n    tag_70:\n        /* \"#utility.yul\":4455:4460   */\n      0x00\n        /* \"#utility.yul\":4486:4492   */\n      dup2\n        /* \"#utility.yul\":4480:4493   */\n      mload\n        /* \"#utility.yul\":4471:4493   */\n      swap1\n      pop\n        /* \"#utility.yul\":4502:4543   */\n      tag_135\n        /* \"#utility.yul\":4537:4542   */\n      dup2\n        /* \"#utility.yul\":4502:4543   */\n      tag_69\n      jump\t// in\n    tag_135:\n        /* \"#utility.yul\":4390:4549   */\n      swap3\n      swap2\n      pop\n      pop\n      jump\t// out\n        /* \"#utility.yul\":4555:4698   */\n    tag_71:\n        /* \"#utility.yul\":4612:4617   */\n      0x00\n        /* \"#utility.yul\":4643:4649   */\n      dup2\n        /* \"#utility.yul\":4637:4650   */\n      mload\n        /* \"#utility.yul\":4628:4650   */\n      swap1\n      pop\n        /* \"#utility.yul\":4659:4692   */\n      tag_137\n        /* \"#utility.yul\":4686:4691   */\n      dup2\n        /* \"#utility.yul\":4659:4692   */\n      tag_59\n      jump\t// in\n    tag_137:\n        /* \"#utility.yul\":4555:4698   */\n      swap3\n      swap2\n      pop\n      pop\n      jump\t// out\n        /* \"#utility.yul\":4704:5227   */\n    tag_20:\n        /* \"#utility.yul\":4791:4797   */\n      0x00\n        /* \"#utility.yul\":4799:4805   */\n      dup1\n        /* \"#utility.yul\":4848:4850   */\n      0x40\n        /* \"#utility.yul\":4836:4845   */\n      dup4\n        /* \"#utility.yul\":4827:4834   */\n      dup6\n        /* \"#utility.yul\":4823:4846   */\n      sub\n        /* \"#utility.yul\":4819:4851   */\n      slt\n        /* \"#utility.yul\":4816:4935   */\n      iszero\n      tag_139\n      jumpi\n        /* \"#utility.yul\":4854:4933   */\n      tag_140\n      tag_52\n      jump\t// in\n    tag_140:\n        /* \"#utility.yul\":4816:4935   */\n    tag_139:\n        /* \"#utility.yul\":4974:4975   */\n      0x00\n        /* \"#utility.yul\":4999:5071   */\n      tag_141\n        /* \"#utility.yul\":5063:5070   */\n      dup6\n        /* \"#utility.yul\":5054:5060   */\n      dup3\n        /* \"#utility.yul\":5043:5052   */\n      dup7\n        /* \"#utility.yul\":5039:5061   */\n      add\n        /* \"#utility.yul\":4999:5071   */\n      tag_70\n      jump\t// in\n    tag_141:\n        /* \"#utility.yul\":4989:5071   */\n      swap3\n      pop\n        /* \"#utility.yul\":4945:5081   */\n      pop\n        /* \"#utility.yul\":5120:5122   */\n      0x20\n        /* \"#utility.yul\":5146:5210   */\n      tag_142\n        /* \"#utility.yul\":5202:5209   */\n      dup6\n        /* \"#utility.yul\":5193:5199   */\n      dup3\n        /* \"#utility.yul\":5182:5191   */\n      dup7\n        /* \"#utility.yul\":5178:5200   */\n      add\n        /* \"#utility.yul\":5146:5210   */\n      tag_71\n      jump\t// in\n    tag_142:\n        /* \"#utility.yul\":5136:5210   */\n      swap2\n      pop\n        /* \"#utility.yul\":5091:5220   */\n      pop\n        /* \"#utility.yul\":4704:5227   */\n      swap3\n      pop\n      swap3\n      swap1\n      pop\n      jump\t// out\n        /* \"#utility.yul\":5233:5413   */\n    tag_72:\n        /* \"#utility.yul\":5281:5358   */\n      0x4e487b7100000000000000000000000000000000000000000000000000000000\n        /* \"#utility.yul\":5278:5279   */\n      0x00\n        /* \"#utility.yul\":5271:5359   */\n      mstore\n        /* \"#utility.yul\":5378:5382   */\n      0x11\n        /* \"#utility.yul\":5375:5376   */\n      0x04\n        /* \"#utility.yul\":5368:5383   */\n      mstore\n        /* \"#utility.yul\":5402:5406   */\n      0x24\n        /* \"#utility.yul\":5399:5400   */\n      0x00\n        /* \"#utility.yul\":5392:5407   */\n      revert\n        /* \"#utility.yul\":5419:5767   */\n    tag_37:\n        /* \"#utility.yul\":5459:5466   */\n      0x00\n        /* \"#utility.yul\":5482:5502   */\n      tag_145\n        /* \"#utility.yul\":5500:5501   */\n      dup3\n        /* \"#utility.yul\":5482:5502   */\n      tag_58\n      jump\t// in\n    tag_145:\n        /* \"#utility.yul\":5477:5502   */\n      swap2\n      pop\n        /* \"#utility.yul\":5516:5536   */\n      tag_146\n        /* \"#utility.yul\":5534:5535   */\n      dup4\n        /* \"#utility.yul\":5516:5536   */\n      tag_58\n      jump\t// in\n    tag_146:\n        /* \"#utility.yul\":5511:5536   */\n      swap3\n      pop\n        /* \"#utility.yul\":5704:5705   */\n      dup2\n        /* \"#utility.yul\":5636:5702   */\n      0xffffffffffffffffffffffffffffffffffffffffffffffffffffffffffffffff\n        /* \"#utility.yul\":5632:5706   */\n      div\n        /* \"#utility.yul\":5629:5630   */\n      dup4\n        /* \"#utility.yul\":5626:5707   */\n      gt\n        /* \"#utility.yul\":5621:5622   */\n      dup3\n        /* \"#utility.yul\":5614:5623   */\n      iszero\n        /* \"#utility.yul\":5607:5624   */\n      iszero\n        /* \"#utility.yul\":5603:5708   */\n      and\n        /* \"#utility.yul\":5600:5731   */\n      iszero\n      tag_147\n      jumpi\n        /* \"#utility.yul\":5711:5729   */\n      tag_148\n      tag_72\n      jump\t// in\n    tag_148:\n        /* \"#utility.yul\":5600:5731   */\n    tag_147:\n        /* \"#utility.yul\":5759:5760   */\n      dup3\n        /* \"#utility.yul\":5756:5757   */\n      dup3\n        /* \"#utility.yul\":5752:5761   */\n      mul\n        /* \"#utility.yul\":5741:5761   */\n      swap1\n      pop\n        /* \"#utility.yul\":5419:5767   */\n      swap3\n      swap2\n      pop\n      pop\n      jump\t// out\n        /* \"#utility.yul\":5773:5953   */\n    tag_73:\n        /* \"#utility.yul\":5821:5898   */\n      0x4e487b7100000000000000000000000000000000000000000000000000000000\n        /* \"#utility.yul\":5818:5819   */\n      0x00\n        /* \"#utility.yul\":5811:5899   */\n      mstore\n        /* \"#utility.yul\":5918:5922   */\n      0x12\n        /* \"#utility.yul\":5915:5916   */\n      0x04\n        /* \"#utility.yul\":5908:5923   */\n      mstore\n        /* \"#utility.yul\":5942:5946   */\n      0x24\n        /* \"#utility.yul\":5939:5940   */\n      0x00\n        /* \"#utility.yul\":5932:5947   */\n      revert\n        /* \"#utility.yul\":5959:6144   */\n    tag_39:\n        /* \"#utility.yul\":5999:6000   */\n      0x00\n        /* \"#utility.yul\":6016:6036   */\n      tag_151\n        /* \"#utility.yul\":6034:6035   */\n      dup3\n        /* \"#utility.yul\":6016:6036   */\n      tag_58\n      jump\t// in\n    tag_151:\n        /* \"#utility.yul\":6011:6036   */\n      swap2\n      pop\n        /* \"#utility.yul\":6050:6070   */\n      tag_152\n        /* \"#utility.yul\":6068:6069   */\n      dup4\n        /* \"#utility.yul\":6050:6070   */\n      tag_58\n      jump\t// in\n    tag_152:\n        /* \"#utility.yul\":6045:6070   */\n      swap3\n      pop\n        /* \"#utility.yul\":6089:6090   */\n      dup3\n        /* \"#utility.yul\":6079:6114   */\n      tag_153\n      jumpi\n        /* \"#utility.yul\":6094:6112   */\n      tag_154\n      tag_73\n      jump\t// in\n    tag_154:\n        /* \"#utility.yul\":6079:6114   */\n    tag_153:\n        /* \"#utility.yul\":6136:6137   */\n      dup3\n        /* \"#utility.yul\":6133:6134   */\n      dup3\n        /* \"#utility.yul\":6129:6138   */\n      div\n        /* \"#utility.yul\":6124:6138   */\n      swap1\n      pop\n        /* \"#utility.yul\":5959:6144   */\n      swap3\n      swap2\n      pop\n      pop\n      jump\t// out\n        /* \"#utility.yul\":6150:6319   */\n    tag_74:\n        /* \"#utility.yul\":6234:6245   */\n      0x00\n        /* \"#utility.yul\":6268:6274   */\n      dup3\n        /* \"#utility.yul\":6263:6266   */\n      dup3\n        /* \"#utility.yul\":6256:6275   */\n      mstore\n        /* \"#utility.yul\":6308:6312   */\n      0x20\n        /* \"#utility.yul\":6303:6306   */\n      dup3\n        /* \"#utility.yul\":6299:6313   */\n      add\n        /* \"#utility.yul\":6284:6313   */\n      swap1\n      pop\n        /* \"#utility.yul\":6150:6319   */\n      swap3\n      swap2\n      pop\n      pop\n      jump\t// out\n        /* \"#utility.yul\":6325:6545   */\n    tag_75:\n        /* \"#utility.yul\":6465:6499   */\n      0x536166654d6174683a206d756c7469706c69636174696f6e206f766572666c6f\n        /* \"#utility.yul\":6461:6462   */\n      0x00\n        /* \"#utility.yul\":6453:6459   */\n      dup3\n        /* \"#utility.yul\":6449:6463   */\n      add\n        /* \"#utility.yul\":6442:6500   */\n      mstore\n        /* \"#utility.yul\":6534:6537   */\n      0x7700000000000000000000000000000000000000000000000000000000000000\n        /* \"#utility.yul\":6529:6531   */\n      0x20\n        /* \"#utility.yul\":6521:6527   */\n      dup3\n        /* \"#utility.yul\":6517:6532   */\n      add\n        /* \"#utility.yul\":6510:6538   */\n      mstore\n        /* \"#utility.yul\":6325:6545   */\n      pop\n      jump\t// out\n        /* \"#utility.yul\":6551:6917   */\n    tag_76:\n        /* \"#utility.yul\":6693:6696   */\n      0x00\n        /* \"#utility.yul\":6714:6781   */\n      tag_158\n        /* \"#utility.yul\":6778:6780   */\n      0x21\n        /* \"#utility.yul\":6773:6776   */\n      dup4\n        /* \"#utility.yul\":6714:6781   */\n      tag_74\n      jump\t// in\n    tag_158:\n        /* \"#utility.yul\":6707:6781   */\n      swap2\n      pop\n        /* \"#utility.yul\":6790:6883   */\n      tag_159\n        /* \"#utility.yul\":6879:6882   */\n      dup3\n        /* \"#utility.yul\":6790:6883   */\n      tag_75\n      jump\t// in\n    tag_159:\n        /* \"#utility.yul\":6908:6910   */\n      0x40\n        /* \"#utility.yul\":6903:6906   */\n      dup3\n        /* \"#utility.yul\":6899:6911   */\n      add\n        /* \"#utility.yul\":6892:6911   */\n      swap1\n      pop\n        /* \"#utility.yul\":6551:6917   */\n      swap2\n      swap1\n      pop\n      jump\t// out\n        /* \"#utility.yul\":6923:7342   */\n    tag_42:\n        /* \"#utility.yul\":7089:7093   */\n      0x00\n        /* \"#utility.yul\":7127:7129   */\n      0x20\n        /* \"#utility.yul\":7116:7125   */\n      dup3\n        /* \"#utility.yul\":7112:7130   */\n      add\n        /* \"#utility.yul\":7104:7130   */\n      swap1\n      pop\n        /* \"#utility.yul\":7176:7185   */\n      dup2\n        /* \"#utility.yul\":7170:7174   */\n      dup2\n        /* \"#utility.yul\":7166:7186   */\n      sub\n        /* \"#utility.yul\":7162:7163   */\n      0x00\n        /* \"#utility.yul\":7151:7160   */\n      dup4\n        /* \"#utility.yul\":7147:7164   */\n      add\n        /* \"#utility.yul\":7140:7187   */\n      mstore\n        /* \"#utility.yul\":7204:7335   */\n      tag_161\n        /* \"#utility.yul\":7330:7334   */\n      dup2\n        /* \"#utility.yul\":7204:7335   */\n      tag_76\n      jump\t// in\n    tag_161:\n        /* \"#utility.yul\":7196:7335   */\n      swap1\n      pop\n        /* \"#utility.yul\":6923:7342   */\n      swap2\n      swap1\n      pop\n      jump\t// out\n        /* \"#utility.yul\":7348:7447   */\n    tag_77:\n        /* \"#utility.yul\":7400:7406   */\n      0x00\n        /* \"#utility.yul\":7434:7439   */\n      dup2\n        /* \"#utility.yul\":7428:7440   */\n      mload\n        /* \"#utility.yul\":7418:7440   */\n      swap1\n      pop\n        /* \"#utility.yul\":7348:7447   */\n      swap2\n      swap1\n      pop\n      jump\t// out\n        /* \"#utility.yul\":7453:7555   */\n    tag_78:\n        /* \"#utility.yul\":7494:7500   */\n      0x00\n        /* \"#utility.yul\":7545:7547   */\n      0x1f\n        /* \"#utility.yul\":7541:7548   */\n      not\n        /* \"#utility.yul\":7536:7538   */\n      0x1f\n        /* \"#utility.yul\":7529:7534   */\n      dup4\n        /* \"#utility.yul\":7525:7539   */\n      add\n        /* \"#utility.yul\":7521:7549   */\n      and\n        /* \"#utility.yul\":7511:7549   */\n      swap1\n      pop\n        /* \"#utility.yul\":7453:7555   */\n      swap2\n      swap1\n      pop\n      jump\t// out\n        /* \"#utility.yul\":7561:7925   */\n    tag_79:\n        /* \"#utility.yul\":7649:7652   */\n      0x00\n        /* \"#utility.yul\":7677:7716   */\n      tag_165\n        /* \"#utility.yul\":7710:7715   */\n      dup3\n        /* \"#utility.yul\":7677:7716   */\n      tag_77\n      jump\t// in\n    tag_165:\n        /* \"#utility.yul\":7732:7803   */\n      tag_166\n        /* \"#utility.yul\":7796:7802   */\n      dup2\n        /* \"#utility.yul\":7791:7794   */\n      dup6\n        /* \"#utility.yul\":7732:7803   */\n      tag_74\n      jump\t// in\n    tag_166:\n        /* \"#utility.yul\":7725:7803   */\n      swap4\n      pop\n        /* \"#utility.yul\":7812:7864   */\n      tag_167\n        /* \"#utility.yul\":7857:7863   */\n      dup2\n        /* \"#utility.yul\":7852:7855   */\n      dup6\n        /* \"#utility.yul\":7845:7849   */\n      0x20\n        /* \"#utility.yul\":7838:7843   */\n      dup7\n        /* \"#utility.yul\":7834:7850   */\n      add\n        /* \"#utility.yul\":7812:7864   */\n      tag_66\n      jump\t// in\n    tag_167:\n        /* \"#utility.yul\":7889:7918   */\n      tag_168\n        /* \"#utility.yul\":7911:7917   */\n      dup2\n        /* \"#utility.yul\":7889:7918   */\n      tag_78\n      jump\t// in\n    tag_168:\n        /* \"#utility.yul\":7884:7887   */\n      dup5\n        /* \"#utility.yul\":7880:7919   */\n      add\n        /* \"#utility.yul\":7873:7919   */\n      swap2\n      pop\n        /* \"#utility.yul\":7653:7925   */\n      pop\n        /* \"#utility.yul\":7561:7925   */\n      swap3\n      swap2\n      pop\n      pop\n      jump\t// out\n        /* \"#utility.yul\":7931:8244   */\n    tag_49:\n        /* \"#utility.yul\":8044:8048   */\n      0x00\n        /* \"#utility.yul\":8082:8084   */\n      0x20\n        /* \"#utility.yul\":8071:8080   */\n      dup3\n        /* \"#utility.yul\":8067:8085   */\n      add\n        /* \"#utility.yul\":8059:8085   */\n      swap1\n      pop\n        /* \"#utility.yul\":8131:8140   */\n      dup2\n        /* \"#utility.yul\":8125:8129   */\n      dup2\n        /* \"#utility.yul\":8121:8141   */\n      sub\n        /* \"#utility.yul\":8117:8118   */\n      0x00\n        /* \"#utility.yul\":8106:8115   */\n      dup4\n        /* \"#utility.yul\":8102:8119   */\n      add\n        /* \"#utility.yul\":8095:8142   */\n      mstore\n        /* \"#utility.yul\":8159:8237   */\n      tag_170\n        /* \"#utility.yul\":8232:8236   */\n      dup2\n        /* \"#utility.yul\":8223:8229   */\n      dup5\n        /* \"#utility.yul\":8159:8237   */\n      tag_79\n      jump\t// in\n    tag_170:\n        /* \"#utility.yul\":8151:8237   */\n      swap1\n      pop\n        /* \"#utility.yul\":7931:8244   */\n      swap3\n      swap2\n      pop\n      pop\n      jump\t// out\n\n    auxdata: 0xa264697066735822122097c88a2347f4dc6fe0ba92cf437b329017e050bfd1bf968f973ac1c197c0283764736f6c63430008090033\n}\n",
				"bytecode": {
					"linkReferences": {},
					"object": "610883610053600b82828239805160001a607314610046577f4e487b7100000000000000000000000000000000000000000000000000000000600052600060045260246000fd5b30600052607381538281f3fe73000000000000000000000000000000000000000030146080604052600436106100355760003560e01c8063f938761c1461003a575b600080fd5b610054600480360381019061004f9190610454565b61006b565b6040516100629291906104c5565b60405180910390f35b6000806000808673ffffffffffffffffffffffffffffffffffffffff16868660405160240161009b9291906104fd565b6040516020818303038152906040527f2a55205a000000000000000000000000000000000000000000000000000000007bffffffffffffffffffffffffffffffffffffffffffffffffffffffff19166020820180517bffffffffffffffffffffffffffffffffffffffffffffffffffffffff838183161783525050505060405161012591906105a0565b600060405180830381855afa9150503d8060008114610160576040519150601f19603f3d011682016040523d82523d6000602084013e610165565b606091505b5091509150818015610178575060408151145b156102815760008082806020019051810190610194919061060a565b91509150600073ffffffffffffffffffffffffffffffffffffffff168273ffffffffffffffffffffffffffffffffffffffff16141580156101d55750600081115b8015610207575061020360646101f560328a61029390919063ffffffff16565b61030e90919063ffffffff16565b8111155b1561021b578181955095505050505061028b565b610242606461023460328a61029390919063ffffffff16565b61030e90919063ffffffff16565b81111561027e5781610271606461026360328b61029390919063ffffffff16565b61030e90919063ffffffff16565b955095505050505061028b565b50505b6000809350935050505b935093915050565b6000808314156102a65760009050610308565b600082846102b49190610679565b90508284826102c39190610702565b14610303576040517f08c379a00000000000000000000000000000000000000000000000000000000081526004016102fa906107b6565b60405180910390fd5b809150505b92915050565b600061035083836040518060400160405280601a81526020017f536166654d6174683a206469766973696f6e206279207a65726f000000000000815250610358565b905092915050565b6000808311829061039f576040517f08c379a0000000000000000000000000000000000000000000000000000000008152600401610396919061082b565b60405180910390fd5b50600083856103ae9190610702565b9050809150509392505050565b600080fd5b600073ffffffffffffffffffffffffffffffffffffffff82169050919050565b60006103eb826103c0565b9050919050565b6103fb816103e0565b811461040657600080fd5b50565b600081359050610418816103f2565b92915050565b6000819050919050565b6104318161041e565b811461043c57600080fd5b50565b60008135905061044e81610428565b92915050565b60008060006060848603121561046d5761046c6103bb565b5b600061047b86828701610409565b935050602061048c8682870161043f565b925050604061049d8682870161043f565b9150509250925092565b6104b0816103e0565b82525050565b6104bf8161041e565b82525050565b60006040820190506104da60008301856104a7565b6104e760208301846104b6565b9392505050565b6104f78161041e565b82525050565b600060408201905061051260008301856104ee565b61051f60208301846104ee565b9392505050565b600081519050919050565b600081905092915050565b60005b8381101561055a57808201518184015260208101905061053f565b83811115610569576000848401525b50505050565b600061057a82610526565b6105848185610531565b935061059481856020860161053c565b80840191505092915050565b60006105ac828461056f565b915081905092915050565b60006105c2826103c0565b9050919050565b6105d2816105b7565b81146105dd57600080fd5b50565b6000815190506105ef816105c9565b92915050565b60008151905061060481610428565b92915050565b60008060408385031215610621576106206103bb565b5b600061062f858286016105e0565b9250506020610640858286016105f5565b9150509250929050565b7f4e487b7100000000000000000000000000000000000000000000000000000000600052601160045260246000fd5b60006106848261041e565b915061068f8361041e565b9250817fffffffffffffffffffffffffffffffffffffffffffffffffffffffffffffffff04831182151516156106c8576106c761064a565b5b828202905092915050565b7f4e487b7100000000000000000000000000000000000000000000000000000000600052601260045260246000fd5b600061070d8261041e565b91506107188361041e565b925082610728576107276106d3565b5b828204905092915050565b600082825260208201905092915050565b7f536166654d6174683a206d756c7469706c69636174696f6e206f766572666c6f60008201527f7700000000000000000000000000000000000000000000000000000000000000602082015250565b60006107a0602183610733565b91506107ab82610744565b604082019050919050565b600060208201905081810360008301526107cf81610793565b9050919050565b600081519050919050565b6000601f19601f8301169050919050565b60006107fd826107d6565b6108078185610733565b935061081781856020860161053c565b610820816107e1565b840191505092915050565b6000602082019050818103600083015261084581846107f2565b90509291505056fea264697066735822122097c88a2347f4dc6fe0ba92cf437b329017e050bfd1bf968f973ac1c197c0283764736f6c63430008090033",
					"opcodes": "PUSH2 0x883 PUSH2 0x53 PUSH1 0xB DUP3 DUP3 DUP3 CODECOPY DUP1 MLOAD PUSH1 0x0 BYTE PUSH1 0x73 EQ PUSH2 0x46 JUMPI PUSH32 0x4E487B7100000000000000000000000000000000000000000000000000000000 PUSH1 0x0 MSTORE PUSH1 0x0 PUSH1 0x4 MSTORE PUSH1 0x24 PUSH1 0x0 REVERT JUMPDEST ADDRESS PUSH1 0x0 MSTORE PUSH1 0x73 DUP2 MSTORE8 DUP3 DUP2 RETURN INVALID PUSH20 0x0 ADDRESS EQ PUSH1 0x80 PUSH1 0x40 MSTORE PUSH1 0x4 CALLDATASIZE LT PUSH2 0x35 JUMPI PUSH1 0x0 CALLDATALOAD PUSH1 0xE0 SHR DUP1 PUSH4 0xF938761C EQ PUSH2 0x3A JUMPI JUMPDEST PUSH1 0x0 DUP1 REVERT JUMPDEST PUSH2 0x54 PUSH1 0x4 DUP1 CALLDATASIZE SUB DUP2 ADD SWAP1 PUSH2 0x4F SWAP2 SWAP1 PUSH2 0x454 JUMP JUMPDEST PUSH2 0x6B JUMP JUMPDEST PUSH1 0x40 MLOAD PUSH2 0x62 SWAP3 SWAP2 SWAP1 PUSH2 0x4C5 JUMP JUMPDEST PUSH1 0x40 MLOAD DUP1 SWAP2 SUB SWAP1 RETURN JUMPDEST PUSH1 0x0 DUP1 PUSH1 0x0 DUP1 DUP7 PUSH20 0xFFFFFFFFFFFFFFFFFFFFFFFFFFFFFFFFFFFFFFFF AND DUP7 DUP7 PUSH1 0x40 MLOAD PUSH1 0x24 ADD PUSH2 0x9B SWAP3 SWAP2 SWAP1 PUSH2 0x4FD JUMP JUMPDEST PUSH1 0x40 MLOAD PUSH1 0x20 DUP2 DUP4 SUB SUB DUP2 MSTORE SWAP1 PUSH1 0x40 MSTORE PUSH32 0x2A55205A00000000000000000000000000000000000000000000000000000000 PUSH28 0xFFFFFFFFFFFFFFFFFFFFFFFFFFFFFFFFFFFFFFFFFFFFFFFFFFFFFFFF NOT AND PUSH1 0x20 DUP3 ADD DUP1 MLOAD PUSH28 0xFFFFFFFFFFFFFFFFFFFFFFFFFFFFFFFFFFFFFFFFFFFFFFFFFFFFFFFF DUP4 DUP2 DUP4 AND OR DUP4 MSTORE POP POP POP POP PUSH1 0x40 MLOAD PUSH2 0x125 SWAP2 SWAP1 PUSH2 0x5A0 JUMP JUMPDEST PUSH1 0x0 PUSH1 0x40 MLOAD DUP1 DUP4 SUB DUP2 DUP6 GAS STATICCALL SWAP2 POP POP RETURNDATASIZE DUP1 PUSH1 0x0 DUP2 EQ PUSH2 0x160 JUMPI PUSH1 0x40 MLOAD SWAP2 POP PUSH1 0x1F NOT PUSH1 0x3F RETURNDATASIZE ADD AND DUP3 ADD PUSH1 0x40 MSTORE RETURNDATASIZE DUP3 MSTORE RETURNDATASIZE PUSH1 0x0 PUSH1 0x20 DUP5 ADD RETURNDATACOPY PUSH2 0x165 JUMP JUMPDEST PUSH1 0x60 SWAP2 POP JUMPDEST POP SWAP2 POP SWAP2 POP DUP2 DUP1 ISZERO PUSH2 0x178 JUMPI POP PUSH1 0x40 DUP2 MLOAD EQ JUMPDEST ISZERO PUSH2 0x281 JUMPI PUSH1 0x0 DUP1 DUP3 DUP1 PUSH1 0x20 ADD SWAP1 MLOAD DUP2 ADD SWAP1 PUSH2 0x194 SWAP2 SWAP1 PUSH2 0x60A JUMP JUMPDEST SWAP2 POP SWAP2 POP PUSH1 0x0 PUSH20 0xFFFFFFFFFFFFFFFFFFFFFFFFFFFFFFFFFFFFFFFF AND DUP3 PUSH20 0xFFFFFFFFFFFFFFFFFFFFFFFFFFFFFFFFFFFFFFFF AND EQ ISZERO DUP1 ISZERO PUSH2 0x1D5 JUMPI POP PUSH1 0x0 DUP2 GT JUMPDEST DUP1 ISZERO PUSH2 0x207 JUMPI POP PUSH2 0x203 PUSH1 0x64 PUSH2 0x1F5 PUSH1 0x32 DUP11 PUSH2 0x293 SWAP1 SWAP2 SWAP1 PUSH4 0xFFFFFFFF AND JUMP JUMPDEST PUSH2 0x30E SWAP1 SWAP2 SWAP1 PUSH4 0xFFFFFFFF AND JUMP JUMPDEST DUP2 GT ISZERO JUMPDEST ISZERO PUSH2 0x21B JUMPI DUP2 DUP2 SWAP6 POP SWAP6 POP POP POP POP POP PUSH2 0x28B JUMP JUMPDEST PUSH2 0x242 PUSH1 0x64 PUSH2 0x234 PUSH1 0x32 DUP11 PUSH2 0x293 SWAP1 SWAP2 SWAP1 PUSH4 0xFFFFFFFF AND JUMP JUMPDEST PUSH2 0x30E SWAP1 SWAP2 SWAP1 PUSH4 0xFFFFFFFF AND JUMP JUMPDEST DUP2 GT ISZERO PUSH2 0x27E JUMPI DUP2 PUSH2 0x271 PUSH1 0x64 PUSH2 0x263 PUSH1 0x32 DUP12 PUSH2 0x293 SWAP1 SWAP2 SWAP1 PUSH4 0xFFFFFFFF AND JUMP JUMPDEST PUSH2 0x30E SWAP1 SWAP2 SWAP1 PUSH4 0xFFFFFFFF AND JUMP JUMPDEST SWAP6 POP SWAP6 POP POP POP POP POP PUSH2 0x28B JUMP JUMPDEST POP POP JUMPDEST PUSH1 0x0 DUP1 SWAP4 POP SWAP4 POP POP POP JUMPDEST SWAP4 POP SWAP4 SWAP2 POP POP JUMP JUMPDEST PUSH1 0x0 DUP1 DUP4 EQ ISZERO PUSH2 0x2A6 JUMPI PUSH1 0x0 SWAP1 POP PUSH2 0x308 JUMP JUMPDEST PUSH1 0x0 DUP3 DUP5 PUSH2 0x2B4 SWAP2 SWAP1 PUSH2 0x679 JUMP JUMPDEST SWAP1 POP DUP3 DUP5 DUP3 PUSH2 0x2C3 SWAP2 SWAP1 PUSH2 0x702 JUMP JUMPDEST EQ PUSH2 0x303 JUMPI PUSH1 0x40 MLOAD PUSH32 0x8C379A000000000000000000000000000000000000000000000000000000000 DUP2 MSTORE PUSH1 0x4 ADD PUSH2 0x2FA SWAP1 PUSH2 0x7B6 JUMP JUMPDEST PUSH1 0x40 MLOAD DUP1 SWAP2 SUB SWAP1 REVERT JUMPDEST DUP1 SWAP2 POP POP JUMPDEST SWAP3 SWAP2 POP POP JUMP JUMPDEST PUSH1 0x0 PUSH2 0x350 DUP4 DUP4 PUSH1 0x40 MLOAD DUP1 PUSH1 0x40 ADD PUSH1 0x40 MSTORE DUP1 PUSH1 0x1A DUP2 MSTORE PUSH1 0x20 ADD PUSH32 0x536166654D6174683A206469766973696F6E206279207A65726F000000000000 DUP2 MSTORE POP PUSH2 0x358 JUMP JUMPDEST SWAP1 POP SWAP3 SWAP2 POP POP JUMP JUMPDEST PUSH1 0x0 DUP1 DUP4 GT DUP3 SWAP1 PUSH2 0x39F JUMPI PUSH1 0x40 MLOAD PUSH32 0x8C379A000000000000000000000000000000000000000000000000000000000 DUP2 MSTORE PUSH1 0x4 ADD PUSH2 0x396 SWAP2 SWAP1 PUSH2 0x82B JUMP JUMPDEST PUSH1 0x40 MLOAD DUP1 SWAP2 SUB SWAP1 REVERT JUMPDEST POP PUSH1 0x0 DUP4 DUP6 PUSH2 0x3AE SWAP2 SWAP1 PUSH2 0x702 JUMP JUMPDEST SWAP1 POP DUP1 SWAP2 POP POP SWAP4 SWAP3 POP POP POP JUMP JUMPDEST PUSH1 0x0 DUP1 REVERT JUMPDEST PUSH1 0x0 PUSH20 0xFFFFFFFFFFFFFFFFFFFFFFFFFFFFFFFFFFFFFFFF DUP3 AND SWAP1 POP SWAP2 SWAP1 POP JUMP JUMPDEST PUSH1 0x0 PUSH2 0x3EB DUP3 PUSH2 0x3C0 JUMP JUMPDEST SWAP1 POP SWAP2 SWAP1 POP JUMP JUMPDEST PUSH2 0x3FB DUP2 PUSH2 0x3E0 JUMP JUMPDEST DUP2 EQ PUSH2 0x406 JUMPI PUSH1 0x0 DUP1 REVERT JUMPDEST POP JUMP JUMPDEST PUSH1 0x0 DUP2 CALLDATALOAD SWAP1 POP PUSH2 0x418 DUP2 PUSH2 0x3F2 JUMP JUMPDEST SWAP3 SWAP2 POP POP JUMP JUMPDEST PUSH1 0x0 DUP2 SWAP1 POP SWAP2 SWAP1 POP JUMP JUMPDEST PUSH2 0x431 DUP2 PUSH2 0x41E JUMP JUMPDEST DUP2 EQ PUSH2 0x43C JUMPI PUSH1 0x0 DUP1 REVERT JUMPDEST POP JUMP JUMPDEST PUSH1 0x0 DUP2 CALLDATALOAD SWAP1 POP PUSH2 0x44E DUP2 PUSH2 0x428 JUMP JUMPDEST SWAP3 SWAP2 POP POP JUMP JUMPDEST PUSH1 0x0 DUP1 PUSH1 0x0 PUSH1 0x60 DUP5 DUP7 SUB SLT ISZERO PUSH2 0x46D JUMPI PUSH2 0x46C PUSH2 0x3BB JUMP JUMPDEST JUMPDEST PUSH1 0x0 PUSH2 0x47B DUP7 DUP3 DUP8 ADD PUSH2 0x409 JUMP JUMPDEST SWAP4 POP POP PUSH1 0x20 PUSH2 0x48C DUP7 DUP3 DUP8 ADD PUSH2 0x43F JUMP JUMPDEST SWAP3 POP POP PUSH1 0x40 PUSH2 0x49D DUP7 DUP3 DUP8 ADD PUSH2 0x43F JUMP JUMPDEST SWAP2 POP POP SWAP3 POP SWAP3 POP SWAP3 JUMP JUMPDEST PUSH2 0x4B0 DUP2 PUSH2 0x3E0 JUMP JUMPDEST DUP3 MSTORE POP POP JUMP JUMPDEST PUSH2 0x4BF DUP2 PUSH2 0x41E JUMP JUMPDEST DUP3 MSTORE POP POP JUMP JUMPDEST PUSH1 0x0 PUSH1 0x40 DUP3 ADD SWAP1 POP PUSH2 0x4DA PUSH1 0x0 DUP4 ADD DUP6 PUSH2 0x4A7 JUMP JUMPDEST PUSH2 0x4E7 PUSH1 0x20 DUP4 ADD DUP5 PUSH2 0x4B6 JUMP JUMPDEST SWAP4 SWAP3 POP POP POP JUMP JUMPDEST PUSH2 0x4F7 DUP2 PUSH2 0x41E JUMP JUMPDEST DUP3 MSTORE POP POP JUMP JUMPDEST PUSH1 0x0 PUSH1 0x40 DUP3 ADD SWAP1 POP PUSH2 0x512 PUSH1 0x0 DUP4 ADD DUP6 PUSH2 0x4EE JUMP JUMPDEST PUSH2 0x51F PUSH1 0x20 DUP4 ADD DUP5 PUSH2 0x4EE JUMP JUMPDEST SWAP4 SWAP3 POP POP POP JUMP JUMPDEST PUSH1 0x0 DUP2 MLOAD SWAP1 POP SWAP2 SWAP1 POP JUMP JUMPDEST PUSH1 0x0 DUP2 SWAP1 POP SWAP3 SWAP2 POP POP JUMP JUMPDEST PUSH1 0x0 JUMPDEST DUP4 DUP2 LT ISZERO PUSH2 0x55A JUMPI DUP1 DUP3 ADD MLOAD DUP2 DUP5 ADD MSTORE PUSH1 0x20 DUP2 ADD SWAP1 POP PUSH2 0x53F JUMP JUMPDEST DUP4 DUP2 GT ISZERO PUSH2 0x569 JUMPI PUSH1 0x0 DUP5 DUP5 ADD MSTORE JUMPDEST POP POP POP POP JUMP JUMPDEST PUSH1 0x0 PUSH2 0x57A DUP3 PUSH2 0x526 JUMP JUMPDEST PUSH2 0x584 DUP2 DUP6 PUSH2 0x531 JUMP JUMPDEST SWAP4 POP PUSH2 0x594 DUP2 DUP6 PUSH1 0x20 DUP7 ADD PUSH2 0x53C JUMP JUMPDEST DUP1 DUP5 ADD SWAP2 POP POP SWAP3 SWAP2 POP POP JUMP JUMPDEST PUSH1 0x0 PUSH2 0x5AC DUP3 DUP5 PUSH2 0x56F JUMP JUMPDEST SWAP2 POP DUP2 SWAP1 POP SWAP3 SWAP2 POP POP JUMP JUMPDEST PUSH1 0x0 PUSH2 0x5C2 DUP3 PUSH2 0x3C0 JUMP JUMPDEST SWAP1 POP SWAP2 SWAP1 POP JUMP JUMPDEST PUSH2 0x5D2 DUP2 PUSH2 0x5B7 JUMP JUMPDEST DUP2 EQ PUSH2 0x5DD JUMPI PUSH1 0x0 DUP1 REVERT JUMPDEST POP JUMP JUMPDEST PUSH1 0x0 DUP2 MLOAD SWAP1 POP PUSH2 0x5EF DUP2 PUSH2 0x5C9 JUMP JUMPDEST SWAP3 SWAP2 POP POP JUMP JUMPDEST PUSH1 0x0 DUP2 MLOAD SWAP1 POP PUSH2 0x604 DUP2 PUSH2 0x428 JUMP JUMPDEST SWAP3 SWAP2 POP POP JUMP JUMPDEST PUSH1 0x0 DUP1 PUSH1 0x40 DUP4 DUP6 SUB SLT ISZERO PUSH2 0x621 JUMPI PUSH2 0x620 PUSH2 0x3BB JUMP JUMPDEST JUMPDEST PUSH1 0x0 PUSH2 0x62F DUP6 DUP3 DUP7 ADD PUSH2 0x5E0 JUMP JUMPDEST SWAP3 POP POP PUSH1 0x20 PUSH2 0x640 DUP6 DUP3 DUP7 ADD PUSH2 0x5F5 JUMP JUMPDEST SWAP2 POP POP SWAP3 POP SWAP3 SWAP1 POP JUMP JUMPDEST PUSH32 0x4E487B7100000000000000000000000000000000000000000000000000000000 PUSH1 0x0 MSTORE PUSH1 0x11 PUSH1 0x4 MSTORE PUSH1 0x24 PUSH1 0x0 REVERT JUMPDEST PUSH1 0x0 PUSH2 0x684 DUP3 PUSH2 0x41E JUMP JUMPDEST SWAP2 POP PUSH2 0x68F DUP4 PUSH2 0x41E JUMP JUMPDEST SWAP3 POP DUP2 PUSH32 0xFFFFFFFFFFFFFFFFFFFFFFFFFFFFFFFFFFFFFFFFFFFFFFFFFFFFFFFFFFFFFFFF DIV DUP4 GT DUP3 ISZERO ISZERO AND ISZERO PUSH2 0x6C8 JUMPI PUSH2 0x6C7 PUSH2 0x64A JUMP JUMPDEST JUMPDEST DUP3 DUP3 MUL SWAP1 POP SWAP3 SWAP2 POP POP JUMP JUMPDEST PUSH32 0x4E487B7100000000000000000000000000000000000000000000000000000000 PUSH1 0x0 MSTORE PUSH1 0x12 PUSH1 0x4 MSTORE PUSH1 0x24 PUSH1 0x0 REVERT JUMPDEST PUSH1 0x0 PUSH2 0x70D DUP3 PUSH2 0x41E JUMP JUMPDEST SWAP2 POP PUSH2 0x718 DUP4 PUSH2 0x41E JUMP JUMPDEST SWAP3 POP DUP3 PUSH2 0x728 JUMPI PUSH2 0x727 PUSH2 0x6D3 JUMP JUMPDEST JUMPDEST DUP3 DUP3 DIV SWAP1 POP SWAP3 SWAP2 POP POP JUMP JUMPDEST PUSH1 0x0 DUP3 DUP3 MSTORE PUSH1 0x20 DUP3 ADD SWAP1 POP SWAP3 SWAP2 POP POP JUMP JUMPDEST PUSH32 0x536166654D6174683A206D756C7469706C69636174696F6E206F766572666C6F PUSH1 0x0 DUP3 ADD MSTORE PUSH32 0x7700000000000000000000000000000000000000000000000000000000000000 PUSH1 0x20 DUP3 ADD MSTORE POP JUMP JUMPDEST PUSH1 0x0 PUSH2 0x7A0 PUSH1 0x21 DUP4 PUSH2 0x733 JUMP JUMPDEST SWAP2 POP PUSH2 0x7AB DUP3 PUSH2 0x744 JUMP JUMPDEST PUSH1 0x40 DUP3 ADD SWAP1 POP SWAP2 SWAP1 POP JUMP JUMPDEST PUSH1 0x0 PUSH1 0x20 DUP3 ADD SWAP1 POP DUP2 DUP2 SUB PUSH1 0x0 DUP4 ADD MSTORE PUSH2 0x7CF DUP2 PUSH2 0x793 JUMP JUMPDEST SWAP1 POP SWAP2 SWAP1 POP JUMP JUMPDEST PUSH1 0x0 DUP2 MLOAD SWAP1 POP SWAP2 SWAP1 POP JUMP JUMPDEST PUSH1 0x0 PUSH1 0x1F NOT PUSH1 0x1F DUP4 ADD AND SWAP1 POP SWAP2 SWAP1 POP JUMP JUMPDEST PUSH1 0x0 PUSH2 0x7FD DUP3 PUSH2 0x7D6 JUMP JUMPDEST PUSH2 0x807 DUP2 DUP6 PUSH2 0x733 JUMP JUMPDEST SWAP4 POP PUSH2 0x817 DUP2 DUP6 PUSH1 0x20 DUP7 ADD PUSH2 0x53C JUMP JUMPDEST PUSH2 0x820 DUP2 PUSH2 0x7E1 JUMP JUMPDEST DUP5 ADD SWAP2 POP POP SWAP3 SWAP2 POP POP JUMP JUMPDEST PUSH1 0x0 PUSH1 0x20 DUP3 ADD SWAP1 POP DUP2 DUP2 SUB PUSH1 0x0 DUP4 ADD MSTORE PUSH2 0x845 DUP2 DUP5 PUSH2 0x7F2 JUMP JUMPDEST SWAP1 POP SWAP3 SWAP2 POP POP JUMP INVALID LOG2 PUSH5 0x6970667358 0x22 SLT KECCAK256 SWAP8 0xC8 DUP11 0x23 SELFBALANCE DELEGATECALL 0xDC PUSH16 0xE0BA92CF437B329017E050BFD1BF968F SWAP8 GASPRICE 0xC1 0xC1 SWAP8 0xC0 0x28 CALLDATACOPY PUSH5 0x736F6C6343 STOP ADDMOD MULMOD STOP CALLER "
				},
				"gasEstimates": {
					"creation": {
						"codeDepositCost": "435800",
						"executionCost": "499",
						"totalCost": "436299"
					},
					"external": {
						"HelpRoyalties(address,uint256,uint256)": "infinite"
					},
					"internal": {
						"safeApprove(address,address,uint256)": "infinite",
						"safeTransfer(address,address,uint256)": "infinite",
						"safeTransferETH(address,uint256)": "infinite",
						"safeTransferFrom(address,address,address,uint256)": "infinite"
					}
				},
				"methodIdentifiers": {
					"HelpRoyalties(address,uint256,uint256)": "f938761c"
				}
			},
			"storageLayout": {
				"storage": [],
				"types": null
			},
			"userdoc": {
				"kind": "user",
				"methods": {},
				"version": 1
			}
		}
	}
}