{
  "_format": "hh-sol-artifact-1",
  "contractName": "ButterRouterV2",
  "sourceName": "contracts/ButterRouterV2.sol",
  "abi": [
    {
      "inputs": [
        {
          "components": [
            {
              "internalType": "uint256[]",
              "name": "amountInArr",
              "type": "uint256[]"
            },
            {
              "internalType": "bytes[]",
              "name": "paramsArr",
              "type": "bytes[]"
            },
            {
              "internalType": "uint32[]",
              "name": "routerIndex",
              "type": "uint32[]"
            },
            {
              "internalType": "address[2]",
              "name": "inputOutAddre",
              "type": "address[2]"
            }
          ],
          "internalType": "struct ButterCore.AccessParams",
          "name": "swapData",
          "type": "tuple"
        },
        {
          "components": [
            {
              "components": [
                {
                  "internalType": "uint256",
                  "name": "amountIn",
                  "type": "uint256"
                },
                {
                  "internalType": "uint256",
                  "name": "minAmountOut",
                  "type": "uint256"
                },
                {
                  "internalType": "bytes",
                  "name": "path",
                  "type": "bytes"
                },
                {
                  "internalType": "uint64",
                  "name": "routerIndex",
                  "type": "uint64"
                }
              ],
              "internalType": "struct MapMos.SwapParam[]",
              "name": "swapParams",
              "type": "tuple[]"
            },
            {
              "internalType": "bytes",
              "name": "targetToken",
              "type": "bytes"
            },
            {
              "internalType": "bytes",
              "name": "toAddress",
              "type": "bytes"
            }
          ],
          "internalType": "struct MapMos.SwapData",
          "name": "mosData",
          "type": "tuple"
        },
        {
          "internalType": "uint256",
          "name": "amount",
          "type": "uint256"
        },
        {
          "internalType": "address",
          "name": "mapTargetToken",
          "type": "address"
        },
        {
          "internalType": "uint256",
          "name": "toChain",
          "type": "uint256"
        }
      ],
      "name": "entrance",
      "outputs": [],
      "stateMutability": "payable",
      "type": "function"
    },
    {
      "stateMutability": "payable",
      "type": "receive"
    }
  ],
  "bytecode": "0x608060405234801561001057600080fd5b5061220d806100206000396000f3fe6080604052600436106100225760003560e01c8063db9d74f31461002e57610029565b3661002957005b600080fd5b61004860048036038101906100439190610e53565b61004a565b005b6000831161008d576040517f08c379a000000000000000000000000000000000000000000000000000000000815260040161008490610f63565b60405180910390fd5b600073ffffffffffffffffffffffffffffffffffffffff16856060016000600281106100bc576100bb610f83565b5b6020020160208101906100cf9190610fb2565b73ffffffffffffffffffffffffffffffffffffffff16036101505782341461012c576040517f08c379a00000000000000000000000000000000000000000000000000000000081526004016101239061102b565b60405180910390fd5b61014b85610139906115c0565b8561014390611840565b8585856101e1565b6101da565b6101858560600160006002811061016a57610169610f83565b5b60200201602081019061017d9190610fb2565b33308661098f565b6101ba8560600160006002811061019f5761019e610f83565b5b6020020160208101906101b29190610fb2565b333086610a31565b6101d9856101c7906115c0565b856101d190611840565b8585856101e1565b5b5050505050565b600080600073ffffffffffffffffffffffffffffffffffffffff16876060015160016002811061021457610213610f83565b5b602002015173ffffffffffffffffffffffffffffffffffffffff160361038857479150610272876060015160006002811061025257610251610f83565b5b602002015173b401355440842aab5a4dea8abfc7439d9cb8ab5587610b6a565b73b401355440842aab5a4dea8abfc7439d9cb8ab5573ffffffffffffffffffffffffffffffffffffffff166342b28308886040518263ffffffff1660e01b81526004016102bf9190611c2c565b600060405180830381600087803b1580156102d957600080fd5b505af11580156102ed573d6000803e3d6000fd5b5050505081476102fd9190611c7d565b905073fe103b6fc8ee2e042a0bec78f0a072074f7734f473ffffffffffffffffffffffffffffffffffffffff1663ec5db18d8286868a6040518563ffffffff1660e01b815260040161035193929190611e61565b6000604051808303818588803b15801561036a57600080fd5b505af115801561037e573d6000803e3d6000fd5b5050505050610986565b600073ffffffffffffffffffffffffffffffffffffffff1687606001516000600281106103b8576103b7610f83565b5b602002015173ffffffffffffffffffffffffffffffffffffffff16036106b15786606001516001600281106103f0576103ef610f83565b5b602002015173ffffffffffffffffffffffffffffffffffffffff166370a08231306040518263ffffffff1660e01b815260040161042d9190611e9f565b602060405180830381865afa15801561044a573d6000803e3d6000fd5b505050506040513d601f19601f8201168201806040525081019061046e9190611ecf565b915073b401355440842aab5a4dea8abfc7439d9cb8ab5573ffffffffffffffffffffffffffffffffffffffff166342b2830886896040518363ffffffff1660e01b81526004016104be9190611c2c565b6000604051808303818588803b1580156104d757600080fd5b505af11580156104eb573d6000803e3d6000fd5b505050505081876060015160016002811061050957610508610f83565b5b602002015173ffffffffffffffffffffffffffffffffffffffff166370a08231306040518263ffffffff1660e01b81526004016105469190611e9f565b602060405180830381865afa158015610563573d6000803e3d6000fd5b505050506040513d601f19601f820116820180604052508101906105879190611ecf565b6105919190611c7d565b90506105ce87606001516001600281106105ae576105ad610f83565b5b602002015173fe103b6fc8ee2e042a0bec78f0a072074f7734f483610b6a565b61060987606001516001600281106105e9576105e8610f83565b5b602002015173fe103b6fc8ee2e042a0bec78f0a072074f7734f483610ca0565b73fe103b6fc8ee2e042a0bec78f0a072074f7734f473ffffffffffffffffffffffffffffffffffffffff16632c8b6db5886060015160016002811061065157610650610f83565b5b60200201518387878b6040518663ffffffff1660e01b815260040161067a959493929190611efc565b600060405180830381600087803b15801561069457600080fd5b505af11580156106a8573d6000803e3d6000fd5b50505050610985565b86606001516001600281106106c9576106c8610f83565b5b602002015173ffffffffffffffffffffffffffffffffffffffff166370a08231306040518263ffffffff1660e01b81526004016107069190611e9f565b602060405180830381865afa158015610723573d6000803e3d6000fd5b505050506040513d601f19601f820116820180604052508101906107479190611ecf565b9150610784876060015160006002811061076457610763610f83565b5b602002015173b401355440842aab5a4dea8abfc7439d9cb8ab5587610b6a565b73b401355440842aab5a4dea8abfc7439d9cb8ab5573ffffffffffffffffffffffffffffffffffffffff166342b28308886040518263ffffffff1660e01b81526004016107d19190611c2c565b600060405180830381600087803b1580156107eb57600080fd5b505af11580156107ff573d6000803e3d6000fd5b5050505081876060015160016002811061081c5761081b610f83565b5b602002015173ffffffffffffffffffffffffffffffffffffffff166370a08231306040518263ffffffff1660e01b81526004016108599190611e9f565b602060405180830381865afa158015610876573d6000803e3d6000fd5b505050506040513d601f19601f8201168201806040525081019061089a9190611ecf565b6108a49190611c7d565b90506108e187606001516001600281106108c1576108c0610f83565b5b602002015173fe103b6fc8ee2e042a0bec78f0a072074f7734f483610b6a565b73fe103b6fc8ee2e042a0bec78f0a072074f7734f473ffffffffffffffffffffffffffffffffffffffff16632c8b6db5886060015160016002811061092957610928610f83565b5b60200201518387878b6040518663ffffffff1660e01b8152600401610952959493929190611efc565b600060405180830381600087803b15801561096c57600080fd5b505af1158015610980573d6000803e3d6000fd5b505050505b5b50505050505050565b610a2b848484846040516024016109a99493929190611f56565b6040516020818303038152906040527f94250d77000000000000000000000000000000000000000000000000000000007bffffffffffffffffffffffffffffffffffffffffffffffffffffffff19166020820180517bffffffffffffffffffffffffffffffffffffffffffffffffffffffff8381831617835250505050610d3f565b50505050565b6000808573ffffffffffffffffffffffffffffffffffffffff166323b872dd868686604051602401610a6593929190611f9b565b6040516020818303038152906040529060e01b6020820180517bffffffffffffffffffffffffffffffffffffffffffffffffffffffff8381831617835250505050604051610ab3919061200e565b6000604051808303816000865af19150503d8060008114610af0576040519150601f19603f3d011682016040523d82523d6000602084013e610af5565b606091505b5091509150818015610b235750600081511480610b22575080806020019051810190610b21919061205d565b5b5b610b62576040517f08c379a0000000000000000000000000000000000000000000000000000000008152600401610b59906120fc565b60405180910390fd5b505050505050565b6000808473ffffffffffffffffffffffffffffffffffffffff1663095ea7b38585604051602401610b9c92919061211c565b6040516020818303038152906040529060e01b6020820180517bffffffffffffffffffffffffffffffffffffffffffffffffffffffff8381831617835250505050604051610bea919061200e565b6000604051808303816000865af19150503d8060008114610c27576040519150601f19603f3d011682016040523d82523d6000602084013e610c2c565b606091505b5091509150818015610c5a5750600081511480610c59575080806020019051810190610c58919061205d565b5b5b610c99576040517f08c379a0000000000000000000000000000000000000000000000000000000008152600401610c90906121b7565b60405180910390fd5b5050505050565b610d3a838383604051602401610cb893929190611f9b565b6040516020818303038152906040527f17fe6185000000000000000000000000000000000000000000000000000000007bffffffffffffffffffffffffffffffffffffffffffffffffffffffff19166020820180517bffffffffffffffffffffffffffffffffffffffffffffffffffffffff8381831617835250505050610d3f565b505050565b60008151905060006a636f6e736f6c652e6c6f679050602083016000808483855afa5050505050565b6000604051905090565b600080fd5b600080fd5b600080fd5b600060a08284031215610d9757610d96610d7c565b5b81905092915050565b600060608284031215610db657610db5610d7c565b5b81905092915050565b6000819050919050565b610dd281610dbf565b8114610ddd57600080fd5b50565b600081359050610def81610dc9565b92915050565b600073ffffffffffffffffffffffffffffffffffffffff82169050919050565b6000610e2082610df5565b9050919050565b610e3081610e15565b8114610e3b57600080fd5b50565b600081359050610e4d81610e27565b92915050565b600080600080600060a08688031215610e6f57610e6e610d72565b5b600086013567ffffffffffffffff811115610e8d57610e8c610d77565b5b610e9988828901610d81565b955050602086013567ffffffffffffffff811115610eba57610eb9610d77565b5b610ec688828901610da0565b9450506040610ed788828901610de0565b9350506060610ee888828901610e3e565b9250506080610ef988828901610de0565b9150509295509295909350565b600082825260208201905092915050565b7f53656e64696e672076616c7565206973207a65726f0000000000000000000000600082015250565b6000610f4d601583610f06565b9150610f5882610f17565b602082019050919050565b60006020820190508181036000830152610f7c81610f40565b9050919050565b7f4e487b7100000000000000000000000000000000000000000000000000000000600052603260045260246000fd5b600060208284031215610fc857610fc7610d72565b5b6000610fd684828501610e3e565b91505092915050565b7f4e6f7420656e6f756768206d6f6e657900000000000000000000000000000000600082015250565b6000611015601083610f06565b915061102082610fdf565b602082019050919050565b6000602082019050818103600083015261104481611008565b9050919050565b600080fd5b6000601f19601f8301169050919050565b7f4e487b7100000000000000000000000000000000000000000000000000000000600052604160045260246000fd5b61109982611050565b810181811067ffffffffffffffff821117156110b8576110b7611061565b5b80604052505050565b60006110cb610d68565b90506110d78282611090565b919050565b600080fd5b600080fd5b600067ffffffffffffffff82111561110157611100611061565b5b602082029050602081019050919050565b600080fd5b600061112a611125846110e6565b6110c1565b9050808382526020820190506020840283018581111561114d5761114c611112565b5b835b8181101561117657806111628882610de0565b84526020840193505060208101905061114f565b5050509392505050565b600082601f830112611195576111946110e1565b5b81356111a5848260208601611117565b91505092915050565b600067ffffffffffffffff8211156111c9576111c8611061565b5b602082029050602081019050919050565b600080fd5b600067ffffffffffffffff8211156111fa576111f9611061565b5b61120382611050565b9050602081019050919050565b82818337600083830152505050565b600061123261122d846111df565b6110c1565b90508281526020810184848401111561124e5761124d6111da565b5b611259848285611210565b509392505050565b600082601f830112611276576112756110e1565b5b813561128684826020860161121f565b91505092915050565b60006112a261129d846111ae565b6110c1565b905080838252602082019050602084028301858111156112c5576112c4611112565b5b835b8181101561130c57803567ffffffffffffffff8111156112ea576112e96110e1565b5b8086016112f78982611261565b855260208501945050506020810190506112c7565b5050509392505050565b600082601f83011261132b5761132a6110e1565b5b813561133b84826020860161128f565b91505092915050565b600067ffffffffffffffff82111561135f5761135e611061565b5b602082029050602081019050919050565b600063ffffffff82169050919050565b61138981611370565b811461139457600080fd5b50565b6000813590506113a681611380565b92915050565b60006113bf6113ba84611344565b6110c1565b905080838252602082019050602084028301858111156113e2576113e1611112565b5b835b8181101561140b57806113f78882611397565b8452602084019350506020810190506113e4565b5050509392505050565b600082601f83011261142a576114296110e1565b5b813561143a8482602086016113ac565b91505092915050565b600067ffffffffffffffff82111561145e5761145d611061565b5b602082029050919050565b600061147c61147784611443565b6110c1565b9050806020840283018581111561149657611495611112565b5b835b818110156114bf57806114ab8882610e3e565b845260208401935050602081019050611498565b5050509392505050565b600082601f8301126114de576114dd6110e1565b5b60026114eb848285611469565b91505092915050565b600060a0828403121561150a5761150961104b565b5b61151460806110c1565b9050600082013567ffffffffffffffff811115611534576115336110dc565b5b61154084828501611180565b600083015250602082013567ffffffffffffffff811115611564576115636110dc565b5b61157084828501611316565b602083015250604082013567ffffffffffffffff811115611594576115936110dc565b5b6115a084828501611415565b60408301525060606115b4848285016114c9565b60608301525092915050565b60006115cc36836114f4565b9050919050565b600067ffffffffffffffff8211156115ee576115ed611061565b5b602082029050602081019050919050565b600067ffffffffffffffff82169050919050565b61161c816115ff565b811461162757600080fd5b50565b60008135905061163981611613565b92915050565b6000608082840312156116555761165461104b565b5b61165f60806110c1565b9050600061166f84828501610de0565b600083015250602061168384828501610de0565b602083015250604082013567ffffffffffffffff8111156116a7576116a66110dc565b5b6116b384828501611261565b60408301525060606116c78482850161162a565b60608301525092915050565b60006116e66116e1846115d3565b6110c1565b9050808382526020820190506020840283018581111561170957611708611112565b5b835b8181101561175057803567ffffffffffffffff81111561172e5761172d6110e1565b5b80860161173b898261163f565b8552602085019450505060208101905061170b565b5050509392505050565b600082601f83011261176f5761176e6110e1565b5b813561177f8482602086016116d3565b91505092915050565b60006060828403121561179e5761179d61104b565b5b6117a860606110c1565b9050600082013567ffffffffffffffff8111156117c8576117c76110dc565b5b6117d48482850161175a565b600083015250602082013567ffffffffffffffff8111156117f8576117f76110dc565b5b61180484828501611261565b602083015250604082013567ffffffffffffffff811115611828576118276110dc565b5b61183484828501611261565b60408301525092915050565b600061184c3683611788565b9050919050565b600081519050919050565b600082825260208201905092915050565b6000819050602082019050919050565b61188881610dbf565b82525050565b600061189a838361187f565b60208301905092915050565b6000602082019050919050565b60006118be82611853565b6118c8818561185e565b93506118d38361186f565b8060005b838110156119045781516118eb888261188e565b97506118f6836118a6565b9250506001810190506118d7565b5085935050505092915050565b600081519050919050565b600082825260208201905092915050565b6000819050602082019050919050565b600081519050919050565b600082825260208201905092915050565b60005b8381101561197757808201518184015260208101905061195c565b60008484015250505050565b600061198e8261193d565b6119988185611948565b93506119a8818560208601611959565b6119b181611050565b840191505092915050565b60006119c88383611983565b905092915050565b6000602082019050919050565b60006119e882611911565b6119f2818561191c565b935083602082028501611a048561192d565b8060005b85811015611a405784840389528151611a2185826119bc565b9450611a2c836119d0565b925060208a01995050600181019050611a08565b50829750879550505050505092915050565b600081519050919050565b600082825260208201905092915050565b6000819050602082019050919050565b611a8781611370565b82525050565b6000611a998383611a7e565b60208301905092915050565b6000602082019050919050565b6000611abd82611a52565b611ac78185611a5d565b9350611ad283611a6e565b8060005b83811015611b03578151611aea8882611a8d565b9750611af583611aa5565b925050600181019050611ad6565b5085935050505092915050565b600060029050919050565b600081905092915050565b6000819050919050565b611b3981610e15565b82525050565b6000611b4b8383611b30565b60208301905092915050565b6000602082019050919050565b611b6d81611b10565b611b778184611b1b565b9250611b8282611b26565b8060005b83811015611bb3578151611b9a8782611b3f565b9650611ba583611b57565b925050600181019050611b86565b505050505050565b600060a0830160008301518482036000860152611bd882826118b3565b91505060208301518482036020860152611bf282826119dd565b91505060408301518482036040860152611c0c8282611ab2565b9150506060830151611c216060860182611b64565b508091505092915050565b60006020820190508181036000830152611c468184611bbb565b905092915050565b7f4e487b7100000000000000000000000000000000000000000000000000000000600052601160045260246000fd5b6000611c8882610dbf565b9150611c9383610dbf565b9250828203905081811115611cab57611caa611c4e565b5b92915050565b611cba81610e15565b82525050565b611cc981610dbf565b82525050565b600081519050919050565b600082825260208201905092915050565b6000819050602082019050919050565b611d04816115ff565b82525050565b6000608083016000830151611d22600086018261187f565b506020830151611d35602086018261187f565b5060408301518482036040860152611d4d8282611983565b9150506060830151611d626060860182611cfb565b508091505092915050565b6000611d798383611d0a565b905092915050565b6000602082019050919050565b6000611d9982611ccf565b611da38185611cda565b935083602082028501611db585611ceb565b8060005b85811015611df15784840389528151611dd28582611d6d565b9450611ddd83611d81565b925060208a01995050600181019050611db9565b50829750879550505050505092915050565b60006060830160008301518482036000860152611e208282611d8e565b91505060208301518482036020860152611e3a8282611983565b91505060408301518482036040860152611e548282611983565b9150508091505092915050565b6000606082019050611e766000830186611cb1565b611e836020830185611cc0565b8181036040830152611e958184611e03565b9050949350505050565b6000602082019050611eb46000830184611cb1565b92915050565b600081519050611ec981610dc9565b92915050565b600060208284031215611ee557611ee4610d72565b5b6000611ef384828501611eba565b91505092915050565b600060a082019050611f116000830188611cb1565b611f1e6020830187611cc0565b611f2b6040830186611cb1565b611f386060830185611cc0565b8181036080830152611f4a8184611e03565b90509695505050505050565b6000608082019050611f6b6000830187611cb1565b611f786020830186611cb1565b611f856040830185611cb1565b611f926060830184611cc0565b95945050505050565b6000606082019050611fb06000830186611cb1565b611fbd6020830185611cb1565b611fca6040830184611cc0565b949350505050565b600081905092915050565b6000611fe88261193d565b611ff28185611fd2565b9350612002818560208601611959565b80840191505092915050565b600061201a8284611fdd565b915081905092915050565b60008115159050919050565b61203a81612025565b811461204557600080fd5b50565b60008151905061205781612031565b92915050565b60006020828403121561207357612072610d72565b5b600061208184828501612048565b91505092915050565b7f5472616e7366657248656c7065723a3a7472616e7366657246726f6d3a20747260008201527f616e7366657246726f6d206661696c6564000000000000000000000000000000602082015250565b60006120e6603183610f06565b91506120f18261208a565b604082019050919050565b60006020820190508181036000830152612115816120d9565b9050919050565b60006040820190506121316000830185611cb1565b61213e6020830184611cc0565b9392505050565b7f5472616e7366657248656c7065723a3a73616665417070726f76653a2061707060008201527f726f7665206661696c6564000000000000000000000000000000000000000000602082015250565b60006121a1602b83610f06565b91506121ac82612145565b604082019050919050565b600060208201905081810360008301526121d081612194565b905091905056fea2646970667358221220a1441d3a3861716eada25aaa9d82867a7641c5dcf495b421e2f935f9674a1e9d64736f6c63430008110033",
  "linkReferences": {},
  "deployedLinkReferences": {}
}