{
  "_format": "hh-sol-artifact-1",
  "contractName": "ButterRouterBsc",
  "sourceName": "contracts/ButterRouterV2.sol",
  "abi": [
    {
      "inputs": [
        {
          "internalType": "address",
          "name": "_admin",
          "type": "address"
        }
      ],
      "stateMutability": "nonpayable",
      "type": "constructor"
    },
    {
      "inputs": [],
      "name": "admin",
      "outputs": [
        {
          "internalType": "address",
          "name": "",
          "type": "address"
        }
      ],
      "stateMutability": "view",
      "type": "function"
    },
    {
      "inputs": [],
      "name": "butterCore",
      "outputs": [
        {
          "internalType": "address",
          "name": "",
          "type": "address"
        }
      ],
      "stateMutability": "view",
      "type": "function"
    },
    {
      "inputs": [
        {
          "components": [
            {
              "internalType": "uint256[]",
              "name": "amountInArr",
              "type": "uint256[]"
            },
            {
              "internalType": "bytes[]",
              "name": "paramsArr",
              "type": "bytes[]"
            },
            {
              "internalType": "uint32[]",
              "name": "routerIndex",
              "type": "uint32[]"
            },
            {
              "internalType": "address[2]",
              "name": "inputOutAddre",
              "type": "address[2]"
            }
          ],
          "internalType": "struct ButterCore.AccessParams",
          "name": "swapData",
          "type": "tuple"
        },
        {
          "internalType": "bytes",
          "name": "mosData",
          "type": "bytes"
        },
        {
          "internalType": "uint256",
          "name": "amount",
          "type": "uint256"
        },
        {
          "internalType": "uint256",
          "name": "toChain",
          "type": "uint256"
        },
        {
          "internalType": "bytes",
          "name": "to",
          "type": "bytes"
        }
      ],
      "name": "entrance",
      "outputs": [],
      "stateMutability": "payable",
      "type": "function"
    },
    {
      "inputs": [],
      "name": "mosAddress",
      "outputs": [
        {
          "internalType": "address",
          "name": "",
          "type": "address"
        }
      ],
      "stateMutability": "view",
      "type": "function"
    },
    {
      "inputs": [
        {
          "internalType": "address",
          "name": "_butterCore",
          "type": "address"
        }
      ],
      "name": "setButterCore",
      "outputs": [
        {
          "internalType": "bool",
          "name": "",
          "type": "bool"
        }
      ],
      "stateMutability": "nonpayable",
      "type": "function"
    },
    {
      "inputs": [
        {
          "internalType": "address",
          "name": "_mosAddress",
          "type": "address"
        }
      ],
      "name": "setMosAddress",
      "outputs": [
        {
          "internalType": "bool",
          "name": "",
          "type": "bool"
        }
      ],
      "stateMutability": "nonpayable",
      "type": "function"
    },
    {
      "stateMutability": "payable",
      "type": "receive"
    }
  ],
  "bytecode": "0x60806040523480156200001157600080fd5b506040516200293b3803806200293b8339818101604052810190620000379190620000e8565b806000806101000a81548173ffffffffffffffffffffffffffffffffffffffff021916908373ffffffffffffffffffffffffffffffffffffffff160217905550506200011a565b600080fd5b600073ffffffffffffffffffffffffffffffffffffffff82169050919050565b6000620000b08262000083565b9050919050565b620000c281620000a3565b8114620000ce57600080fd5b50565b600081519050620000e281620000b7565b92915050565b6000602082840312156200010157620001006200007e565b5b60006200011184828501620000d1565b91505092915050565b612811806200012a6000396000f3fe6080604052600436106100595760003560e01c80632b8b7b4b146100655780634bcc97da146100a25780637040d037146100be5780638cbafe0a146100fb578063bdff6d1e14610126578063f851a4401461015157610060565b3661006057005b600080fd5b34801561007157600080fd5b5061008c6004803603810190610087919061110a565b61017c565b6040516100999190611152565b60405180910390f35b6100bc60048036038101906100b7919061136d565b6102c7565b005b3480156100ca57600080fd5b506100e560048036038101906100e0919061110a565b610765565b6040516100f29190611152565b60405180910390f35b34801561010757600080fd5b506101106108b0565b60405161011d919061144e565b60405180910390f35b34801561013257600080fd5b5061013b6108d6565b604051610148919061144e565b60405180910390f35b34801561015d57600080fd5b506101666108fc565b604051610173919061144e565b60405180910390f35b60008060009054906101000a900473ffffffffffffffffffffffffffffffffffffffff1673ffffffffffffffffffffffffffffffffffffffff163373ffffffffffffffffffffffffffffffffffffffff161461020d576040517f08c379a0000000000000000000000000000000000000000000000000000000008152600401610204906114c6565b60405180910390fd5b600073ffffffffffffffffffffffffffffffffffffffff168273ffffffffffffffffffffffffffffffffffffffff16141561027d576040517f08c379a000000000000000000000000000000000000000000000000000000000815260040161027490611532565b60405180910390fd5b81600160006101000a81548173ffffffffffffffffffffffffffffffffffffffff021916908373ffffffffffffffffffffffffffffffffffffffff16021790555060019050919050565b6000831161030a576040517f08c379a00000000000000000000000000000000000000000000000000000000081526004016103019061159e565b60405180910390fd5b600073ffffffffffffffffffffffffffffffffffffffff1686606001600060028110610339576103386115be565b5b60200201602081019061034c919061110a565b73ffffffffffffffffffffffffffffffffffffffff1614156106cd578234146103aa576040517f08c379a00000000000000000000000000000000000000000000000000000000081526004016103a190611639565b60405180910390fd5b600080876060016001600281106103c4576103c36115be565b5b6020020160208101906103d7919061110a565b73ffffffffffffffffffffffffffffffffffffffff166370a08231306040518263ffffffff1660e01b815260040161040f919061144e565b60206040518083038186803b15801561042757600080fd5b505afa15801561043b573d6000803e3d6000fd5b505050506040513d601f19601f8201168201806040525081019061045f919061166e565b9150600260009054906101000a900473ffffffffffffffffffffffffffffffffffffffff1673ffffffffffffffffffffffffffffffffffffffff166342b28308868a6040518363ffffffff1660e01b81526004016104bd9190611c05565b6000604051808303818588803b1580156104d657600080fd5b505af11580156104ea573d6000803e3d6000fd5b50505050508188606001600160028110610507576105066115be565b5b60200201602081019061051a919061110a565b73ffffffffffffffffffffffffffffffffffffffff166370a08231306040518263ffffffff1660e01b8152600401610552919061144e565b60206040518083038186803b15801561056a57600080fd5b505afa15801561057e573d6000803e3d6000fd5b505050506040513d601f19601f820116820180604052508101906105a2919061166e565b6105ac9190611c56565b9050610604886060016001600281106105c8576105c76115be565b5b6020020160208101906105db919061110a565b600160009054906101000a900473ffffffffffffffffffffffffffffffffffffffff1683610920565b600160009054906101000a900473ffffffffffffffffffffffffffffffffffffffff1673ffffffffffffffffffffffffffffffffffffffff1663b899f904338a60600160016002811061065a576106596115be565b5b60200201602081019061066d919061110a565b8685898d8d6040518863ffffffff1660e01b81526004016106949796959493929190611d4e565b600060405180830381600087803b1580156106ae57600080fd5b505af11580156106c2573d6000803e3d6000fd5b50505050505061075d565b610702866060016000600281106106e7576106e66115be565b5b6020020160208101906106fa919061110a565b333086610a56565b61075c8661070f906121ad565b86868080601f016020809104026020016040519081016040528093929190818152602001838380828437600081840152601f19601f82011690508083019250505050505050858585610b8f565b5b505050505050565b60008060009054906101000a900473ffffffffffffffffffffffffffffffffffffffff1673ffffffffffffffffffffffffffffffffffffffff163373ffffffffffffffffffffffffffffffffffffffff16146107f6576040517f08c379a00000000000000000000000000000000000000000000000000000000081526004016107ed906114c6565b60405180910390fd5b600073ffffffffffffffffffffffffffffffffffffffff168273ffffffffffffffffffffffffffffffffffffffff161415610866576040517f08c379a000000000000000000000000000000000000000000000000000000000815260040161085d90611532565b60405180910390fd5b81600260006101000a81548173ffffffffffffffffffffffffffffffffffffffff021916908373ffffffffffffffffffffffffffffffffffffffff16021790555060019050919050565b600160009054906101000a900473ffffffffffffffffffffffffffffffffffffffff1681565b600260009054906101000a900473ffffffffffffffffffffffffffffffffffffffff1681565b60008054906101000a900473ffffffffffffffffffffffffffffffffffffffff1681565b6000808473ffffffffffffffffffffffffffffffffffffffff1663095ea7b385856040516024016109529291906121c0565b6040516020818303038152906040529060e01b6020820180517bffffffffffffffffffffffffffffffffffffffffffffffffffffffff83818316178352505050506040516109a09190612225565b6000604051808303816000865af19150503d80600081146109dd576040519150601f19603f3d011682016040523d82523d6000602084013e6109e2565b606091505b5091509150818015610a105750600081511480610a0f575080806020019051810190610a0e9190612268565b5b5b610a4f576040517f08c379a0000000000000000000000000000000000000000000000000000000008152600401610a4690612307565b60405180910390fd5b5050505050565b6000808573ffffffffffffffffffffffffffffffffffffffff166323b872dd868686604051602401610a8a93929190612327565b6040516020818303038152906040529060e01b6020820180517bffffffffffffffffffffffffffffffffffffffffffffffffffffffff8381831617835250505050604051610ad89190612225565b6000604051808303816000865af19150503d8060008114610b15576040519150601f19603f3d011682016040523d82523d6000602084013e610b1a565b606091505b5091509150818015610b485750600081511480610b47575080806020019051810190610b469190612268565b5b5b610b87576040517f08c379a0000000000000000000000000000000000000000000000000000000008152600401610b7e906123d0565b60405180910390fd5b505050505050565b600080600073ffffffffffffffffffffffffffffffffffffffff168760600151600160028110610bc257610bc16115be565b5b602002015173ffffffffffffffffffffffffffffffffffffffff161415610d6357479150610c2f8760600151600060028110610c0157610c006115be565b5b6020020151600260009054906101000a900473ffffffffffffffffffffffffffffffffffffffff1687610920565b600260009054906101000a900473ffffffffffffffffffffffffffffffffffffffff1673ffffffffffffffffffffffffffffffffffffffff166342b28308886040518263ffffffff1660e01b8152600401610c8a91906126f7565b600060405180830381600087803b158015610ca457600080fd5b505af1158015610cb8573d6000803e3d6000fd5b505050508147610cc89190611c56565b9050600160009054906101000a900473ffffffffffffffffffffffffffffffffffffffff1673ffffffffffffffffffffffffffffffffffffffff1663d5351aaa823386888b6040518663ffffffff1660e01b8152600401610d2c9493929190612719565b6000604051808303818588803b158015610d4557600080fd5b505af1158015610d59573d6000803e3d6000fd5b505050505061108f565b8660600151600160028110610d7b57610d7a6115be565b5b602002015173ffffffffffffffffffffffffffffffffffffffff166370a08231306040518263ffffffff1660e01b8152600401610db8919061144e565b60206040518083038186803b158015610dd057600080fd5b505afa158015610de4573d6000803e3d6000fd5b505050506040513d601f19601f82011682018060405250810190610e08919061166e565b9150610e538760600151600060028110610e2557610e246115be565b5b6020020151600160009054906101000a900473ffffffffffffffffffffffffffffffffffffffff1687610920565b600260009054906101000a900473ffffffffffffffffffffffffffffffffffffffff1673ffffffffffffffffffffffffffffffffffffffff166342b28308886040518263ffffffff1660e01b8152600401610eae91906126f7565b600060405180830381600087803b158015610ec857600080fd5b505af1158015610edc573d6000803e3d6000fd5b50505050818760600151600160028110610ef957610ef86115be565b5b602002015173ffffffffffffffffffffffffffffffffffffffff166370a08231306040518263ffffffff1660e01b8152600401610f36919061144e565b60206040518083038186803b158015610f4e57600080fd5b505afa158015610f62573d6000803e3d6000fd5b505050506040513d601f19601f82011682018060405250810190610f86919061166e565b610f909190611c56565b9050610fdb8760600151600160028110610fad57610fac6115be565b5b6020020151600160009054906101000a900473ffffffffffffffffffffffffffffffffffffffff1683610920565b600160009054906101000a900473ffffffffffffffffffffffffffffffffffffffff1673ffffffffffffffffffffffffffffffffffffffff1663b899f904338960600151600160028110611032576110316115be565b5b60200201518685898c6040518763ffffffff1660e01b815260040161105c9695949392919061276c565b600060405180830381600087803b15801561107657600080fd5b505af115801561108a573d6000803e3d6000fd5b505050505b50505050505050565b6000604051905090565b600080fd5b600080fd5b600073ffffffffffffffffffffffffffffffffffffffff82169050919050565b60006110d7826110ac565b9050919050565b6110e7816110cc565b81146110f257600080fd5b50565b600081359050611104816110de565b92915050565b6000602082840312156111205761111f6110a2565b5b600061112e848285016110f5565b91505092915050565b60008115159050919050565b61114c81611137565b82525050565b60006020820190506111676000830184611143565b92915050565b600080fd5b600060a082840312156111885761118761116d565b5b81905092915050565b600080fd5b600080fd5b600080fd5b60008083601f8401126111b6576111b5611191565b5b8235905067ffffffffffffffff8111156111d3576111d2611196565b5b6020830191508360018202830111156111ef576111ee61119b565b5b9250929050565b6000819050919050565b611209816111f6565b811461121457600080fd5b50565b60008135905061122681611200565b92915050565b600080fd5b6000601f19601f8301169050919050565b7f4e487b7100000000000000000000000000000000000000000000000000000000600052604160045260246000fd5b61127a82611231565b810181811067ffffffffffffffff8211171561129957611298611242565b5b80604052505050565b60006112ac611098565b90506112b88282611271565b919050565b600067ffffffffffffffff8211156112d8576112d7611242565b5b6112e182611231565b9050602081019050919050565b82818337600083830152505050565b600061131061130b846112bd565b6112a2565b90508281526020810184848401111561132c5761132b61122c565b5b6113378482856112ee565b509392505050565b600082601f83011261135457611353611191565b5b81356113648482602086016112fd565b91505092915050565b60008060008060008060a0878903121561138a576113896110a2565b5b600087013567ffffffffffffffff8111156113a8576113a76110a7565b5b6113b489828a01611172565b965050602087013567ffffffffffffffff8111156113d5576113d46110a7565b5b6113e189828a016111a0565b955095505060406113f489828a01611217565b935050606061140589828a01611217565b925050608087013567ffffffffffffffff811115611426576114256110a7565b5b61143289828a0161133f565b9150509295509295509295565b611448816110cc565b82525050565b6000602082019050611463600083018461143f565b92915050565b600082825260208201905092915050565b7f43616c6c6572206973206e6f7420616e206f776e657200000000000000000000600082015250565b60006114b0601683611469565b91506114bb8261147a565b602082019050919050565b600060208201905081810360008301526114df816114a3565b9050919050565b7f416464726573732063616e6e6f74206265207a65726f00000000000000000000600082015250565b600061151c601683611469565b9150611527826114e6565b602082019050919050565b6000602082019050818103600083015261154b8161150f565b9050919050565b7f53656e64696e672076616c7565206973207a65726f0000000000000000000000600082015250565b6000611588601583611469565b915061159382611552565b602082019050919050565b600060208201905081810360008301526115b78161157b565b9050919050565b7f4e487b7100000000000000000000000000000000000000000000000000000000600052603260045260246000fd5b7f4e6f7420656e6f756768206d6f6e657900000000000000000000000000000000600082015250565b6000611623601083611469565b915061162e826115ed565b602082019050919050565b6000602082019050818103600083015261165281611616565b9050919050565b60008151905061166881611200565b92915050565b600060208284031215611684576116836110a2565b5b600061169284828501611659565b91505092915050565b600080fd5b600080fd5b600080fd5b600080833560016020038436030381126116c7576116c66116a5565b5b83810192508235915060208301925067ffffffffffffffff8211156116ef576116ee61169b565b5b602082023603841315611705576117046116a0565b5b509250929050565b600082825260208201905092915050565b600080fd5b600061172f838561170d565b93507f07ffffffffffffffffffffffffffffffffffffffffffffffffffffffffffffff8311156117625761176161171e565b5b6020830292506117738385846112ee565b82840190509392505050565b6000808335600160200384360303811261179c5761179b6116a5565b5b83810192508235915060208301925067ffffffffffffffff8211156117c4576117c361169b565b5b6020820236038413156117da576117d96116a0565b5b509250929050565b600082825260208201905092915050565b6000819050919050565b600082825260208201905092915050565b600061181a83856117fd565b93506118278385846112ee565b61183083611231565b840190509392505050565b600061184884848461180e565b90509392505050565b6000808335600160200384360303811261186e5761186d6116a5565b5b83810192508235915060208301925067ffffffffffffffff8211156118965761189561169b565b5b6001820236038413156118ac576118ab6116a0565b5b509250929050565b6000602082019050919050565b60006118cd83856117e2565b9350836020840285016118df846117f3565b8060005b878110156119255784840389526118fa8284611851565b61190586828461183b565b9550611910846118b4565b935060208b019a5050506001810190506118e3565b50829750879450505050509392505050565b60008083356001602003843603038112611954576119536116a5565b5b83810192508235915060208301925067ffffffffffffffff82111561197c5761197b61169b565b5b602082023603841315611992576119916116a0565b5b509250929050565b600082825260208201905092915050565b6000819050919050565b600063ffffffff82169050919050565b6119ce816119b5565b82525050565b60006119e083836119c5565b60208301905092915050565b6119f5816119b5565b8114611a0057600080fd5b50565b600081359050611a12816119ec565b92915050565b6000611a276020840184611a03565b905092915050565b6000602082019050919050565b6000611a48838561199a565b9350611a53826119ab565b8060005b85811015611a8c57611a698284611a18565b611a7388826119d4565b9750611a7e83611a2f565b925050600181019050611a57565b5085925050509392505050565b600082905092915050565b600060029050919050565b600081905092915050565b6000819050919050565b611acd816110cc565b82525050565b6000611adf8383611ac4565b60208301905092915050565b6000611afa60208401846110f5565b905092915050565b6000602082019050919050565b611b1881611aa4565b611b228184611aaf565b9250611b2d82611aba565b8060005b83811015611b6657611b438284611aeb565b611b4d8782611ad3565b9650611b5883611b02565b925050600181019050611b31565b505050505050565b600060a08301611b8160008401846116aa565b8583036000870152611b94838284611723565b92505050611ba5602084018461177f565b8583036020870152611bb88382846118c1565b92505050611bc96040840184611937565b8583036040870152611bdc838284611a3c565b92505050611bed6060840184611a99565b611bfa6060860182611b0f565b508091505092915050565b60006020820190508181036000830152611c1f8184611b6e565b905092915050565b7f4e487b7100000000000000000000000000000000000000000000000000000000600052601160045260246000fd5b6000611c61826111f6565b9150611c6c836111f6565b925082821015611c7f57611c7e611c27565b5b828203905092915050565b600081519050919050565b600082825260208201905092915050565b60005b83811015611cc4578082015181840152602081019050611ca9565b83811115611cd3576000848401525b50505050565b6000611ce482611c8a565b611cee8185611c95565b9350611cfe818560208601611ca6565b611d0781611231565b840191505092915050565b611d1b816111f6565b82525050565b6000611d2d8385611c95565b9350611d3a8385846112ee565b611d4383611231565b840190509392505050565b600060c082019050611d63600083018a61143f565b611d70602083018961143f565b8181036040830152611d828188611cd9565b9050611d916060830187611d12565b611d9e6080830186611d12565b81810360a0830152611db1818486611d21565b905098975050505050505050565b600080fd5b600080fd5b600067ffffffffffffffff821115611de457611de3611242565b5b602082029050602081019050919050565b6000611e08611e0384611dc9565b6112a2565b90508083825260208201905060208402830185811115611e2b57611e2a61119b565b5b835b81811015611e545780611e408882611217565b845260208401935050602081019050611e2d565b5050509392505050565b600082601f830112611e7357611e72611191565b5b8135611e83848260208601611df5565b91505092915050565b600067ffffffffffffffff821115611ea757611ea6611242565b5b602082029050602081019050919050565b6000611ecb611ec684611e8c565b6112a2565b90508083825260208201905060208402830185811115611eee57611eed61119b565b5b835b81811015611f3557803567ffffffffffffffff811115611f1357611f12611191565b5b808601611f20898261133f565b85526020850194505050602081019050611ef0565b5050509392505050565b600082601f830112611f5457611f53611191565b5b8135611f64848260208601611eb8565b91505092915050565b600067ffffffffffffffff821115611f8857611f87611242565b5b602082029050602081019050919050565b6000611fac611fa784611f6d565b6112a2565b90508083825260208201905060208402830185811115611fcf57611fce61119b565b5b835b81811015611ff85780611fe48882611a03565b845260208401935050602081019050611fd1565b5050509392505050565b600082601f83011261201757612016611191565b5b8135612027848260208601611f99565b91505092915050565b600067ffffffffffffffff82111561204b5761204a611242565b5b602082029050919050565b600061206961206484612030565b6112a2565b905080602084028301858111156120835761208261119b565b5b835b818110156120ac578061209888826110f5565b845260208401935050602081019050612085565b5050509392505050565b600082601f8301126120cb576120ca611191565b5b60026120d8848285612056565b91505092915050565b600060a082840312156120f7576120f6611dbf565b5b61210160806112a2565b9050600082013567ffffffffffffffff81111561212157612120611dc4565b5b61212d84828501611e5e565b600083015250602082013567ffffffffffffffff81111561215157612150611dc4565b5b61215d84828501611f3f565b602083015250604082013567ffffffffffffffff81111561218157612180611dc4565b5b61218d84828501612002565b60408301525060606121a1848285016120b6565b60608301525092915050565b60006121b936836120e1565b9050919050565b60006040820190506121d5600083018561143f565b6121e26020830184611d12565b9392505050565b600081905092915050565b60006121ff82611c8a565b61220981856121e9565b9350612219818560208601611ca6565b80840191505092915050565b600061223182846121f4565b915081905092915050565b61224581611137565b811461225057600080fd5b50565b6000815190506122628161223c565b92915050565b60006020828403121561227e5761227d6110a2565b5b600061228c84828501612253565b91505092915050565b7f5472616e7366657248656c7065723a3a73616665417070726f76653a2061707060008201527f726f7665206661696c6564000000000000000000000000000000000000000000602082015250565b60006122f1602b83611469565b91506122fc82612295565b604082019050919050565b60006020820190508181036000830152612320816122e4565b9050919050565b600060608201905061233c600083018661143f565b612349602083018561143f565b6123566040830184611d12565b949350505050565b7f5472616e7366657248656c7065723a3a7472616e7366657246726f6d3a20747260008201527f616e7366657246726f6d206661696c6564000000000000000000000000000000602082015250565b60006123ba603183611469565b91506123c58261235e565b604082019050919050565b600060208201905081810360008301526123e9816123ad565b9050919050565b600081519050919050565b6000819050602082019050919050565b612414816111f6565b82525050565b6000612426838361240b565b60208301905092915050565b6000602082019050919050565b600061244a826123f0565b612454818561170d565b935061245f836123fb565b8060005b83811015612490578151612477888261241a565b975061248283612432565b925050600181019050612463565b5085935050505092915050565b600081519050919050565b6000819050602082019050919050565b60006124c382611c8a565b6124cd81856117fd565b93506124dd818560208601611ca6565b6124e681611231565b840191505092915050565b60006124fd83836124b8565b905092915050565b6000602082019050919050565b600061251d8261249d565b61252781856117e2565b935083602082028501612539856124a8565b8060005b85811015612575578484038952815161255685826124f1565b945061256183612505565b925060208a0199505060018101905061253d565b50829750879550505050505092915050565b600081519050919050565b6000819050602082019050919050565b6000602082019050919050565b60006125ba82612587565b6125c4818561199a565b93506125cf83612592565b8060005b838110156126005781516125e788826119d4565b97506125f2836125a2565b9250506001810190506125d3565b5085935050505092915050565b600060029050919050565b6000819050919050565b6000602082019050919050565b6126388161260d565b6126428184611aaf565b925061264d82612618565b8060005b8381101561267e5781516126658782611ad3565b965061267083612622565b925050600181019050612651565b505050505050565b600060a08301600083015184820360008601526126a3828261243f565b915050602083015184820360208601526126bd8282612512565b915050604083015184820360408601526126d782826125af565b91505060608301516126ec606086018261262f565b508091505092915050565b600060208201905081810360008301526127118184612686565b905092915050565b600060808201905061272e600083018761143f565b81810360208301526127408186611cd9565b905061274f6040830185611d12565b81810360608301526127618184611cd9565b905095945050505050565b600060c082019050612781600083018961143f565b61278e602083018861143f565b81810360408301526127a08187611cd9565b90506127af6060830186611d12565b6127bc6080830185611d12565b81810360a08301526127ce8184611cd9565b905097965050505050505056fea26469706673582212202f74a2cc2dda5844090e6dd01b0c714ced44686ca4ebd74b7fe7fd0faa93823664736f6c63430008090033",
  "linkReferences": {},
  "deployedLinkReferences": {}
}