{
  "_format": "hh-sol-artifact-1",
  "contractName": "ButterRouterV2",
  "sourceName": "contracts/ButterRouterV2.sol",
  "abi": [
    {
      "inputs": [
        {
          "components": [
            {
              "internalType": "uint256[]",
              "name": "amountInArr",
              "type": "uint256[]"
            },
            {
              "internalType": "bytes[]",
              "name": "paramsArr",
              "type": "bytes[]"
            },
            {
              "internalType": "uint32[]",
              "name": "routerIndex",
              "type": "uint32[]"
            },
            {
              "internalType": "address[2]",
              "name": "inputOutAddre",
              "type": "address[2]"
            }
          ],
          "internalType": "struct ButterCore.AccessParams",
          "name": "swapData",
          "type": "tuple"
        },
        {
          "components": [
            {
              "components": [
                {
                  "internalType": "uint256",
                  "name": "amountIn",
                  "type": "uint256"
                },
                {
                  "internalType": "uint256",
                  "name": "minAmountOut",
                  "type": "uint256"
                },
                {
                  "internalType": "bytes",
                  "name": "path",
                  "type": "bytes"
                },
                {
                  "internalType": "uint64",
                  "name": "routerIndex",
                  "type": "uint64"
                }
              ],
              "internalType": "struct MapMos.SwapParam[]",
              "name": "swapParams",
              "type": "tuple[]"
            },
            {
              "internalType": "bytes",
              "name": "targetToken",
              "type": "bytes"
            },
            {
              "internalType": "bytes",
              "name": "toAddress",
              "type": "bytes"
            },
            {
              "internalType": "uint256",
              "name": "amount",
              "type": "uint256"
            }
          ],
          "internalType": "struct MapMos.SwapData",
          "name": "mosData",
          "type": "tuple"
        },
        {
          "internalType": "uint256",
          "name": "amount",
          "type": "uint256"
        },
        {
          "internalType": "address",
          "name": "mapTargetToken",
          "type": "address"
        },
        {
          "internalType": "uint256",
          "name": "toChain",
          "type": "uint256"
        }
      ],
      "name": "entrance",
      "outputs": [],
      "stateMutability": "payable",
      "type": "function"
    },
    {
      "stateMutability": "payable",
      "type": "receive"
    }
  ],
  "bytecode": "0x608060405234801561001057600080fd5b50612019806100206000396000f3fe6080604052600436106100225760003560e01c8063cb5b0b751461002e57610029565b3661002957005b600080fd5b61004860048036038101906100439190610c7d565b61004a565b005b6000831161008d576040517f08c379a000000000000000000000000000000000000000000000000000000000815260040161008490610d8d565b60405180910390fd5b600073ffffffffffffffffffffffffffffffffffffffff16856060016000600281106100bc576100bb610dad565b5b6020020160208101906100cf9190610ddc565b73ffffffffffffffffffffffffffffffffffffffff16036101505782341461012c576040517f08c379a000000000000000000000000000000000000000000000000000000000815260040161012390610e55565b60405180910390fd5b61014b85610139906113ea565b856101439061167e565b8585856101ac565b6101a5565b6101858560600160006002811061016a57610169610dad565b5b60200201602081019061017d9190610ddc565b333086610923565b6101a485610192906113ea565b8561019c9061167e565b8585856101ac565b5b5050505050565b600080600073ffffffffffffffffffffffffffffffffffffffff1687606001516001600281106101df576101de610dad565b5b602002015173ffffffffffffffffffffffffffffffffffffffff16036103535747915061023d876060015160006002811061021d5761021c610dad565b5b60200201517335e7f50392adf4b6eeb822d9102ad8a992a9b52087610a5c565b73b401355440842aab5a4dea8abfc7439d9cb8ab5573ffffffffffffffffffffffffffffffffffffffff166342b28308886040518263ffffffff1660e01b815260040161028a9190611a6a565b600060405180830381600087803b1580156102a457600080fd5b505af11580156102b8573d6000803e3d6000fd5b5050505081476102c89190611abb565b90507335e7f50392adf4b6eeb822d9102ad8a992a9b52073ffffffffffffffffffffffffffffffffffffffff1663236dd0d18286868a6040518563ffffffff1660e01b815260040161031c93929190611cb2565b6000604051808303818588803b15801561033557600080fd5b505af1158015610349573d6000803e3d6000fd5b505050505061091a565b600073ffffffffffffffffffffffffffffffffffffffff16876060015160006002811061038357610382610dad565b5b602002015173ffffffffffffffffffffffffffffffffffffffff16036106455786606001516001600281106103bb576103ba610dad565b5b602002015173ffffffffffffffffffffffffffffffffffffffff166370a08231306040518263ffffffff1660e01b81526004016103f89190611cf0565b602060405180830381865afa158015610415573d6000803e3d6000fd5b505050506040513d601f19601f820116820180604052508101906104399190611d20565b915073b401355440842aab5a4dea8abfc7439d9cb8ab5573ffffffffffffffffffffffffffffffffffffffff166342b283088760600151896040518363ffffffff1660e01b815260040161048d9190611a6a565b6000604051808303818588803b1580156104a657600080fd5b505af11580156104ba573d6000803e3d6000fd5b50505050508187606001516001600281106104d8576104d7610dad565b5b602002015173ffffffffffffffffffffffffffffffffffffffff166370a08231306040518263ffffffff1660e01b81526004016105159190611cf0565b602060405180830381865afa158015610532573d6000803e3d6000fd5b505050506040513d601f19601f820116820180604052508101906105569190611d20565b6105609190611abb565b905061059d876060015160016002811061057d5761057c610dad565b5b60200201517335e7f50392adf4b6eeb822d9102ad8a992a9b52083610a5c565b7335e7f50392adf4b6eeb822d9102ad8a992a9b52073ffffffffffffffffffffffffffffffffffffffff1663cc145a9f88606001516001600281106105e5576105e4610dad565b5b60200201518387878b6040518663ffffffff1660e01b815260040161060e959493929190611d4d565b600060405180830381600087803b15801561062857600080fd5b505af115801561063c573d6000803e3d6000fd5b50505050610919565b866060015160016002811061065d5761065c610dad565b5b602002015173ffffffffffffffffffffffffffffffffffffffff166370a08231306040518263ffffffff1660e01b815260040161069a9190611cf0565b602060405180830381865afa1580156106b7573d6000803e3d6000fd5b505050506040513d601f19601f820116820180604052508101906106db9190611d20565b915061071887606001516000600281106106f8576106f7610dad565b5b602002015173b401355440842aab5a4dea8abfc7439d9cb8ab5587610a5c565b73b401355440842aab5a4dea8abfc7439d9cb8ab5573ffffffffffffffffffffffffffffffffffffffff166342b28308886040518263ffffffff1660e01b81526004016107659190611a6a565b600060405180830381600087803b15801561077f57600080fd5b505af1158015610793573d6000803e3d6000fd5b505050508187606001516001600281106107b0576107af610dad565b5b602002015173ffffffffffffffffffffffffffffffffffffffff166370a08231306040518263ffffffff1660e01b81526004016107ed9190611cf0565b602060405180830381865afa15801561080a573d6000803e3d6000fd5b505050506040513d601f19601f8201168201806040525081019061082e9190611d20565b6108389190611abb565b9050610875876060015160016002811061085557610854610dad565b5b60200201517335e7f50392adf4b6eeb822d9102ad8a992a9b52083610a5c565b7335e7f50392adf4b6eeb822d9102ad8a992a9b52073ffffffffffffffffffffffffffffffffffffffff1663cc145a9f88606001516001600281106108bd576108bc610dad565b5b60200201518387878b6040518663ffffffff1660e01b81526004016108e6959493929190611d4d565b600060405180830381600087803b15801561090057600080fd5b505af1158015610914573d6000803e3d6000fd5b505050505b5b50505050505050565b6000808573ffffffffffffffffffffffffffffffffffffffff166323b872dd86868660405160240161095793929190611da7565b6040516020818303038152906040529060e01b6020820180517bffffffffffffffffffffffffffffffffffffffffffffffffffffffff83818316178352505050506040516109a59190611e1a565b6000604051808303816000865af19150503d80600081146109e2576040519150601f19603f3d011682016040523d82523d6000602084013e6109e7565b606091505b5091509150818015610a155750600081511480610a14575080806020019051810190610a139190611e69565b5b5b610a54576040517f08c379a0000000000000000000000000000000000000000000000000000000008152600401610a4b90611f08565b60405180910390fd5b505050505050565b6000808473ffffffffffffffffffffffffffffffffffffffff1663095ea7b38585604051602401610a8e929190611f28565b6040516020818303038152906040529060e01b6020820180517bffffffffffffffffffffffffffffffffffffffffffffffffffffffff8381831617835250505050604051610adc9190611e1a565b6000604051808303816000865af19150503d8060008114610b19576040519150601f19603f3d011682016040523d82523d6000602084013e610b1e565b606091505b5091509150818015610b4c5750600081511480610b4b575080806020019051810190610b4a9190611e69565b5b5b610b8b576040517f08c379a0000000000000000000000000000000000000000000000000000000008152600401610b8290611fc3565b60405180910390fd5b5050505050565b6000604051905090565b600080fd5b600080fd5b600080fd5b600060a08284031215610bc157610bc0610ba6565b5b81905092915050565b600060808284031215610be057610bdf610ba6565b5b81905092915050565b6000819050919050565b610bfc81610be9565b8114610c0757600080fd5b50565b600081359050610c1981610bf3565b92915050565b600073ffffffffffffffffffffffffffffffffffffffff82169050919050565b6000610c4a82610c1f565b9050919050565b610c5a81610c3f565b8114610c6557600080fd5b50565b600081359050610c7781610c51565b92915050565b600080600080600060a08688031215610c9957610c98610b9c565b5b600086013567ffffffffffffffff811115610cb757610cb6610ba1565b5b610cc388828901610bab565b955050602086013567ffffffffffffffff811115610ce457610ce3610ba1565b5b610cf088828901610bca565b9450506040610d0188828901610c0a565b9350506060610d1288828901610c68565b9250506080610d2388828901610c0a565b9150509295509295909350565b600082825260208201905092915050565b7f53656e64696e672076616c7565206973207a65726f0000000000000000000000600082015250565b6000610d77601583610d30565b9150610d8282610d41565b602082019050919050565b60006020820190508181036000830152610da681610d6a565b9050919050565b7f4e487b7100000000000000000000000000000000000000000000000000000000600052603260045260246000fd5b600060208284031215610df257610df1610b9c565b5b6000610e0084828501610c68565b91505092915050565b7f4e6f7420656e6f756768206d6f6e657900000000000000000000000000000000600082015250565b6000610e3f601083610d30565b9150610e4a82610e09565b602082019050919050565b60006020820190508181036000830152610e6e81610e32565b9050919050565b600080fd5b6000601f19601f8301169050919050565b7f4e487b7100000000000000000000000000000000000000000000000000000000600052604160045260246000fd5b610ec382610e7a565b810181811067ffffffffffffffff82111715610ee257610ee1610e8b565b5b80604052505050565b6000610ef5610b92565b9050610f018282610eba565b919050565b600080fd5b600080fd5b600067ffffffffffffffff821115610f2b57610f2a610e8b565b5b602082029050602081019050919050565b600080fd5b6000610f54610f4f84610f10565b610eeb565b90508083825260208201905060208402830185811115610f7757610f76610f3c565b5b835b81811015610fa05780610f8c8882610c0a565b845260208401935050602081019050610f79565b5050509392505050565b600082601f830112610fbf57610fbe610f0b565b5b8135610fcf848260208601610f41565b91505092915050565b600067ffffffffffffffff821115610ff357610ff2610e8b565b5b602082029050602081019050919050565b600080fd5b600067ffffffffffffffff82111561102457611023610e8b565b5b61102d82610e7a565b9050602081019050919050565b82818337600083830152505050565b600061105c61105784611009565b610eeb565b90508281526020810184848401111561107857611077611004565b5b61108384828561103a565b509392505050565b600082601f8301126110a05761109f610f0b565b5b81356110b0848260208601611049565b91505092915050565b60006110cc6110c784610fd8565b610eeb565b905080838252602082019050602084028301858111156110ef576110ee610f3c565b5b835b8181101561113657803567ffffffffffffffff81111561111457611113610f0b565b5b808601611121898261108b565b855260208501945050506020810190506110f1565b5050509392505050565b600082601f83011261115557611154610f0b565b5b81356111658482602086016110b9565b91505092915050565b600067ffffffffffffffff82111561118957611188610e8b565b5b602082029050602081019050919050565b600063ffffffff82169050919050565b6111b38161119a565b81146111be57600080fd5b50565b6000813590506111d0816111aa565b92915050565b60006111e96111e48461116e565b610eeb565b9050808382526020820190506020840283018581111561120c5761120b610f3c565b5b835b81811015611235578061122188826111c1565b84526020840193505060208101905061120e565b5050509392505050565b600082601f83011261125457611253610f0b565b5b81356112648482602086016111d6565b91505092915050565b600067ffffffffffffffff82111561128857611287610e8b565b5b602082029050919050565b60006112a66112a18461126d565b610eeb565b905080602084028301858111156112c0576112bf610f3c565b5b835b818110156112e957806112d58882610c68565b8452602084019350506020810190506112c2565b5050509392505050565b600082601f83011261130857611307610f0b565b5b6002611315848285611293565b91505092915050565b600060a0828403121561133457611333610e75565b5b61133e6080610eeb565b9050600082013567ffffffffffffffff81111561135e5761135d610f06565b5b61136a84828501610faa565b600083015250602082013567ffffffffffffffff81111561138e5761138d610f06565b5b61139a84828501611140565b602083015250604082013567ffffffffffffffff8111156113be576113bd610f06565b5b6113ca8482850161123f565b60408301525060606113de848285016112f3565b60608301525092915050565b60006113f6368361131e565b9050919050565b600067ffffffffffffffff82111561141857611417610e8b565b5b602082029050602081019050919050565b600067ffffffffffffffff82169050919050565b61144681611429565b811461145157600080fd5b50565b6000813590506114638161143d565b92915050565b60006080828403121561147f5761147e610e75565b5b6114896080610eeb565b9050600061149984828501610c0a565b60008301525060206114ad84828501610c0a565b602083015250604082013567ffffffffffffffff8111156114d1576114d0610f06565b5b6114dd8482850161108b565b60408301525060606114f184828501611454565b60608301525092915050565b600061151061150b846113fd565b610eeb565b9050808382526020820190506020840283018581111561153357611532610f3c565b5b835b8181101561157a57803567ffffffffffffffff81111561155857611557610f0b565b5b8086016115658982611469565b85526020850194505050602081019050611535565b5050509392505050565b600082601f83011261159957611598610f0b565b5b81356115a98482602086016114fd565b91505092915050565b6000608082840312156115c8576115c7610e75565b5b6115d26080610eeb565b9050600082013567ffffffffffffffff8111156115f2576115f1610f06565b5b6115fe84828501611584565b600083015250602082013567ffffffffffffffff81111561162257611621610f06565b5b61162e8482850161108b565b602083015250604082013567ffffffffffffffff81111561165257611651610f06565b5b61165e8482850161108b565b604083015250606061167284828501610c0a565b60608301525092915050565b600061168a36836115b2565b9050919050565b600081519050919050565b600082825260208201905092915050565b6000819050602082019050919050565b6116c681610be9565b82525050565b60006116d883836116bd565b60208301905092915050565b6000602082019050919050565b60006116fc82611691565b611706818561169c565b9350611711836116ad565b8060005b8381101561174257815161172988826116cc565b9750611734836116e4565b925050600181019050611715565b5085935050505092915050565b600081519050919050565b600082825260208201905092915050565b6000819050602082019050919050565b600081519050919050565b600082825260208201905092915050565b60005b838110156117b557808201518184015260208101905061179a565b60008484015250505050565b60006117cc8261177b565b6117d68185611786565b93506117e6818560208601611797565b6117ef81610e7a565b840191505092915050565b600061180683836117c1565b905092915050565b6000602082019050919050565b60006118268261174f565b611830818561175a565b9350836020820285016118428561176b565b8060005b8581101561187e578484038952815161185f85826117fa565b945061186a8361180e565b925060208a01995050600181019050611846565b50829750879550505050505092915050565b600081519050919050565b600082825260208201905092915050565b6000819050602082019050919050565b6118c58161119a565b82525050565b60006118d783836118bc565b60208301905092915050565b6000602082019050919050565b60006118fb82611890565b611905818561189b565b9350611910836118ac565b8060005b8381101561194157815161192888826118cb565b9750611933836118e3565b925050600181019050611914565b5085935050505092915050565b600060029050919050565b600081905092915050565b6000819050919050565b61197781610c3f565b82525050565b6000611989838361196e565b60208301905092915050565b6000602082019050919050565b6119ab8161194e565b6119b58184611959565b92506119c082611964565b8060005b838110156119f15781516119d8878261197d565b96506119e383611995565b9250506001810190506119c4565b505050505050565b600060a0830160008301518482036000860152611a1682826116f1565b91505060208301518482036020860152611a30828261181b565b91505060408301518482036040860152611a4a82826118f0565b9150506060830151611a5f60608601826119a2565b508091505092915050565b60006020820190508181036000830152611a8481846119f9565b905092915050565b7f4e487b7100000000000000000000000000000000000000000000000000000000600052601160045260246000fd5b6000611ac682610be9565b9150611ad183610be9565b9250828203905081811115611ae957611ae8611a8c565b5b92915050565b611af881610c3f565b82525050565b611b0781610be9565b82525050565b600081519050919050565b600082825260208201905092915050565b6000819050602082019050919050565b611b4281611429565b82525050565b6000608083016000830151611b6060008601826116bd565b506020830151611b7360208601826116bd565b5060408301518482036040860152611b8b82826117c1565b9150506060830151611ba06060860182611b39565b508091505092915050565b6000611bb78383611b48565b905092915050565b6000602082019050919050565b6000611bd782611b0d565b611be18185611b18565b935083602082028501611bf385611b29565b8060005b85811015611c2f5784840389528151611c108582611bab565b9450611c1b83611bbf565b925060208a01995050600181019050611bf7565b50829750879550505050505092915050565b60006080830160008301518482036000860152611c5e8282611bcc565b91505060208301518482036020860152611c7882826117c1565b91505060408301518482036040860152611c9282826117c1565b9150506060830151611ca760608601826116bd565b508091505092915050565b6000606082019050611cc76000830186611aef565b611cd46020830185611afe565b8181036040830152611ce68184611c41565b9050949350505050565b6000602082019050611d056000830184611aef565b92915050565b600081519050611d1a81610bf3565b92915050565b600060208284031215611d3657611d35610b9c565b5b6000611d4484828501611d0b565b91505092915050565b600060a082019050611d626000830188611aef565b611d6f6020830187611afe565b611d7c6040830186611aef565b611d896060830185611afe565b8181036080830152611d9b8184611c41565b90509695505050505050565b6000606082019050611dbc6000830186611aef565b611dc96020830185611aef565b611dd66040830184611afe565b949350505050565b600081905092915050565b6000611df48261177b565b611dfe8185611dde565b9350611e0e818560208601611797565b80840191505092915050565b6000611e268284611de9565b915081905092915050565b60008115159050919050565b611e4681611e31565b8114611e5157600080fd5b50565b600081519050611e6381611e3d565b92915050565b600060208284031215611e7f57611e7e610b9c565b5b6000611e8d84828501611e54565b91505092915050565b7f5472616e7366657248656c7065723a3a7472616e7366657246726f6d3a20747260008201527f616e7366657246726f6d206661696c6564000000000000000000000000000000602082015250565b6000611ef2603183610d30565b9150611efd82611e96565b604082019050919050565b60006020820190508181036000830152611f2181611ee5565b9050919050565b6000604082019050611f3d6000830185611aef565b611f4a6020830184611afe565b9392505050565b7f5472616e7366657248656c7065723a3a73616665417070726f76653a2061707060008201527f726f7665206661696c6564000000000000000000000000000000000000000000602082015250565b6000611fad602b83610d30565b9150611fb882611f51565b604082019050919050565b60006020820190508181036000830152611fdc81611fa0565b905091905056fea2646970667358221220b43c53ea7e9598f658dedbf6eb341dabccee5f55382a7df80eca98772591748264736f6c63430008110033",
  "linkReferences": {},
  "deployedLinkReferences": {}
}