{
	"data": {
		"bytecode": {
			"linkReferences": {},
			"object": "608060405234801561001057600080fd5b50611f6d806100206000396000f3fe6080604052600436106100225760003560e01c80634bcc97da1461002e57610029565b3661002957005b600080fd5b61004860048036038101906100439190611032565b61004a565b005b6000831161008d576040517f08c379a000000000000000000000000000000000000000000000000000000000815260040161008490611161565b60405180910390fd5b600073ffffffffffffffffffffffffffffffffffffffff16866060016000600281106100bc576100bb611181565b5b6020020160208101906100cf919061120e565b73ffffffffffffffffffffffffffffffffffffffff16141561018c5782341461012d576040517f08c379a000000000000000000000000000000000000000000000000000000000815260040161012490611287565b60405180910390fd5b6101878661013a906116d1565b86868080601f016020809104026020016040519081016040528093929190818152602001838380828437600081840152601f19601f82011690508083019250505050505050858585610259565b610251565b6101c1866060016000600281106101a6576101a5611181565b5b6020020160208101906101b9919061120e565b333086610a45565b6101f6866060016000600281106101db576101da611181565b5b6020020160208101906101ee919061120e565b333086610ae7565b61025086610203906116d1565b86868080601f016020809104026020016040519081016040528093929190818152602001838380828437600081840152601f19601f82011690508083019250505050505050858585610259565b5b505050505050565b600080600073ffffffffffffffffffffffffffffffffffffffff16876060015160016002811061028c5761028b611181565b5b602002015173ffffffffffffffffffffffffffffffffffffffff161415610401574791506102eb87606001516000600281106102cb576102ca611181565b5b602002015173448484ab100d9f374621ee1a520419cf21349f1187610c20565b73448484ab100d9f374621ee1a520419cf21349f1173ffffffffffffffffffffffffffffffffffffffff166342b28308886040518263ffffffff1660e01b81526004016103389190611ac6565b600060405180830381600087803b15801561035257600080fd5b505af1158015610366573d6000803e3d6000fd5b5050505081476103769190611b17565b905073a179d181cf855258bc26a8623e1ce7a2e3fd360673ffffffffffffffffffffffffffffffffffffffff16636d5ff4798285878a6040518563ffffffff1660e01b81526004016103ca93929190611ba4565b6000604051808303818588803b1580156103e357600080fd5b505af11580156103f7573d6000803e3d6000fd5b5050505050610a3c565b600073ffffffffffffffffffffffffffffffffffffffff16876060015160006002811061043157610430611181565b5b602002015173ffffffffffffffffffffffffffffffffffffffff16141561074957866060015160016002811061046a57610469611181565b5b602002015173ffffffffffffffffffffffffffffffffffffffff166370a08231306040518263ffffffff1660e01b81526004016104a79190611bf8565b60206040518083038186803b1580156104bf57600080fd5b505afa1580156104d3573d6000803e3d6000fd5b505050506040513d601f19601f820116820180604052508101906104f79190611c28565b915073448484ab100d9f374621ee1a520419cf21349f1173ffffffffffffffffffffffffffffffffffffffff166342b2830886896040518363ffffffff1660e01b81526004016105479190611ac6565b6000604051808303818588803b15801561056057600080fd5b505af1158015610574573d6000803e3d6000fd5b505050505081876060015160016002811061059257610591611181565b5b602002015173ffffffffffffffffffffffffffffffffffffffff166370a08231306040518263ffffffff1660e01b81526004016105cf9190611bf8565b60206040518083038186803b1580156105e757600080fd5b505afa1580156105fb573d6000803e3d6000fd5b505050506040513d601f19601f8201168201806040525081019061061f9190611c28565b6106299190611b17565b9050610666876060015160016002811061064657610645611181565b5b602002015173a179d181cf855258bc26a8623e1ce7a2e3fd360683610c20565b6106a1876060015160016002811061068157610680611181565b5b602002015173a179d181cf855258bc26a8623e1ce7a2e3fd360683610d56565b73a179d181cf855258bc26a8623e1ce7a2e3fd360673ffffffffffffffffffffffffffffffffffffffff16632f12d7ef88606001516001600281106106e9576106e8611181565b5b60200201518584888b6040518663ffffffff1660e01b8152600401610712959493929190611c55565b600060405180830381600087803b15801561072c57600080fd5b505af1158015610740573d6000803e3d6000fd5b50505050610a3b565b866060015160016002811061076157610760611181565b5b602002015173ffffffffffffffffffffffffffffffffffffffff166370a08231306040518263ffffffff1660e01b815260040161079e9190611bf8565b60206040518083038186803b1580156107b657600080fd5b505afa1580156107ca573d6000803e3d6000fd5b505050506040513d601f19601f820116820180604052508101906107ee9190611c28565b915061082b876060015160006002811061080b5761080a611181565b5b602002015173448484ab100d9f374621ee1a520419cf21349f1187610c20565b73448484ab100d9f374621ee1a520419cf21349f1173ffffffffffffffffffffffffffffffffffffffff166342b28308886040518263ffffffff1660e01b81526004016108789190611ac6565b600060405180830381600087803b15801561089257600080fd5b505af11580156108a6573d6000803e3d6000fd5b505050508187606001516001600281106108c3576108c2611181565b5b602002015173ffffffffffffffffffffffffffffffffffffffff166370a08231306040518263ffffffff1660e01b81526004016109009190611bf8565b60206040518083038186803b15801561091857600080fd5b505afa15801561092c573d6000803e3d6000fd5b505050506040513d601f19601f820116820180604052508101906109509190611c28565b61095a9190611b17565b9050610997876060015160016002811061097757610976611181565b5b602002015173a179d181cf855258bc26a8623e1ce7a2e3fd360683610c20565b73a179d181cf855258bc26a8623e1ce7a2e3fd360673ffffffffffffffffffffffffffffffffffffffff16632f12d7ef88606001516001600281106109df576109de611181565b5b60200201518584888b6040518663ffffffff1660e01b8152600401610a08959493929190611c55565b600060405180830381600087803b158015610a2257600080fd5b505af1158015610a36573d6000803e3d6000fd5b505050505b5b50505050505050565b610ae184848484604051602401610a5f9493929190611cb6565b6040516020818303038152906040527f94250d77000000000000000000000000000000000000000000000000000000007bffffffffffffffffffffffffffffffffffffffffffffffffffffffff19166020820180517bffffffffffffffffffffffffffffffffffffffffffffffffffffffff8381831617835250505050610df5565b50505050565b6000808573ffffffffffffffffffffffffffffffffffffffff166323b872dd868686604051602401610b1b93929190611cfb565b6040516020818303038152906040529060e01b6020820180517bffffffffffffffffffffffffffffffffffffffffffffffffffffffff8381831617835250505050604051610b699190611d6e565b6000604051808303816000865af19150503d8060008114610ba6576040519150601f19603f3d011682016040523d82523d6000602084013e610bab565b606091505b5091509150818015610bd95750600081511480610bd8575080806020019051810190610bd79190611dbd565b5b5b610c18576040517f08c379a0000000000000000000000000000000000000000000000000000000008152600401610c0f90611e5c565b60405180910390fd5b505050505050565b6000808473ffffffffffffffffffffffffffffffffffffffff1663095ea7b38585604051602401610c52929190611e7c565b6040516020818303038152906040529060e01b6020820180517bffffffffffffffffffffffffffffffffffffffffffffffffffffffff8381831617835250505050604051610ca09190611d6e565b6000604051808303816000865af19150503d8060008114610cdd576040519150601f19603f3d011682016040523d82523d6000602084013e610ce2565b606091505b5091509150818015610d105750600081511480610d0f575080806020019051810190610d0e9190611dbd565b5b5b610d4f576040517f08c379a0000000000000000000000000000000000000000000000000000000008152600401610d4690611f17565b60405180910390fd5b5050505050565b610df0838383604051602401610d6e93929190611cfb565b6040516020818303038152906040527f17fe6185000000000000000000000000000000000000000000000000000000007bffffffffffffffffffffffffffffffffffffffffffffffffffffffff19166020820180517bffffffffffffffffffffffffffffffffffffffffffffffffffffffff8381831617835250505050610df5565b505050565b60008151905060006a636f6e736f6c652e6c6f679050602083016000808483855afa5050505050565b6000604051905090565b600080fd5b600080fd5b600080fd5b600060a08284031215610e4d57610e4c610e32565b5b81905092915050565b600080fd5b600080fd5b600080fd5b60008083601f840112610e7b57610e7a610e56565b5b8235905067ffffffffffffffff811115610e9857610e97610e5b565b5b602083019150836001820283011115610eb457610eb3610e60565b5b9250929050565b6000819050919050565b610ece81610ebb565b8114610ed957600080fd5b50565b600081359050610eeb81610ec5565b92915050565b600080fd5b6000601f19601f8301169050919050565b7f4e487b7100000000000000000000000000000000000000000000000000000000600052604160045260246000fd5b610f3f82610ef6565b810181811067ffffffffffffffff82111715610f5e57610f5d610f07565b5b80604052505050565b6000610f71610e1e565b9050610f7d8282610f36565b919050565b600067ffffffffffffffff821115610f9d57610f9c610f07565b5b610fa682610ef6565b9050602081019050919050565b82818337600083830152505050565b6000610fd5610fd084610f82565b610f67565b905082815260208101848484011115610ff157610ff0610ef1565b5b610ffc848285610fb3565b509392505050565b600082601f83011261101957611018610e56565b5b8135611029848260208601610fc2565b91505092915050565b60008060008060008060a0878903121561104f5761104e610e28565b5b600087013567ffffffffffffffff81111561106d5761106c610e2d565b5b61107989828a01610e37565b965050602087013567ffffffffffffffff81111561109a57611099610e2d565b5b6110a689828a01610e65565b955095505060406110b989828a01610edc565b93505060606110ca89828a01610edc565b925050608087013567ffffffffffffffff8111156110eb576110ea610e2d565b5b6110f789828a01611004565b9150509295509295509295565b600082825260208201905092915050565b7f53656e64696e672076616c7565206973207a65726f0000000000000000000000600082015250565b600061114b601583611104565b915061115682611115565b602082019050919050565b6000602082019050818103600083015261117a8161113e565b9050919050565b7f4e487b7100000000000000000000000000000000000000000000000000000000600052603260045260246000fd5b600073ffffffffffffffffffffffffffffffffffffffff82169050919050565b60006111db826111b0565b9050919050565b6111eb816111d0565b81146111f657600080fd5b50565b600081359050611208816111e2565b92915050565b60006020828403121561122457611223610e28565b5b6000611232848285016111f9565b91505092915050565b7f4e6f7420656e6f756768206d6f6e657900000000000000000000000000000000600082015250565b6000611271601083611104565b915061127c8261123b565b602082019050919050565b600060208201905081810360008301526112a081611264565b9050919050565b600080fd5b600080fd5b600067ffffffffffffffff8211156112cc576112cb610f07565b5b602082029050602081019050919050565b60006112f06112eb846112b1565b610f67565b9050808382526020820190506020840283018581111561131357611312610e60565b5b835b8181101561133c57806113288882610edc565b845260208401935050602081019050611315565b5050509392505050565b600082601f83011261135b5761135a610e56565b5b813561136b8482602086016112dd565b91505092915050565b600067ffffffffffffffff82111561138f5761138e610f07565b5b602082029050602081019050919050565b60006113b36113ae84611374565b610f67565b905080838252602082019050602084028301858111156113d6576113d5610e60565b5b835b8181101561141d57803567ffffffffffffffff8111156113fb576113fa610e56565b5b8086016114088982611004565b855260208501945050506020810190506113d8565b5050509392505050565b600082601f83011261143c5761143b610e56565b5b813561144c8482602086016113a0565b91505092915050565b600067ffffffffffffffff8211156114705761146f610f07565b5b602082029050602081019050919050565b600063ffffffff82169050919050565b61149a81611481565b81146114a557600080fd5b50565b6000813590506114b781611491565b92915050565b60006114d06114cb84611455565b610f67565b905080838252602082019050602084028301858111156114f3576114f2610e60565b5b835b8181101561151c578061150888826114a8565b8452602084019350506020810190506114f5565b5050509392505050565b600082601f83011261153b5761153a610e56565b5b813561154b8482602086016114bd565b91505092915050565b600067ffffffffffffffff82111561156f5761156e610f07565b5b602082029050919050565b600061158d61158884611554565b610f67565b905080602084028301858111156115a7576115a6610e60565b5b835b818110156115d057806115bc88826111f9565b8452602084019350506020810190506115a9565b5050509392505050565b600082601f8301126115ef576115ee610e56565b5b60026115fc84828561157a565b91505092915050565b600060a0828403121561161b5761161a6112a7565b5b6116256080610f67565b9050600082013567ffffffffffffffff811115611645576116446112ac565b5b61165184828501611346565b600083015250602082013567ffffffffffffffff811115611675576116746112ac565b5b61168184828501611427565b602083015250604082013567ffffffffffffffff8111156116a5576116a46112ac565b5b6116b184828501611526565b60408301525060606116c5848285016115da565b60608301525092915050565b60006116dd3683611605565b9050919050565b600081519050919050565b600082825260208201905092915050565b6000819050602082019050919050565b61171981610ebb565b82525050565b600061172b8383611710565b60208301905092915050565b6000602082019050919050565b600061174f826116e4565b61175981856116ef565b935061176483611700565b8060005b8381101561179557815161177c888261171f565b975061178783611737565b925050600181019050611768565b5085935050505092915050565b600081519050919050565b600082825260208201905092915050565b6000819050602082019050919050565b600081519050919050565b600082825260208201905092915050565b60005b838110156118085780820151818401526020810190506117ed565b83811115611817576000848401525b50505050565b6000611828826117ce565b61183281856117d9565b93506118428185602086016117ea565b61184b81610ef6565b840191505092915050565b6000611862838361181d565b905092915050565b6000602082019050919050565b6000611882826117a2565b61188c81856117ad565b93508360208202850161189e856117be565b8060005b858110156118da57848403895281516118bb8582611856565b94506118c68361186a565b925060208a019950506001810190506118a2565b50829750879550505050505092915050565b600081519050919050565b600082825260208201905092915050565b6000819050602082019050919050565b61192181611481565b82525050565b60006119338383611918565b60208301905092915050565b6000602082019050919050565b6000611957826118ec565b61196181856118f7565b935061196c83611908565b8060005b8381101561199d5781516119848882611927565b975061198f8361193f565b925050600181019050611970565b5085935050505092915050565b600060029050919050565b600081905092915050565b6000819050919050565b6119d3816111d0565b82525050565b60006119e583836119ca565b60208301905092915050565b6000602082019050919050565b611a07816119aa565b611a1181846119b5565b9250611a1c826119c0565b8060005b83811015611a4d578151611a3487826119d9565b9650611a3f836119f1565b925050600181019050611a20565b505050505050565b600060a0830160008301518482036000860152611a728282611744565b91505060208301518482036020860152611a8c8282611877565b91505060408301518482036040860152611aa6828261194c565b9150506060830151611abb60608601826119fe565b508091505092915050565b60006020820190508181036000830152611ae08184611a55565b905092915050565b7f4e487b7100000000000000000000000000000000000000000000000000000000600052601160045260246000fd5b6000611b2282610ebb565b9150611b2d83610ebb565b925082821015611b4057611b3f611ae8565b5b828203905092915050565b600082825260208201905092915050565b6000611b67826117ce565b611b718185611b4b565b9350611b818185602086016117ea565b611b8a81610ef6565b840191505092915050565b611b9e81610ebb565b82525050565b60006060820190508181036000830152611bbe8186611b5c565b9050611bcd6020830185611b95565b8181036040830152611bdf8184611b5c565b9050949350505050565b611bf2816111d0565b82525050565b6000602082019050611c0d6000830184611be9565b92915050565b600081519050611c2281610ec5565b92915050565b600060208284031215611c3e57611c3d610e28565b5b6000611c4c84828501611c13565b91505092915050565b600060a082019050611c6a6000830188611be9565b8181036020830152611c7c8187611b5c565b9050611c8b6040830186611b95565b611c986060830185611b95565b8181036080830152611caa8184611b5c565b90509695505050505050565b6000608082019050611ccb6000830187611be9565b611cd86020830186611be9565b611ce56040830185611be9565b611cf26060830184611b95565b95945050505050565b6000606082019050611d106000830186611be9565b611d1d6020830185611be9565b611d2a6040830184611b95565b949350505050565b600081905092915050565b6000611d48826117ce565b611d528185611d32565b9350611d628185602086016117ea565b80840191505092915050565b6000611d7a8284611d3d565b915081905092915050565b60008115159050919050565b611d9a81611d85565b8114611da557600080fd5b50565b600081519050611db781611d91565b92915050565b600060208284031215611dd357611dd2610e28565b5b6000611de184828501611da8565b91505092915050565b7f5472616e7366657248656c7065723a3a7472616e7366657246726f6d3a20747260008201527f616e7366657246726f6d206661696c6564000000000000000000000000000000602082015250565b6000611e46603183611104565b9150611e5182611dea565b604082019050919050565b60006020820190508181036000830152611e7581611e39565b9050919050565b6000604082019050611e916000830185611be9565b611e9e6020830184611b95565b9392505050565b7f5472616e7366657248656c7065723a3a73616665417070726f76653a2061707060008201527f726f7665206661696c6564000000000000000000000000000000000000000000602082015250565b6000611f01602b83611104565b9150611f0c82611ea5565b604082019050919050565b60006020820190508181036000830152611f3081611ef4565b905091905056fea264697066735822122049d8171e296fcbc286ea5768532d23a888673e62d14c5e13dc439b729fb4a3ed64736f6c63430008090033",
			"opcodes": "PUSH1 0x80 PUSH1 0x40 MSTORE CALLVALUE DUP1 ISZERO PUSH2 0x10 JUMPI PUSH1 0x0 DUP1 REVERT JUMPDEST POP PUSH2 0x1F6D DUP1 PUSH2 0x20 PUSH1 0x0 CODECOPY PUSH1 0x0 RETURN INVALID PUSH1 0x80 PUSH1 0x40 MSTORE PUSH1 0x4 CALLDATASIZE LT PUSH2 0x22 JUMPI PUSH1 0x0 CALLDATALOAD PUSH1 0xE0 SHR DUP1 PUSH4 0x4BCC97DA EQ PUSH2 0x2E JUMPI PUSH2 0x29 JUMP JUMPDEST CALLDATASIZE PUSH2 0x29 JUMPI STOP JUMPDEST PUSH1 0x0 DUP1 REVERT JUMPDEST PUSH2 0x48 PUSH1 0x4 DUP1 CALLDATASIZE SUB DUP2 ADD SWAP1 PUSH2 0x43 SWAP2 SWAP1 PUSH2 0x1032 JUMP JUMPDEST PUSH2 0x4A JUMP JUMPDEST STOP JUMPDEST PUSH1 0x0 DUP4 GT PUSH2 0x8D JUMPI PUSH1 0x40 MLOAD PUSH32 0x8C379A000000000000000000000000000000000000000000000000000000000 DUP2 MSTORE PUSH1 0x4 ADD PUSH2 0x84 SWAP1 PUSH2 0x1161 JUMP JUMPDEST PUSH1 0x40 MLOAD DUP1 SWAP2 SUB SWAP1 REVERT JUMPDEST PUSH1 0x0 PUSH20 0xFFFFFFFFFFFFFFFFFFFFFFFFFFFFFFFFFFFFFFFF AND DUP7 PUSH1 0x60 ADD PUSH1 0x0 PUSH1 0x2 DUP2 LT PUSH2 0xBC JUMPI PUSH2 0xBB PUSH2 0x1181 JUMP JUMPDEST JUMPDEST PUSH1 0x20 MUL ADD PUSH1 0x20 DUP2 ADD SWAP1 PUSH2 0xCF SWAP2 SWAP1 PUSH2 0x120E JUMP JUMPDEST PUSH20 0xFFFFFFFFFFFFFFFFFFFFFFFFFFFFFFFFFFFFFFFF AND EQ ISZERO PUSH2 0x18C JUMPI DUP3 CALLVALUE EQ PUSH2 0x12D JUMPI PUSH1 0x40 MLOAD PUSH32 0x8C379A000000000000000000000000000000000000000000000000000000000 DUP2 MSTORE PUSH1 0x4 ADD PUSH2 0x124 SWAP1 PUSH2 0x1287 JUMP JUMPDEST PUSH1 0x40 MLOAD DUP1 SWAP2 SUB SWAP1 REVERT JUMPDEST PUSH2 0x187 DUP7 PUSH2 0x13A SWAP1 PUSH2 0x16D1 JUMP JUMPDEST DUP7 DUP7 DUP1 DUP1 PUSH1 0x1F ADD PUSH1 0x20 DUP1 SWAP2 DIV MUL PUSH1 0x20 ADD PUSH1 0x40 MLOAD SWAP1 DUP2 ADD PUSH1 0x40 MSTORE DUP1 SWAP4 SWAP3 SWAP2 SWAP1 DUP2 DUP2 MSTORE PUSH1 0x20 ADD DUP4 DUP4 DUP1 DUP3 DUP5 CALLDATACOPY PUSH1 0x0 DUP2 DUP5 ADD MSTORE PUSH1 0x1F NOT PUSH1 0x1F DUP3 ADD AND SWAP1 POP DUP1 DUP4 ADD SWAP3 POP POP POP POP POP POP POP DUP6 DUP6 DUP6 PUSH2 0x259 JUMP JUMPDEST PUSH2 0x251 JUMP JUMPDEST PUSH2 0x1C1 DUP7 PUSH1 0x60 ADD PUSH1 0x0 PUSH1 0x2 DUP2 LT PUSH2 0x1A6 JUMPI PUSH2 0x1A5 PUSH2 0x1181 JUMP JUMPDEST JUMPDEST PUSH1 0x20 MUL ADD PUSH1 0x20 DUP2 ADD SWAP1 PUSH2 0x1B9 SWAP2 SWAP1 PUSH2 0x120E JUMP JUMPDEST CALLER ADDRESS DUP7 PUSH2 0xA45 JUMP JUMPDEST PUSH2 0x1F6 DUP7 PUSH1 0x60 ADD PUSH1 0x0 PUSH1 0x2 DUP2 LT PUSH2 0x1DB JUMPI PUSH2 0x1DA PUSH2 0x1181 JUMP JUMPDEST JUMPDEST PUSH1 0x20 MUL ADD PUSH1 0x20 DUP2 ADD SWAP1 PUSH2 0x1EE SWAP2 SWAP1 PUSH2 0x120E JUMP JUMPDEST CALLER ADDRESS DUP7 PUSH2 0xAE7 JUMP JUMPDEST PUSH2 0x250 DUP7 PUSH2 0x203 SWAP1 PUSH2 0x16D1 JUMP JUMPDEST DUP7 DUP7 DUP1 DUP1 PUSH1 0x1F ADD PUSH1 0x20 DUP1 SWAP2 DIV MUL PUSH1 0x20 ADD PUSH1 0x40 MLOAD SWAP1 DUP2 ADD PUSH1 0x40 MSTORE DUP1 SWAP4 SWAP3 SWAP2 SWAP1 DUP2 DUP2 MSTORE PUSH1 0x20 ADD DUP4 DUP4 DUP1 DUP3 DUP5 CALLDATACOPY PUSH1 0x0 DUP2 DUP5 ADD MSTORE PUSH1 0x1F NOT PUSH1 0x1F DUP3 ADD AND SWAP1 POP DUP1 DUP4 ADD SWAP3 POP POP POP POP POP POP POP DUP6 DUP6 DUP6 PUSH2 0x259 JUMP JUMPDEST JUMPDEST POP POP POP POP POP POP JUMP JUMPDEST PUSH1 0x0 DUP1 PUSH1 0x0 PUSH20 0xFFFFFFFFFFFFFFFFFFFFFFFFFFFFFFFFFFFFFFFF AND DUP8 PUSH1 0x60 ADD MLOAD PUSH1 0x1 PUSH1 0x2 DUP2 LT PUSH2 0x28C JUMPI PUSH2 0x28B PUSH2 0x1181 JUMP JUMPDEST JUMPDEST PUSH1 0x20 MUL ADD MLOAD PUSH20 0xFFFFFFFFFFFFFFFFFFFFFFFFFFFFFFFFFFFFFFFF AND EQ ISZERO PUSH2 0x401 JUMPI SELFBALANCE SWAP2 POP PUSH2 0x2EB DUP8 PUSH1 0x60 ADD MLOAD PUSH1 0x0 PUSH1 0x2 DUP2 LT PUSH2 0x2CB JUMPI PUSH2 0x2CA PUSH2 0x1181 JUMP JUMPDEST JUMPDEST PUSH1 0x20 MUL ADD MLOAD PUSH20 0x448484AB100D9F374621EE1A520419CF21349F11 DUP8 PUSH2 0xC20 JUMP JUMPDEST PUSH20 0x448484AB100D9F374621EE1A520419CF21349F11 PUSH20 0xFFFFFFFFFFFFFFFFFFFFFFFFFFFFFFFFFFFFFFFF AND PUSH4 0x42B28308 DUP9 PUSH1 0x40 MLOAD DUP3 PUSH4 0xFFFFFFFF AND PUSH1 0xE0 SHL DUP2 MSTORE PUSH1 0x4 ADD PUSH2 0x338 SWAP2 SWAP1 PUSH2 0x1AC6 JUMP JUMPDEST PUSH1 0x0 PUSH1 0x40 MLOAD DUP1 DUP4 SUB DUP2 PUSH1 0x0 DUP8 DUP1 EXTCODESIZE ISZERO DUP1 ISZERO PUSH2 0x352 JUMPI PUSH1 0x0 DUP1 REVERT JUMPDEST POP GAS CALL ISZERO DUP1 ISZERO PUSH2 0x366 JUMPI RETURNDATASIZE PUSH1 0x0 DUP1 RETURNDATACOPY RETURNDATASIZE PUSH1 0x0 REVERT JUMPDEST POP POP POP POP DUP2 SELFBALANCE PUSH2 0x376 SWAP2 SWAP1 PUSH2 0x1B17 JUMP JUMPDEST SWAP1 POP PUSH20 0xA179D181CF855258BC26A8623E1CE7A2E3FD3606 PUSH20 0xFFFFFFFFFFFFFFFFFFFFFFFFFFFFFFFFFFFFFFFF AND PUSH4 0x6D5FF479 DUP3 DUP6 DUP8 DUP11 PUSH1 0x40 MLOAD DUP6 PUSH4 0xFFFFFFFF AND PUSH1 0xE0 SHL DUP2 MSTORE PUSH1 0x4 ADD PUSH2 0x3CA SWAP4 SWAP3 SWAP2 SWAP1 PUSH2 0x1BA4 JUMP JUMPDEST PUSH1 0x0 PUSH1 0x40 MLOAD DUP1 DUP4 SUB DUP2 DUP6 DUP9 DUP1 EXTCODESIZE ISZERO DUP1 ISZERO PUSH2 0x3E3 JUMPI PUSH1 0x0 DUP1 REVERT JUMPDEST POP GAS CALL ISZERO DUP1 ISZERO PUSH2 0x3F7 JUMPI RETURNDATASIZE PUSH1 0x0 DUP1 RETURNDATACOPY RETURNDATASIZE PUSH1 0x0 REVERT JUMPDEST POP POP POP POP POP PUSH2 0xA3C JUMP JUMPDEST PUSH1 0x0 PUSH20 0xFFFFFFFFFFFFFFFFFFFFFFFFFFFFFFFFFFFFFFFF AND DUP8 PUSH1 0x60 ADD MLOAD PUSH1 0x0 PUSH1 0x2 DUP2 LT PUSH2 0x431 JUMPI PUSH2 0x430 PUSH2 0x1181 JUMP JUMPDEST JUMPDEST PUSH1 0x20 MUL ADD MLOAD PUSH20 0xFFFFFFFFFFFFFFFFFFFFFFFFFFFFFFFFFFFFFFFF AND EQ ISZERO PUSH2 0x749 JUMPI DUP7 PUSH1 0x60 ADD MLOAD PUSH1 0x1 PUSH1 0x2 DUP2 LT PUSH2 0x46A JUMPI PUSH2 0x469 PUSH2 0x1181 JUMP JUMPDEST JUMPDEST PUSH1 0x20 MUL ADD MLOAD PUSH20 0xFFFFFFFFFFFFFFFFFFFFFFFFFFFFFFFFFFFFFFFF AND PUSH4 0x70A08231 ADDRESS PUSH1 0x40 MLOAD DUP3 PUSH4 0xFFFFFFFF AND PUSH1 0xE0 SHL DUP2 MSTORE PUSH1 0x4 ADD PUSH2 0x4A7 SWAP2 SWAP1 PUSH2 0x1BF8 JUMP JUMPDEST PUSH1 0x20 PUSH1 0x40 MLOAD DUP1 DUP4 SUB DUP2 DUP7 DUP1 EXTCODESIZE ISZERO DUP1 ISZERO PUSH2 0x4BF JUMPI PUSH1 0x0 DUP1 REVERT JUMPDEST POP GAS STATICCALL ISZERO DUP1 ISZERO PUSH2 0x4D3 JUMPI RETURNDATASIZE PUSH1 0x0 DUP1 RETURNDATACOPY RETURNDATASIZE PUSH1 0x0 REVERT JUMPDEST POP POP POP POP PUSH1 0x40 MLOAD RETURNDATASIZE PUSH1 0x1F NOT PUSH1 0x1F DUP3 ADD AND DUP3 ADD DUP1 PUSH1 0x40 MSTORE POP DUP2 ADD SWAP1 PUSH2 0x4F7 SWAP2 SWAP1 PUSH2 0x1C28 JUMP JUMPDEST SWAP2 POP PUSH20 0x448484AB100D9F374621EE1A520419CF21349F11 PUSH20 0xFFFFFFFFFFFFFFFFFFFFFFFFFFFFFFFFFFFFFFFF AND PUSH4 0x42B28308 DUP7 DUP10 PUSH1 0x40 MLOAD DUP4 PUSH4 0xFFFFFFFF AND PUSH1 0xE0 SHL DUP2 MSTORE PUSH1 0x4 ADD PUSH2 0x547 SWAP2 SWAP1 PUSH2 0x1AC6 JUMP JUMPDEST PUSH1 0x0 PUSH1 0x40 MLOAD DUP1 DUP4 SUB DUP2 DUP6 DUP9 DUP1 EXTCODESIZE ISZERO DUP1 ISZERO PUSH2 0x560 JUMPI PUSH1 0x0 DUP1 REVERT JUMPDEST POP GAS CALL ISZERO DUP1 ISZERO PUSH2 0x574 JUMPI RETURNDATASIZE PUSH1 0x0 DUP1 RETURNDATACOPY RETURNDATASIZE PUSH1 0x0 REVERT JUMPDEST POP POP POP POP POP DUP2 DUP8 PUSH1 0x60 ADD MLOAD PUSH1 0x1 PUSH1 0x2 DUP2 LT PUSH2 0x592 JUMPI PUSH2 0x591 PUSH2 0x1181 JUMP JUMPDEST JUMPDEST PUSH1 0x20 MUL ADD MLOAD PUSH20 0xFFFFFFFFFFFFFFFFFFFFFFFFFFFFFFFFFFFFFFFF AND PUSH4 0x70A08231 ADDRESS PUSH1 0x40 MLOAD DUP3 PUSH4 0xFFFFFFFF AND PUSH1 0xE0 SHL DUP2 MSTORE PUSH1 0x4 ADD PUSH2 0x5CF SWAP2 SWAP1 PUSH2 0x1BF8 JUMP JUMPDEST PUSH1 0x20 PUSH1 0x40 MLOAD DUP1 DUP4 SUB DUP2 DUP7 DUP1 EXTCODESIZE ISZERO DUP1 ISZERO PUSH2 0x5E7 JUMPI PUSH1 0x0 DUP1 REVERT JUMPDEST POP GAS STATICCALL ISZERO DUP1 ISZERO PUSH2 0x5FB JUMPI RETURNDATASIZE PUSH1 0x0 DUP1 RETURNDATACOPY RETURNDATASIZE PUSH1 0x0 REVERT JUMPDEST POP POP POP POP PUSH1 0x40 MLOAD RETURNDATASIZE PUSH1 0x1F NOT PUSH1 0x1F DUP3 ADD AND DUP3 ADD DUP1 PUSH1 0x40 MSTORE POP DUP2 ADD SWAP1 PUSH2 0x61F SWAP2 SWAP1 PUSH2 0x1C28 JUMP JUMPDEST PUSH2 0x629 SWAP2 SWAP1 PUSH2 0x1B17 JUMP JUMPDEST SWAP1 POP PUSH2 0x666 DUP8 PUSH1 0x60 ADD MLOAD PUSH1 0x1 PUSH1 0x2 DUP2 LT PUSH2 0x646 JUMPI PUSH2 0x645 PUSH2 0x1181 JUMP JUMPDEST JUMPDEST PUSH1 0x20 MUL ADD MLOAD PUSH20 0xA179D181CF855258BC26A8623E1CE7A2E3FD3606 DUP4 PUSH2 0xC20 JUMP JUMPDEST PUSH2 0x6A1 DUP8 PUSH1 0x60 ADD MLOAD PUSH1 0x1 PUSH1 0x2 DUP2 LT PUSH2 0x681 JUMPI PUSH2 0x680 PUSH2 0x1181 JUMP JUMPDEST JUMPDEST PUSH1 0x20 MUL ADD MLOAD PUSH20 0xA179D181CF855258BC26A8623E1CE7A2E3FD3606 DUP4 PUSH2 0xD56 JUMP JUMPDEST PUSH20 0xA179D181CF855258BC26A8623E1CE7A2E3FD3606 PUSH20 0xFFFFFFFFFFFFFFFFFFFFFFFFFFFFFFFFFFFFFFFF AND PUSH4 0x2F12D7EF DUP9 PUSH1 0x60 ADD MLOAD PUSH1 0x1 PUSH1 0x2 DUP2 LT PUSH2 0x6E9 JUMPI PUSH2 0x6E8 PUSH2 0x1181 JUMP JUMPDEST JUMPDEST PUSH1 0x20 MUL ADD MLOAD DUP6 DUP5 DUP9 DUP12 PUSH1 0x40 MLOAD DUP7 PUSH4 0xFFFFFFFF AND PUSH1 0xE0 SHL DUP2 MSTORE PUSH1 0x4 ADD PUSH2 0x712 SWAP6 SWAP5 SWAP4 SWAP3 SWAP2 SWAP1 PUSH2 0x1C55 JUMP JUMPDEST PUSH1 0x0 PUSH1 0x40 MLOAD DUP1 DUP4 SUB DUP2 PUSH1 0x0 DUP8 DUP1 EXTCODESIZE ISZERO DUP1 ISZERO PUSH2 0x72C JUMPI PUSH1 0x0 DUP1 REVERT JUMPDEST POP GAS CALL ISZERO DUP1 ISZERO PUSH2 0x740 JUMPI RETURNDATASIZE PUSH1 0x0 DUP1 RETURNDATACOPY RETURNDATASIZE PUSH1 0x0 REVERT JUMPDEST POP POP POP POP PUSH2 0xA3B JUMP JUMPDEST DUP7 PUSH1 0x60 ADD MLOAD PUSH1 0x1 PUSH1 0x2 DUP2 LT PUSH2 0x761 JUMPI PUSH2 0x760 PUSH2 0x1181 JUMP JUMPDEST JUMPDEST PUSH1 0x20 MUL ADD MLOAD PUSH20 0xFFFFFFFFFFFFFFFFFFFFFFFFFFFFFFFFFFFFFFFF AND PUSH4 0x70A08231 ADDRESS PUSH1 0x40 MLOAD DUP3 PUSH4 0xFFFFFFFF AND PUSH1 0xE0 SHL DUP2 MSTORE PUSH1 0x4 ADD PUSH2 0x79E SWAP2 SWAP1 PUSH2 0x1BF8 JUMP JUMPDEST PUSH1 0x20 PUSH1 0x40 MLOAD DUP1 DUP4 SUB DUP2 DUP7 DUP1 EXTCODESIZE ISZERO DUP1 ISZERO PUSH2 0x7B6 JUMPI PUSH1 0x0 DUP1 REVERT JUMPDEST POP GAS STATICCALL ISZERO DUP1 ISZERO PUSH2 0x7CA JUMPI RETURNDATASIZE PUSH1 0x0 DUP1 RETURNDATACOPY RETURNDATASIZE PUSH1 0x0 REVERT JUMPDEST POP POP POP POP PUSH1 0x40 MLOAD RETURNDATASIZE PUSH1 0x1F NOT PUSH1 0x1F DUP3 ADD AND DUP3 ADD DUP1 PUSH1 0x40 MSTORE POP DUP2 ADD SWAP1 PUSH2 0x7EE SWAP2 SWAP1 PUSH2 0x1C28 JUMP JUMPDEST SWAP2 POP PUSH2 0x82B DUP8 PUSH1 0x60 ADD MLOAD PUSH1 0x0 PUSH1 0x2 DUP2 LT PUSH2 0x80B JUMPI PUSH2 0x80A PUSH2 0x1181 JUMP JUMPDEST JUMPDEST PUSH1 0x20 MUL ADD MLOAD PUSH20 0x448484AB100D9F374621EE1A520419CF21349F11 DUP8 PUSH2 0xC20 JUMP JUMPDEST PUSH20 0x448484AB100D9F374621EE1A520419CF21349F11 PUSH20 0xFFFFFFFFFFFFFFFFFFFFFFFFFFFFFFFFFFFFFFFF AND PUSH4 0x42B28308 DUP9 PUSH1 0x40 MLOAD DUP3 PUSH4 0xFFFFFFFF AND PUSH1 0xE0 SHL DUP2 MSTORE PUSH1 0x4 ADD PUSH2 0x878 SWAP2 SWAP1 PUSH2 0x1AC6 JUMP JUMPDEST PUSH1 0x0 PUSH1 0x40 MLOAD DUP1 DUP4 SUB DUP2 PUSH1 0x0 DUP8 DUP1 EXTCODESIZE ISZERO DUP1 ISZERO PUSH2 0x892 JUMPI PUSH1 0x0 DUP1 REVERT JUMPDEST POP GAS CALL ISZERO DUP1 ISZERO PUSH2 0x8A6 JUMPI RETURNDATASIZE PUSH1 0x0 DUP1 RETURNDATACOPY RETURNDATASIZE PUSH1 0x0 REVERT JUMPDEST POP POP POP POP DUP2 DUP8 PUSH1 0x60 ADD MLOAD PUSH1 0x1 PUSH1 0x2 DUP2 LT PUSH2 0x8C3 JUMPI PUSH2 0x8C2 PUSH2 0x1181 JUMP JUMPDEST JUMPDEST PUSH1 0x20 MUL ADD MLOAD PUSH20 0xFFFFFFFFFFFFFFFFFFFFFFFFFFFFFFFFFFFFFFFF AND PUSH4 0x70A08231 ADDRESS PUSH1 0x40 MLOAD DUP3 PUSH4 0xFFFFFFFF AND PUSH1 0xE0 SHL DUP2 MSTORE PUSH1 0x4 ADD PUSH2 0x900 SWAP2 SWAP1 PUSH2 0x1BF8 JUMP JUMPDEST PUSH1 0x20 PUSH1 0x40 MLOAD DUP1 DUP4 SUB DUP2 DUP7 DUP1 EXTCODESIZE ISZERO DUP1 ISZERO PUSH2 0x918 JUMPI PUSH1 0x0 DUP1 REVERT JUMPDEST POP GAS STATICCALL ISZERO DUP1 ISZERO PUSH2 0x92C JUMPI RETURNDATASIZE PUSH1 0x0 DUP1 RETURNDATACOPY RETURNDATASIZE PUSH1 0x0 REVERT JUMPDEST POP POP POP POP PUSH1 0x40 MLOAD RETURNDATASIZE PUSH1 0x1F NOT PUSH1 0x1F DUP3 ADD AND DUP3 ADD DUP1 PUSH1 0x40 MSTORE POP DUP2 ADD SWAP1 PUSH2 0x950 SWAP2 SWAP1 PUSH2 0x1C28 JUMP JUMPDEST PUSH2 0x95A SWAP2 SWAP1 PUSH2 0x1B17 JUMP JUMPDEST SWAP1 POP PUSH2 0x997 DUP8 PUSH1 0x60 ADD MLOAD PUSH1 0x1 PUSH1 0x2 DUP2 LT PUSH2 0x977 JUMPI PUSH2 0x976 PUSH2 0x1181 JUMP JUMPDEST JUMPDEST PUSH1 0x20 MUL ADD MLOAD PUSH20 0xA179D181CF855258BC26A8623E1CE7A2E3FD3606 DUP4 PUSH2 0xC20 JUMP JUMPDEST PUSH20 0xA179D181CF855258BC26A8623E1CE7A2E3FD3606 PUSH20 0xFFFFFFFFFFFFFFFFFFFFFFFFFFFFFFFFFFFFFFFF AND PUSH4 0x2F12D7EF DUP9 PUSH1 0x60 ADD MLOAD PUSH1 0x1 PUSH1 0x2 DUP2 LT PUSH2 0x9DF JUMPI PUSH2 0x9DE PUSH2 0x1181 JUMP JUMPDEST JUMPDEST PUSH1 0x20 MUL ADD MLOAD DUP6 DUP5 DUP9 DUP12 PUSH1 0x40 MLOAD DUP7 PUSH4 0xFFFFFFFF AND PUSH1 0xE0 SHL DUP2 MSTORE PUSH1 0x4 ADD PUSH2 0xA08 SWAP6 SWAP5 SWAP4 SWAP3 SWAP2 SWAP1 PUSH2 0x1C55 JUMP JUMPDEST PUSH1 0x0 PUSH1 0x40 MLOAD DUP1 DUP4 SUB DUP2 PUSH1 0x0 DUP8 DUP1 EXTCODESIZE ISZERO DUP1 ISZERO PUSH2 0xA22 JUMPI PUSH1 0x0 DUP1 REVERT JUMPDEST POP GAS CALL ISZERO DUP1 ISZERO PUSH2 0xA36 JUMPI RETURNDATASIZE PUSH1 0x0 DUP1 RETURNDATACOPY RETURNDATASIZE PUSH1 0x0 REVERT JUMPDEST POP POP POP POP JUMPDEST JUMPDEST POP POP POP POP POP POP POP JUMP JUMPDEST PUSH2 0xAE1 DUP5 DUP5 DUP5 DUP5 PUSH1 0x40 MLOAD PUSH1 0x24 ADD PUSH2 0xA5F SWAP5 SWAP4 SWAP3 SWAP2 SWAP1 PUSH2 0x1CB6 JUMP JUMPDEST PUSH1 0x40 MLOAD PUSH1 0x20 DUP2 DUP4 SUB SUB DUP2 MSTORE SWAP1 PUSH1 0x40 MSTORE PUSH32 0x94250D7700000000000000000000000000000000000000000000000000000000 PUSH28 0xFFFFFFFFFFFFFFFFFFFFFFFFFFFFFFFFFFFFFFFFFFFFFFFFFFFFFFFF NOT AND PUSH1 0x20 DUP3 ADD DUP1 MLOAD PUSH28 0xFFFFFFFFFFFFFFFFFFFFFFFFFFFFFFFFFFFFFFFFFFFFFFFFFFFFFFFF DUP4 DUP2 DUP4 AND OR DUP4 MSTORE POP POP POP POP PUSH2 0xDF5 JUMP JUMPDEST POP POP POP POP JUMP JUMPDEST PUSH1 0x0 DUP1 DUP6 PUSH20 0xFFFFFFFFFFFFFFFFFFFFFFFFFFFFFFFFFFFFFFFF AND PUSH4 0x23B872DD DUP7 DUP7 DUP7 PUSH1 0x40 MLOAD PUSH1 0x24 ADD PUSH2 0xB1B SWAP4 SWAP3 SWAP2 SWAP1 PUSH2 0x1CFB JUMP JUMPDEST PUSH1 0x40 MLOAD PUSH1 0x20 DUP2 DUP4 SUB SUB DUP2 MSTORE SWAP1 PUSH1 0x40 MSTORE SWAP1 PUSH1 0xE0 SHL PUSH1 0x20 DUP3 ADD DUP1 MLOAD PUSH28 0xFFFFFFFFFFFFFFFFFFFFFFFFFFFFFFFFFFFFFFFFFFFFFFFFFFFFFFFF DUP4 DUP2 DUP4 AND OR DUP4 MSTORE POP POP POP POP PUSH1 0x40 MLOAD PUSH2 0xB69 SWAP2 SWAP1 PUSH2 0x1D6E JUMP JUMPDEST PUSH1 0x0 PUSH1 0x40 MLOAD DUP1 DUP4 SUB DUP2 PUSH1 0x0 DUP7 GAS CALL SWAP2 POP POP RETURNDATASIZE DUP1 PUSH1 0x0 DUP2 EQ PUSH2 0xBA6 JUMPI PUSH1 0x40 MLOAD SWAP2 POP PUSH1 0x1F NOT PUSH1 0x3F RETURNDATASIZE ADD AND DUP3 ADD PUSH1 0x40 MSTORE RETURNDATASIZE DUP3 MSTORE RETURNDATASIZE PUSH1 0x0 PUSH1 0x20 DUP5 ADD RETURNDATACOPY PUSH2 0xBAB JUMP JUMPDEST PUSH1 0x60 SWAP2 POP JUMPDEST POP SWAP2 POP SWAP2 POP DUP2 DUP1 ISZERO PUSH2 0xBD9 JUMPI POP PUSH1 0x0 DUP2 MLOAD EQ DUP1 PUSH2 0xBD8 JUMPI POP DUP1 DUP1 PUSH1 0x20 ADD SWAP1 MLOAD DUP2 ADD SWAP1 PUSH2 0xBD7 SWAP2 SWAP1 PUSH2 0x1DBD JUMP JUMPDEST JUMPDEST JUMPDEST PUSH2 0xC18 JUMPI PUSH1 0x40 MLOAD PUSH32 0x8C379A000000000000000000000000000000000000000000000000000000000 DUP2 MSTORE PUSH1 0x4 ADD PUSH2 0xC0F SWAP1 PUSH2 0x1E5C JUMP JUMPDEST PUSH1 0x40 MLOAD DUP1 SWAP2 SUB SWAP1 REVERT JUMPDEST POP POP POP POP POP POP JUMP JUMPDEST PUSH1 0x0 DUP1 DUP5 PUSH20 0xFFFFFFFFFFFFFFFFFFFFFFFFFFFFFFFFFFFFFFFF AND PUSH4 0x95EA7B3 DUP6 DUP6 PUSH1 0x40 MLOAD PUSH1 0x24 ADD PUSH2 0xC52 SWAP3 SWAP2 SWAP1 PUSH2 0x1E7C JUMP JUMPDEST PUSH1 0x40 MLOAD PUSH1 0x20 DUP2 DUP4 SUB SUB DUP2 MSTORE SWAP1 PUSH1 0x40 MSTORE SWAP1 PUSH1 0xE0 SHL PUSH1 0x20 DUP3 ADD DUP1 MLOAD PUSH28 0xFFFFFFFFFFFFFFFFFFFFFFFFFFFFFFFFFFFFFFFFFFFFFFFFFFFFFFFF DUP4 DUP2 DUP4 AND OR DUP4 MSTORE POP POP POP POP PUSH1 0x40 MLOAD PUSH2 0xCA0 SWAP2 SWAP1 PUSH2 0x1D6E JUMP JUMPDEST PUSH1 0x0 PUSH1 0x40 MLOAD DUP1 DUP4 SUB DUP2 PUSH1 0x0 DUP7 GAS CALL SWAP2 POP POP RETURNDATASIZE DUP1 PUSH1 0x0 DUP2 EQ PUSH2 0xCDD JUMPI PUSH1 0x40 MLOAD SWAP2 POP PUSH1 0x1F NOT PUSH1 0x3F RETURNDATASIZE ADD AND DUP3 ADD PUSH1 0x40 MSTORE RETURNDATASIZE DUP3 MSTORE RETURNDATASIZE PUSH1 0x0 PUSH1 0x20 DUP5 ADD RETURNDATACOPY PUSH2 0xCE2 JUMP JUMPDEST PUSH1 0x60 SWAP2 POP JUMPDEST POP SWAP2 POP SWAP2 POP DUP2 DUP1 ISZERO PUSH2 0xD10 JUMPI POP PUSH1 0x0 DUP2 MLOAD EQ DUP1 PUSH2 0xD0F JUMPI POP DUP1 DUP1 PUSH1 0x20 ADD SWAP1 MLOAD DUP2 ADD SWAP1 PUSH2 0xD0E SWAP2 SWAP1 PUSH2 0x1DBD JUMP JUMPDEST JUMPDEST JUMPDEST PUSH2 0xD4F JUMPI PUSH1 0x40 MLOAD PUSH32 0x8C379A000000000000000000000000000000000000000000000000000000000 DUP2 MSTORE PUSH1 0x4 ADD PUSH2 0xD46 SWAP1 PUSH2 0x1F17 JUMP JUMPDEST PUSH1 0x40 MLOAD DUP1 SWAP2 SUB SWAP1 REVERT JUMPDEST POP POP POP POP POP JUMP JUMPDEST PUSH2 0xDF0 DUP4 DUP4 DUP4 PUSH1 0x40 MLOAD PUSH1 0x24 ADD PUSH2 0xD6E SWAP4 SWAP3 SWAP2 SWAP1 PUSH2 0x1CFB JUMP JUMPDEST PUSH1 0x40 MLOAD PUSH1 0x20 DUP2 DUP4 SUB SUB DUP2 MSTORE SWAP1 PUSH1 0x40 MSTORE PUSH32 0x17FE618500000000000000000000000000000000000000000000000000000000 PUSH28 0xFFFFFFFFFFFFFFFFFFFFFFFFFFFFFFFFFFFFFFFFFFFFFFFFFFFFFFFF NOT AND PUSH1 0x20 DUP3 ADD DUP1 MLOAD PUSH28 0xFFFFFFFFFFFFFFFFFFFFFFFFFFFFFFFFFFFFFFFFFFFFFFFFFFFFFFFF DUP4 DUP2 DUP4 AND OR DUP4 MSTORE POP POP POP POP PUSH2 0xDF5 JUMP JUMPDEST POP POP POP JUMP JUMPDEST PUSH1 0x0 DUP2 MLOAD SWAP1 POP PUSH1 0x0 PUSH11 0x636F6E736F6C652E6C6F67 SWAP1 POP PUSH1 0x20 DUP4 ADD PUSH1 0x0 DUP1 DUP5 DUP4 DUP6 GAS STATICCALL POP POP POP POP POP JUMP JUMPDEST PUSH1 0x0 PUSH1 0x40 MLOAD SWAP1 POP SWAP1 JUMP JUMPDEST PUSH1 0x0 DUP1 REVERT JUMPDEST PUSH1 0x0 DUP1 REVERT JUMPDEST PUSH1 0x0 DUP1 REVERT JUMPDEST PUSH1 0x0 PUSH1 0xA0 DUP3 DUP5 SUB SLT ISZERO PUSH2 0xE4D JUMPI PUSH2 0xE4C PUSH2 0xE32 JUMP JUMPDEST JUMPDEST DUP2 SWAP1 POP SWAP3 SWAP2 POP POP JUMP JUMPDEST PUSH1 0x0 DUP1 REVERT JUMPDEST PUSH1 0x0 DUP1 REVERT JUMPDEST PUSH1 0x0 DUP1 REVERT JUMPDEST PUSH1 0x0 DUP1 DUP4 PUSH1 0x1F DUP5 ADD SLT PUSH2 0xE7B JUMPI PUSH2 0xE7A PUSH2 0xE56 JUMP JUMPDEST JUMPDEST DUP3 CALLDATALOAD SWAP1 POP PUSH8 0xFFFFFFFFFFFFFFFF DUP2 GT ISZERO PUSH2 0xE98 JUMPI PUSH2 0xE97 PUSH2 0xE5B JUMP JUMPDEST JUMPDEST PUSH1 0x20 DUP4 ADD SWAP2 POP DUP4 PUSH1 0x1 DUP3 MUL DUP4 ADD GT ISZERO PUSH2 0xEB4 JUMPI PUSH2 0xEB3 PUSH2 0xE60 JUMP JUMPDEST JUMPDEST SWAP3 POP SWAP3 SWAP1 POP JUMP JUMPDEST PUSH1 0x0 DUP2 SWAP1 POP SWAP2 SWAP1 POP JUMP JUMPDEST PUSH2 0xECE DUP2 PUSH2 0xEBB JUMP JUMPDEST DUP2 EQ PUSH2 0xED9 JUMPI PUSH1 0x0 DUP1 REVERT JUMPDEST POP JUMP JUMPDEST PUSH1 0x0 DUP2 CALLDATALOAD SWAP1 POP PUSH2 0xEEB DUP2 PUSH2 0xEC5 JUMP JUMPDEST SWAP3 SWAP2 POP POP JUMP JUMPDEST PUSH1 0x0 DUP1 REVERT JUMPDEST PUSH1 0x0 PUSH1 0x1F NOT PUSH1 0x1F DUP4 ADD AND SWAP1 POP SWAP2 SWAP1 POP JUMP JUMPDEST PUSH32 0x4E487B7100000000000000000000000000000000000000000000000000000000 PUSH1 0x0 MSTORE PUSH1 0x41 PUSH1 0x4 MSTORE PUSH1 0x24 PUSH1 0x0 REVERT JUMPDEST PUSH2 0xF3F DUP3 PUSH2 0xEF6 JUMP JUMPDEST DUP2 ADD DUP2 DUP2 LT PUSH8 0xFFFFFFFFFFFFFFFF DUP3 GT OR ISZERO PUSH2 0xF5E JUMPI PUSH2 0xF5D PUSH2 0xF07 JUMP JUMPDEST JUMPDEST DUP1 PUSH1 0x40 MSTORE POP POP POP JUMP JUMPDEST PUSH1 0x0 PUSH2 0xF71 PUSH2 0xE1E JUMP JUMPDEST SWAP1 POP PUSH2 0xF7D DUP3 DUP3 PUSH2 0xF36 JUMP JUMPDEST SWAP2 SWAP1 POP JUMP JUMPDEST PUSH1 0x0 PUSH8 0xFFFFFFFFFFFFFFFF DUP3 GT ISZERO PUSH2 0xF9D JUMPI PUSH2 0xF9C PUSH2 0xF07 JUMP JUMPDEST JUMPDEST PUSH2 0xFA6 DUP3 PUSH2 0xEF6 JUMP JUMPDEST SWAP1 POP PUSH1 0x20 DUP2 ADD SWAP1 POP SWAP2 SWAP1 POP JUMP JUMPDEST DUP3 DUP2 DUP4 CALLDATACOPY PUSH1 0x0 DUP4 DUP4 ADD MSTORE POP POP POP JUMP JUMPDEST PUSH1 0x0 PUSH2 0xFD5 PUSH2 0xFD0 DUP5 PUSH2 0xF82 JUMP JUMPDEST PUSH2 0xF67 JUMP JUMPDEST SWAP1 POP DUP3 DUP2 MSTORE PUSH1 0x20 DUP2 ADD DUP5 DUP5 DUP5 ADD GT ISZERO PUSH2 0xFF1 JUMPI PUSH2 0xFF0 PUSH2 0xEF1 JUMP JUMPDEST JUMPDEST PUSH2 0xFFC DUP5 DUP3 DUP6 PUSH2 0xFB3 JUMP JUMPDEST POP SWAP4 SWAP3 POP POP POP JUMP JUMPDEST PUSH1 0x0 DUP3 PUSH1 0x1F DUP4 ADD SLT PUSH2 0x1019 JUMPI PUSH2 0x1018 PUSH2 0xE56 JUMP JUMPDEST JUMPDEST DUP2 CALLDATALOAD PUSH2 0x1029 DUP5 DUP3 PUSH1 0x20 DUP7 ADD PUSH2 0xFC2 JUMP JUMPDEST SWAP2 POP POP SWAP3 SWAP2 POP POP JUMP JUMPDEST PUSH1 0x0 DUP1 PUSH1 0x0 DUP1 PUSH1 0x0 DUP1 PUSH1 0xA0 DUP8 DUP10 SUB SLT ISZERO PUSH2 0x104F JUMPI PUSH2 0x104E PUSH2 0xE28 JUMP JUMPDEST JUMPDEST PUSH1 0x0 DUP8 ADD CALLDATALOAD PUSH8 0xFFFFFFFFFFFFFFFF DUP2 GT ISZERO PUSH2 0x106D JUMPI PUSH2 0x106C PUSH2 0xE2D JUMP JUMPDEST JUMPDEST PUSH2 0x1079 DUP10 DUP3 DUP11 ADD PUSH2 0xE37 JUMP JUMPDEST SWAP7 POP POP PUSH1 0x20 DUP8 ADD CALLDATALOAD PUSH8 0xFFFFFFFFFFFFFFFF DUP2 GT ISZERO PUSH2 0x109A JUMPI PUSH2 0x1099 PUSH2 0xE2D JUMP JUMPDEST JUMPDEST PUSH2 0x10A6 DUP10 DUP3 DUP11 ADD PUSH2 0xE65 JUMP JUMPDEST SWAP6 POP SWAP6 POP POP PUSH1 0x40 PUSH2 0x10B9 DUP10 DUP3 DUP11 ADD PUSH2 0xEDC JUMP JUMPDEST SWAP4 POP POP PUSH1 0x60 PUSH2 0x10CA DUP10 DUP3 DUP11 ADD PUSH2 0xEDC JUMP JUMPDEST SWAP3 POP POP PUSH1 0x80 DUP8 ADD CALLDATALOAD PUSH8 0xFFFFFFFFFFFFFFFF DUP2 GT ISZERO PUSH2 0x10EB JUMPI PUSH2 0x10EA PUSH2 0xE2D JUMP JUMPDEST JUMPDEST PUSH2 0x10F7 DUP10 DUP3 DUP11 ADD PUSH2 0x1004 JUMP JUMPDEST SWAP2 POP POP SWAP3 SWAP6 POP SWAP3 SWAP6 POP SWAP3 SWAP6 JUMP JUMPDEST PUSH1 0x0 DUP3 DUP3 MSTORE PUSH1 0x20 DUP3 ADD SWAP1 POP SWAP3 SWAP2 POP POP JUMP JUMPDEST PUSH32 0x53656E64696E672076616C7565206973207A65726F0000000000000000000000 PUSH1 0x0 DUP3 ADD MSTORE POP JUMP JUMPDEST PUSH1 0x0 PUSH2 0x114B PUSH1 0x15 DUP4 PUSH2 0x1104 JUMP JUMPDEST SWAP2 POP PUSH2 0x1156 DUP3 PUSH2 0x1115 JUMP JUMPDEST PUSH1 0x20 DUP3 ADD SWAP1 POP SWAP2 SWAP1 POP JUMP JUMPDEST PUSH1 0x0 PUSH1 0x20 DUP3 ADD SWAP1 POP DUP2 DUP2 SUB PUSH1 0x0 DUP4 ADD MSTORE PUSH2 0x117A DUP2 PUSH2 0x113E JUMP JUMPDEST SWAP1 POP SWAP2 SWAP1 POP JUMP JUMPDEST PUSH32 0x4E487B7100000000000000000000000000000000000000000000000000000000 PUSH1 0x0 MSTORE PUSH1 0x32 PUSH1 0x4 MSTORE PUSH1 0x24 PUSH1 0x0 REVERT JUMPDEST PUSH1 0x0 PUSH20 0xFFFFFFFFFFFFFFFFFFFFFFFFFFFFFFFFFFFFFFFF DUP3 AND SWAP1 POP SWAP2 SWAP1 POP JUMP JUMPDEST PUSH1 0x0 PUSH2 0x11DB DUP3 PUSH2 0x11B0 JUMP JUMPDEST SWAP1 POP SWAP2 SWAP1 POP JUMP JUMPDEST PUSH2 0x11EB DUP2 PUSH2 0x11D0 JUMP JUMPDEST DUP2 EQ PUSH2 0x11F6 JUMPI PUSH1 0x0 DUP1 REVERT JUMPDEST POP JUMP JUMPDEST PUSH1 0x0 DUP2 CALLDATALOAD SWAP1 POP PUSH2 0x1208 DUP2 PUSH2 0x11E2 JUMP JUMPDEST SWAP3 SWAP2 POP POP JUMP JUMPDEST PUSH1 0x0 PUSH1 0x20 DUP3 DUP5 SUB SLT ISZERO PUSH2 0x1224 JUMPI PUSH2 0x1223 PUSH2 0xE28 JUMP JUMPDEST JUMPDEST PUSH1 0x0 PUSH2 0x1232 DUP5 DUP3 DUP6 ADD PUSH2 0x11F9 JUMP JUMPDEST SWAP2 POP POP SWAP3 SWAP2 POP POP JUMP JUMPDEST PUSH32 0x4E6F7420656E6F756768206D6F6E657900000000000000000000000000000000 PUSH1 0x0 DUP3 ADD MSTORE POP JUMP JUMPDEST PUSH1 0x0 PUSH2 0x1271 PUSH1 0x10 DUP4 PUSH2 0x1104 JUMP JUMPDEST SWAP2 POP PUSH2 0x127C DUP3 PUSH2 0x123B JUMP JUMPDEST PUSH1 0x20 DUP3 ADD SWAP1 POP SWAP2 SWAP1 POP JUMP JUMPDEST PUSH1 0x0 PUSH1 0x20 DUP3 ADD SWAP1 POP DUP2 DUP2 SUB PUSH1 0x0 DUP4 ADD MSTORE PUSH2 0x12A0 DUP2 PUSH2 0x1264 JUMP JUMPDEST SWAP1 POP SWAP2 SWAP1 POP JUMP JUMPDEST PUSH1 0x0 DUP1 REVERT JUMPDEST PUSH1 0x0 DUP1 REVERT JUMPDEST PUSH1 0x0 PUSH8 0xFFFFFFFFFFFFFFFF DUP3 GT ISZERO PUSH2 0x12CC JUMPI PUSH2 0x12CB PUSH2 0xF07 JUMP JUMPDEST JUMPDEST PUSH1 0x20 DUP3 MUL SWAP1 POP PUSH1 0x20 DUP2 ADD SWAP1 POP SWAP2 SWAP1 POP JUMP JUMPDEST PUSH1 0x0 PUSH2 0x12F0 PUSH2 0x12EB DUP5 PUSH2 0x12B1 JUMP JUMPDEST PUSH2 0xF67 JUMP JUMPDEST SWAP1 POP DUP1 DUP4 DUP3 MSTORE PUSH1 0x20 DUP3 ADD SWAP1 POP PUSH1 0x20 DUP5 MUL DUP4 ADD DUP6 DUP2 GT ISZERO PUSH2 0x1313 JUMPI PUSH2 0x1312 PUSH2 0xE60 JUMP JUMPDEST JUMPDEST DUP4 JUMPDEST DUP2 DUP2 LT ISZERO PUSH2 0x133C JUMPI DUP1 PUSH2 0x1328 DUP9 DUP3 PUSH2 0xEDC JUMP JUMPDEST DUP5 MSTORE PUSH1 0x20 DUP5 ADD SWAP4 POP POP PUSH1 0x20 DUP2 ADD SWAP1 POP PUSH2 0x1315 JUMP JUMPDEST POP POP POP SWAP4 SWAP3 POP POP POP JUMP JUMPDEST PUSH1 0x0 DUP3 PUSH1 0x1F DUP4 ADD SLT PUSH2 0x135B JUMPI PUSH2 0x135A PUSH2 0xE56 JUMP JUMPDEST JUMPDEST DUP2 CALLDATALOAD PUSH2 0x136B DUP5 DUP3 PUSH1 0x20 DUP7 ADD PUSH2 0x12DD JUMP JUMPDEST SWAP2 POP POP SWAP3 SWAP2 POP POP JUMP JUMPDEST PUSH1 0x0 PUSH8 0xFFFFFFFFFFFFFFFF DUP3 GT ISZERO PUSH2 0x138F JUMPI PUSH2 0x138E PUSH2 0xF07 JUMP JUMPDEST JUMPDEST PUSH1 0x20 DUP3 MUL SWAP1 POP PUSH1 0x20 DUP2 ADD SWAP1 POP SWAP2 SWAP1 POP JUMP JUMPDEST PUSH1 0x0 PUSH2 0x13B3 PUSH2 0x13AE DUP5 PUSH2 0x1374 JUMP JUMPDEST PUSH2 0xF67 JUMP JUMPDEST SWAP1 POP DUP1 DUP4 DUP3 MSTORE PUSH1 0x20 DUP3 ADD SWAP1 POP PUSH1 0x20 DUP5 MUL DUP4 ADD DUP6 DUP2 GT ISZERO PUSH2 0x13D6 JUMPI PUSH2 0x13D5 PUSH2 0xE60 JUMP JUMPDEST JUMPDEST DUP4 JUMPDEST DUP2 DUP2 LT ISZERO PUSH2 0x141D JUMPI DUP1 CALLDATALOAD PUSH8 0xFFFFFFFFFFFFFFFF DUP2 GT ISZERO PUSH2 0x13FB JUMPI PUSH2 0x13FA PUSH2 0xE56 JUMP JUMPDEST JUMPDEST DUP1 DUP7 ADD PUSH2 0x1408 DUP10 DUP3 PUSH2 0x1004 JUMP JUMPDEST DUP6 MSTORE PUSH1 0x20 DUP6 ADD SWAP5 POP POP POP PUSH1 0x20 DUP2 ADD SWAP1 POP PUSH2 0x13D8 JUMP JUMPDEST POP POP POP SWAP4 SWAP3 POP POP POP JUMP JUMPDEST PUSH1 0x0 DUP3 PUSH1 0x1F DUP4 ADD SLT PUSH2 0x143C JUMPI PUSH2 0x143B PUSH2 0xE56 JUMP JUMPDEST JUMPDEST DUP2 CALLDATALOAD PUSH2 0x144C DUP5 DUP3 PUSH1 0x20 DUP7 ADD PUSH2 0x13A0 JUMP JUMPDEST SWAP2 POP POP SWAP3 SWAP2 POP POP JUMP JUMPDEST PUSH1 0x0 PUSH8 0xFFFFFFFFFFFFFFFF DUP3 GT ISZERO PUSH2 0x1470 JUMPI PUSH2 0x146F PUSH2 0xF07 JUMP JUMPDEST JUMPDEST PUSH1 0x20 DUP3 MUL SWAP1 POP PUSH1 0x20 DUP2 ADD SWAP1 POP SWAP2 SWAP1 POP JUMP JUMPDEST PUSH1 0x0 PUSH4 0xFFFFFFFF DUP3 AND SWAP1 POP SWAP2 SWAP1 POP JUMP JUMPDEST PUSH2 0x149A DUP2 PUSH2 0x1481 JUMP JUMPDEST DUP2 EQ PUSH2 0x14A5 JUMPI PUSH1 0x0 DUP1 REVERT JUMPDEST POP JUMP JUMPDEST PUSH1 0x0 DUP2 CALLDATALOAD SWAP1 POP PUSH2 0x14B7 DUP2 PUSH2 0x1491 JUMP JUMPDEST SWAP3 SWAP2 POP POP JUMP JUMPDEST PUSH1 0x0 PUSH2 0x14D0 PUSH2 0x14CB DUP5 PUSH2 0x1455 JUMP JUMPDEST PUSH2 0xF67 JUMP JUMPDEST SWAP1 POP DUP1 DUP4 DUP3 MSTORE PUSH1 0x20 DUP3 ADD SWAP1 POP PUSH1 0x20 DUP5 MUL DUP4 ADD DUP6 DUP2 GT ISZERO PUSH2 0x14F3 JUMPI PUSH2 0x14F2 PUSH2 0xE60 JUMP JUMPDEST JUMPDEST DUP4 JUMPDEST DUP2 DUP2 LT ISZERO PUSH2 0x151C JUMPI DUP1 PUSH2 0x1508 DUP9 DUP3 PUSH2 0x14A8 JUMP JUMPDEST DUP5 MSTORE PUSH1 0x20 DUP5 ADD SWAP4 POP POP PUSH1 0x20 DUP2 ADD SWAP1 POP PUSH2 0x14F5 JUMP JUMPDEST POP POP POP SWAP4 SWAP3 POP POP POP JUMP JUMPDEST PUSH1 0x0 DUP3 PUSH1 0x1F DUP4 ADD SLT PUSH2 0x153B JUMPI PUSH2 0x153A PUSH2 0xE56 JUMP JUMPDEST JUMPDEST DUP2 CALLDATALOAD PUSH2 0x154B DUP5 DUP3 PUSH1 0x20 DUP7 ADD PUSH2 0x14BD JUMP JUMPDEST SWAP2 POP POP SWAP3 SWAP2 POP POP JUMP JUMPDEST PUSH1 0x0 PUSH8 0xFFFFFFFFFFFFFFFF DUP3 GT ISZERO PUSH2 0x156F JUMPI PUSH2 0x156E PUSH2 0xF07 JUMP JUMPDEST JUMPDEST PUSH1 0x20 DUP3 MUL SWAP1 POP SWAP2 SWAP1 POP JUMP JUMPDEST PUSH1 0x0 PUSH2 0x158D PUSH2 0x1588 DUP5 PUSH2 0x1554 JUMP JUMPDEST PUSH2 0xF67 JUMP JUMPDEST SWAP1 POP DUP1 PUSH1 0x20 DUP5 MUL DUP4 ADD DUP6 DUP2 GT ISZERO PUSH2 0x15A7 JUMPI PUSH2 0x15A6 PUSH2 0xE60 JUMP JUMPDEST JUMPDEST DUP4 JUMPDEST DUP2 DUP2 LT ISZERO PUSH2 0x15D0 JUMPI DUP1 PUSH2 0x15BC DUP9 DUP3 PUSH2 0x11F9 JUMP JUMPDEST DUP5 MSTORE PUSH1 0x20 DUP5 ADD SWAP4 POP POP PUSH1 0x20 DUP2 ADD SWAP1 POP PUSH2 0x15A9 JUMP JUMPDEST POP POP POP SWAP4 SWAP3 POP POP POP JUMP JUMPDEST PUSH1 0x0 DUP3 PUSH1 0x1F DUP4 ADD SLT PUSH2 0x15EF JUMPI PUSH2 0x15EE PUSH2 0xE56 JUMP JUMPDEST JUMPDEST PUSH1 0x2 PUSH2 0x15FC DUP5 DUP3 DUP6 PUSH2 0x157A JUMP JUMPDEST SWAP2 POP POP SWAP3 SWAP2 POP POP JUMP JUMPDEST PUSH1 0x0 PUSH1 0xA0 DUP3 DUP5 SUB SLT ISZERO PUSH2 0x161B JUMPI PUSH2 0x161A PUSH2 0x12A7 JUMP JUMPDEST JUMPDEST PUSH2 0x1625 PUSH1 0x80 PUSH2 0xF67 JUMP JUMPDEST SWAP1 POP PUSH1 0x0 DUP3 ADD CALLDATALOAD PUSH8 0xFFFFFFFFFFFFFFFF DUP2 GT ISZERO PUSH2 0x1645 JUMPI PUSH2 0x1644 PUSH2 0x12AC JUMP JUMPDEST JUMPDEST PUSH2 0x1651 DUP5 DUP3 DUP6 ADD PUSH2 0x1346 JUMP JUMPDEST PUSH1 0x0 DUP4 ADD MSTORE POP PUSH1 0x20 DUP3 ADD CALLDATALOAD PUSH8 0xFFFFFFFFFFFFFFFF DUP2 GT ISZERO PUSH2 0x1675 JUMPI PUSH2 0x1674 PUSH2 0x12AC JUMP JUMPDEST JUMPDEST PUSH2 0x1681 DUP5 DUP3 DUP6 ADD PUSH2 0x1427 JUMP JUMPDEST PUSH1 0x20 DUP4 ADD MSTORE POP PUSH1 0x40 DUP3 ADD CALLDATALOAD PUSH8 0xFFFFFFFFFFFFFFFF DUP2 GT ISZERO PUSH2 0x16A5 JUMPI PUSH2 0x16A4 PUSH2 0x12AC JUMP JUMPDEST JUMPDEST PUSH2 0x16B1 DUP5 DUP3 DUP6 ADD PUSH2 0x1526 JUMP JUMPDEST PUSH1 0x40 DUP4 ADD MSTORE POP PUSH1 0x60 PUSH2 0x16C5 DUP5 DUP3 DUP6 ADD PUSH2 0x15DA JUMP JUMPDEST PUSH1 0x60 DUP4 ADD MSTORE POP SWAP3 SWAP2 POP POP JUMP JUMPDEST PUSH1 0x0 PUSH2 0x16DD CALLDATASIZE DUP4 PUSH2 0x1605 JUMP JUMPDEST SWAP1 POP SWAP2 SWAP1 POP JUMP JUMPDEST PUSH1 0x0 DUP2 MLOAD SWAP1 POP SWAP2 SWAP1 POP JUMP JUMPDEST PUSH1 0x0 DUP3 DUP3 MSTORE PUSH1 0x20 DUP3 ADD SWAP1 POP SWAP3 SWAP2 POP POP JUMP JUMPDEST PUSH1 0x0 DUP2 SWAP1 POP PUSH1 0x20 DUP3 ADD SWAP1 POP SWAP2 SWAP1 POP JUMP JUMPDEST PUSH2 0x1719 DUP2 PUSH2 0xEBB JUMP JUMPDEST DUP3 MSTORE POP POP JUMP JUMPDEST PUSH1 0x0 PUSH2 0x172B DUP4 DUP4 PUSH2 0x1710 JUMP JUMPDEST PUSH1 0x20 DUP4 ADD SWAP1 POP SWAP3 SWAP2 POP POP JUMP JUMPDEST PUSH1 0x0 PUSH1 0x20 DUP3 ADD SWAP1 POP SWAP2 SWAP1 POP JUMP JUMPDEST PUSH1 0x0 PUSH2 0x174F DUP3 PUSH2 0x16E4 JUMP JUMPDEST PUSH2 0x1759 DUP2 DUP6 PUSH2 0x16EF JUMP JUMPDEST SWAP4 POP PUSH2 0x1764 DUP4 PUSH2 0x1700 JUMP JUMPDEST DUP1 PUSH1 0x0 JUMPDEST DUP4 DUP2 LT ISZERO PUSH2 0x1795 JUMPI DUP2 MLOAD PUSH2 0x177C DUP9 DUP3 PUSH2 0x171F JUMP JUMPDEST SWAP8 POP PUSH2 0x1787 DUP4 PUSH2 0x1737 JUMP JUMPDEST SWAP3 POP POP PUSH1 0x1 DUP2 ADD SWAP1 POP PUSH2 0x1768 JUMP JUMPDEST POP DUP6 SWAP4 POP POP POP POP SWAP3 SWAP2 POP POP JUMP JUMPDEST PUSH1 0x0 DUP2 MLOAD SWAP1 POP SWAP2 SWAP1 POP JUMP JUMPDEST PUSH1 0x0 DUP3 DUP3 MSTORE PUSH1 0x20 DUP3 ADD SWAP1 POP SWAP3 SWAP2 POP POP JUMP JUMPDEST PUSH1 0x0 DUP2 SWAP1 POP PUSH1 0x20 DUP3 ADD SWAP1 POP SWAP2 SWAP1 POP JUMP JUMPDEST PUSH1 0x0 DUP2 MLOAD SWAP1 POP SWAP2 SWAP1 POP JUMP JUMPDEST PUSH1 0x0 DUP3 DUP3 MSTORE PUSH1 0x20 DUP3 ADD SWAP1 POP SWAP3 SWAP2 POP POP JUMP JUMPDEST PUSH1 0x0 JUMPDEST DUP4 DUP2 LT ISZERO PUSH2 0x1808 JUMPI DUP1 DUP3 ADD MLOAD DUP2 DUP5 ADD MSTORE PUSH1 0x20 DUP2 ADD SWAP1 POP PUSH2 0x17ED JUMP JUMPDEST DUP4 DUP2 GT ISZERO PUSH2 0x1817 JUMPI PUSH1 0x0 DUP5 DUP5 ADD MSTORE JUMPDEST POP POP POP POP JUMP JUMPDEST PUSH1 0x0 PUSH2 0x1828 DUP3 PUSH2 0x17CE JUMP JUMPDEST PUSH2 0x1832 DUP2 DUP6 PUSH2 0x17D9 JUMP JUMPDEST SWAP4 POP PUSH2 0x1842 DUP2 DUP6 PUSH1 0x20 DUP7 ADD PUSH2 0x17EA JUMP JUMPDEST PUSH2 0x184B DUP2 PUSH2 0xEF6 JUMP JUMPDEST DUP5 ADD SWAP2 POP POP SWAP3 SWAP2 POP POP JUMP JUMPDEST PUSH1 0x0 PUSH2 0x1862 DUP4 DUP4 PUSH2 0x181D JUMP JUMPDEST SWAP1 POP SWAP3 SWAP2 POP POP JUMP JUMPDEST PUSH1 0x0 PUSH1 0x20 DUP3 ADD SWAP1 POP SWAP2 SWAP1 POP JUMP JUMPDEST PUSH1 0x0 PUSH2 0x1882 DUP3 PUSH2 0x17A2 JUMP JUMPDEST PUSH2 0x188C DUP2 DUP6 PUSH2 0x17AD JUMP JUMPDEST SWAP4 POP DUP4 PUSH1 0x20 DUP3 MUL DUP6 ADD PUSH2 0x189E DUP6 PUSH2 0x17BE JUMP JUMPDEST DUP1 PUSH1 0x0 JUMPDEST DUP6 DUP2 LT ISZERO PUSH2 0x18DA JUMPI DUP5 DUP5 SUB DUP10 MSTORE DUP2 MLOAD PUSH2 0x18BB DUP6 DUP3 PUSH2 0x1856 JUMP JUMPDEST SWAP5 POP PUSH2 0x18C6 DUP4 PUSH2 0x186A JUMP JUMPDEST SWAP3 POP PUSH1 0x20 DUP11 ADD SWAP10 POP POP PUSH1 0x1 DUP2 ADD SWAP1 POP PUSH2 0x18A2 JUMP JUMPDEST POP DUP3 SWAP8 POP DUP8 SWAP6 POP POP POP POP POP POP SWAP3 SWAP2 POP POP JUMP JUMPDEST PUSH1 0x0 DUP2 MLOAD SWAP1 POP SWAP2 SWAP1 POP JUMP JUMPDEST PUSH1 0x0 DUP3 DUP3 MSTORE PUSH1 0x20 DUP3 ADD SWAP1 POP SWAP3 SWAP2 POP POP JUMP JUMPDEST PUSH1 0x0 DUP2 SWAP1 POP PUSH1 0x20 DUP3 ADD SWAP1 POP SWAP2 SWAP1 POP JUMP JUMPDEST PUSH2 0x1921 DUP2 PUSH2 0x1481 JUMP JUMPDEST DUP3 MSTORE POP POP JUMP JUMPDEST PUSH1 0x0 PUSH2 0x1933 DUP4 DUP4 PUSH2 0x1918 JUMP JUMPDEST PUSH1 0x20 DUP4 ADD SWAP1 POP SWAP3 SWAP2 POP POP JUMP JUMPDEST PUSH1 0x0 PUSH1 0x20 DUP3 ADD SWAP1 POP SWAP2 SWAP1 POP JUMP JUMPDEST PUSH1 0x0 PUSH2 0x1957 DUP3 PUSH2 0x18EC JUMP JUMPDEST PUSH2 0x1961 DUP2 DUP6 PUSH2 0x18F7 JUMP JUMPDEST SWAP4 POP PUSH2 0x196C DUP4 PUSH2 0x1908 JUMP JUMPDEST DUP1 PUSH1 0x0 JUMPDEST DUP4 DUP2 LT ISZERO PUSH2 0x199D JUMPI DUP2 MLOAD PUSH2 0x1984 DUP9 DUP3 PUSH2 0x1927 JUMP JUMPDEST SWAP8 POP PUSH2 0x198F DUP4 PUSH2 0x193F JUMP JUMPDEST SWAP3 POP POP PUSH1 0x1 DUP2 ADD SWAP1 POP PUSH2 0x1970 JUMP JUMPDEST POP DUP6 SWAP4 POP POP POP POP SWAP3 SWAP2 POP POP JUMP JUMPDEST PUSH1 0x0 PUSH1 0x2 SWAP1 POP SWAP2 SWAP1 POP JUMP JUMPDEST PUSH1 0x0 DUP2 SWAP1 POP SWAP3 SWAP2 POP POP JUMP JUMPDEST PUSH1 0x0 DUP2 SWAP1 POP SWAP2 SWAP1 POP JUMP JUMPDEST PUSH2 0x19D3 DUP2 PUSH2 0x11D0 JUMP JUMPDEST DUP3 MSTORE POP POP JUMP JUMPDEST PUSH1 0x0 PUSH2 0x19E5 DUP4 DUP4 PUSH2 0x19CA JUMP JUMPDEST PUSH1 0x20 DUP4 ADD SWAP1 POP SWAP3 SWAP2 POP POP JUMP JUMPDEST PUSH1 0x0 PUSH1 0x20 DUP3 ADD SWAP1 POP SWAP2 SWAP1 POP JUMP JUMPDEST PUSH2 0x1A07 DUP2 PUSH2 0x19AA JUMP JUMPDEST PUSH2 0x1A11 DUP2 DUP5 PUSH2 0x19B5 JUMP JUMPDEST SWAP3 POP PUSH2 0x1A1C DUP3 PUSH2 0x19C0 JUMP JUMPDEST DUP1 PUSH1 0x0 JUMPDEST DUP4 DUP2 LT ISZERO PUSH2 0x1A4D JUMPI DUP2 MLOAD PUSH2 0x1A34 DUP8 DUP3 PUSH2 0x19D9 JUMP JUMPDEST SWAP7 POP PUSH2 0x1A3F DUP4 PUSH2 0x19F1 JUMP JUMPDEST SWAP3 POP POP PUSH1 0x1 DUP2 ADD SWAP1 POP PUSH2 0x1A20 JUMP JUMPDEST POP POP POP POP POP POP JUMP JUMPDEST PUSH1 0x0 PUSH1 0xA0 DUP4 ADD PUSH1 0x0 DUP4 ADD MLOAD DUP5 DUP3 SUB PUSH1 0x0 DUP7 ADD MSTORE PUSH2 0x1A72 DUP3 DUP3 PUSH2 0x1744 JUMP JUMPDEST SWAP2 POP POP PUSH1 0x20 DUP4 ADD MLOAD DUP5 DUP3 SUB PUSH1 0x20 DUP7 ADD MSTORE PUSH2 0x1A8C DUP3 DUP3 PUSH2 0x1877 JUMP JUMPDEST SWAP2 POP POP PUSH1 0x40 DUP4 ADD MLOAD DUP5 DUP3 SUB PUSH1 0x40 DUP7 ADD MSTORE PUSH2 0x1AA6 DUP3 DUP3 PUSH2 0x194C JUMP JUMPDEST SWAP2 POP POP PUSH1 0x60 DUP4 ADD MLOAD PUSH2 0x1ABB PUSH1 0x60 DUP7 ADD DUP3 PUSH2 0x19FE JUMP JUMPDEST POP DUP1 SWAP2 POP POP SWAP3 SWAP2 POP POP JUMP JUMPDEST PUSH1 0x0 PUSH1 0x20 DUP3 ADD SWAP1 POP DUP2 DUP2 SUB PUSH1 0x0 DUP4 ADD MSTORE PUSH2 0x1AE0 DUP2 DUP5 PUSH2 0x1A55 JUMP JUMPDEST SWAP1 POP SWAP3 SWAP2 POP POP JUMP JUMPDEST PUSH32 0x4E487B7100000000000000000000000000000000000000000000000000000000 PUSH1 0x0 MSTORE PUSH1 0x11 PUSH1 0x4 MSTORE PUSH1 0x24 PUSH1 0x0 REVERT JUMPDEST PUSH1 0x0 PUSH2 0x1B22 DUP3 PUSH2 0xEBB JUMP JUMPDEST SWAP2 POP PUSH2 0x1B2D DUP4 PUSH2 0xEBB JUMP JUMPDEST SWAP3 POP DUP3 DUP3 LT ISZERO PUSH2 0x1B40 JUMPI PUSH2 0x1B3F PUSH2 0x1AE8 JUMP JUMPDEST JUMPDEST DUP3 DUP3 SUB SWAP1 POP SWAP3 SWAP2 POP POP JUMP JUMPDEST PUSH1 0x0 DUP3 DUP3 MSTORE PUSH1 0x20 DUP3 ADD SWAP1 POP SWAP3 SWAP2 POP POP JUMP JUMPDEST PUSH1 0x0 PUSH2 0x1B67 DUP3 PUSH2 0x17CE JUMP JUMPDEST PUSH2 0x1B71 DUP2 DUP6 PUSH2 0x1B4B JUMP JUMPDEST SWAP4 POP PUSH2 0x1B81 DUP2 DUP6 PUSH1 0x20 DUP7 ADD PUSH2 0x17EA JUMP JUMPDEST PUSH2 0x1B8A DUP2 PUSH2 0xEF6 JUMP JUMPDEST DUP5 ADD SWAP2 POP POP SWAP3 SWAP2 POP POP JUMP JUMPDEST PUSH2 0x1B9E DUP2 PUSH2 0xEBB JUMP JUMPDEST DUP3 MSTORE POP POP JUMP JUMPDEST PUSH1 0x0 PUSH1 0x60 DUP3 ADD SWAP1 POP DUP2 DUP2 SUB PUSH1 0x0 DUP4 ADD MSTORE PUSH2 0x1BBE DUP2 DUP7 PUSH2 0x1B5C JUMP JUMPDEST SWAP1 POP PUSH2 0x1BCD PUSH1 0x20 DUP4 ADD DUP6 PUSH2 0x1B95 JUMP JUMPDEST DUP2 DUP2 SUB PUSH1 0x40 DUP4 ADD MSTORE PUSH2 0x1BDF DUP2 DUP5 PUSH2 0x1B5C JUMP JUMPDEST SWAP1 POP SWAP5 SWAP4 POP POP POP POP JUMP JUMPDEST PUSH2 0x1BF2 DUP2 PUSH2 0x11D0 JUMP JUMPDEST DUP3 MSTORE POP POP JUMP JUMPDEST PUSH1 0x0 PUSH1 0x20 DUP3 ADD SWAP1 POP PUSH2 0x1C0D PUSH1 0x0 DUP4 ADD DUP5 PUSH2 0x1BE9 JUMP JUMPDEST SWAP3 SWAP2 POP POP JUMP JUMPDEST PUSH1 0x0 DUP2 MLOAD SWAP1 POP PUSH2 0x1C22 DUP2 PUSH2 0xEC5 JUMP JUMPDEST SWAP3 SWAP2 POP POP JUMP JUMPDEST PUSH1 0x0 PUSH1 0x20 DUP3 DUP5 SUB SLT ISZERO PUSH2 0x1C3E JUMPI PUSH2 0x1C3D PUSH2 0xE28 JUMP JUMPDEST JUMPDEST PUSH1 0x0 PUSH2 0x1C4C DUP5 DUP3 DUP6 ADD PUSH2 0x1C13 JUMP JUMPDEST SWAP2 POP POP SWAP3 SWAP2 POP POP JUMP JUMPDEST PUSH1 0x0 PUSH1 0xA0 DUP3 ADD SWAP1 POP PUSH2 0x1C6A PUSH1 0x0 DUP4 ADD DUP9 PUSH2 0x1BE9 JUMP JUMPDEST DUP2 DUP2 SUB PUSH1 0x20 DUP4 ADD MSTORE PUSH2 0x1C7C DUP2 DUP8 PUSH2 0x1B5C JUMP JUMPDEST SWAP1 POP PUSH2 0x1C8B PUSH1 0x40 DUP4 ADD DUP7 PUSH2 0x1B95 JUMP JUMPDEST PUSH2 0x1C98 PUSH1 0x60 DUP4 ADD DUP6 PUSH2 0x1B95 JUMP JUMPDEST DUP2 DUP2 SUB PUSH1 0x80 DUP4 ADD MSTORE PUSH2 0x1CAA DUP2 DUP5 PUSH2 0x1B5C JUMP JUMPDEST SWAP1 POP SWAP7 SWAP6 POP POP POP POP POP POP JUMP JUMPDEST PUSH1 0x0 PUSH1 0x80 DUP3 ADD SWAP1 POP PUSH2 0x1CCB PUSH1 0x0 DUP4 ADD DUP8 PUSH2 0x1BE9 JUMP JUMPDEST PUSH2 0x1CD8 PUSH1 0x20 DUP4 ADD DUP7 PUSH2 0x1BE9 JUMP JUMPDEST PUSH2 0x1CE5 PUSH1 0x40 DUP4 ADD DUP6 PUSH2 0x1BE9 JUMP JUMPDEST PUSH2 0x1CF2 PUSH1 0x60 DUP4 ADD DUP5 PUSH2 0x1B95 JUMP JUMPDEST SWAP6 SWAP5 POP POP POP POP POP JUMP JUMPDEST PUSH1 0x0 PUSH1 0x60 DUP3 ADD SWAP1 POP PUSH2 0x1D10 PUSH1 0x0 DUP4 ADD DUP7 PUSH2 0x1BE9 JUMP JUMPDEST PUSH2 0x1D1D PUSH1 0x20 DUP4 ADD DUP6 PUSH2 0x1BE9 JUMP JUMPDEST PUSH2 0x1D2A PUSH1 0x40 DUP4 ADD DUP5 PUSH2 0x1B95 JUMP JUMPDEST SWAP5 SWAP4 POP POP POP POP JUMP JUMPDEST PUSH1 0x0 DUP2 SWAP1 POP SWAP3 SWAP2 POP POP JUMP JUMPDEST PUSH1 0x0 PUSH2 0x1D48 DUP3 PUSH2 0x17CE JUMP JUMPDEST PUSH2 0x1D52 DUP2 DUP6 PUSH2 0x1D32 JUMP JUMPDEST SWAP4 POP PUSH2 0x1D62 DUP2 DUP6 PUSH1 0x20 DUP7 ADD PUSH2 0x17EA JUMP JUMPDEST DUP1 DUP5 ADD SWAP2 POP POP SWAP3 SWAP2 POP POP JUMP JUMPDEST PUSH1 0x0 PUSH2 0x1D7A DUP3 DUP5 PUSH2 0x1D3D JUMP JUMPDEST SWAP2 POP DUP2 SWAP1 POP SWAP3 SWAP2 POP POP JUMP JUMPDEST PUSH1 0x0 DUP2 ISZERO ISZERO SWAP1 POP SWAP2 SWAP1 POP JUMP JUMPDEST PUSH2 0x1D9A DUP2 PUSH2 0x1D85 JUMP JUMPDEST DUP2 EQ PUSH2 0x1DA5 JUMPI PUSH1 0x0 DUP1 REVERT JUMPDEST POP JUMP JUMPDEST PUSH1 0x0 DUP2 MLOAD SWAP1 POP PUSH2 0x1DB7 DUP2 PUSH2 0x1D91 JUMP JUMPDEST SWAP3 SWAP2 POP POP JUMP JUMPDEST PUSH1 0x0 PUSH1 0x20 DUP3 DUP5 SUB SLT ISZERO PUSH2 0x1DD3 JUMPI PUSH2 0x1DD2 PUSH2 0xE28 JUMP JUMPDEST JUMPDEST PUSH1 0x0 PUSH2 0x1DE1 DUP5 DUP3 DUP6 ADD PUSH2 0x1DA8 JUMP JUMPDEST SWAP2 POP POP SWAP3 SWAP2 POP POP JUMP JUMPDEST PUSH32 0x5472616E7366657248656C7065723A3A7472616E7366657246726F6D3A207472 PUSH1 0x0 DUP3 ADD MSTORE PUSH32 0x616E7366657246726F6D206661696C6564000000000000000000000000000000 PUSH1 0x20 DUP3 ADD MSTORE POP JUMP JUMPDEST PUSH1 0x0 PUSH2 0x1E46 PUSH1 0x31 DUP4 PUSH2 0x1104 JUMP JUMPDEST SWAP2 POP PUSH2 0x1E51 DUP3 PUSH2 0x1DEA JUMP JUMPDEST PUSH1 0x40 DUP3 ADD SWAP1 POP SWAP2 SWAP1 POP JUMP JUMPDEST PUSH1 0x0 PUSH1 0x20 DUP3 ADD SWAP1 POP DUP2 DUP2 SUB PUSH1 0x0 DUP4 ADD MSTORE PUSH2 0x1E75 DUP2 PUSH2 0x1E39 JUMP JUMPDEST SWAP1 POP SWAP2 SWAP1 POP JUMP JUMPDEST PUSH1 0x0 PUSH1 0x40 DUP3 ADD SWAP1 POP PUSH2 0x1E91 PUSH1 0x0 DUP4 ADD DUP6 PUSH2 0x1BE9 JUMP JUMPDEST PUSH2 0x1E9E PUSH1 0x20 DUP4 ADD DUP5 PUSH2 0x1B95 JUMP JUMPDEST SWAP4 SWAP3 POP POP POP JUMP JUMPDEST PUSH32 0x5472616E7366657248656C7065723A3A73616665417070726F76653A20617070 PUSH1 0x0 DUP3 ADD MSTORE PUSH32 0x726F7665206661696C6564000000000000000000000000000000000000000000 PUSH1 0x20 DUP3 ADD MSTORE POP JUMP JUMPDEST PUSH1 0x0 PUSH2 0x1F01 PUSH1 0x2B DUP4 PUSH2 0x1104 JUMP JUMPDEST SWAP2 POP PUSH2 0x1F0C DUP3 PUSH2 0x1EA5 JUMP JUMPDEST PUSH1 0x40 DUP3 ADD SWAP1 POP SWAP2 SWAP1 POP JUMP JUMPDEST PUSH1 0x0 PUSH1 0x20 DUP3 ADD SWAP1 POP DUP2 DUP2 SUB PUSH1 0x0 DUP4 ADD MSTORE PUSH2 0x1F30 DUP2 PUSH2 0x1EF4 JUMP JUMPDEST SWAP1 POP SWAP2 SWAP1 POP JUMP INVALID LOG2 PUSH5 0x6970667358 0x22 SLT KECCAK256 0x49 0xD8 OR 0x1E 0x29 PUSH16 0xCBC286EA5768532D23A888673E62D14C 0x5E SGT 0xDC NUMBER SWAP12 PUSH19 0x9FB4A3ED64736F6C6343000809003300000000 "
		},
		"gasEstimates": {
			"creation": {
				"codeDepositCost": "1609000",
				"executionCost": "1687",
				"totalCost": "1610687"
			},
			"external": {
				"entrance((uint256[],bytes[],uint32[],address[2]),bytes,uint256,uint256,bytes)": "infinite"
			},
			"internal": {
				"swapOutTokens(struct ButterCore.AccessParams memory,bytes memory,uint256,uint256,bytes memory)": "infinite"
			}
		},
		"methodIdentifiers": {
			"entrance((uint256[],bytes[],uint32[],address[2]),bytes,uint256,uint256,bytes)": "4bcc97da"
		}
	},
	"abi": [
		{
			"inputs": [
				{
					"components": [
						{
							"internalType": "uint256[]",
							"name": "amountInArr",
							"type": "uint256[]"
						},
						{
							"internalType": "bytes[]",
							"name": "paramsArr",
							"type": "bytes[]"
						},
						{
							"internalType": "uint32[]",
							"name": "routerIndex",
							"type": "uint32[]"
						},
						{
							"internalType": "address[2]",
							"name": "inputOutAddre",
							"type": "address[2]"
						}
					],
					"internalType": "struct ButterCore.AccessParams",
					"name": "swapData",
					"type": "tuple"
				},
				{
					"internalType": "bytes",
					"name": "mosData",
					"type": "bytes"
				},
				{
					"internalType": "uint256",
					"name": "amount",
					"type": "uint256"
				},
				{
					"internalType": "uint256",
					"name": "toChain",
					"type": "uint256"
				},
				{
					"internalType": "bytes",
					"name": "to",
					"type": "bytes"
				}
			],
			"name": "entrance",
			"outputs": [],
			"stateMutability": "payable",
			"type": "function"
		},
		{
			"stateMutability": "payable",
			"type": "receive"
		}
	]
}