{
	"data": {
		"bytecode": {
			"linkReferences": {},
			"object": "608060405234801561001057600080fd5b506111bf806100206000396000f3fe6080604052600436106100225760003560e01c80634bcc97da1461002e57600080fd5b3661002957005b600080fd5b61004161003c366004610b31565b610043565b005b600083116100905760405162461bcd60e51b815260206004820152601560248201527453656e64696e672076616c7565206973207a65726f60581b60448201526064015b60405180910390fd5b60006100a26080880160608901610c23565b6001600160a01b031603610144578234146100f25760405162461bcd60e51b815260206004820152601060248201526f4e6f7420656e6f756768206d6f6e657960801b6044820152606401610087565b61013f6100fe87610dde565b86868080601f01602080910402602001604051908101604052809392919081815260200183838082843760009201919091525088925087915086905061018e565b610186565b61015f6101576080880160608901610c23565b33308661070a565b61017a6101726080880160608901610c23565b33308661076f565b6101866100fe87610dde565b505050505050565b60608501516020015160009081906001600160a01b03166102c45760608701514792506101d89060005b602002015173b401355440842aab5a4dea8abfc7439d9cb8ab55876108a5565b604051630856506160e31b815273b401355440842aab5a4dea8abfc7439d9cb8ab55906342b283089061020f908a90600401610fe8565b600060405180830381600087803b15801561022957600080fd5b505af115801561023d573d6000803e3d6000fd5b50505050814761024d9190611088565b604051636d5ff47960e01b815290915073c54dfed81230ef231a920bfe6248417b354336c590636d5ff47990839061028d90879089908c906004016110af565b6000604051808303818588803b1580156102a657600080fd5b505af11580156102ba573d6000803e3d6000fd5b5050505050610701565b6060870151516001600160a01b031661050a576060870151602001516040516370a0823160e01b81523060048201526001600160a01b03909116906370a0823190602401602060405180830381865afa158015610325573d6000803e3d6000fd5b505050506040513d601f19601f8201168201806040525081019061034991906110e4565b604051630856506160e31b815290925073b401355440842aab5a4dea8abfc7439d9cb8ab55906342b28308908790610385908b90600401610fe8565b6000604051808303818588803b15801561039e57600080fd5b505af11580156103b2573d6000803e3d6000fd5b505050506060880151602001516040516370a0823160e01b81523060048201528492506001600160a01b03909116906370a0823190602401602060405180830381865afa158015610407573d6000803e3d6000fd5b505050506040513d601f19601f8201168201806040525081019061042b91906110e4565b6104359190611088565b60608801519091506104649060015b602002015173c54dfed81230ef231a920bfe6248417b354336c5836108a5565b60608701516020015161048c9073c54dfed81230ef231a920bfe6248417b354336c5836109d4565b606087015160200151604051632f12d7ef60e01b815273c54dfed81230ef231a920bfe6248417b354336c591632f12d7ef916104d39190879086908a908d906004016110fd565b600060405180830381600087803b1580156104ed57600080fd5b505af1158015610501573d6000803e3d6000fd5b50505050610701565b6060870151602001516040516370a0823160e01b81523060048201526001600160a01b03909116906370a0823190602401602060405180830381865afa158015610558573d6000803e3d6000fd5b505050506040513d601f19601f8201168201806040525081019061057c91906110e4565b606088015190925061058f9060006101b8565b604051630856506160e31b815273b401355440842aab5a4dea8abfc7439d9cb8ab55906342b28308906105c6908a90600401610fe8565b600060405180830381600087803b1580156105e057600080fd5b505af11580156105f4573d6000803e3d6000fd5b505050506060870151602001516040516370a0823160e01b815230600482015283916001600160a01b0316906370a0823190602401602060405180830381865afa158015610646573d6000803e3d6000fd5b505050506040513d601f19601f8201168201806040525081019061066a91906110e4565b6106749190611088565b6060880151909150610687906001610444565b606087015160200151604051632f12d7ef60e01b815273c54dfed81230ef231a920bfe6248417b354336c591632f12d7ef916106ce9190879086908a908d906004016110fd565b600060405180830381600087803b1580156106e857600080fd5b505af11580156106fc573d6000803e3d6000fd5b505050505b50505050505050565b6040516001600160a01b038086166024830152808516604483015283166064820152608481018290526107699060a40160408051601f198184030181529190526020810180516001600160e01b03166394250d7760e01b179052610a30565b50505050565b604080516001600160a01b0385811660248301528481166044830152606480830185905283518084039091018152608490920183526020820180516001600160e01b03166323b872dd60e01b17905291516000928392908816916107d3919061114b565b6000604051808303816000865af19150503d8060008114610810576040519150601f19603f3d011682016040523d82523d6000602084013e610815565b606091505b509150915081801561083f57508051158061083f57508080602001905181019061083f9190611167565b6101865760405162461bcd60e51b815260206004820152603160248201527f5472616e7366657248656c7065723a3a7472616e7366657246726f6d3a207472604482015270185b9cd9995c919c9bdb4819985a5b1959607a1b6064820152608401610087565b604080516001600160a01b038481166024830152604480830185905283518084039091018152606490920183526020820180516001600160e01b031663095ea7b360e01b1790529151600092839290871691610901919061114b565b6000604051808303816000865af19150503d806000811461093e576040519150601f19603f3d011682016040523d82523d6000602084013e610943565b606091505b509150915081801561096d57508051158061096d57508080602001905181019061096d9190611167565b6109cd5760405162461bcd60e51b815260206004820152602b60248201527f5472616e7366657248656c7065723a3a73616665417070726f76653a2061707060448201526a1c9bdd994819985a5b195960aa1b6064820152608401610087565b5050505050565b6040516001600160a01b0380851660248301528316604482015260648101829052610a2b9060840160408051601f198184030181529190526020810180516001600160e01b03166317fe618560e01b179052610a30565b505050565b80516a636f6e736f6c652e6c6f67602083016000808483855afa5050505050565b634e487b7160e01b600052604160045260246000fd5b6040516080810167ffffffffffffffff81118282101715610a8a57610a8a610a51565b60405290565b604051601f8201601f1916810167ffffffffffffffff81118282101715610ab957610ab9610a51565b604052919050565b600082601f830112610ad257600080fd5b813567ffffffffffffffff811115610aec57610aec610a51565b610aff601f8201601f1916602001610a90565b818152846020838601011115610b1457600080fd5b816020850160208301376000918101602001919091529392505050565b60008060008060008060a08789031215610b4a57600080fd5b863567ffffffffffffffff80821115610b6257600080fd5b9088019060a0828b031215610b7657600080fd5b90965060208801359080821115610b8c57600080fd5b818901915089601f830112610ba057600080fd5b813581811115610baf57600080fd5b8a6020828501011115610bc157600080fd5b6020830197508096505060408901359450606089013593506080890135915080821115610bed57600080fd5b50610bfa89828a01610ac1565b9150509295509295509295565b80356001600160a01b0381168114610c1e57600080fd5b919050565b600060208284031215610c3557600080fd5b610c3e82610c07565b9392505050565b600067ffffffffffffffff821115610c5f57610c5f610a51565b5060051b60200190565b600082601f830112610c7a57600080fd5b81356020610c8f610c8a83610c45565b610a90565b82815260059290921b84018101918181019086841115610cae57600080fd5b8286015b84811015610cee57803567ffffffffffffffff811115610cd25760008081fd5b610ce08986838b0101610ac1565b845250918301918301610cb2565b509695505050505050565b600082601f830112610d0a57600080fd5b81356020610d1a610c8a83610c45565b82815260059290921b84018101918181019086841115610d3957600080fd5b8286015b84811015610cee57803563ffffffff81168114610d5a5760008081fd5b8352918301918301610d3d565b600082601f830112610d7857600080fd5b6040516040810181811067ffffffffffffffff82111715610d9b57610d9b610a51565b8060405250806040840185811115610db257600080fd5b845b81811015610dd357610dc581610c07565b835260209283019201610db4565b509195945050505050565b600060a08236031215610df057600080fd5b610df8610a67565b823567ffffffffffffffff80821115610e1057600080fd5b9084019036601f830112610e2357600080fd5b81356020610e33610c8a83610c45565b82815260059290921b84018101918181019036841115610e5257600080fd5b948201945b83861015610e7057853582529482019490820190610e57565b86525086810135935082841115610e8657600080fd5b610e9236858901610c69565b90850152506040850135915080821115610eab57600080fd5b50610eb836828601610cf9565b604083015250610ecb3660608501610d67565b606082015292915050565b60005b83811015610ef1578181015183820152602001610ed9565b50506000910152565b60008151808452610f12816020860160208601610ed6565b601f01601f19169290920160200192915050565b600081518084526020808501808196508360051b8101915082860160005b85811015610f6e578284038952610f5c848351610efa565b98850198935090840190600101610f44565b5091979650505050505050565b600081518084526020808501945080840160005b83811015610fb157815163ffffffff1687529582019590820190600101610f8f565b509495945050505050565b8060005b60028110156107695781516001600160a01b0316845260209384019390910190600101610fc0565b6020808252825160a083830152805160c0840181905260009291820190839060e08601905b8083101561102d578351825292840192600192909201919084019061100d565b50838701519350601f1992508286820301604087015261104d8185610f26565b9350505060408501518185840301606086015261106a8382610f7b565b9250505060608401516110806080850182610fbc565b509392505050565b818103818111156110a957634e487b7160e01b600052601160045260246000fd5b92915050565b6060815260006110c26060830186610efa565b84602084015282810360408401526110da8185610efa565b9695505050505050565b6000602082840312156110f657600080fd5b5051919050565b6001600160a01b038616815260a06020820181905260009061112190830187610efa565b856040840152846060840152828103608084015261113f8185610efa565b98975050505050505050565b6000825161115d818460208701610ed6565b9190910192915050565b60006020828403121561117957600080fd5b81518015158114610c3e57600080fdfea2646970667358221220e65b945c676b0012e9feb9715cc89b6fe79863691a40f6f6262279b2e79aba9764736f6c63430008110033",
			"opcodes": "PUSH1 0x80 PUSH1 0x40 MSTORE CALLVALUE DUP1 ISZERO PUSH2 0x10 JUMPI PUSH1 0x0 DUP1 REVERT JUMPDEST POP PUSH2 0x11BF DUP1 PUSH2 0x20 PUSH1 0x0 CODECOPY PUSH1 0x0 RETURN INVALID PUSH1 0x80 PUSH1 0x40 MSTORE PUSH1 0x4 CALLDATASIZE LT PUSH2 0x22 JUMPI PUSH1 0x0 CALLDATALOAD PUSH1 0xE0 SHR DUP1 PUSH4 0x4BCC97DA EQ PUSH2 0x2E JUMPI PUSH1 0x0 DUP1 REVERT JUMPDEST CALLDATASIZE PUSH2 0x29 JUMPI STOP JUMPDEST PUSH1 0x0 DUP1 REVERT JUMPDEST PUSH2 0x41 PUSH2 0x3C CALLDATASIZE PUSH1 0x4 PUSH2 0xB31 JUMP JUMPDEST PUSH2 0x43 JUMP JUMPDEST STOP JUMPDEST PUSH1 0x0 DUP4 GT PUSH2 0x90 JUMPI PUSH1 0x40 MLOAD PUSH3 0x461BCD PUSH1 0xE5 SHL DUP2 MSTORE PUSH1 0x20 PUSH1 0x4 DUP3 ADD MSTORE PUSH1 0x15 PUSH1 0x24 DUP3 ADD MSTORE PUSH21 0x53656E64696E672076616C7565206973207A65726F PUSH1 0x58 SHL PUSH1 0x44 DUP3 ADD MSTORE PUSH1 0x64 ADD JUMPDEST PUSH1 0x40 MLOAD DUP1 SWAP2 SUB SWAP1 REVERT JUMPDEST PUSH1 0x0 PUSH2 0xA2 PUSH1 0x80 DUP9 ADD PUSH1 0x60 DUP10 ADD PUSH2 0xC23 JUMP JUMPDEST PUSH1 0x1 PUSH1 0x1 PUSH1 0xA0 SHL SUB AND SUB PUSH2 0x144 JUMPI DUP3 CALLVALUE EQ PUSH2 0xF2 JUMPI PUSH1 0x40 MLOAD PUSH3 0x461BCD PUSH1 0xE5 SHL DUP2 MSTORE PUSH1 0x20 PUSH1 0x4 DUP3 ADD MSTORE PUSH1 0x10 PUSH1 0x24 DUP3 ADD MSTORE PUSH16 0x4E6F7420656E6F756768206D6F6E6579 PUSH1 0x80 SHL PUSH1 0x44 DUP3 ADD MSTORE PUSH1 0x64 ADD PUSH2 0x87 JUMP JUMPDEST PUSH2 0x13F PUSH2 0xFE DUP8 PUSH2 0xDDE JUMP JUMPDEST DUP7 DUP7 DUP1 DUP1 PUSH1 0x1F ADD PUSH1 0x20 DUP1 SWAP2 DIV MUL PUSH1 0x20 ADD PUSH1 0x40 MLOAD SWAP1 DUP2 ADD PUSH1 0x40 MSTORE DUP1 SWAP4 SWAP3 SWAP2 SWAP1 DUP2 DUP2 MSTORE PUSH1 0x20 ADD DUP4 DUP4 DUP1 DUP3 DUP5 CALLDATACOPY PUSH1 0x0 SWAP3 ADD SWAP2 SWAP1 SWAP2 MSTORE POP DUP9 SWAP3 POP DUP8 SWAP2 POP DUP7 SWAP1 POP PUSH2 0x18E JUMP JUMPDEST PUSH2 0x186 JUMP JUMPDEST PUSH2 0x15F PUSH2 0x157 PUSH1 0x80 DUP9 ADD PUSH1 0x60 DUP10 ADD PUSH2 0xC23 JUMP JUMPDEST CALLER ADDRESS DUP7 PUSH2 0x70A JUMP JUMPDEST PUSH2 0x17A PUSH2 0x172 PUSH1 0x80 DUP9 ADD PUSH1 0x60 DUP10 ADD PUSH2 0xC23 JUMP JUMPDEST CALLER ADDRESS DUP7 PUSH2 0x76F JUMP JUMPDEST PUSH2 0x186 PUSH2 0xFE DUP8 PUSH2 0xDDE JUMP JUMPDEST POP POP POP POP POP POP JUMP JUMPDEST PUSH1 0x60 DUP6 ADD MLOAD PUSH1 0x20 ADD MLOAD PUSH1 0x0 SWAP1 DUP2 SWAP1 PUSH1 0x1 PUSH1 0x1 PUSH1 0xA0 SHL SUB AND PUSH2 0x2C4 JUMPI PUSH1 0x60 DUP8 ADD MLOAD SELFBALANCE SWAP3 POP PUSH2 0x1D8 SWAP1 PUSH1 0x0 JUMPDEST PUSH1 0x20 MUL ADD MLOAD PUSH20 0xB401355440842AAB5A4DEA8ABFC7439D9CB8AB55 DUP8 PUSH2 0x8A5 JUMP JUMPDEST PUSH1 0x40 MLOAD PUSH4 0x8565061 PUSH1 0xE3 SHL DUP2 MSTORE PUSH20 0xB401355440842AAB5A4DEA8ABFC7439D9CB8AB55 SWAP1 PUSH4 0x42B28308 SWAP1 PUSH2 0x20F SWAP1 DUP11 SWAP1 PUSH1 0x4 ADD PUSH2 0xFE8 JUMP JUMPDEST PUSH1 0x0 PUSH1 0x40 MLOAD DUP1 DUP4 SUB DUP2 PUSH1 0x0 DUP8 DUP1 EXTCODESIZE ISZERO DUP1 ISZERO PUSH2 0x229 JUMPI PUSH1 0x0 DUP1 REVERT JUMPDEST POP GAS CALL ISZERO DUP1 ISZERO PUSH2 0x23D JUMPI RETURNDATASIZE PUSH1 0x0 DUP1 RETURNDATACOPY RETURNDATASIZE PUSH1 0x0 REVERT JUMPDEST POP POP POP POP DUP2 SELFBALANCE PUSH2 0x24D SWAP2 SWAP1 PUSH2 0x1088 JUMP JUMPDEST PUSH1 0x40 MLOAD PUSH4 0x6D5FF479 PUSH1 0xE0 SHL DUP2 MSTORE SWAP1 SWAP2 POP PUSH20 0xC54DFED81230EF231A920BFE6248417B354336C5 SWAP1 PUSH4 0x6D5FF479 SWAP1 DUP4 SWAP1 PUSH2 0x28D SWAP1 DUP8 SWAP1 DUP10 SWAP1 DUP13 SWAP1 PUSH1 0x4 ADD PUSH2 0x10AF JUMP JUMPDEST PUSH1 0x0 PUSH1 0x40 MLOAD DUP1 DUP4 SUB DUP2 DUP6 DUP9 DUP1 EXTCODESIZE ISZERO DUP1 ISZERO PUSH2 0x2A6 JUMPI PUSH1 0x0 DUP1 REVERT JUMPDEST POP GAS CALL ISZERO DUP1 ISZERO PUSH2 0x2BA JUMPI RETURNDATASIZE PUSH1 0x0 DUP1 RETURNDATACOPY RETURNDATASIZE PUSH1 0x0 REVERT JUMPDEST POP POP POP POP POP PUSH2 0x701 JUMP JUMPDEST PUSH1 0x60 DUP8 ADD MLOAD MLOAD PUSH1 0x1 PUSH1 0x1 PUSH1 0xA0 SHL SUB AND PUSH2 0x50A JUMPI PUSH1 0x60 DUP8 ADD MLOAD PUSH1 0x20 ADD MLOAD PUSH1 0x40 MLOAD PUSH4 0x70A08231 PUSH1 0xE0 SHL DUP2 MSTORE ADDRESS PUSH1 0x4 DUP3 ADD MSTORE PUSH1 0x1 PUSH1 0x1 PUSH1 0xA0 SHL SUB SWAP1 SWAP2 AND SWAP1 PUSH4 0x70A08231 SWAP1 PUSH1 0x24 ADD PUSH1 0x20 PUSH1 0x40 MLOAD DUP1 DUP4 SUB DUP2 DUP7 GAS STATICCALL ISZERO DUP1 ISZERO PUSH2 0x325 JUMPI RETURNDATASIZE PUSH1 0x0 DUP1 RETURNDATACOPY RETURNDATASIZE PUSH1 0x0 REVERT JUMPDEST POP POP POP POP PUSH1 0x40 MLOAD RETURNDATASIZE PUSH1 0x1F NOT PUSH1 0x1F DUP3 ADD AND DUP3 ADD DUP1 PUSH1 0x40 MSTORE POP DUP2 ADD SWAP1 PUSH2 0x349 SWAP2 SWAP1 PUSH2 0x10E4 JUMP JUMPDEST PUSH1 0x40 MLOAD PUSH4 0x8565061 PUSH1 0xE3 SHL DUP2 MSTORE SWAP1 SWAP3 POP PUSH20 0xB401355440842AAB5A4DEA8ABFC7439D9CB8AB55 SWAP1 PUSH4 0x42B28308 SWAP1 DUP8 SWAP1 PUSH2 0x385 SWAP1 DUP12 SWAP1 PUSH1 0x4 ADD PUSH2 0xFE8 JUMP JUMPDEST PUSH1 0x0 PUSH1 0x40 MLOAD DUP1 DUP4 SUB DUP2 DUP6 DUP9 DUP1 EXTCODESIZE ISZERO DUP1 ISZERO PUSH2 0x39E JUMPI PUSH1 0x0 DUP1 REVERT JUMPDEST POP GAS CALL ISZERO DUP1 ISZERO PUSH2 0x3B2 JUMPI RETURNDATASIZE PUSH1 0x0 DUP1 RETURNDATACOPY RETURNDATASIZE PUSH1 0x0 REVERT JUMPDEST POP POP POP POP PUSH1 0x60 DUP9 ADD MLOAD PUSH1 0x20 ADD MLOAD PUSH1 0x40 MLOAD PUSH4 0x70A08231 PUSH1 0xE0 SHL DUP2 MSTORE ADDRESS PUSH1 0x4 DUP3 ADD MSTORE DUP5 SWAP3 POP PUSH1 0x1 PUSH1 0x1 PUSH1 0xA0 SHL SUB SWAP1 SWAP2 AND SWAP1 PUSH4 0x70A08231 SWAP1 PUSH1 0x24 ADD PUSH1 0x20 PUSH1 0x40 MLOAD DUP1 DUP4 SUB DUP2 DUP7 GAS STATICCALL ISZERO DUP1 ISZERO PUSH2 0x407 JUMPI RETURNDATASIZE PUSH1 0x0 DUP1 RETURNDATACOPY RETURNDATASIZE PUSH1 0x0 REVERT JUMPDEST POP POP POP POP PUSH1 0x40 MLOAD RETURNDATASIZE PUSH1 0x1F NOT PUSH1 0x1F DUP3 ADD AND DUP3 ADD DUP1 PUSH1 0x40 MSTORE POP DUP2 ADD SWAP1 PUSH2 0x42B SWAP2 SWAP1 PUSH2 0x10E4 JUMP JUMPDEST PUSH2 0x435 SWAP2 SWAP1 PUSH2 0x1088 JUMP JUMPDEST PUSH1 0x60 DUP9 ADD MLOAD SWAP1 SWAP2 POP PUSH2 0x464 SWAP1 PUSH1 0x1 JUMPDEST PUSH1 0x20 MUL ADD MLOAD PUSH20 0xC54DFED81230EF231A920BFE6248417B354336C5 DUP4 PUSH2 0x8A5 JUMP JUMPDEST PUSH1 0x60 DUP8 ADD MLOAD PUSH1 0x20 ADD MLOAD PUSH2 0x48C SWAP1 PUSH20 0xC54DFED81230EF231A920BFE6248417B354336C5 DUP4 PUSH2 0x9D4 JUMP JUMPDEST PUSH1 0x60 DUP8 ADD MLOAD PUSH1 0x20 ADD MLOAD PUSH1 0x40 MLOAD PUSH4 0x2F12D7EF PUSH1 0xE0 SHL DUP2 MSTORE PUSH20 0xC54DFED81230EF231A920BFE6248417B354336C5 SWAP2 PUSH4 0x2F12D7EF SWAP2 PUSH2 0x4D3 SWAP2 SWAP1 DUP8 SWAP1 DUP7 SWAP1 DUP11 SWAP1 DUP14 SWAP1 PUSH1 0x4 ADD PUSH2 0x10FD JUMP JUMPDEST PUSH1 0x0 PUSH1 0x40 MLOAD DUP1 DUP4 SUB DUP2 PUSH1 0x0 DUP8 DUP1 EXTCODESIZE ISZERO DUP1 ISZERO PUSH2 0x4ED JUMPI PUSH1 0x0 DUP1 REVERT JUMPDEST POP GAS CALL ISZERO DUP1 ISZERO PUSH2 0x501 JUMPI RETURNDATASIZE PUSH1 0x0 DUP1 RETURNDATACOPY RETURNDATASIZE PUSH1 0x0 REVERT JUMPDEST POP POP POP POP PUSH2 0x701 JUMP JUMPDEST PUSH1 0x60 DUP8 ADD MLOAD PUSH1 0x20 ADD MLOAD PUSH1 0x40 MLOAD PUSH4 0x70A08231 PUSH1 0xE0 SHL DUP2 MSTORE ADDRESS PUSH1 0x4 DUP3 ADD MSTORE PUSH1 0x1 PUSH1 0x1 PUSH1 0xA0 SHL SUB SWAP1 SWAP2 AND SWAP1 PUSH4 0x70A08231 SWAP1 PUSH1 0x24 ADD PUSH1 0x20 PUSH1 0x40 MLOAD DUP1 DUP4 SUB DUP2 DUP7 GAS STATICCALL ISZERO DUP1 ISZERO PUSH2 0x558 JUMPI RETURNDATASIZE PUSH1 0x0 DUP1 RETURNDATACOPY RETURNDATASIZE PUSH1 0x0 REVERT JUMPDEST POP POP POP POP PUSH1 0x40 MLOAD RETURNDATASIZE PUSH1 0x1F NOT PUSH1 0x1F DUP3 ADD AND DUP3 ADD DUP1 PUSH1 0x40 MSTORE POP DUP2 ADD SWAP1 PUSH2 0x57C SWAP2 SWAP1 PUSH2 0x10E4 JUMP JUMPDEST PUSH1 0x60 DUP9 ADD MLOAD SWAP1 SWAP3 POP PUSH2 0x58F SWAP1 PUSH1 0x0 PUSH2 0x1B8 JUMP JUMPDEST PUSH1 0x40 MLOAD PUSH4 0x8565061 PUSH1 0xE3 SHL DUP2 MSTORE PUSH20 0xB401355440842AAB5A4DEA8ABFC7439D9CB8AB55 SWAP1 PUSH4 0x42B28308 SWAP1 PUSH2 0x5C6 SWAP1 DUP11 SWAP1 PUSH1 0x4 ADD PUSH2 0xFE8 JUMP JUMPDEST PUSH1 0x0 PUSH1 0x40 MLOAD DUP1 DUP4 SUB DUP2 PUSH1 0x0 DUP8 DUP1 EXTCODESIZE ISZERO DUP1 ISZERO PUSH2 0x5E0 JUMPI PUSH1 0x0 DUP1 REVERT JUMPDEST POP GAS CALL ISZERO DUP1 ISZERO PUSH2 0x5F4 JUMPI RETURNDATASIZE PUSH1 0x0 DUP1 RETURNDATACOPY RETURNDATASIZE PUSH1 0x0 REVERT JUMPDEST POP POP POP POP PUSH1 0x60 DUP8 ADD MLOAD PUSH1 0x20 ADD MLOAD PUSH1 0x40 MLOAD PUSH4 0x70A08231 PUSH1 0xE0 SHL DUP2 MSTORE ADDRESS PUSH1 0x4 DUP3 ADD MSTORE DUP4 SWAP2 PUSH1 0x1 PUSH1 0x1 PUSH1 0xA0 SHL SUB AND SWAP1 PUSH4 0x70A08231 SWAP1 PUSH1 0x24 ADD PUSH1 0x20 PUSH1 0x40 MLOAD DUP1 DUP4 SUB DUP2 DUP7 GAS STATICCALL ISZERO DUP1 ISZERO PUSH2 0x646 JUMPI RETURNDATASIZE PUSH1 0x0 DUP1 RETURNDATACOPY RETURNDATASIZE PUSH1 0x0 REVERT JUMPDEST POP POP POP POP PUSH1 0x40 MLOAD RETURNDATASIZE PUSH1 0x1F NOT PUSH1 0x1F DUP3 ADD AND DUP3 ADD DUP1 PUSH1 0x40 MSTORE POP DUP2 ADD SWAP1 PUSH2 0x66A SWAP2 SWAP1 PUSH2 0x10E4 JUMP JUMPDEST PUSH2 0x674 SWAP2 SWAP1 PUSH2 0x1088 JUMP JUMPDEST PUSH1 0x60 DUP9 ADD MLOAD SWAP1 SWAP2 POP PUSH2 0x687 SWAP1 PUSH1 0x1 PUSH2 0x444 JUMP JUMPDEST PUSH1 0x60 DUP8 ADD MLOAD PUSH1 0x20 ADD MLOAD PUSH1 0x40 MLOAD PUSH4 0x2F12D7EF PUSH1 0xE0 SHL DUP2 MSTORE PUSH20 0xC54DFED81230EF231A920BFE6248417B354336C5 SWAP2 PUSH4 0x2F12D7EF SWAP2 PUSH2 0x6CE SWAP2 SWAP1 DUP8 SWAP1 DUP7 SWAP1 DUP11 SWAP1 DUP14 SWAP1 PUSH1 0x4 ADD PUSH2 0x10FD JUMP JUMPDEST PUSH1 0x0 PUSH1 0x40 MLOAD DUP1 DUP4 SUB DUP2 PUSH1 0x0 DUP8 DUP1 EXTCODESIZE ISZERO DUP1 ISZERO PUSH2 0x6E8 JUMPI PUSH1 0x0 DUP1 REVERT JUMPDEST POP GAS CALL ISZERO DUP1 ISZERO PUSH2 0x6FC JUMPI RETURNDATASIZE PUSH1 0x0 DUP1 RETURNDATACOPY RETURNDATASIZE PUSH1 0x0 REVERT JUMPDEST POP POP POP POP JUMPDEST POP POP POP POP POP POP POP JUMP JUMPDEST PUSH1 0x40 MLOAD PUSH1 0x1 PUSH1 0x1 PUSH1 0xA0 SHL SUB DUP1 DUP7 AND PUSH1 0x24 DUP4 ADD MSTORE DUP1 DUP6 AND PUSH1 0x44 DUP4 ADD MSTORE DUP4 AND PUSH1 0x64 DUP3 ADD MSTORE PUSH1 0x84 DUP2 ADD DUP3 SWAP1 MSTORE PUSH2 0x769 SWAP1 PUSH1 0xA4 ADD PUSH1 0x40 DUP1 MLOAD PUSH1 0x1F NOT DUP2 DUP5 SUB ADD DUP2 MSTORE SWAP2 SWAP1 MSTORE PUSH1 0x20 DUP2 ADD DUP1 MLOAD PUSH1 0x1 PUSH1 0x1 PUSH1 0xE0 SHL SUB AND PUSH4 0x94250D77 PUSH1 0xE0 SHL OR SWAP1 MSTORE PUSH2 0xA30 JUMP JUMPDEST POP POP POP POP JUMP JUMPDEST PUSH1 0x40 DUP1 MLOAD PUSH1 0x1 PUSH1 0x1 PUSH1 0xA0 SHL SUB DUP6 DUP2 AND PUSH1 0x24 DUP4 ADD MSTORE DUP5 DUP2 AND PUSH1 0x44 DUP4 ADD MSTORE PUSH1 0x64 DUP1 DUP4 ADD DUP6 SWAP1 MSTORE DUP4 MLOAD DUP1 DUP5 SUB SWAP1 SWAP2 ADD DUP2 MSTORE PUSH1 0x84 SWAP1 SWAP3 ADD DUP4 MSTORE PUSH1 0x20 DUP3 ADD DUP1 MLOAD PUSH1 0x1 PUSH1 0x1 PUSH1 0xE0 SHL SUB AND PUSH4 0x23B872DD PUSH1 0xE0 SHL OR SWAP1 MSTORE SWAP2 MLOAD PUSH1 0x0 SWAP3 DUP4 SWAP3 SWAP1 DUP9 AND SWAP2 PUSH2 0x7D3 SWAP2 SWAP1 PUSH2 0x114B JUMP JUMPDEST PUSH1 0x0 PUSH1 0x40 MLOAD DUP1 DUP4 SUB DUP2 PUSH1 0x0 DUP7 GAS CALL SWAP2 POP POP RETURNDATASIZE DUP1 PUSH1 0x0 DUP2 EQ PUSH2 0x810 JUMPI PUSH1 0x40 MLOAD SWAP2 POP PUSH1 0x1F NOT PUSH1 0x3F RETURNDATASIZE ADD AND DUP3 ADD PUSH1 0x40 MSTORE RETURNDATASIZE DUP3 MSTORE RETURNDATASIZE PUSH1 0x0 PUSH1 0x20 DUP5 ADD RETURNDATACOPY PUSH2 0x815 JUMP JUMPDEST PUSH1 0x60 SWAP2 POP JUMPDEST POP SWAP2 POP SWAP2 POP DUP2 DUP1 ISZERO PUSH2 0x83F JUMPI POP DUP1 MLOAD ISZERO DUP1 PUSH2 0x83F JUMPI POP DUP1 DUP1 PUSH1 0x20 ADD SWAP1 MLOAD DUP2 ADD SWAP1 PUSH2 0x83F SWAP2 SWAP1 PUSH2 0x1167 JUMP JUMPDEST PUSH2 0x186 JUMPI PUSH1 0x40 MLOAD PUSH3 0x461BCD PUSH1 0xE5 SHL DUP2 MSTORE PUSH1 0x20 PUSH1 0x4 DUP3 ADD MSTORE PUSH1 0x31 PUSH1 0x24 DUP3 ADD MSTORE PUSH32 0x5472616E7366657248656C7065723A3A7472616E7366657246726F6D3A207472 PUSH1 0x44 DUP3 ADD MSTORE PUSH17 0x185B9CD9995C919C9BDB4819985A5B1959 PUSH1 0x7A SHL PUSH1 0x64 DUP3 ADD MSTORE PUSH1 0x84 ADD PUSH2 0x87 JUMP JUMPDEST PUSH1 0x40 DUP1 MLOAD PUSH1 0x1 PUSH1 0x1 PUSH1 0xA0 SHL SUB DUP5 DUP2 AND PUSH1 0x24 DUP4 ADD MSTORE PUSH1 0x44 DUP1 DUP4 ADD DUP6 SWAP1 MSTORE DUP4 MLOAD DUP1 DUP5 SUB SWAP1 SWAP2 ADD DUP2 MSTORE PUSH1 0x64 SWAP1 SWAP3 ADD DUP4 MSTORE PUSH1 0x20 DUP3 ADD DUP1 MLOAD PUSH1 0x1 PUSH1 0x1 PUSH1 0xE0 SHL SUB AND PUSH4 0x95EA7B3 PUSH1 0xE0 SHL OR SWAP1 MSTORE SWAP2 MLOAD PUSH1 0x0 SWAP3 DUP4 SWAP3 SWAP1 DUP8 AND SWAP2 PUSH2 0x901 SWAP2 SWAP1 PUSH2 0x114B JUMP JUMPDEST PUSH1 0x0 PUSH1 0x40 MLOAD DUP1 DUP4 SUB DUP2 PUSH1 0x0 DUP7 GAS CALL SWAP2 POP POP RETURNDATASIZE DUP1 PUSH1 0x0 DUP2 EQ PUSH2 0x93E JUMPI PUSH1 0x40 MLOAD SWAP2 POP PUSH1 0x1F NOT PUSH1 0x3F RETURNDATASIZE ADD AND DUP3 ADD PUSH1 0x40 MSTORE RETURNDATASIZE DUP3 MSTORE RETURNDATASIZE PUSH1 0x0 PUSH1 0x20 DUP5 ADD RETURNDATACOPY PUSH2 0x943 JUMP JUMPDEST PUSH1 0x60 SWAP2 POP JUMPDEST POP SWAP2 POP SWAP2 POP DUP2 DUP1 ISZERO PUSH2 0x96D JUMPI POP DUP1 MLOAD ISZERO DUP1 PUSH2 0x96D JUMPI POP DUP1 DUP1 PUSH1 0x20 ADD SWAP1 MLOAD DUP2 ADD SWAP1 PUSH2 0x96D SWAP2 SWAP1 PUSH2 0x1167 JUMP JUMPDEST PUSH2 0x9CD JUMPI PUSH1 0x40 MLOAD PUSH3 0x461BCD PUSH1 0xE5 SHL DUP2 MSTORE PUSH1 0x20 PUSH1 0x4 DUP3 ADD MSTORE PUSH1 0x2B PUSH1 0x24 DUP3 ADD MSTORE PUSH32 0x5472616E7366657248656C7065723A3A73616665417070726F76653A20617070 PUSH1 0x44 DUP3 ADD MSTORE PUSH11 0x1C9BDD994819985A5B1959 PUSH1 0xAA SHL PUSH1 0x64 DUP3 ADD MSTORE PUSH1 0x84 ADD PUSH2 0x87 JUMP JUMPDEST POP POP POP POP POP JUMP JUMPDEST PUSH1 0x40 MLOAD PUSH1 0x1 PUSH1 0x1 PUSH1 0xA0 SHL SUB DUP1 DUP6 AND PUSH1 0x24 DUP4 ADD MSTORE DUP4 AND PUSH1 0x44 DUP3 ADD MSTORE PUSH1 0x64 DUP2 ADD DUP3 SWAP1 MSTORE PUSH2 0xA2B SWAP1 PUSH1 0x84 ADD PUSH1 0x40 DUP1 MLOAD PUSH1 0x1F NOT DUP2 DUP5 SUB ADD DUP2 MSTORE SWAP2 SWAP1 MSTORE PUSH1 0x20 DUP2 ADD DUP1 MLOAD PUSH1 0x1 PUSH1 0x1 PUSH1 0xE0 SHL SUB AND PUSH4 0x17FE6185 PUSH1 0xE0 SHL OR SWAP1 MSTORE PUSH2 0xA30 JUMP JUMPDEST POP POP POP JUMP JUMPDEST DUP1 MLOAD PUSH11 0x636F6E736F6C652E6C6F67 PUSH1 0x20 DUP4 ADD PUSH1 0x0 DUP1 DUP5 DUP4 DUP6 GAS STATICCALL POP POP POP POP POP JUMP JUMPDEST PUSH4 0x4E487B71 PUSH1 0xE0 SHL PUSH1 0x0 MSTORE PUSH1 0x41 PUSH1 0x4 MSTORE PUSH1 0x24 PUSH1 0x0 REVERT JUMPDEST PUSH1 0x40 MLOAD PUSH1 0x80 DUP2 ADD PUSH8 0xFFFFFFFFFFFFFFFF DUP2 GT DUP3 DUP3 LT OR ISZERO PUSH2 0xA8A JUMPI PUSH2 0xA8A PUSH2 0xA51 JUMP JUMPDEST PUSH1 0x40 MSTORE SWAP1 JUMP JUMPDEST PUSH1 0x40 MLOAD PUSH1 0x1F DUP3 ADD PUSH1 0x1F NOT AND DUP2 ADD PUSH8 0xFFFFFFFFFFFFFFFF DUP2 GT DUP3 DUP3 LT OR ISZERO PUSH2 0xAB9 JUMPI PUSH2 0xAB9 PUSH2 0xA51 JUMP JUMPDEST PUSH1 0x40 MSTORE SWAP2 SWAP1 POP JUMP JUMPDEST PUSH1 0x0 DUP3 PUSH1 0x1F DUP4 ADD SLT PUSH2 0xAD2 JUMPI PUSH1 0x0 DUP1 REVERT JUMPDEST DUP2 CALLDATALOAD PUSH8 0xFFFFFFFFFFFFFFFF DUP2 GT ISZERO PUSH2 0xAEC JUMPI PUSH2 0xAEC PUSH2 0xA51 JUMP JUMPDEST PUSH2 0xAFF PUSH1 0x1F DUP3 ADD PUSH1 0x1F NOT AND PUSH1 0x20 ADD PUSH2 0xA90 JUMP JUMPDEST DUP2 DUP2 MSTORE DUP5 PUSH1 0x20 DUP4 DUP7 ADD ADD GT ISZERO PUSH2 0xB14 JUMPI PUSH1 0x0 DUP1 REVERT JUMPDEST DUP2 PUSH1 0x20 DUP6 ADD PUSH1 0x20 DUP4 ADD CALLDATACOPY PUSH1 0x0 SWAP2 DUP2 ADD PUSH1 0x20 ADD SWAP2 SWAP1 SWAP2 MSTORE SWAP4 SWAP3 POP POP POP JUMP JUMPDEST PUSH1 0x0 DUP1 PUSH1 0x0 DUP1 PUSH1 0x0 DUP1 PUSH1 0xA0 DUP8 DUP10 SUB SLT ISZERO PUSH2 0xB4A JUMPI PUSH1 0x0 DUP1 REVERT JUMPDEST DUP7 CALLDATALOAD PUSH8 0xFFFFFFFFFFFFFFFF DUP1 DUP3 GT ISZERO PUSH2 0xB62 JUMPI PUSH1 0x0 DUP1 REVERT JUMPDEST SWAP1 DUP9 ADD SWAP1 PUSH1 0xA0 DUP3 DUP12 SUB SLT ISZERO PUSH2 0xB76 JUMPI PUSH1 0x0 DUP1 REVERT JUMPDEST SWAP1 SWAP7 POP PUSH1 0x20 DUP9 ADD CALLDATALOAD SWAP1 DUP1 DUP3 GT ISZERO PUSH2 0xB8C JUMPI PUSH1 0x0 DUP1 REVERT JUMPDEST DUP2 DUP10 ADD SWAP2 POP DUP10 PUSH1 0x1F DUP4 ADD SLT PUSH2 0xBA0 JUMPI PUSH1 0x0 DUP1 REVERT JUMPDEST DUP2 CALLDATALOAD DUP2 DUP2 GT ISZERO PUSH2 0xBAF JUMPI PUSH1 0x0 DUP1 REVERT JUMPDEST DUP11 PUSH1 0x20 DUP3 DUP6 ADD ADD GT ISZERO PUSH2 0xBC1 JUMPI PUSH1 0x0 DUP1 REVERT JUMPDEST PUSH1 0x20 DUP4 ADD SWAP8 POP DUP1 SWAP7 POP POP PUSH1 0x40 DUP10 ADD CALLDATALOAD SWAP5 POP PUSH1 0x60 DUP10 ADD CALLDATALOAD SWAP4 POP PUSH1 0x80 DUP10 ADD CALLDATALOAD SWAP2 POP DUP1 DUP3 GT ISZERO PUSH2 0xBED JUMPI PUSH1 0x0 DUP1 REVERT JUMPDEST POP PUSH2 0xBFA DUP10 DUP3 DUP11 ADD PUSH2 0xAC1 JUMP JUMPDEST SWAP2 POP POP SWAP3 SWAP6 POP SWAP3 SWAP6 POP SWAP3 SWAP6 JUMP JUMPDEST DUP1 CALLDATALOAD PUSH1 0x1 PUSH1 0x1 PUSH1 0xA0 SHL SUB DUP2 AND DUP2 EQ PUSH2 0xC1E JUMPI PUSH1 0x0 DUP1 REVERT JUMPDEST SWAP2 SWAP1 POP JUMP JUMPDEST PUSH1 0x0 PUSH1 0x20 DUP3 DUP5 SUB SLT ISZERO PUSH2 0xC35 JUMPI PUSH1 0x0 DUP1 REVERT JUMPDEST PUSH2 0xC3E DUP3 PUSH2 0xC07 JUMP JUMPDEST SWAP4 SWAP3 POP POP POP JUMP JUMPDEST PUSH1 0x0 PUSH8 0xFFFFFFFFFFFFFFFF DUP3 GT ISZERO PUSH2 0xC5F JUMPI PUSH2 0xC5F PUSH2 0xA51 JUMP JUMPDEST POP PUSH1 0x5 SHL PUSH1 0x20 ADD SWAP1 JUMP JUMPDEST PUSH1 0x0 DUP3 PUSH1 0x1F DUP4 ADD SLT PUSH2 0xC7A JUMPI PUSH1 0x0 DUP1 REVERT JUMPDEST DUP2 CALLDATALOAD PUSH1 0x20 PUSH2 0xC8F PUSH2 0xC8A DUP4 PUSH2 0xC45 JUMP JUMPDEST PUSH2 0xA90 JUMP JUMPDEST DUP3 DUP2 MSTORE PUSH1 0x5 SWAP3 SWAP1 SWAP3 SHL DUP5 ADD DUP2 ADD SWAP2 DUP2 DUP2 ADD SWAP1 DUP7 DUP5 GT ISZERO PUSH2 0xCAE JUMPI PUSH1 0x0 DUP1 REVERT JUMPDEST DUP3 DUP7 ADD JUMPDEST DUP5 DUP2 LT ISZERO PUSH2 0xCEE JUMPI DUP1 CALLDATALOAD PUSH8 0xFFFFFFFFFFFFFFFF DUP2 GT ISZERO PUSH2 0xCD2 JUMPI PUSH1 0x0 DUP1 DUP2 REVERT JUMPDEST PUSH2 0xCE0 DUP10 DUP7 DUP4 DUP12 ADD ADD PUSH2 0xAC1 JUMP JUMPDEST DUP5 MSTORE POP SWAP2 DUP4 ADD SWAP2 DUP4 ADD PUSH2 0xCB2 JUMP JUMPDEST POP SWAP7 SWAP6 POP POP POP POP POP POP JUMP JUMPDEST PUSH1 0x0 DUP3 PUSH1 0x1F DUP4 ADD SLT PUSH2 0xD0A JUMPI PUSH1 0x0 DUP1 REVERT JUMPDEST DUP2 CALLDATALOAD PUSH1 0x20 PUSH2 0xD1A PUSH2 0xC8A DUP4 PUSH2 0xC45 JUMP JUMPDEST DUP3 DUP2 MSTORE PUSH1 0x5 SWAP3 SWAP1 SWAP3 SHL DUP5 ADD DUP2 ADD SWAP2 DUP2 DUP2 ADD SWAP1 DUP7 DUP5 GT ISZERO PUSH2 0xD39 JUMPI PUSH1 0x0 DUP1 REVERT JUMPDEST DUP3 DUP7 ADD JUMPDEST DUP5 DUP2 LT ISZERO PUSH2 0xCEE JUMPI DUP1 CALLDATALOAD PUSH4 0xFFFFFFFF DUP2 AND DUP2 EQ PUSH2 0xD5A JUMPI PUSH1 0x0 DUP1 DUP2 REVERT JUMPDEST DUP4 MSTORE SWAP2 DUP4 ADD SWAP2 DUP4 ADD PUSH2 0xD3D JUMP JUMPDEST PUSH1 0x0 DUP3 PUSH1 0x1F DUP4 ADD SLT PUSH2 0xD78 JUMPI PUSH1 0x0 DUP1 REVERT JUMPDEST PUSH1 0x40 MLOAD PUSH1 0x40 DUP2 ADD DUP2 DUP2 LT PUSH8 0xFFFFFFFFFFFFFFFF DUP3 GT OR ISZERO PUSH2 0xD9B JUMPI PUSH2 0xD9B PUSH2 0xA51 JUMP JUMPDEST DUP1 PUSH1 0x40 MSTORE POP DUP1 PUSH1 0x40 DUP5 ADD DUP6 DUP2 GT ISZERO PUSH2 0xDB2 JUMPI PUSH1 0x0 DUP1 REVERT JUMPDEST DUP5 JUMPDEST DUP2 DUP2 LT ISZERO PUSH2 0xDD3 JUMPI PUSH2 0xDC5 DUP2 PUSH2 0xC07 JUMP JUMPDEST DUP4 MSTORE PUSH1 0x20 SWAP3 DUP4 ADD SWAP3 ADD PUSH2 0xDB4 JUMP JUMPDEST POP SWAP2 SWAP6 SWAP5 POP POP POP POP POP JUMP JUMPDEST PUSH1 0x0 PUSH1 0xA0 DUP3 CALLDATASIZE SUB SLT ISZERO PUSH2 0xDF0 JUMPI PUSH1 0x0 DUP1 REVERT JUMPDEST PUSH2 0xDF8 PUSH2 0xA67 JUMP JUMPDEST DUP3 CALLDATALOAD PUSH8 0xFFFFFFFFFFFFFFFF DUP1 DUP3 GT ISZERO PUSH2 0xE10 JUMPI PUSH1 0x0 DUP1 REVERT JUMPDEST SWAP1 DUP5 ADD SWAP1 CALLDATASIZE PUSH1 0x1F DUP4 ADD SLT PUSH2 0xE23 JUMPI PUSH1 0x0 DUP1 REVERT JUMPDEST DUP2 CALLDATALOAD PUSH1 0x20 PUSH2 0xE33 PUSH2 0xC8A DUP4 PUSH2 0xC45 JUMP JUMPDEST DUP3 DUP2 MSTORE PUSH1 0x5 SWAP3 SWAP1 SWAP3 SHL DUP5 ADD DUP2 ADD SWAP2 DUP2 DUP2 ADD SWAP1 CALLDATASIZE DUP5 GT ISZERO PUSH2 0xE52 JUMPI PUSH1 0x0 DUP1 REVERT JUMPDEST SWAP5 DUP3 ADD SWAP5 JUMPDEST DUP4 DUP7 LT ISZERO PUSH2 0xE70 JUMPI DUP6 CALLDATALOAD DUP3 MSTORE SWAP5 DUP3 ADD SWAP5 SWAP1 DUP3 ADD SWAP1 PUSH2 0xE57 JUMP JUMPDEST DUP7 MSTORE POP DUP7 DUP2 ADD CALLDATALOAD SWAP4 POP DUP3 DUP5 GT ISZERO PUSH2 0xE86 JUMPI PUSH1 0x0 DUP1 REVERT JUMPDEST PUSH2 0xE92 CALLDATASIZE DUP6 DUP10 ADD PUSH2 0xC69 JUMP JUMPDEST SWAP1 DUP6 ADD MSTORE POP PUSH1 0x40 DUP6 ADD CALLDATALOAD SWAP2 POP DUP1 DUP3 GT ISZERO PUSH2 0xEAB JUMPI PUSH1 0x0 DUP1 REVERT JUMPDEST POP PUSH2 0xEB8 CALLDATASIZE DUP3 DUP7 ADD PUSH2 0xCF9 JUMP JUMPDEST PUSH1 0x40 DUP4 ADD MSTORE POP PUSH2 0xECB CALLDATASIZE PUSH1 0x60 DUP6 ADD PUSH2 0xD67 JUMP JUMPDEST PUSH1 0x60 DUP3 ADD MSTORE SWAP3 SWAP2 POP POP JUMP JUMPDEST PUSH1 0x0 JUMPDEST DUP4 DUP2 LT ISZERO PUSH2 0xEF1 JUMPI DUP2 DUP2 ADD MLOAD DUP4 DUP3 ADD MSTORE PUSH1 0x20 ADD PUSH2 0xED9 JUMP JUMPDEST POP POP PUSH1 0x0 SWAP2 ADD MSTORE JUMP JUMPDEST PUSH1 0x0 DUP2 MLOAD DUP1 DUP5 MSTORE PUSH2 0xF12 DUP2 PUSH1 0x20 DUP7 ADD PUSH1 0x20 DUP7 ADD PUSH2 0xED6 JUMP JUMPDEST PUSH1 0x1F ADD PUSH1 0x1F NOT AND SWAP3 SWAP1 SWAP3 ADD PUSH1 0x20 ADD SWAP3 SWAP2 POP POP JUMP JUMPDEST PUSH1 0x0 DUP2 MLOAD DUP1 DUP5 MSTORE PUSH1 0x20 DUP1 DUP6 ADD DUP1 DUP2 SWAP7 POP DUP4 PUSH1 0x5 SHL DUP2 ADD SWAP2 POP DUP3 DUP7 ADD PUSH1 0x0 JUMPDEST DUP6 DUP2 LT ISZERO PUSH2 0xF6E JUMPI DUP3 DUP5 SUB DUP10 MSTORE PUSH2 0xF5C DUP5 DUP4 MLOAD PUSH2 0xEFA JUMP JUMPDEST SWAP9 DUP6 ADD SWAP9 SWAP4 POP SWAP1 DUP5 ADD SWAP1 PUSH1 0x1 ADD PUSH2 0xF44 JUMP JUMPDEST POP SWAP2 SWAP8 SWAP7 POP POP POP POP POP POP POP JUMP JUMPDEST PUSH1 0x0 DUP2 MLOAD DUP1 DUP5 MSTORE PUSH1 0x20 DUP1 DUP6 ADD SWAP5 POP DUP1 DUP5 ADD PUSH1 0x0 JUMPDEST DUP4 DUP2 LT ISZERO PUSH2 0xFB1 JUMPI DUP2 MLOAD PUSH4 0xFFFFFFFF AND DUP8 MSTORE SWAP6 DUP3 ADD SWAP6 SWAP1 DUP3 ADD SWAP1 PUSH1 0x1 ADD PUSH2 0xF8F JUMP JUMPDEST POP SWAP5 SWAP6 SWAP5 POP POP POP POP POP JUMP JUMPDEST DUP1 PUSH1 0x0 JUMPDEST PUSH1 0x2 DUP2 LT ISZERO PUSH2 0x769 JUMPI DUP2 MLOAD PUSH1 0x1 PUSH1 0x1 PUSH1 0xA0 SHL SUB AND DUP5 MSTORE PUSH1 0x20 SWAP4 DUP5 ADD SWAP4 SWAP1 SWAP2 ADD SWAP1 PUSH1 0x1 ADD PUSH2 0xFC0 JUMP JUMPDEST PUSH1 0x20 DUP1 DUP3 MSTORE DUP3 MLOAD PUSH1 0xA0 DUP4 DUP4 ADD MSTORE DUP1 MLOAD PUSH1 0xC0 DUP5 ADD DUP2 SWAP1 MSTORE PUSH1 0x0 SWAP3 SWAP2 DUP3 ADD SWAP1 DUP4 SWAP1 PUSH1 0xE0 DUP7 ADD SWAP1 JUMPDEST DUP1 DUP4 LT ISZERO PUSH2 0x102D JUMPI DUP4 MLOAD DUP3 MSTORE SWAP3 DUP5 ADD SWAP3 PUSH1 0x1 SWAP3 SWAP1 SWAP3 ADD SWAP2 SWAP1 DUP5 ADD SWAP1 PUSH2 0x100D JUMP JUMPDEST POP DUP4 DUP8 ADD MLOAD SWAP4 POP PUSH1 0x1F NOT SWAP3 POP DUP3 DUP7 DUP3 SUB ADD PUSH1 0x40 DUP8 ADD MSTORE PUSH2 0x104D DUP2 DUP6 PUSH2 0xF26 JUMP JUMPDEST SWAP4 POP POP POP PUSH1 0x40 DUP6 ADD MLOAD DUP2 DUP6 DUP5 SUB ADD PUSH1 0x60 DUP7 ADD MSTORE PUSH2 0x106A DUP4 DUP3 PUSH2 0xF7B JUMP JUMPDEST SWAP3 POP POP POP PUSH1 0x60 DUP5 ADD MLOAD PUSH2 0x1080 PUSH1 0x80 DUP6 ADD DUP3 PUSH2 0xFBC JUMP JUMPDEST POP SWAP4 SWAP3 POP POP POP JUMP JUMPDEST DUP2 DUP2 SUB DUP2 DUP2 GT ISZERO PUSH2 0x10A9 JUMPI PUSH4 0x4E487B71 PUSH1 0xE0 SHL PUSH1 0x0 MSTORE PUSH1 0x11 PUSH1 0x4 MSTORE PUSH1 0x24 PUSH1 0x0 REVERT JUMPDEST SWAP3 SWAP2 POP POP JUMP JUMPDEST PUSH1 0x60 DUP2 MSTORE PUSH1 0x0 PUSH2 0x10C2 PUSH1 0x60 DUP4 ADD DUP7 PUSH2 0xEFA JUMP JUMPDEST DUP5 PUSH1 0x20 DUP5 ADD MSTORE DUP3 DUP2 SUB PUSH1 0x40 DUP5 ADD MSTORE PUSH2 0x10DA DUP2 DUP6 PUSH2 0xEFA JUMP JUMPDEST SWAP7 SWAP6 POP POP POP POP POP POP JUMP JUMPDEST PUSH1 0x0 PUSH1 0x20 DUP3 DUP5 SUB SLT ISZERO PUSH2 0x10F6 JUMPI PUSH1 0x0 DUP1 REVERT JUMPDEST POP MLOAD SWAP2 SWAP1 POP JUMP JUMPDEST PUSH1 0x1 PUSH1 0x1 PUSH1 0xA0 SHL SUB DUP7 AND DUP2 MSTORE PUSH1 0xA0 PUSH1 0x20 DUP3 ADD DUP2 SWAP1 MSTORE PUSH1 0x0 SWAP1 PUSH2 0x1121 SWAP1 DUP4 ADD DUP8 PUSH2 0xEFA JUMP JUMPDEST DUP6 PUSH1 0x40 DUP5 ADD MSTORE DUP5 PUSH1 0x60 DUP5 ADD MSTORE DUP3 DUP2 SUB PUSH1 0x80 DUP5 ADD MSTORE PUSH2 0x113F DUP2 DUP6 PUSH2 0xEFA JUMP JUMPDEST SWAP9 SWAP8 POP POP POP POP POP POP POP POP JUMP JUMPDEST PUSH1 0x0 DUP3 MLOAD PUSH2 0x115D DUP2 DUP5 PUSH1 0x20 DUP8 ADD PUSH2 0xED6 JUMP JUMPDEST SWAP2 SWAP1 SWAP2 ADD SWAP3 SWAP2 POP POP JUMP JUMPDEST PUSH1 0x0 PUSH1 0x20 DUP3 DUP5 SUB SLT ISZERO PUSH2 0x1179 JUMPI PUSH1 0x0 DUP1 REVERT JUMPDEST DUP2 MLOAD DUP1 ISZERO ISZERO DUP2 EQ PUSH2 0xC3E JUMPI PUSH1 0x0 DUP1 REVERT INVALID LOG2 PUSH5 0x6970667358 0x22 SLT KECCAK256 0xE6 JUMPDEST SWAP5 0x5C PUSH8 0x6B0012E9FEB9715C 0xC8 SWAP12 PUSH16 0xE79863691A40F6F6262279B2E79ABA97 PUSH5 0x736F6C6343 STOP ADDMOD GT STOP CALLER "
		},
		"gasEstimates": {
			"creation": {
				"codeDepositCost": "908600",
				"executionCost": "942",
				"totalCost": "909542"
			},
			"external": {
				"entrance((uint256[],bytes[],uint32[],address[2]),bytes,uint256,uint256,bytes)": "infinite"
			},
			"internal": {
				"swapOutTokens(struct ButterCore.AccessParams memory,bytes memory,uint256,uint256,bytes memory)": "infinite"
			}
		},
		"methodIdentifiers": {
			"entrance((uint256[],bytes[],uint32[],address[2]),bytes,uint256,uint256,bytes)": "4bcc97da"
		}
	},
	"abi": [
		{
			"inputs": [
				{
					"components": [
						{
							"internalType": "uint256[]",
							"name": "amountInArr",
							"type": "uint256[]"
						},
						{
							"internalType": "bytes[]",
							"name": "paramsArr",
							"type": "bytes[]"
						},
						{
							"internalType": "uint32[]",
							"name": "routerIndex",
							"type": "uint32[]"
						},
						{
							"internalType": "address[2]",
							"name": "inputOutAddre",
							"type": "address[2]"
						}
					],
					"internalType": "struct ButterCore.AccessParams",
					"name": "swapData",
					"type": "tuple"
				},
				{
					"internalType": "bytes",
					"name": "mosData",
					"type": "bytes"
				},
				{
					"internalType": "uint256",
					"name": "amount",
					"type": "uint256"
				},
				{
					"internalType": "uint256",
					"name": "toChain",
					"type": "uint256"
				},
				{
					"internalType": "bytes",
					"name": "to",
					"type": "bytes"
				}
			],
			"name": "entrance",
			"outputs": [],
			"stateMutability": "payable",
			"type": "function"
		},
		{
			"stateMutability": "payable",
			"type": "receive"
		}
	]
}