{
  "_format": "hh-sol-artifact-1",
  "contractName": "ButterRouterBsc",
  "sourceName": "contracts/ButterRouterBsc.sol",
  "abi": [
    {
      "inputs": [
        {
          "internalType": "address",
          "name": "_admin",
          "type": "address"
        }
      ],
      "stateMutability": "nonpayable",
      "type": "constructor"
    },
    {
      "inputs": [],
      "name": "admin",
      "outputs": [
        {
          "internalType": "address",
          "name": "",
          "type": "address"
        }
      ],
      "stateMutability": "view",
      "type": "function"
    },
    {
      "inputs": [],
      "name": "butterCore",
      "outputs": [
        {
          "internalType": "address",
          "name": "",
          "type": "address"
        }
      ],
      "stateMutability": "view",
      "type": "function"
    },
    {
      "inputs": [
        {
          "components": [
            {
              "internalType": "uint256[]",
              "name": "amountInArr",
              "type": "uint256[]"
            },
            {
              "internalType": "bytes[]",
              "name": "paramsArr",
              "type": "bytes[]"
            },
            {
              "internalType": "uint32[]",
              "name": "routerIndex",
              "type": "uint32[]"
            },
            {
              "internalType": "address[2]",
              "name": "inputOutAddre",
              "type": "address[2]"
            }
          ],
          "internalType": "struct ButterCore.AccessParams",
          "name": "swapData",
          "type": "tuple"
        },
        {
          "internalType": "bytes",
          "name": "mosData",
          "type": "bytes"
        },
        {
          "internalType": "uint256",
          "name": "amount",
          "type": "uint256"
        },
        {
          "internalType": "uint256",
          "name": "toChain",
          "type": "uint256"
        },
        {
          "internalType": "bytes",
          "name": "to",
          "type": "bytes"
        }
      ],
      "name": "entrance",
      "outputs": [],
      "stateMutability": "payable",
      "type": "function"
    },
    {
      "inputs": [],
      "name": "mosAddress",
      "outputs": [
        {
          "internalType": "address",
          "name": "",
          "type": "address"
        }
      ],
      "stateMutability": "view",
      "type": "function"
    },
    {
      "inputs": [
        {
          "internalType": "address",
          "name": "_butterCore",
          "type": "address"
        }
      ],
      "name": "setButterCore",
      "outputs": [
        {
          "internalType": "bool",
          "name": "",
          "type": "bool"
        }
      ],
      "stateMutability": "nonpayable",
      "type": "function"
    },
    {
      "inputs": [
        {
          "internalType": "address",
          "name": "_mosAddress",
          "type": "address"
        }
      ],
      "name": "setMosAddress",
      "outputs": [
        {
          "internalType": "bool",
          "name": "",
          "type": "bool"
        }
      ],
      "stateMutability": "nonpayable",
      "type": "function"
    },
    {
      "stateMutability": "payable",
      "type": "receive"
    }
  ],
  "bytecode": "0x60806040523480156200001157600080fd5b5060405162002460380380620024608339818101604052810190620000379190620000e8565b806000806101000a81548173ffffffffffffffffffffffffffffffffffffffff021916908373ffffffffffffffffffffffffffffffffffffffff160217905550506200011a565b600080fd5b600073ffffffffffffffffffffffffffffffffffffffff82169050919050565b6000620000b08262000083565b9050919050565b620000c281620000a3565b8114620000ce57600080fd5b50565b600081519050620000e281620000b7565b92915050565b6000602082840312156200010157620001006200007e565b5b60006200011184828501620000d1565b91505092915050565b612336806200012a6000396000f3fe6080604052600436106100595760003560e01c80632b8b7b4b146100655780634bcc97da146100a25780637040d037146100be5780638cbafe0a146100fb578063bdff6d1e14610126578063f851a4401461015157610060565b3661006057005b600080fd5b34801561007157600080fd5b5061008c60048036038101906100879190611180565b61017c565b60405161009991906111c8565b60405180910390f35b6100bc60048036038101906100b791906113e3565b6102c7565b005b3480156100ca57600080fd5b506100e560048036038101906100e09190611180565b6104a1565b6040516100f291906111c8565b60405180910390f35b34801561010757600080fd5b506101106105ec565b60405161011d91906114c4565b60405180910390f35b34801561013257600080fd5b5061013b610612565b60405161014891906114c4565b60405180910390f35b34801561015d57600080fd5b50610166610638565b60405161017391906114c4565b60405180910390f35b60008060009054906101000a900473ffffffffffffffffffffffffffffffffffffffff1673ffffffffffffffffffffffffffffffffffffffff163373ffffffffffffffffffffffffffffffffffffffff161461020d576040517f08c379a00000000000000000000000000000000000000000000000000000000081526004016102049061153c565b60405180910390fd5b600073ffffffffffffffffffffffffffffffffffffffff168273ffffffffffffffffffffffffffffffffffffffff16141561027d576040517f08c379a0000000000000000000000000000000000000000000000000000000008152600401610274906115a8565b60405180910390fd5b81600160006101000a81548173ffffffffffffffffffffffffffffffffffffffff021916908373ffffffffffffffffffffffffffffffffffffffff16021790555060019050919050565b6000831161030a576040517f08c379a000000000000000000000000000000000000000000000000000000000815260040161030190611614565b60405180910390fd5b600073ffffffffffffffffffffffffffffffffffffffff168660600160006002811061033957610338611634565b5b60200201602081019061034c9190611180565b73ffffffffffffffffffffffffffffffffffffffff161415610409578234146103aa576040517f08c379a00000000000000000000000000000000000000000000000000000000081526004016103a1906116af565b60405180910390fd5b610404866103b790611af9565b86868080601f016020809104026020016040519081016040528093929190818152602001838380828437600081840152601f19601f8201169050808301925050505050505085858561065c565b610499565b61043e8660600160006002811061042357610422611634565b5b6020020160208101906104369190611180565b333086610e9f565b6104988661044b90611af9565b86868080601f016020809104026020016040519081016040528093929190818152602001838380828437600081840152601f19601f8201169050808301925050505050505085858561065c565b5b505050505050565b60008060009054906101000a900473ffffffffffffffffffffffffffffffffffffffff1673ffffffffffffffffffffffffffffffffffffffff163373ffffffffffffffffffffffffffffffffffffffff1614610532576040517f08c379a00000000000000000000000000000000000000000000000000000000081526004016105299061153c565b60405180910390fd5b600073ffffffffffffffffffffffffffffffffffffffff168273ffffffffffffffffffffffffffffffffffffffff1614156105a2576040517f08c379a0000000000000000000000000000000000000000000000000000000008152600401610599906115a8565b60405180910390fd5b81600260006101000a81548173ffffffffffffffffffffffffffffffffffffffff021916908373ffffffffffffffffffffffffffffffffffffffff16021790555060019050919050565b600160009054906101000a900473ffffffffffffffffffffffffffffffffffffffff1681565b600260009054906101000a900473ffffffffffffffffffffffffffffffffffffffff1681565b60008054906101000a900473ffffffffffffffffffffffffffffffffffffffff1681565b600080600073ffffffffffffffffffffffffffffffffffffffff16876060015160016002811061068f5761068e611634565b5b602002015173ffffffffffffffffffffffffffffffffffffffff161415610830574791506106fc87606001516000600281106106ce576106cd611634565b5b6020020151600260009054906101000a900473ffffffffffffffffffffffffffffffffffffffff1687610fd8565b600260009054906101000a900473ffffffffffffffffffffffffffffffffffffffff1673ffffffffffffffffffffffffffffffffffffffff166342b28308886040518263ffffffff1660e01b81526004016107579190611eee565b600060405180830381600087803b15801561077157600080fd5b505af1158015610785573d6000803e3d6000fd5b5050505081476107959190611f3f565b9050600160009054906101000a900473ffffffffffffffffffffffffffffffffffffffff1673ffffffffffffffffffffffffffffffffffffffff1663d5351aaa823386888b6040518663ffffffff1660e01b81526004016107f99493929190611fcc565b6000604051808303818588803b15801561081257600080fd5b505af1158015610826573d6000803e3d6000fd5b5050505050610e96565b600073ffffffffffffffffffffffffffffffffffffffff1687606001516000600281106108605761085f611634565b5b602002015173ffffffffffffffffffffffffffffffffffffffff161415610b6957866060015160016002811061089957610898611634565b5b602002015173ffffffffffffffffffffffffffffffffffffffff166370a08231306040518263ffffffff1660e01b81526004016108d691906114c4565b60206040518083038186803b1580156108ee57600080fd5b505afa158015610902573d6000803e3d6000fd5b505050506040513d601f19601f820116820180604052508101906109269190612034565b9150600260009054906101000a900473ffffffffffffffffffffffffffffffffffffffff1673ffffffffffffffffffffffffffffffffffffffff166342b2830886896040518363ffffffff1660e01b81526004016109849190611eee565b6000604051808303818588803b15801561099d57600080fd5b505af11580156109b1573d6000803e3d6000fd5b50505050508187606001516001600281106109cf576109ce611634565b5b602002015173ffffffffffffffffffffffffffffffffffffffff166370a08231306040518263ffffffff1660e01b8152600401610a0c91906114c4565b60206040518083038186803b158015610a2457600080fd5b505afa158015610a38573d6000803e3d6000fd5b505050506040513d601f19601f82011682018060405250810190610a5c9190612034565b610a669190611f3f565b9050610ab18760600151600160028110610a8357610a82611634565b5b6020020151600160009054906101000a900473ffffffffffffffffffffffffffffffffffffffff1683610fd8565b600160009054906101000a900473ffffffffffffffffffffffffffffffffffffffff1673ffffffffffffffffffffffffffffffffffffffff1663b899f904338960600151600160028110610b0857610b07611634565b5b60200201518685898c6040518763ffffffff1660e01b8152600401610b3296959493929190612061565b600060405180830381600087803b158015610b4c57600080fd5b505af1158015610b60573d6000803e3d6000fd5b50505050610e95565b8660600151600160028110610b8157610b80611634565b5b602002015173ffffffffffffffffffffffffffffffffffffffff166370a08231306040518263ffffffff1660e01b8152600401610bbe91906114c4565b60206040518083038186803b158015610bd657600080fd5b505afa158015610bea573d6000803e3d6000fd5b505050506040513d601f19601f82011682018060405250810190610c0e9190612034565b9150610c598760600151600060028110610c2b57610c2a611634565b5b6020020151600160009054906101000a900473ffffffffffffffffffffffffffffffffffffffff1687610fd8565b600260009054906101000a900473ffffffffffffffffffffffffffffffffffffffff1673ffffffffffffffffffffffffffffffffffffffff166342b28308886040518263ffffffff1660e01b8152600401610cb49190611eee565b600060405180830381600087803b158015610cce57600080fd5b505af1158015610ce2573d6000803e3d6000fd5b50505050818760600151600160028110610cff57610cfe611634565b5b602002015173ffffffffffffffffffffffffffffffffffffffff166370a08231306040518263ffffffff1660e01b8152600401610d3c91906114c4565b60206040518083038186803b158015610d5457600080fd5b505afa158015610d68573d6000803e3d6000fd5b505050506040513d601f19601f82011682018060405250810190610d8c9190612034565b610d969190611f3f565b9050610de18760600151600160028110610db357610db2611634565b5b6020020151600160009054906101000a900473ffffffffffffffffffffffffffffffffffffffff1683610fd8565b600160009054906101000a900473ffffffffffffffffffffffffffffffffffffffff1673ffffffffffffffffffffffffffffffffffffffff1663b899f904338960600151600160028110610e3857610e37611634565b5b60200201518685898c6040518763ffffffff1660e01b8152600401610e6296959493929190612061565b600060405180830381600087803b158015610e7c57600080fd5b505af1158015610e90573d6000803e3d6000fd5b505050505b5b50505050505050565b6000808573ffffffffffffffffffffffffffffffffffffffff166323b872dd868686604051602401610ed3939291906120d0565b6040516020818303038152906040529060e01b6020820180517bffffffffffffffffffffffffffffffffffffffffffffffffffffffff8381831617835250505050604051610f219190612143565b6000604051808303816000865af19150503d8060008114610f5e576040519150601f19603f3d011682016040523d82523d6000602084013e610f63565b606091505b5091509150818015610f915750600081511480610f90575080806020019051810190610f8f9190612186565b5b5b610fd0576040517f08c379a0000000000000000000000000000000000000000000000000000000008152600401610fc790612225565b60405180910390fd5b505050505050565b6000808473ffffffffffffffffffffffffffffffffffffffff1663095ea7b3858560405160240161100a929190612245565b6040516020818303038152906040529060e01b6020820180517bffffffffffffffffffffffffffffffffffffffffffffffffffffffff83818316178352505050506040516110589190612143565b6000604051808303816000865af19150503d8060008114611095576040519150601f19603f3d011682016040523d82523d6000602084013e61109a565b606091505b50915091508180156110c857506000815114806110c75750808060200190518101906110c69190612186565b5b5b611107576040517f08c379a00000000000000000000000000000000000000000000000000000000081526004016110fe906122e0565b60405180910390fd5b5050505050565b6000604051905090565b600080fd5b600080fd5b600073ffffffffffffffffffffffffffffffffffffffff82169050919050565b600061114d82611122565b9050919050565b61115d81611142565b811461116857600080fd5b50565b60008135905061117a81611154565b92915050565b60006020828403121561119657611195611118565b5b60006111a48482850161116b565b91505092915050565b60008115159050919050565b6111c2816111ad565b82525050565b60006020820190506111dd60008301846111b9565b92915050565b600080fd5b600060a082840312156111fe576111fd6111e3565b5b81905092915050565b600080fd5b600080fd5b600080fd5b60008083601f84011261122c5761122b611207565b5b8235905067ffffffffffffffff8111156112495761124861120c565b5b60208301915083600182028301111561126557611264611211565b5b9250929050565b6000819050919050565b61127f8161126c565b811461128a57600080fd5b50565b60008135905061129c81611276565b92915050565b600080fd5b6000601f19601f8301169050919050565b7f4e487b7100000000000000000000000000000000000000000000000000000000600052604160045260246000fd5b6112f0826112a7565b810181811067ffffffffffffffff8211171561130f5761130e6112b8565b5b80604052505050565b600061132261110e565b905061132e82826112e7565b919050565b600067ffffffffffffffff82111561134e5761134d6112b8565b5b611357826112a7565b9050602081019050919050565b82818337600083830152505050565b600061138661138184611333565b611318565b9050828152602081018484840111156113a2576113a16112a2565b5b6113ad848285611364565b509392505050565b600082601f8301126113ca576113c9611207565b5b81356113da848260208601611373565b91505092915050565b60008060008060008060a08789031215611400576113ff611118565b5b600087013567ffffffffffffffff81111561141e5761141d61111d565b5b61142a89828a016111e8565b965050602087013567ffffffffffffffff81111561144b5761144a61111d565b5b61145789828a01611216565b9550955050604061146a89828a0161128d565b935050606061147b89828a0161128d565b925050608087013567ffffffffffffffff81111561149c5761149b61111d565b5b6114a889828a016113b5565b9150509295509295509295565b6114be81611142565b82525050565b60006020820190506114d960008301846114b5565b92915050565b600082825260208201905092915050565b7f43616c6c6572206973206e6f7420616e206f776e657200000000000000000000600082015250565b60006115266016836114df565b9150611531826114f0565b602082019050919050565b6000602082019050818103600083015261155581611519565b9050919050565b7f416464726573732063616e6e6f74206265207a65726f00000000000000000000600082015250565b60006115926016836114df565b915061159d8261155c565b602082019050919050565b600060208201905081810360008301526115c181611585565b9050919050565b7f53656e64696e672076616c7565206973207a65726f0000000000000000000000600082015250565b60006115fe6015836114df565b9150611609826115c8565b602082019050919050565b6000602082019050818103600083015261162d816115f1565b9050919050565b7f4e487b7100000000000000000000000000000000000000000000000000000000600052603260045260246000fd5b7f4e6f7420656e6f756768206d6f6e657900000000000000000000000000000000600082015250565b60006116996010836114df565b91506116a482611663565b602082019050919050565b600060208201905081810360008301526116c88161168c565b9050919050565b600080fd5b600080fd5b600067ffffffffffffffff8211156116f4576116f36112b8565b5b602082029050602081019050919050565b6000611718611713846116d9565b611318565b9050808382526020820190506020840283018581111561173b5761173a611211565b5b835b818110156117645780611750888261128d565b84526020840193505060208101905061173d565b5050509392505050565b600082601f83011261178357611782611207565b5b8135611793848260208601611705565b91505092915050565b600067ffffffffffffffff8211156117b7576117b66112b8565b5b602082029050602081019050919050565b60006117db6117d68461179c565b611318565b905080838252602082019050602084028301858111156117fe576117fd611211565b5b835b8181101561184557803567ffffffffffffffff81111561182357611822611207565b5b80860161183089826113b5565b85526020850194505050602081019050611800565b5050509392505050565b600082601f83011261186457611863611207565b5b81356118748482602086016117c8565b91505092915050565b600067ffffffffffffffff821115611898576118976112b8565b5b602082029050602081019050919050565b600063ffffffff82169050919050565b6118c2816118a9565b81146118cd57600080fd5b50565b6000813590506118df816118b9565b92915050565b60006118f86118f38461187d565b611318565b9050808382526020820190506020840283018581111561191b5761191a611211565b5b835b81811015611944578061193088826118d0565b84526020840193505060208101905061191d565b5050509392505050565b600082601f83011261196357611962611207565b5b81356119738482602086016118e5565b91505092915050565b600067ffffffffffffffff821115611997576119966112b8565b5b602082029050919050565b60006119b56119b08461197c565b611318565b905080602084028301858111156119cf576119ce611211565b5b835b818110156119f857806119e4888261116b565b8452602084019350506020810190506119d1565b5050509392505050565b600082601f830112611a1757611a16611207565b5b6002611a248482856119a2565b91505092915050565b600060a08284031215611a4357611a426116cf565b5b611a4d6080611318565b9050600082013567ffffffffffffffff811115611a6d57611a6c6116d4565b5b611a798482850161176e565b600083015250602082013567ffffffffffffffff811115611a9d57611a9c6116d4565b5b611aa98482850161184f565b602083015250604082013567ffffffffffffffff811115611acd57611acc6116d4565b5b611ad98482850161194e565b6040830152506060611aed84828501611a02565b60608301525092915050565b6000611b053683611a2d565b9050919050565b600081519050919050565b600082825260208201905092915050565b6000819050602082019050919050565b611b418161126c565b82525050565b6000611b538383611b38565b60208301905092915050565b6000602082019050919050565b6000611b7782611b0c565b611b818185611b17565b9350611b8c83611b28565b8060005b83811015611bbd578151611ba48882611b47565b9750611baf83611b5f565b925050600181019050611b90565b5085935050505092915050565b600081519050919050565b600082825260208201905092915050565b6000819050602082019050919050565b600081519050919050565b600082825260208201905092915050565b60005b83811015611c30578082015181840152602081019050611c15565b83811115611c3f576000848401525b50505050565b6000611c5082611bf6565b611c5a8185611c01565b9350611c6a818560208601611c12565b611c73816112a7565b840191505092915050565b6000611c8a8383611c45565b905092915050565b6000602082019050919050565b6000611caa82611bca565b611cb48185611bd5565b935083602082028501611cc685611be6565b8060005b85811015611d025784840389528151611ce38582611c7e565b9450611cee83611c92565b925060208a01995050600181019050611cca565b50829750879550505050505092915050565b600081519050919050565b600082825260208201905092915050565b6000819050602082019050919050565b611d49816118a9565b82525050565b6000611d5b8383611d40565b60208301905092915050565b6000602082019050919050565b6000611d7f82611d14565b611d898185611d1f565b9350611d9483611d30565b8060005b83811015611dc5578151611dac8882611d4f565b9750611db783611d67565b925050600181019050611d98565b5085935050505092915050565b600060029050919050565b600081905092915050565b6000819050919050565b611dfb81611142565b82525050565b6000611e0d8383611df2565b60208301905092915050565b6000602082019050919050565b611e2f81611dd2565b611e398184611ddd565b9250611e4482611de8565b8060005b83811015611e75578151611e5c8782611e01565b9650611e6783611e19565b925050600181019050611e48565b505050505050565b600060a0830160008301518482036000860152611e9a8282611b6c565b91505060208301518482036020860152611eb48282611c9f565b91505060408301518482036040860152611ece8282611d74565b9150506060830151611ee36060860182611e26565b508091505092915050565b60006020820190508181036000830152611f088184611e7d565b905092915050565b7f4e487b7100000000000000000000000000000000000000000000000000000000600052601160045260246000fd5b6000611f4a8261126c565b9150611f558361126c565b925082821015611f6857611f67611f10565b5b828203905092915050565b600082825260208201905092915050565b6000611f8f82611bf6565b611f998185611f73565b9350611fa9818560208601611c12565b611fb2816112a7565b840191505092915050565b611fc68161126c565b82525050565b6000608082019050611fe160008301876114b5565b8181036020830152611ff38186611f84565b90506120026040830185611fbd565b81810360608301526120148184611f84565b905095945050505050565b60008151905061202e81611276565b92915050565b60006020828403121561204a57612049611118565b5b60006120588482850161201f565b91505092915050565b600060c08201905061207660008301896114b5565b61208360208301886114b5565b81810360408301526120958187611f84565b90506120a46060830186611fbd565b6120b16080830185611fbd565b81810360a08301526120c38184611f84565b9050979650505050505050565b60006060820190506120e560008301866114b5565b6120f260208301856114b5565b6120ff6040830184611fbd565b949350505050565b600081905092915050565b600061211d82611bf6565b6121278185612107565b9350612137818560208601611c12565b80840191505092915050565b600061214f8284612112565b915081905092915050565b612163816111ad565b811461216e57600080fd5b50565b6000815190506121808161215a565b92915050565b60006020828403121561219c5761219b611118565b5b60006121aa84828501612171565b91505092915050565b7f5472616e7366657248656c7065723a3a7472616e7366657246726f6d3a20747260008201527f616e7366657246726f6d206661696c6564000000000000000000000000000000602082015250565b600061220f6031836114df565b915061221a826121b3565b604082019050919050565b6000602082019050818103600083015261223e81612202565b9050919050565b600060408201905061225a60008301856114b5565b6122676020830184611fbd565b9392505050565b7f5472616e7366657248656c7065723a3a73616665417070726f76653a2061707060008201527f726f7665206661696c6564000000000000000000000000000000000000000000602082015250565b60006122ca602b836114df565b91506122d58261226e565b604082019050919050565b600060208201905081810360008301526122f9816122bd565b905091905056fea2646970667358221220711546c4b2463fd0f0426adf6a3eee6899ef4429aedde238a0361edbc8a239f764736f6c63430008090033",
  "linkReferences": {},
  "deployedLinkReferences": {}
}